{
  "contractName": "designVoting",
  "abi": [
    {
      "anonymous": false,
      "inputs": [
        {
          "indexed": false,
          "internalType": "bytes32",
          "name": "fileHash",
          "type": "bytes32"
        },
        {
          "indexed": false,
          "internalType": "uint256",
          "name": "designNo",
          "type": "uint256"
        },
        {
          "indexed": false,
          "internalType": "address",
          "name": "creator",
          "type": "address"
        }
      ],
      "name": "newDesignAvailable",
      "type": "event"
    },
    {
      "anonymous": false,
      "inputs": [
        {
          "indexed": false,
          "internalType": "address",
          "name": "player",
          "type": "address"
        },
        {
          "indexed": false,
          "internalType": "bool",
          "name": "status",
          "type": "bool"
        }
      ],
      "name": "newPlayerAddition",
      "type": "event"
    },
    {
      "anonymous": false,
      "inputs": [
        {
          "indexed": false,
          "internalType": "address",
          "name": "player",
          "type": "address"
        },
        {
          "indexed": false,
          "internalType": "uint256",
          "name": "design",
          "type": "uint256"
        },
        {
          "indexed": false,
          "internalType": "bool",
          "name": "status",
          "type": "bool"
        }
      ],
      "name": "newPlayerRegistration",
      "type": "event"
    },
    {
      "anonymous": false,
      "inputs": [
        {
          "indexed": false,
          "internalType": "uint256",
          "name": "design",
          "type": "uint256"
        },
        {
          "indexed": false,
          "internalType": "address",
          "name": "player",
          "type": "address"
        }
      ],
      "name": "playerCommitted",
      "type": "event"
    },
    {
      "anonymous": false,
      "inputs": [
        {
          "indexed": false,
          "internalType": "uint256",
          "name": "design",
          "type": "uint256"
        },
        {
          "indexed": false,
          "internalType": "address",
          "name": "player",
          "type": "address"
        }
      ],
      "name": "playerDesignReceived",
      "type": "event"
    },
    {
      "anonymous": false,
      "inputs": [
        {
          "indexed": false,
          "internalType": "uint256",
          "name": "design",
          "type": "uint256"
        },
        {
          "indexed": false,
          "internalType": "address",
          "name": "player",
          "type": "address"
        }
      ],
      "name": "playerRevealed",
      "type": "event"
    },
    {
      "anonymous": false,
      "inputs": [
        {
          "indexed": false,
          "internalType": "bytes32",
          "name": "fileHash",
          "type": "bytes32"
        },
        {
          "indexed": false,
          "internalType": "uint256",
          "name": "designNo",
          "type": "uint256"
        },
        {
          "indexed": false,
          "internalType": "address",
          "name": "creator",
          "type": "address"
        }
      ],
      "name": "resultCalculated",
      "type": "event"
    },
    {
      "anonymous": false,
      "inputs": [
        {
          "indexed": false,
          "internalType": "uint256",
          "name": "_output",
          "type": "uint256"
        }
      ],
      "name": "tempOutput",
      "type": "event"
    },
    {
      "anonymous": false,
      "inputs": [
        {
          "indexed": false,
          "internalType": "int256",
          "name": "result",
          "type": "int256"
        }
      ],
      "name": "votingResult",
      "type": "event"
    },
    {
      "inputs": [
        {
          "internalType": "uint256",
          "name": "_reward",
          "type": "uint256"
        }
      ],
      "name": "setReward",
      "outputs": [],
      "stateMutability": "nonpayable",
      "type": "function"
    },
    {
      "inputs": [
        {
          "internalType": "uint256",
          "name": "_penalty",
          "type": "uint256"
        }
      ],
      "name": "setPenalty",
      "outputs": [],
      "stateMutability": "nonpayable",
      "type": "function"
    },
    {
      "inputs": [
        {
          "internalType": "uint256",
          "name": "_expiry",
          "type": "uint256"
        }
      ],
      "name": "setExpiry",
      "outputs": [],
      "stateMutability": "nonpayable",
      "type": "function"
    },
    {
      "inputs": [
        {
          "internalType": "uint256",
          "name": "_reveal",
          "type": "uint256"
        }
      ],
      "name": "setReveal",
      "outputs": [],
      "stateMutability": "nonpayable",
      "type": "function"
    },
    {
      "inputs": [],
      "name": "getReward",
      "outputs": [
        {
          "internalType": "uint256",
          "name": "",
          "type": "uint256"
        }
      ],
      "stateMutability": "view",
      "type": "function"
    },
    {
      "inputs": [],
      "name": "getPenalty",
      "outputs": [
        {
          "internalType": "uint256",
          "name": "",
          "type": "uint256"
        }
      ],
      "stateMutability": "view",
      "type": "function"
    },
    {
      "inputs": [],
      "name": "getExpiry",
      "outputs": [
        {
          "internalType": "uint256",
          "name": "",
          "type": "uint256"
        }
      ],
      "stateMutability": "view",
      "type": "function"
    },
    {
      "inputs": [],
      "name": "getReveal",
      "outputs": [
        {
          "internalType": "uint256",
          "name": "",
          "type": "uint256"
        }
      ],
      "stateMutability": "view",
      "type": "function"
    },
    {
      "inputs": [
        {
          "internalType": "bytes32",
          "name": "_fileHash",
          "type": "bytes32"
        },
        {
          "internalType": "uint256",
          "name": "_timestamp",
          "type": "uint256"
        },
        {
          "internalType": "uint256",
          "name": "_expiry",
          "type": "uint256"
        },
        {
          "internalType": "uint256",
          "name": "_commitment",
          "type": "uint256"
        },
        {
          "internalType": "address",
          "name": "_manager",
          "type": "address"
        }
      ],
      "name": "announce",
      "outputs": [],
      "stateMutability": "payable",
      "type": "function"
    },
    {
      "inputs": [],
      "name": "getNumDesignes",
      "outputs": [
        {
          "internalType": "uint256",
          "name": "",
          "type": "uint256"
        }
      ],
      "stateMutability": "view",
      "type": "function"
    },
    {
      "inputs": [
        {
          "internalType": "uint256",
          "name": "_index",
          "type": "uint256"
        }
      ],
      "name": "getDesigne",
      "outputs": [
        {
          "components": [
            {
              "internalType": "bytes32",
              "name": "filehash",
              "type": "bytes32"
            },
            {
              "internalType": "address",
              "name": "vendor",
              "type": "address"
            },
            {
              "internalType": "uint256",
              "name": "timestamp",
              "type": "uint256"
            },
            {
              "internalType": "uint256",
              "name": "expiry",
              "type": "uint256"
            },
            {
              "internalType": "uint256",
              "name": "balance",
              "type": "uint256"
            },
            {
              "internalType": "address",
              "name": "manager",
              "type": "address"
            }
          ],
          "internalType": "struct designVoting.designState",
          "name": "",
          "type": "tuple"
        }
      ],
      "stateMutability": "view",
      "type": "function"
    },
    {
      "inputs": [
        {
          "internalType": "bytes32",
          "name": "_hashMsg",
          "type": "bytes32"
        },
        {
          "internalType": "bytes",
          "name": "_signature",
          "type": "bytes"
        }
      ],
      "name": "addPlayer",
      "outputs": [],
      "stateMutability": "nonpayable",
      "type": "function"
    },
    {
      "inputs": [],
      "name": "getNumPlayers",
      "outputs": [
        {
          "internalType": "uint256",
          "name": "",
          "type": "uint256"
        }
      ],
      "stateMutability": "view",
      "type": "function"
    },
    {
      "inputs": [],
      "name": "getPlayerAddresses",
      "outputs": [
        {
          "internalType": "address[]",
          "name": "",
          "type": "address[]"
        }
      ],
      "stateMutability": "view",
      "type": "function"
    },
    {
      "inputs": [
        {
          "internalType": "address",
          "name": "_playerAddress",
          "type": "address"
        }
      ],
      "name": "getPlayer",
      "outputs": [
        {
          "components": [
            {
              "internalType": "int256",
              "name": "reputation",
              "type": "int256"
            },
            {
              "internalType": "uint256",
              "name": "weight",
              "type": "uint256"
            },
            {
              "internalType": "bytes32[]",
              "name": "commitments",
              "type": "bytes32[]"
            },
            {
              "internalType": "int256[]",
              "name": "votes",
              "type": "int256[]"
            },
            {
              "internalType": "bool[]",
              "name": "received",
              "type": "bool[]"
            },
            {
              "internalType": "uint256",
              "name": "balance",
              "type": "uint256"
            }
          ],
          "internalType": "struct designVoting.playerState",
          "name": "",
          "type": "tuple"
        }
      ],
      "stateMutability": "view",
      "type": "function"
    },
    {
      "inputs": [
        {
          "internalType": "bytes32",
          "name": "_hashMsg",
          "type": "bytes32"
        },
        {
          "internalType": "bytes",
          "name": "_signature",
          "type": "bytes"
        },
        {
          "internalType": "uint256",
          "name": "_designNo",
          "type": "uint256"
        },
        {
          "internalType": "uint256",
          "name": "_commitment",
          "type": "uint256"
        }
      ],
      "name": "register",
      "outputs": [],
      "stateMutability": "payable",
      "type": "function"
    },
    {
      "inputs": [
        {
          "internalType": "uint256",
          "name": "_designNo",
          "type": "uint256"
        }
      ],
      "name": "getNumRegPlayers",
      "outputs": [
        {
          "internalType": "uint256",
          "name": "",
          "type": "uint256"
        }
      ],
      "stateMutability": "view",
      "type": "function"
    },
    {
      "inputs": [
        {
          "internalType": "uint256",
          "name": "_designNo",
          "type": "uint256"
        }
      ],
      "name": "getRegPlayerAddresses",
      "outputs": [
        {
          "internalType": "address[]",
          "name": "",
          "type": "address[]"
        }
      ],
      "stateMutability": "view",
      "type": "function"
    },
    {
      "inputs": [
        {
          "internalType": "uint256",
          "name": "_designNo",
          "type": "uint256"
        },
        {
          "internalType": "address",
          "name": "_playerAddress",
          "type": "address"
        }
      ],
      "name": "setReceived",
      "outputs": [],
      "stateMutability": "payable",
      "type": "function"
    },
    {
      "inputs": [
        {
          "internalType": "uint256",
          "name": "_designNo",
          "type": "uint256"
        },
        {
          "internalType": "bytes32",
          "name": "_cryptoCommitment",
          "type": "bytes32"
        },
        {
          "internalType": "uint256",
          "name": "_timestamp",
          "type": "uint256"
        }
      ],
      "name": "commit",
      "outputs": [],
      "stateMutability": "nonpayable",
      "type": "function"
    },
    {
      "inputs": [
        {
          "internalType": "uint256",
          "name": "_designNo",
          "type": "uint256"
        },
        {
          "internalType": "int256",
          "name": "_vote",
          "type": "int256"
        },
        {
          "internalType": "bytes32",
          "name": "_nonce",
          "type": "bytes32"
        },
        {
          "internalType": "uint256",
          "name": "_timestamp",
          "type": "uint256"
        }
      ],
      "name": "reveal",
      "outputs": [],
      "stateMutability": "nonpayable",
      "type": "function"
    },
    {
      "inputs": [
        {
          "internalType": "uint256",
          "name": "_designNo",
          "type": "uint256"
        },
        {
          "internalType": "uint256",
          "name": "_timestamp",
          "type": "uint256"
        }
      ],
      "name": "calculateResult",
      "outputs": [],
      "stateMutability": "nonpayable",
      "type": "function"
    },
    {
      "inputs": [
        {
          "internalType": "uint256",
          "name": "index",
          "type": "uint256"
        }
      ],
      "name": "storedValue",
      "outputs": [],
      "stateMutability": "nonpayable",
      "type": "function"
    }
  ],
  "bytecode": "0x6080604052670de0b6b3a7640000600055670de0b6b3a7640000600155610708600255610708600355600060085534801561003957600080fd5b506134a8806100496000396000f3fe6080604052600436106101405760003560e01c8063724d4924116100b6578063c9e959741161006f578063c9e9597414610437578063e56e56db14610453578063f20f8e881461047e578063f61c266b1461049a578063fbad1813146104c5578063fbc32c60146104ee57610140565b8063724d4924146103295780637f0089ff146103545780638bcad6721461037d578063a65a9eca146103a8578063ad498d7c146103e5578063c50c81861461040e57610140565b806353093048116101085780635309304814610207578063532af7d21461024457806355c9e9261461026d5780635af97082146102985780635c12cd4b146102c35780636fc4b2de1461030057610140565b806301cceb381461014557806307a9594a1461016e578063293be4561461018a5780633d18b912146101b35780634a4b674a146101de575b600080fd5b34801561015157600080fd5b5061016c60048036038101906101679190612328565b61052b565b005b61018860048036038101906101839190612236565b610535565b005b34801561019657600080fd5b506101b160048036038101906101ac9190612328565b610a28565b005b3480156101bf57600080fd5b506101c8610a32565b6040516101d59190613150565b60405180910390f35b3480156101ea57600080fd5b5061020560048036038101906102009190612328565b610a3c565b005b34801561021357600080fd5b5061022e60048036038101906102299190612328565b610a46565b60405161023b9190613113565b60405180910390f35b34801561025057600080fd5b5061026b6004803603810190610266919061243f565b610b47565b005b34801561027957600080fd5b50610282611399565b60405161028f9190613150565b60405180910390f35b3480156102a457600080fd5b506102ad6113a6565b6040516102ba9190613150565b60405180910390f35b3480156102cf57600080fd5b506102ea60048036038101906102e591906121b9565b6113b0565b6040516102f7919061312e565b60405180910390f35b34801561030c57600080fd5b50610327600480360381019061032291906121e2565b611554565b005b34801561033557600080fd5b5061033e611809565b60405161034b9190612e9a565b60405180910390f35b34801561036057600080fd5b5061037b60048036038101906103769190612328565b611897565b005b34801561038957600080fd5b5061039261189a565b60405161039f9190613150565b60405180910390f35b3480156103b457600080fd5b506103cf60048036038101906103ca9190612328565b6118a4565b6040516103dc9190613150565b60405180910390f35b3480156103f157600080fd5b5061040c600480360381019061040791906123dc565b6118c4565b005b34801561041a57600080fd5b5061043560048036038101906104309190612328565b611a81565b005b610451600480360381019061044c9190612351565b611a8b565b005b34801561045f57600080fd5b50610468611be4565b6040516104759190613150565b60405180910390f35b610498600480360381019061049391906122b1565b611bed565b005b3480156104a657600080fd5b506104af611dde565b6040516104bc9190613150565b60405180910390f35b3480156104d157600080fd5b506104ec60048036038101906104e7919061238d565b611de8565b005b3480156104fa57600080fd5b5061051560048036038101906105109190612328565b611f92565b6040516105229190612e9a565b60405180910390f35b8060028190555050565b6001600a60003373ffffffffffffffffffffffffffffffffffffffff1673ffffffffffffffffffffffffffffffffffffffff16815260200190815260200160002054146105b7576040517f08c379a00000000000000000000000000000000000000000000000000000000081526004016105ae90613053565b60405180910390fd5b60008060006105c586612033565b92509250925060606040518060400160405280601c81526020017f19457468657265756d205369676e6564204d6573736167653a0a33320000000081525090506000818960405160200161061a929190612de6565b6040516020818303038152906040528051906020012090503373ffffffffffffffffffffffffffffffffffffffff16600182601b880187876040516000815260200160405260405161066f9493929190612ef3565b6020604051602081039080840390855afa158015610691573d6000803e3d6000fd5b5050506020604051035173ffffffffffffffffffffffffffffffffffffffff16146106f1576040517f08c379a00000000000000000000000000000000000000000000000000000000081526004016106e890613013565b60405180910390fd5b60008611610734576040517f08c379a000000000000000000000000000000000000000000000000000000000815260040161072b90613073565b60405180910390fd5b853414610776576040517f08c379a000000000000000000000000000000000000000000000000000000000815260040161076d90612fd3565b60405180910390fd5b6000548610156107bb576040517f08c379a00000000000000000000000000000000000000000000000000000000081526004016107b290612ff3565b60405180910390fd5b6001546007600089815260200190815260200160002060040154816107dc57fe5b04600660008981526020019081526020016000208054905010610834576040517f08c379a000000000000000000000000000000000000000000000000000000000815260040161082b906130f3565b60405180910390fd5b60006005600089815260200190815260200160002060003373ffffffffffffffffffffffffffffffffffffffff1673ffffffffffffffffffffffffffffffffffffffff16815260200190815260200160002054146108c7576040517f08c379a00000000000000000000000000000000000000000000000000000000081526004016108be90612f93565b60405180910390fd5b60016005600089815260200190815260200160002060003373ffffffffffffffffffffffffffffffffffffffff1673ffffffffffffffffffffffffffffffffffffffff1681526020019081526020016000208190555060066000888152602001908152602001600020339080600181540180825580915050600190039060005260206000200160009091909190916101000a81548173ffffffffffffffffffffffffffffffffffffffff021916908373ffffffffffffffffffffffffffffffffffffffff16021790555034600960003373ffffffffffffffffffffffffffffffffffffffff1673ffffffffffffffffffffffffffffffffffffffff168152602001908152602001600020600501600082825401925050819055507f5f142c525761e989ef9a126c95a342ee74c720a7272ea67127ed34660df2d7dc33886001604051610a1593929190612e63565b60405180910390a1505050505050505050565b8060018190555050565b6000600154905090565b8060008190555050565b610a4e612076565b600760008381526020019081526020016000206040518060c0016040529081600082015481526020016001820160009054906101000a900473ffffffffffffffffffffffffffffffffffffffff1673ffffffffffffffffffffffffffffffffffffffff1673ffffffffffffffffffffffffffffffffffffffff1681526020016002820154815260200160038201548152602001600482015481526020016005820160009054906101000a900473ffffffffffffffffffffffffffffffffffffffff1673ffffffffffffffffffffffffffffffffffffffff1673ffffffffffffffffffffffffffffffffffffffff16815250509050919050565b600354600254600760008581526020019081526020016000206002015401018111610ba7576040517f08c379a0000000000000000000000000000000000000000000000000000000008152600401610b9e90612f73565b60405180910390fd5b60008060005b6006600086815260200190815260200160002080549050811015610eaf5760096000600660008881526020019081526020016000208381548110610bed57fe5b9060005260206000200160009054906101000a900473ffffffffffffffffffffffffffffffffffffffff1673ffffffffffffffffffffffffffffffffffffffff1673ffffffffffffffffffffffffffffffffffffffff1681526020019081526020016000206000015460096000600660008981526020019081526020016000208481548110610c7857fe5b9060005260206000200160009054906101000a900473ffffffffffffffffffffffffffffffffffffffff1673ffffffffffffffffffffffffffffffffffffffff1673ffffffffffffffffffffffffffffffffffffffff1681526020019081526020016000206001015460096000600660008a81526020019081526020016000208581548110610d0357fe5b9060005260206000200160009054906101000a900473ffffffffffffffffffffffffffffffffffffffff1673ffffffffffffffffffffffffffffffffffffffff1673ffffffffffffffffffffffffffffffffffffffff1681526020019081526020016000206003018781548110610d7657fe5b906000526020600020015402028301925060096000600660008881526020019081526020016000208381548110610da957fe5b9060005260206000200160009054906101000a900473ffffffffffffffffffffffffffffffffffffffff1673ffffffffffffffffffffffffffffffffffffffff1673ffffffffffffffffffffffffffffffffffffffff1681526020019081526020016000206000015460096000600660008981526020019081526020016000208481548110610e3457fe5b9060005260206000200160009054906101000a900473ffffffffffffffffffffffffffffffffffffffff1673ffffffffffffffffffffffffffffffffffffffff1673ffffffffffffffffffffffffffffffffffffffff1681526020019081526020016000206001015402820191508080600101915050610bad565b5060008160020282840181610ec057fe5b079050600082821315610ed65760019050610f03565b82821215610f02577fffffffffffffffffffffffffffffffffffffffffffffffffffffffffffffffff90505b5b60005b60066000888152602001908152602001600020805490508110156110fa578160096000600660008b81526020019081526020016000208481548110610f4757fe5b9060005260206000200160009054906101000a900473ffffffffffffffffffffffffffffffffffffffff1673ffffffffffffffffffffffffffffffffffffffff1673ffffffffffffffffffffffffffffffffffffffff1681526020019081526020016000206003018881548110610fba57fe5b90600052602060002001540260096000600660008b81526020019081526020016000208481548110610fe857fe5b9060005260206000200160009054906101000a900473ffffffffffffffffffffffffffffffffffffffff1673ffffffffffffffffffffffffffffffffffffffff1673ffffffffffffffffffffffffffffffffffffffff16815260200190815260200160002060000181905550600160096000600660008b8152602001908152602001600020848154811061107857fe5b9060005260206000200160009054906101000a900473ffffffffffffffffffffffffffffffffffffffff1673ffffffffffffffffffffffffffffffffffffffff1673ffffffffffffffffffffffffffffffffffffffff168152602001908152602001600020600101600082825401925050819055508080600101915050610f06565b5060005b60066000888152602001908152602001600020805490508110156113595760018260096000600660008c8152602001908152602001600020858154811061114157fe5b9060005260206000200160009054906101000a900473ffffffffffffffffffffffffffffffffffffffff1673ffffffffffffffffffffffffffffffffffffffff1673ffffffffffffffffffffffffffffffffffffffff16815260200190815260200160002060030189815481106111b457fe5b906000526020600020015402141561128b5760015460096000600660008b815260200190815260200160002084815481106111eb57fe5b9060005260206000200160009054906101000a900473ffffffffffffffffffffffffffffffffffffffff1673ffffffffffffffffffffffffffffffffffffffff1673ffffffffffffffffffffffffffffffffffffffff16815260200190815260200160002060050160008282540192505081905550600154600760008981526020019081526020016000206004016000828254019250508190555061134c565b60005460096000600660008b815260200190815260200160002084815481106112b057fe5b9060005260206000200160009054906101000a900473ffffffffffffffffffffffffffffffffffffffff1673ffffffffffffffffffffffffffffffffffffffff1673ffffffffffffffffffffffffffffffffffffffff1681526020019081526020016000206005016000828254039250508190555060005460076000898152602001908152602001600020600401600082825403925050819055505b80806001019150506110fe565b507fbd9785037e1262e9a00f3274afb543f70050db0c0a99864959f281c5348621e9816040516113899190612f38565b60405180910390a1505050505050565b6000600b80549050905090565b6000600354905090565b6113b86120db565b600960008373ffffffffffffffffffffffffffffffffffffffff1673ffffffffffffffffffffffffffffffffffffffff1681526020019081526020016000206040518060c001604052908160008201548152602001600182015481526020016002820180548060200260200160405190810160405280929190818152602001828054801561146557602002820191906000526020600020905b815481526020019060010190808311611451575b50505050508152602001600382018054806020026020016040519081016040528092919081815260200182805480156114bd57602002820191906000526020600020905b8154815260200190600101908083116114a9575b505050505081526020016004820180548060200260200160405190810160405280929190818152602001828054801561153a57602002820191906000526020600020906000905b82829054906101000a900460ff161515815260200190600101906020826000010492830192600103820291508084116115045790505b505050505081526020016005820154815250509050919050565b600080600061156284612033565b92509250925060606040518060400160405280601c81526020017f19457468657265756d205369676e6564204d6573736167653a0a3332000000008152509050600081876040516020016115b7929190612de6565b6040516020818303038152906040528051906020012090503373ffffffffffffffffffffffffffffffffffffffff16600182601b880187876040516000815260200160405260405161160c9493929190612ef3565b6020604051602081039080840390855afa15801561162e573d6000803e3d6000fd5b5050506020604051035173ffffffffffffffffffffffffffffffffffffffff161461168e576040517f08c379a000000000000000000000000000000000000000000000000000000000815260040161168590613013565b60405180910390fd5b600b339080600181540180825580915050600190039060005260206000200160009091909190916101000a81548173ffffffffffffffffffffffffffffffffffffffff021916908373ffffffffffffffffffffffffffffffffffffffff1602179055506001600a60003373ffffffffffffffffffffffffffffffffffffffff1673ffffffffffffffffffffffffffffffffffffffff168152602001908152602001600020819055506001600960003373ffffffffffffffffffffffffffffffffffffffff1673ffffffffffffffffffffffffffffffffffffffff168152602001908152602001600020600001819055506001600960003373ffffffffffffffffffffffffffffffffffffffff1673ffffffffffffffffffffffffffffffffffffffff168152602001908152602001600020600101819055507f668925a7bc9acb2eb96b835fa199914e30573a7a74ab45e2bb2711f31536ce053360016040516117f8929190612e3a565b60405180910390a150505050505050565b6060600b80548060200260200160405190810160405280929190818152602001828054801561188d57602002820191906000526020600020905b8160009054906101000a900473ffffffffffffffffffffffffffffffffffffffff1673ffffffffffffffffffffffffffffffffffffffff1681526020019060010190808311611843575b5050505050905090565b50565b6000600854905090565b600060066000838152602001908152602001600020805490509050919050565b60035460025460076000878152602001908152602001600020600201540101811115611925576040517f08c379a000000000000000000000000000000000000000000000000000000000815260040161191c90612fb3565b60405180910390fd5b8282604051602001611938929190612e0e565b60405160208183030381529060405280519060200120600960003373ffffffffffffffffffffffffffffffffffffffff1673ffffffffffffffffffffffffffffffffffffffff168152602001908152602001600020600201858154811061199b57fe5b9060005260206000200154146119e6576040517f08c379a00000000000000000000000000000000000000000000000000000000081526004016119dd906130b3565b60405180910390fd5b82600960003373ffffffffffffffffffffffffffffffffffffffff1673ffffffffffffffffffffffffffffffffffffffff1681526020019081526020016000206003018581548110611a3457fe5b90600052602060002001819055507fdef66c77ffe1a02e4aa7028bba0b6e9919e3f7cbfc96c028d7f06e84db64a0138433604051611a73929190613194565b60405180910390a150505050565b8060038190555050565b6007600083815260200190815260200160002060050160009054906101000a900473ffffffffffffffffffffffffffffffffffffffff1673ffffffffffffffffffffffffffffffffffffffff163373ffffffffffffffffffffffffffffffffffffffff1614611b2f576040517f08c379a0000000000000000000000000000000000000000000000000000000008152600401611b2690612f53565b60405180910390fd5b6001600960008373ffffffffffffffffffffffffffffffffffffffff1673ffffffffffffffffffffffffffffffffffffffff1681526020019081526020016000206004018381548110611b7e57fe5b90600052602060002090602091828204019190066101000a81548160ff0219169083151502179055507fad445976d756c325343e3cde33ca48c188cf3cd6aef968577b300bafb0a250208282604051611bd892919061316b565b60405180910390a15050565b60008054905090565b60008211611c30576040517f08c379a0000000000000000000000000000000000000000000000000000000008152600401611c2790613073565b60405180910390fd5b813414611c72576040517f08c379a0000000000000000000000000000000000000000000000000000000008152600401611c69906130d3565b60405180910390fd5b60006008549050856007600083815260200190815260200160002060000181905550336007600083815260200190815260200160002060010160006101000a81548173ffffffffffffffffffffffffffffffffffffffff021916908373ffffffffffffffffffffffffffffffffffffffff160217905550846007600083815260200190815260200160002060020181905550836007600083815260200190815260200160002060030181905550826007600083815260200190815260200160002060040181905550816007600083815260200190815260200160002060050160006101000a81548173ffffffffffffffffffffffffffffffffffffffff021916908373ffffffffffffffffffffffffffffffffffffffff1602179055506001600854016008819055507f6de6dd265a66870495db47d80136a9abe827e8d8f6f7dc77dc787a810a99d226868233604051611dce93929190612ebc565b60405180910390a1505050505050565b6000600254905090565b60011515600960003373ffffffffffffffffffffffffffffffffffffffff1673ffffffffffffffffffffffffffffffffffffffff1681526020019081526020016000206004018481548110611e3957fe5b90600052602060002090602091828204019190069054906101000a900460ff16151514611e9b576040517f08c379a0000000000000000000000000000000000000000000000000000000008152600401611e9290613093565b60405180910390fd5b600254600760008581526020019081526020016000206002015401811115611ef8576040517f08c379a0000000000000000000000000000000000000000000000000000000008152600401611eef90613033565b60405180910390fd5b81600960003373ffffffffffffffffffffffffffffffffffffffff1673ffffffffffffffffffffffffffffffffffffffff1681526020019081526020016000206002018481548110611f4657fe5b90600052602060002001819055507f2e7d6680302440a76b8a673f94bb4245e0106aba81bdb7ee3c92e6610a639fb18333604051611f85929190613194565b60405180910390a1505050565b60606006600083815260200190815260200160002080548060200260200160405190810160405280929190818152602001828054801561202757602002820191906000526020600020905b8160009054906101000a900473ffffffffffffffffffffffffffffffffffffffff1673ffffffffffffffffffffffffffffffffffffffff1681526020019060010190808311611fdd575b50505050509050919050565b6000806000604184511461204657600080fd5b60008060006020870151925060408701519150606087015160001a90508083839550955095505050509193909250565b6040518060c0016040528060008019168152602001600073ffffffffffffffffffffffffffffffffffffffff168152602001600081526020016000815260200160008152602001600073ffffffffffffffffffffffffffffffffffffffff1681525090565b6040518060c001604052806000815260200160008152602001606081526020016060815260200160608152602001600081525090565b60008135905061212081613416565b92915050565b6000813590506121358161342d565b92915050565b600082601f83011261214c57600080fd5b813561215f61215a826131ea565b6131bd565b9150808252602083016020830185838301111561217b57600080fd5b6121868382846133c0565b50505092915050565b60008135905061219e81613444565b92915050565b6000813590506121b38161345b565b92915050565b6000602082840312156121cb57600080fd5b60006121d984828501612111565b91505092915050565b600080604083850312156121f557600080fd5b600061220385828601612126565b925050602083013567ffffffffffffffff81111561222057600080fd5b61222c8582860161213b565b9150509250929050565b6000806000806080858703121561224c57600080fd5b600061225a87828801612126565b945050602085013567ffffffffffffffff81111561227757600080fd5b6122838782880161213b565b9350506040612294878288016121a4565b92505060606122a5878288016121a4565b91505092959194509250565b600080600080600060a086880312156122c957600080fd5b60006122d788828901612126565b95505060206122e8888289016121a4565b94505060406122f9888289016121a4565b935050606061230a888289016121a4565b925050608061231b88828901612111565b9150509295509295909350565b60006020828403121561233a57600080fd5b6000612348848285016121a4565b91505092915050565b6000806040838503121561236457600080fd5b6000612372858286016121a4565b925050602061238385828601612111565b9150509250929050565b6000806000606084860312156123a257600080fd5b60006123b0868287016121a4565b93505060206123c186828701612126565b92505060406123d2868287016121a4565b9150509250925092565b600080600080608085870312156123f257600080fd5b6000612400878288016121a4565b94505060206124118782880161218f565b935050604061242287828801612126565b9250506060612433878288016121a4565b91505092959194509250565b6000806040838503121561245257600080fd5b6000612460858286016121a4565b9250506020612471858286016121a4565b9150509250929050565b600061248783836124ea565b60208301905092915050565b600061249f8383612680565b60208301905092915050565b60006124b7838361269e565b60208301905092915050565b60006124cf8383612704565b60208301905092915050565b6124e48161338a565b82525050565b6124f381613321565b82525050565b61250281613321565b82525050565b600061251382613256565b61251d81856132c1565b935061252883613216565b8060005b83811015612559578151612540888261247b565b975061254b8361328d565b92505060018101905061252c565b5085935050505092915050565b600061257182613261565b61257b81856132d2565b935061258683613226565b8060005b838110156125b757815161259e8882612493565b97506125a98361329a565b92505060018101905061258a565b5085935050505092915050565b60006125cf8261326c565b6125d981856132e3565b93506125e483613236565b8060005b838110156126155781516125fc88826124ab565b9750612607836132a7565b9250506001810190506125e8565b5085935050505092915050565b600061262d82613277565b61263781856132f4565b935061264283613246565b8060005b8381101561267357815161265a88826124c3565b9750612665836132b4565b925050600181019050612646565b5085935050505092915050565b61268981613333565b82525050565b61269881613333565b82525050565b6126a78161333f565b82525050565b6126b68161333f565b82525050565b6126cd6126c88261333f565b613402565b82525050565b60006126de82613282565b6126e88185613305565b93506126f88185602086016133cf565b80840191505092915050565b61270d81613349565b82525050565b61271c81613349565b82525050565b61273361272e82613349565b61340c565b82525050565b6000612746602483613310565b91507f4f6e6c79206d616e616765722063616e2063616c6c20746869732066756e637460008301527f696f6e2e000000000000000000000000000000000000000000000000000000006020830152604082019050919050565b60006127ac603083613310565b91507f54686520726573756c742063616e6e6f742062652072657665616c656420626560008301527f666f726520746865206578706972792e000000000000000000000000000000006020830152604082019050919050565b6000612812601a83613310565b91507f506c6179657220616c726561647920726567697374657265642e0000000000006000830152602082019050919050565b6000612852602d83613310565b91507f54686520766f74652063616e6e6f742062652072657665616c6564206166746560008301527f7220746865206578706972792e000000000000000000000000000000000000006020830152604082019050919050565b60006128b8602f83613310565b91507f54686520726567697374726174696f6e206469646e277420726563656976652060008301527f74686520636f6d6d69746d656e742e00000000000000000000000000000000006020830152604082019050919050565b600061291e603283613310565b91507f54686520636f6d6d69746d656e742073686f756c64206265206772656174657260008301527f207468616e207468652070656e616c74792e00000000000000000000000000006020830152604082019050919050565b6000612984602e83613310565b91507f54686520726567697374726174696f6e206964656e746974792076657269666960008301527f636174696f6e206661696c65642e0000000000000000000000000000000000006020830152604082019050919050565b60006129ea602483613310565b91507f54686520706c617965722063616e6e6f7420766f74652061667465722065787060008301527f6972792e000000000000000000000000000000000000000000000000000000006020830152604082019050919050565b6000612a50601f83613310565b91507f506c61796572206e6f7420616464656420746f207468652073797374656d2e006000830152602082019050919050565b6000612a90602583613310565b91507f54686520636f6d6d69746d656e742073686f756c64206265206d6f726520746860008301527f616e20302e0000000000000000000000000000000000000000000000000000006020830152604082019050919050565b6000612af6604183613310565b91507f54686520706c617965722063616e20636f6d6d6974206f6e6c79207768656e2060008301527f6d616e6167657220636f6e6669726d732064657369676e2065786368616e676560208301527f2e000000000000000000000000000000000000000000000000000000000000006040830152606082019050919050565b6000612b82602283613310565b91507f54686520706c6179657220646964206e6f7420636f6d6d697420746f2074686960008301527f732e0000000000000000000000000000000000000000000000000000000000006020830152604082019050919050565b6000612be8602f83613310565b91507f54686520616e6e6f756e63656d656e74206469646e277420726563656976652060008301527f74686520636f6d6d69746d656e742e00000000000000000000000000000000006020830152604082019050919050565b6000612c4e602383613310565b91507f4e6f206d6f726520726567697374726174696f6e73206172652061636365707460008301527f65642e00000000000000000000000000000000000000000000000000000000006020830152604082019050919050565b60c082016000820151612cbd600085018261269e565b506020820151612cd060208501826124ea565b506040820151612ce36040850182612db9565b506060820151612cf66060850182612db9565b506080820151612d096080850182612db9565b5060a0820151612d1c60a08501826124ea565b50505050565b600060c083016000830151612d3a6000860182612704565b506020830151612d4d6020860182612db9565b5060408301518482036040860152612d6582826125c4565b91505060608301518482036060860152612d7f8282612622565b91505060808301518482036080860152612d998282612566565b91505060a0830151612dae60a0860182612db9565b508091505092915050565b612dc281613373565b82525050565b612dd181613373565b82525050565b612de08161337d565b82525050565b6000612df282856126d3565b9150612dfe82846126bc565b6020820191508190509392505050565b6000612e1a8285612722565b602082019150612e2a82846126bc565b6020820191508190509392505050565b6000604082019050612e4f60008301856124db565b612e5c602083018461268f565b9392505050565b6000606082019050612e7860008301866124db565b612e856020830185612dc8565b612e92604083018461268f565b949350505050565b60006020820190508181036000830152612eb48184612508565b905092915050565b6000606082019050612ed160008301866126ad565b612ede6020830185612dc8565b612eeb60408301846124db565b949350505050565b6000608082019050612f0860008301876126ad565b612f156020830186612dd7565b612f2260408301856126ad565b612f2f60608301846126ad565b95945050505050565b6000602082019050612f4d6000830184612713565b92915050565b60006020820190508181036000830152612f6c81612739565b9050919050565b60006020820190508181036000830152612f8c8161279f565b9050919050565b60006020820190508181036000830152612fac81612805565b9050919050565b60006020820190508181036000830152612fcc81612845565b9050919050565b60006020820190508181036000830152612fec816128ab565b9050919050565b6000602082019050818103600083015261300c81612911565b9050919050565b6000602082019050818103600083015261302c81612977565b9050919050565b6000602082019050818103600083015261304c816129dd565b9050919050565b6000602082019050818103600083015261306c81612a43565b9050919050565b6000602082019050818103600083015261308c81612a83565b9050919050565b600060208201905081810360008301526130ac81612ae9565b9050919050565b600060208201905081810360008301526130cc81612b75565b9050919050565b600060208201905081810360008301526130ec81612bdb565b9050919050565b6000602082019050818103600083015261310c81612c41565b9050919050565b600060c0820190506131286000830184612ca7565b92915050565b600060208201905081810360008301526131488184612d22565b905092915050565b60006020820190506131656000830184612dc8565b92915050565b60006040820190506131806000830185612dc8565b61318d60208301846124f9565b9392505050565b60006040820190506131a96000830185612dc8565b6131b660208301846124db565b9392505050565b6000604051905081810181811067ffffffffffffffff821117156131e057600080fd5b8060405250919050565b600067ffffffffffffffff82111561320157600080fd5b601f19601f8301169050602081019050919050565b6000819050602082019050919050565b6000819050602082019050919050565b6000819050602082019050919050565b6000819050602082019050919050565b600081519050919050565b600081519050919050565b600081519050919050565b600081519050919050565b600081519050919050565b6000602082019050919050565b6000602082019050919050565b6000602082019050919050565b6000602082019050919050565b600082825260208201905092915050565b600082825260208201905092915050565b600082825260208201905092915050565b600082825260208201905092915050565b600081905092915050565b600082825260208201905092915050565b600061332c82613353565b9050919050565b60008115159050919050565b6000819050919050565b6000819050919050565b600073ffffffffffffffffffffffffffffffffffffffff82169050919050565b6000819050919050565b600060ff82169050919050565b60006133958261339c565b9050919050565b60006133a7826133ae565b9050919050565b60006133b982613353565b9050919050565b82818337600083830152505050565b60005b838110156133ed5780820151818401526020810190506133d2565b838111156133fc576000848401525b50505050565b6000819050919050565b6000819050919050565b61341f81613321565b811461342a57600080fd5b50565b6134368161333f565b811461344157600080fd5b50565b61344d81613349565b811461345857600080fd5b50565b61346481613373565b811461346f57600080fd5b5056fea2646970667358221220a3f762bfd3b0dcbd999e53e37b3d3173b9f5467b855a500eb75b2a28a59b3a5664736f6c63430007000033",
  "immutableReferences": {},
  "source": "/**\n* @file marketplace.sol\n* @author Nachiket Tapas <ntapas@unime.it>\n* @date created 01 Jun 2020\n* @date last modified 09 Jul 2020\n* @SPDX-License-Identifier: UNLICENSED\n*/\n\npragma solidity ^0.7.0;\npragma experimental ABIEncoderV2;\n\ncontract designVoting {\n    //Constant variables for penalty and reward\n    uint256 taup = 1000000000000000000; //1 Ether\n    uint256 taur = 1000000000000000000; //1 Ether\n    uint256 deltaExp = 1800; //30 minutes delta. Need to set it in seconds.\n    uint256 deltaReveal = 1800; //30 minutes delta. Need to set it in seconds.\n\n    struct designState\n    {\n        bytes32 filehash;\n        address vendor;\n        uint256 timestamp;\n        uint256 expiry;\n        uint256 balance;\n        address manager;\n    }\n\n    //The vote is considered as follows\n    // 0 : no vote. maybe due to time expired\n    // -1 : invalid design\n    // 1 : valid design\n    struct playerState\n    {\n        int256 reputation;\n        uint256 weight;\n        bytes32[] commitments;\n        int[] votes;\n        bool[] received;\n        uint256 balance;\n    }\n\n    uint private results;\n\n    //Mapping of design identified by design index and collection of players indexes registered to vote\n    mapping (uint256 => mapping (address => uint)) private checkPlayers;\n    mapping (uint256 => address[]) private regPlayers;\n\n    //Design details indexed by design index\n    mapping (uint256 => designState) private designes;\n    uint256 private numDesignes = 0;\n\n    //Player details indexed by player index\n    mapping (address => playerState) private players;\n    mapping (address => uint) private isPlayer;\n    address[] private playerAddresses;\n\n    //Notifications for successful completion of events\n    event newDesignAvailable(bytes32 fileHash, uint256 designNo, address creator);\n    event resultCalculated(bytes32 fileHash, uint256 designNo, address creator);\n    event newPlayerAddition(address player, bool status);\n    event newPlayerRegistration(address player, uint256 design, bool status);\n    event playerDesignReceived(uint256 design, address player);\n    event playerCommitted(uint256 design, address player);\n    event playerRevealed(uint256 design, address player);\n    event votingResult(int result);\n\n    event tempOutput(uint256 _output);//, uint256 timestamp, uint256 expiry, uint256 balance);\n\n    //Setter function for reward\n    function setReward(uint256 _reward)\n        public\n    {\n        taur = _reward;\n    }\n\n    //Setter function for penalty\n    function setPenalty(uint256 _penalty)\n        public\n    {\n        taup = _penalty;\n    }\n\n    //Setter function for expiry\n    function setExpiry(uint256 _expiry)\n        public\n    {\n        deltaExp = _expiry;\n    }\n\n    //Setter function for reveal\n    function setReveal(uint256 _reveal)\n        public\n    {\n        deltaReveal = _reveal;\n    }\n\n    //Getter function for reward\n    function getReward()\n        public view returns (uint256)\n    {\n        return taur;\n    }\n\n    //Getter function for penalty\n    function getPenalty()\n        public view returns (uint256)\n    {\n        return taup;\n    }\n\n    //Getter function for expiry\n    function getExpiry()\n        public view returns (uint256)\n    {\n        return deltaExp;\n    }\n\n    //Getter function for reveal\n    function getReveal()\n        public view returns (uint256)\n    {\n        return deltaReveal;\n    }\n\n    //The commitment is send via the value field in the remix. If the sent value matches the commitment parameter,\n    //the contract announces the availability of new design for verification.\n    function announce(bytes32 _fileHash, uint256 _timestamp, uint256 _expiry, uint256 _commitment, address _manager)\n        public payable\n    {\n        //Check for positive commitment\n        require(_commitment > 0, \"The commitment should be more than 0.\");\n\n        //Check if the commitment parameter matches the commiment sent to the contract.\n        require(msg.value == _commitment, \"The announcement didn't receive the commitment.\");\n\n        //Design index\n        uint256 j = numDesignes;\n\n        //Design file hash from IPFS\n        designes[j].filehash = _fileHash;\n\n        //Design creator\n        designes[j].vendor = msg.sender;\n\n        //Creation timestamp received from the js script\n        designes[j].timestamp = _timestamp;\n\n        //Expiry timestamp received from the js script\n        designes[j].expiry = _expiry;\n\n        //Commitment\n        designes[j].balance = _commitment;\n\n        //Set a manager\n        designes[j].manager = _manager;\n\n        //Incrementing the design index\n        numDesignes = numDesignes + 1;\n\n        //Emitting notification for new design creation.\n        //Verifiers receiving the notification can participate in the process\n        //Filehash to ensure file integrity\n        //Index to use for search\n        //Vendor address for source verification\n        emit newDesignAvailable(_fileHash, j, msg.sender);\n    }\n\n    //Reader function to get number of designes\n    function getNumDesignes() public view returns (uint256) {\n        return numDesignes;\n    }\n\n    //Reader function to get designe details at _index\n    function getDesigne(uint256 _index) public view returns (designState memory) {\n        return designes[_index];\n    }\n\n    //Function to add players to the system. This does not mean the player is registering to vote.\n    function addPlayer(bytes32 _hashMsg, bytes memory _signature) public {\n        //Check for identity of the user registering\n        (uint8 _v, bytes32 _r, bytes32 _s) = splitSignature(_signature);\n        bytes memory prefix = \"\\x19Ethereum Signed Message:\\n32\";\n        bytes32 prefixedHash = keccak256(abi.encodePacked(prefix, _hashMsg));\n        require(ecrecover(prefixedHash, _v + 27, _r, _s) == msg.sender, \"The registration identity verification failed.\");\n\n        //Push Player address\n        playerAddresses.push ( msg.sender );\n\n        //Set player to 1 to denote that player is added to the system\n        isPlayer [ msg.sender ] = 1;\n\n        //Initialize player requesting registration\n        players[msg.sender].reputation = 1;\n        players[msg.sender].weight = 1;\n\n        //Event for successful registration\n        emit newPlayerAddition(msg.sender, true);\n\n    }\n\n    //Reader function to get number of players\n    function getNumPlayers() public view returns (uint256) {\n        return playerAddresses.length;\n    }\n\n    //Reader function to get player's addresses\n    function getPlayerAddresses() public view returns (address[] memory) {\n        return playerAddresses;\n    }\n\n    //Reader function to get player details for _playerAddress\n    function getPlayer(address _playerAddress) public view returns (playerState memory) {\n        return players[_playerAddress];\n    }\n\n    //This function can be considered as expression of interest to take part in the voting and not to be confused with\n    //player registration to the system.\n    function register(bytes32 _hashMsg, bytes memory _signature, uint256 _designNo, uint256 _commitment)\n        public payable\n    {\n        //Check of player is added to the system\n        require( isPlayer [ msg.sender ] == 1, \"Player not added to the system.\");\n\n        //Check for identity of the user registering\n        (uint8 _v, bytes32 _r, bytes32 _s) = splitSignature(_signature);\n        bytes memory prefix = \"\\x19Ethereum Signed Message:\\n32\";\n        bytes32 prefixedHash = keccak256(abi.encodePacked(prefix, _hashMsg));\n        require(ecrecover(prefixedHash, _v + 27, _r, _s) == msg.sender, \"The registration identity verification failed.\");\n\n        //Check for positive commitment\n        require(_commitment > 0, \"The commitment should be more than 0.\");\n\n        //Check if the commitment parameter matches the commiment sent to the contract.\n        require(msg.value == _commitment, \"The registration didn't receive the commitment.\");\n\n        //Check if the commitment is less than penalty\n        require(_commitment >= taup, \"The commitment should be greater than the penalty.\");\n\n        //Check if the required number of verifiers are already meet\n        require(regPlayers[_designNo].length < designes[_designNo].balance / taur, \"No more registrations are accepted.\");\n\n        //Check if already registered\n        require(checkPlayers[_designNo][msg.sender] == 0, \"Player already registered.\");\n\n        //Incrementing the player index and registration\n        checkPlayers[_designNo][msg.sender] = 1;\n        regPlayers[_designNo].push(msg.sender);\n        players[msg.sender].balance += msg.value;\n\n        //Event for successful registration for a design\n        emit newPlayerRegistration(msg.sender, _designNo, true);\n    }\n\n    //Reader function to get number of registered players\n    function getNumRegPlayers(uint256 _designNo) public view returns (uint256) {\n        return regPlayers[_designNo].length;\n    }\n\n    //Reader function to get registered player's addresses\n    function getRegPlayerAddresses(uint256 _designNo) public view returns (address[] memory) {\n        return regPlayers[_designNo];\n    }\n\n    function setReceived(uint256 _designNo, address _playerAddress)\n        public payable\n    {\n        //Check if the sender is the manager responsible for secure exchange.\n        require(msg.sender == designes[_designNo].manager, \"Only manager can call this function.\");\n\n        //The manager sets the design received to be true\n        players[_playerAddress].received[_designNo] = true;\n\n        //An event is emitted after successful\n        emit playerDesignReceived(_designNo, _playerAddress);\n    }\n\n    function commit(uint256 _designNo, bytes32 _cryptoCommitment, uint256 _timestamp)\n        public\n    {\n        //Check if the player received the design and ready to vote.\n        require(players[msg.sender].received[_designNo] == true, \"The player can commit only when manager confirms design exchange.\");\n\n        //Check for expiry\n        require(_timestamp <= designes[_designNo].timestamp + deltaExp, \"The player cannot vote after expiry.\");\n\n        //Store the commitment by the player\n        players[msg.sender].commitments[_designNo] = _cryptoCommitment;\n\n        //An event emitted after successful commitment of vote\n        emit playerCommitted(_designNo, msg.sender);\n    }\n\n    function reveal(uint256 _designNo, int _vote, bytes32 _nonce, uint256 _timestamp)\n        public\n    {\n        //Check for expiry. Beyond the expiry, the player revealing will have\n        //a picture of the voting trend and thus, can change for profit.\n        require(_timestamp <= designes[_designNo].timestamp + deltaExp + deltaReveal, \"The vote cannot be revealed after the expiry.\");\n\n        //Check the commitment\n        require(players[msg.sender].commitments[_designNo] == keccak256(abi.encodePacked(_vote, _nonce)), \"The player did not commit to this.\");\n\n        //Store the vote by the player\n        players[msg.sender].votes[_designNo] = _vote;\n\n        //An event emitted after successful reveal of vote\n        emit playerRevealed(_designNo, msg.sender);\n    }\n\n    function calculateResult(uint256 _designNo, uint256 _timestamp)\n        public\n    {\n        //Check for expiry. The result cannot be calculated before the expiry.\n        require(_timestamp > designes[_designNo].timestamp + deltaExp + deltaReveal, \"The result cannot be revealed before the expiry.\");\n\n        //Since solidity do not support floating point arithematic, we will store the value as quotient and remainder.\n        //Here we are calculating the numerator and denominator.\n        int256 playerNum = 0;\n        int256 playerDen = 0;\n        for ( uint256 i = 0; i < regPlayers[_designNo].length; i++ ) {\n            playerNum  += ( players[regPlayers[_designNo][i]].votes[_designNo] * int( players[regPlayers[_designNo][i]].weight ) * players[regPlayers[_designNo][i]].reputation );\n            playerDen  += int ( players[regPlayers[_designNo][i]].weight ) * players[regPlayers[_designNo][i]].reputation;\n        }\n\n        //Here we are just calculating the remainder as the value varies from 0 to 1.\n        int256 finalScoreRem = ( playerNum + playerDen ) % ( 2 * playerDen );\n        int result = 0;\n        if ( finalScoreRem > playerDen ) {\n            result = 1;\n        } else if ( finalScoreRem < playerDen ) {\n            result = -1;\n        }\n\n        for ( uint256 i = 0; i < regPlayers[_designNo].length; i++ ) {\n            //Set new reputation\n            players[regPlayers[_designNo][i]].reputation = players[regPlayers[_designNo][i]].votes[_designNo] * result;\n\n            //Set new weight (we only use the player weight. The total weight, which is used as normalization factor is eliminated in the final calculation.)\n            players[regPlayers[_designNo][i]].weight += 1;\n        }\n\n        //Retuen the player commitments\n        for ( uint256 i = 0; i < regPlayers[_designNo].length; i++ ) {\n            if ( players[regPlayers[_designNo][i]].votes[_designNo] * result == 1) {\n                players[regPlayers[_designNo][i]].balance += taur;\n                designes[_designNo].balance += taur;\n            } else {\n                players[regPlayers[_designNo][i]].balance -= taup;\n                designes[_designNo].balance -= taup;\n            }\n        }\n\n        //Emit the notification for the result\n        emit votingResult(result);\n    }\n\n    //This is a helper function. This can be removed.\n    function storedValue(uint256 index)\n        public\n    {\n        //emit tempOutput(designes[index].vendor, designes[index].timestamp, designes[index].expiry, now); //designes[index].balance);\n    }\n\n    //This is a utility function to extract ECDSA parameters from the signature.\n    function splitSignature(bytes memory sig)\n    private\n    pure\n    returns (uint8, bytes32, bytes32)\n    {\n        require(sig.length == 65);\n\n        bytes32 r;\n        bytes32 s;\n        uint8 v;\n\n        assembly {\n            // first 32 bytes, after the length prefix\n            r := mload(add(sig, 32))\n            // second 32 bytes\n            s := mload(add(sig, 64))\n            // final byte (first byte of the next 32 bytes)\n            v := byte(0, mload(add(sig, 96)))\n        }\n\n        return (v, r, s);\n    }\n\n    // //In-case the design verification expires, the commitment is returned to the vendor.\n    // //Currently only the vendor can initiate the withdrawl.\n    // function withdraw(uint256 _amount, uint256 _designNo) public {\n    //     //Check if the method initiator is the one who published the design\n    //     require(msg.sender == designes[_designNo].vendor, \"Only the publisher can initiate the withdrawl.\");\n\n    //     //Insert a check condition regarding the time before which the vendor cannot withdraw the commitment\n    //     require(designes[_designNo].expiry <= now, \"The balance can be withdrawn only after expiry.\");\n\n    //     //Check if the amount requested for withdrawl is less than balance\n    //     require(_amount <= designes[_designNo].balance, \"The withdrawl amount is more than the balance.\");\n\n    //     //Check for the withdrawl amount\n    //     require(_amount > 0, \"The withdrawl amount should be greater than 0.\");\n\n    //     //Reducing the balance and sending the withdrawl amount to the vendor\n    //     designes[_designNo].balance -= _amount;\n    //     msg.sender.transfer(_amount);\n    // }\n}\n",
  "sourcePath": "/home/costantinos/Documenti/Dapp/src/contracts/Code.sol",
  "compiler": {
    "name": "solc",
    "version": "0.7.0+commit.9e61f92b.Emscripten.clang"
  },
  "schemaVersion": "3.3.1",
  "updatedAt": "2020-10-22T09:03:30.623Z",
  "devdoc": {
    "kind": "dev",
    "methods": {},
    "version": 1
  },
  "userdoc": {
    "kind": "user",
    "methods": {},
    "version": 1
  }
}