{
  "contractName": "designVoting",
  "abi": [
    {
      "anonymous": false,
      "inputs": [
        {
          "indexed": false,
          "internalType": "bytes32",
          "name": "fileHash",
          "type": "bytes32"
        },
        {
          "indexed": false,
          "internalType": "uint256",
          "name": "designNo",
          "type": "uint256"
        },
        {
          "indexed": false,
          "internalType": "address",
          "name": "creator",
          "type": "address"
        }
      ],
      "name": "newDesignAvailable",
      "type": "event"
    },
    {
      "anonymous": false,
      "inputs": [
        {
          "indexed": false,
          "internalType": "address",
          "name": "player",
          "type": "address"
        },
        {
          "indexed": false,
          "internalType": "bool",
          "name": "status",
          "type": "bool"
        }
      ],
      "name": "newPlayerAddition",
      "type": "event"
    },
    {
      "anonymous": false,
      "inputs": [
        {
          "indexed": false,
          "internalType": "address",
          "name": "player",
          "type": "address"
        },
        {
          "indexed": false,
          "internalType": "uint256",
          "name": "design",
          "type": "uint256"
        },
        {
          "indexed": false,
          "internalType": "bool",
          "name": "status",
          "type": "bool"
        }
      ],
      "name": "newPlayerRegistration",
      "type": "event"
    },
    {
      "anonymous": false,
      "inputs": [
        {
          "indexed": false,
          "internalType": "address",
          "name": "printer",
          "type": "address"
        },
        {
          "indexed": false,
          "internalType": "bytes32",
          "name": "name",
          "type": "bytes32"
        }
      ],
      "name": "newPrinterAddition",
      "type": "event"
    },
    {
      "anonymous": false,
      "inputs": [
        {
          "indexed": false,
          "internalType": "uint256",
          "name": "design",
          "type": "uint256"
        },
        {
          "indexed": false,
          "internalType": "address",
          "name": "player",
          "type": "address"
        }
      ],
      "name": "playerCommitted",
      "type": "event"
    },
    {
      "anonymous": false,
      "inputs": [
        {
          "indexed": false,
          "internalType": "uint256",
          "name": "design",
          "type": "uint256"
        },
        {
          "indexed": false,
          "internalType": "address",
          "name": "player",
          "type": "address"
        }
      ],
      "name": "playerDesignReceived",
      "type": "event"
    },
    {
      "anonymous": false,
      "inputs": [
        {
          "indexed": false,
          "internalType": "uint256",
          "name": "design",
          "type": "uint256"
        },
        {
          "indexed": false,
          "internalType": "address",
          "name": "player",
          "type": "address"
        }
      ],
      "name": "playerRevealed",
      "type": "event"
    },
    {
      "anonymous": false,
      "inputs": [
        {
          "indexed": false,
          "internalType": "bytes32",
          "name": "fileHash",
          "type": "bytes32"
        },
        {
          "indexed": false,
          "internalType": "uint256",
          "name": "designNo",
          "type": "uint256"
        },
        {
          "indexed": false,
          "internalType": "address",
          "name": "creator",
          "type": "address"
        }
      ],
      "name": "resultCalculated",
      "type": "event"
    },
    {
      "anonymous": false,
      "inputs": [
        {
          "indexed": false,
          "internalType": "address",
          "name": "_output",
          "type": "address"
        }
      ],
      "name": "tempOutput",
      "type": "event"
    },
    {
      "anonymous": false,
      "inputs": [
        {
          "indexed": false,
          "internalType": "int256",
          "name": "result",
          "type": "int256"
        }
      ],
      "name": "votingResult",
      "type": "event"
    },
    {
      "inputs": [
        {
          "internalType": "bytes32",
          "name": "_fileHash",
          "type": "bytes32"
        },
        {
          "internalType": "uint256",
          "name": "_timestamp",
          "type": "uint256"
        },
        {
          "internalType": "uint256",
          "name": "_commitment",
          "type": "uint256"
        },
        {
          "internalType": "address",
          "name": "_manager",
          "type": "address"
        },
        {
          "internalType": "uint256",
          "name": "_taur",
          "type": "uint256"
        },
        {
          "internalType": "uint256",
          "name": "_taup",
          "type": "uint256"
        },
        {
          "internalType": "uint256",
          "name": "_deltaExp",
          "type": "uint256"
        },
        {
          "internalType": "uint256",
          "name": "_deltaReveal",
          "type": "uint256"
        }
      ],
      "name": "announce",
      "outputs": [],
      "stateMutability": "payable",
      "type": "function"
    },
    {
      "inputs": [],
      "name": "getNumDesignes",
      "outputs": [
        {
          "internalType": "uint256",
          "name": "",
          "type": "uint256"
        }
      ],
      "stateMutability": "view",
      "type": "function"
    },
    {
      "inputs": [
        {
          "internalType": "uint256",
          "name": "_index",
          "type": "uint256"
        }
      ],
      "name": "getDesigne",
      "outputs": [
        {
          "components": [
            {
              "internalType": "bytes32",
              "name": "filehash",
              "type": "bytes32"
            },
            {
              "internalType": "address",
              "name": "vendor",
              "type": "address"
            },
            {
              "internalType": "uint256",
              "name": "timestamp",
              "type": "uint256"
            },
            {
              "internalType": "uint256",
              "name": "balance",
              "type": "uint256"
            },
            {
              "internalType": "address",
              "name": "manager",
              "type": "address"
            },
            {
              "internalType": "uint256",
              "name": "status",
              "type": "uint256"
            },
            {
              "internalType": "uint256",
              "name": "taup",
              "type": "uint256"
            },
            {
              "internalType": "uint256",
              "name": "taur",
              "type": "uint256"
            },
            {
              "internalType": "uint256",
              "name": "deltaExp",
              "type": "uint256"
            },
            {
              "internalType": "uint256",
              "name": "deltaReveal",
              "type": "uint256"
            },
            {
              "internalType": "int256",
              "name": "result",
              "type": "int256"
            }
          ],
          "internalType": "struct designVoting.designState",
          "name": "",
          "type": "tuple"
        }
      ],
      "stateMutability": "view",
      "type": "function"
    },
    {
      "inputs": [
        {
          "internalType": "bytes32",
          "name": "_hashMsg",
          "type": "bytes32"
        },
        {
          "internalType": "bytes",
          "name": "_signature",
          "type": "bytes"
        }
      ],
      "name": "addPlayer",
      "outputs": [],
      "stateMutability": "nonpayable",
      "type": "function"
    },
    {
      "inputs": [],
      "name": "getNumPlayers",
      "outputs": [
        {
          "internalType": "uint256",
          "name": "",
          "type": "uint256"
        }
      ],
      "stateMutability": "view",
      "type": "function"
    },
    {
      "inputs": [],
      "name": "getPlayerAddresses",
      "outputs": [
        {
          "internalType": "address[]",
          "name": "",
          "type": "address[]"
        }
      ],
      "stateMutability": "view",
      "type": "function"
    },
    {
      "inputs": [
        {
          "internalType": "address",
          "name": "_playerAddress",
          "type": "address"
        }
      ],
      "name": "getPlayerDetails",
      "outputs": [
        {
          "internalType": "int256",
          "name": "",
          "type": "int256"
        },
        {
          "internalType": "uint256",
          "name": "",
          "type": "uint256"
        },
        {
          "internalType": "uint256",
          "name": "",
          "type": "uint256"
        }
      ],
      "stateMutability": "view",
      "type": "function"
    },
    {
      "inputs": [
        {
          "internalType": "address",
          "name": "_playerAddress",
          "type": "address"
        },
        {
          "internalType": "uint256",
          "name": "_designNo",
          "type": "uint256"
        }
      ],
      "name": "getPlayerCommitment",
      "outputs": [
        {
          "internalType": "bytes32",
          "name": "",
          "type": "bytes32"
        }
      ],
      "stateMutability": "view",
      "type": "function"
    },
    {
      "inputs": [
        {
          "internalType": "address",
          "name": "_playerAddress",
          "type": "address"
        },
        {
          "internalType": "uint256",
          "name": "_designNo",
          "type": "uint256"
        }
      ],
      "name": "getPlayerVote",
      "outputs": [
        {
          "internalType": "int256",
          "name": "",
          "type": "int256"
        }
      ],
      "stateMutability": "view",
      "type": "function"
    },
    {
      "inputs": [
        {
          "internalType": "address",
          "name": "_playerAddress",
          "type": "address"
        },
        {
          "internalType": "uint256",
          "name": "_designNo",
          "type": "uint256"
        }
      ],
      "name": "isFileReceived",
      "outputs": [
        {
          "internalType": "bool",
          "name": "",
          "type": "bool"
        }
      ],
      "stateMutability": "view",
      "type": "function"
    },
    {
      "inputs": [
        {
          "internalType": "bytes32",
          "name": "_hashMsg",
          "type": "bytes32"
        },
        {
          "internalType": "bytes",
          "name": "_signature",
          "type": "bytes"
        },
        {
          "internalType": "uint256",
          "name": "_designNo",
          "type": "uint256"
        },
        {
          "internalType": "uint256",
          "name": "_commitment",
          "type": "uint256"
        }
      ],
      "name": "register",
      "outputs": [],
      "stateMutability": "payable",
      "type": "function"
    },
    {
      "inputs": [
        {
          "internalType": "uint256",
          "name": "_designNo",
          "type": "uint256"
        }
      ],
      "name": "getNumRegPlayers",
      "outputs": [
        {
          "internalType": "uint256",
          "name": "",
          "type": "uint256"
        }
      ],
      "stateMutability": "view",
      "type": "function"
    },
    {
      "inputs": [
        {
          "internalType": "uint256",
          "name": "_designNo",
          "type": "uint256"
        }
      ],
      "name": "getRegPlayerAddresses",
      "outputs": [
        {
          "internalType": "address[]",
          "name": "",
          "type": "address[]"
        }
      ],
      "stateMutability": "view",
      "type": "function"
    },
    {
      "inputs": [
        {
          "internalType": "uint256",
          "name": "_designNo",
          "type": "uint256"
        },
        {
          "internalType": "address",
          "name": "_playerAddress",
          "type": "address"
        }
      ],
      "name": "setReceived",
      "outputs": [],
      "stateMutability": "payable",
      "type": "function"
    },
    {
      "inputs": [
        {
          "internalType": "uint256",
          "name": "_designNo",
          "type": "uint256"
        },
        {
          "internalType": "bytes32",
          "name": "_cryptoCommitment",
          "type": "bytes32"
        },
        {
          "internalType": "uint256",
          "name": "_timestamp",
          "type": "uint256"
        }
      ],
      "name": "commit",
      "outputs": [],
      "stateMutability": "nonpayable",
      "type": "function"
    },
    {
      "inputs": [
        {
          "internalType": "uint256",
          "name": "_designNo",
          "type": "uint256"
        },
        {
          "internalType": "int256",
          "name": "_vote",
          "type": "int256"
        },
        {
          "internalType": "bytes32",
          "name": "_nonce",
          "type": "bytes32"
        },
        {
          "internalType": "uint256",
          "name": "_timestamp",
          "type": "uint256"
        }
      ],
      "name": "reveal",
      "outputs": [],
      "stateMutability": "nonpayable",
      "type": "function"
    },
    {
      "inputs": [
        {
          "internalType": "uint256",
          "name": "_designNo",
          "type": "uint256"
        },
        {
          "internalType": "uint256",
          "name": "_timestamp",
          "type": "uint256"
        }
      ],
      "name": "calculateResult",
      "outputs": [],
      "stateMutability": "nonpayable",
      "type": "function"
    },
    {
      "inputs": [
        {
          "internalType": "address",
          "name": "_printerAddr",
          "type": "address"
        },
        {
          "internalType": "bytes32",
          "name": "_make",
          "type": "bytes32"
        },
        {
          "internalType": "bytes32",
          "name": "_name",
          "type": "bytes32"
        },
        {
          "internalType": "uint256",
          "name": "_strength",
          "type": "uint256"
        },
        {
          "internalType": "uint256",
          "name": "_flexibility",
          "type": "uint256"
        },
        {
          "internalType": "uint256",
          "name": "_durability",
          "type": "uint256"
        },
        {
          "internalType": "uint256",
          "name": "_difficulty",
          "type": "uint256"
        },
        {
          "internalType": "int256",
          "name": "_printTemperature",
          "type": "int256"
        },
        {
          "internalType": "int256",
          "name": "_bedTemperature",
          "type": "int256"
        },
        {
          "internalType": "bool",
          "name": "_soluble",
          "type": "bool"
        },
        {
          "internalType": "bool",
          "name": "_foodSafety",
          "type": "bool"
        }
      ],
      "name": "addPrinter",
      "outputs": [],
      "stateMutability": "nonpayable",
      "type": "function"
    },
    {
      "inputs": [
        {
          "internalType": "address",
          "name": "_userAddress",
          "type": "address"
        }
      ],
      "name": "getUserPrinters",
      "outputs": [
        {
          "internalType": "address[]",
          "name": "",
          "type": "address[]"
        }
      ],
      "stateMutability": "view",
      "type": "function"
    },
    {
      "inputs": [
        {
          "internalType": "address",
          "name": "_printerAddr",
          "type": "address"
        }
      ],
      "name": "getPrinterDetails",
      "outputs": [
        {
          "components": [
            {
              "internalType": "bytes32",
              "name": "make",
              "type": "bytes32"
            },
            {
              "internalType": "bytes32",
              "name": "name",
              "type": "bytes32"
            },
            {
              "internalType": "uint256",
              "name": "strength",
              "type": "uint256"
            },
            {
              "internalType": "uint256",
              "name": "flexibility",
              "type": "uint256"
            },
            {
              "internalType": "uint256",
              "name": "durability",
              "type": "uint256"
            },
            {
              "internalType": "uint256",
              "name": "difficulty",
              "type": "uint256"
            },
            {
              "internalType": "int256",
              "name": "printTemperature",
              "type": "int256"
            },
            {
              "internalType": "int256",
              "name": "bedTemperature",
              "type": "int256"
            },
            {
              "internalType": "bool",
              "name": "soluble",
              "type": "bool"
            },
            {
              "internalType": "bool",
              "name": "foodSafety",
              "type": "bool"
            }
          ],
          "internalType": "struct designVoting.printerDetails",
          "name": "",
          "type": "tuple"
        }
      ],
      "stateMutability": "view",
      "type": "function"
    },
    {
      "inputs": [],
      "name": "getNumPrinters",
      "outputs": [
        {
          "internalType": "uint256",
          "name": "",
          "type": "uint256"
        }
      ],
      "stateMutability": "view",
      "type": "function"
    }
  ],
  "bytecode": "0x6080604052600060035534801561001557600080fd5b50614485806100256000396000f3fe60806040526004361061012a5760003560e01c80639fc70e35116100ab578063c8dd6ce71161006f578063c8dd6ce7146103fc578063c9e959741461043b578063edcb274314610457578063ee93a6fc14610480578063fbad1813146104bd578063fbc32c60146104e65761012a565b80639fc70e3514610312578063a121ba301461034f578063a65a9eca1461037a578063ad498d7c146103b7578063bb509336146103e05761012a565b806355c9e926116100f257806355c9e9261461022b5780636b167290146102565780636fc4b2de14610293578063724d4924146102bc5780638bcad672146102e75761012a565b806307a9594a1461012f57806310a51d9b1461014b578063511d53e81461018857806353093048146101c5578063532af7d214610202575b600080fd5b6101496004803603810190610144919061309f565b610523565b005b34801561015757600080fd5b50610172600480360381019061016d9190612ef6565b610a39565b60405161017f9190613e38565b60405180910390f35b34801561019457600080fd5b506101af60048036038101906101aa919061300f565b610b06565b6040516101bc9190613e75565b60405180910390f35b3480156101d157600080fd5b506101ec60048036038101906101e791906131cc565b610b64565b6040516101f9919061417e565b60405180910390f35b34801561020e57600080fd5b50610229600480360381019061022491906132e3565b610c98565b005b34801561023757600080fd5b506102406118de565b60405161024d91906141b6565b60405180910390f35b34801561026257600080fd5b5061027d60048036038101906102789190612ef6565b6118eb565b60405161028a919061419a565b60405180910390f35b34801561029f57600080fd5b506102ba60048036038101906102b5919061304b565b6119cb565b005b3480156102c857600080fd5b506102d1611cc2565b6040516102de9190613e38565b60405180910390f35b3480156102f357600080fd5b506102fc611d50565b60405161030991906141b6565b60405180910390f35b34801561031e57600080fd5b506103396004803603810190610334919061300f565b611d5a565b6040516103469190613e5a565b60405180910390f35b34801561035b57600080fd5b50610364611dc5565b60405161037191906141b6565b60405180910390f35b34801561038657600080fd5b506103a1600480360381019061039c91906131cc565b611dd2565b6040516103ae91906141b6565b60405180910390f35b3480156103c357600080fd5b506103de60048036038101906103d99190613280565b611df2565b005b6103fa60048036038101906103f5919061311a565b611fcf565b005b34801561040857600080fd5b50610423600480360381019061041e9190612ef6565b612308565b60405161043293929190613f27565b60405180910390f35b610455600480360381019061045091906131f5565b6123e3565b005b34801561046357600080fd5b5061047e60048036038101906104799190612f1f565b612599565b005b34801561048c57600080fd5b506104a760048036038101906104a2919061300f565b612a50565b6040516104b49190613f0c565b60405180910390f35b3480156104c957600080fd5b506104e460048036038101906104df9190613231565b612aae565b005b3480156104f257600080fd5b5061050d600480360381019061050891906131cc565b612c5c565b60405161051a9190613e38565b60405180910390f35b6001600560003373ffffffffffffffffffffffffffffffffffffffff1673ffffffffffffffffffffffffffffffffffffffff16815260200190815260200160002054146105a5576040517f08c379a000000000000000000000000000000000000000000000000000000000815260040161059c9061405e565b60405180910390fd5b60008060006105b386612cfd565b92509250925060606040518060400160405280601c81526020017f19457468657265756d205369676e6564204d6573736167653a0a333200000000815250905060008189604051602001610608929190613d35565b6040516020818303038152906040528051906020012090503373ffffffffffffffffffffffffffffffffffffffff166001828787876040516000815260200160405260405161065a9493929190613ec7565b6020604051602081039080840390855afa15801561067c573d6000803e3d6000fd5b5050506020604051035173ffffffffffffffffffffffffffffffffffffffff16146106dc576040517f08c379a00000000000000000000000000000000000000000000000000000000081526004016106d39061401e565b60405180910390fd5b6000861161071f576040517f08c379a0000000000000000000000000000000000000000000000000000000008152600401610716906140be565b60405180910390fd5b853414610761576040517f08c379a000000000000000000000000000000000000000000000000000000000815260040161075890613fde565b60405180910390fd5b60026000888152602001908152602001600020600601548610156107ba576040517f08c379a00000000000000000000000000000000000000000000000000000000081526004016107b190613ffe565b60405180910390fd5b60026000888152602001908152602001600020600701546002600089815260200190815260200160002060030154816107ef57fe5b04600160008981526020019081526020016000208054905010610847576040517f08c379a000000000000000000000000000000000000000000000000000000000815260040161083e9061415e565b60405180910390fd5b600080600089815260200190815260200160002060003373ffffffffffffffffffffffffffffffffffffffff1673ffffffffffffffffffffffffffffffffffffffff16815260200190815260200160002054146108d9576040517f08c379a00000000000000000000000000000000000000000000000000000000081526004016108d090613f9e565b60405180910390fd5b600160008089815260200190815260200160002060003373ffffffffffffffffffffffffffffffffffffffff1673ffffffffffffffffffffffffffffffffffffffff1681526020019081526020016000208190555060016000888152602001908152602001600020339080600181540180825580915050600190039060005260206000200160009091909190916101000a81548173ffffffffffffffffffffffffffffffffffffffff021916908373ffffffffffffffffffffffffffffffffffffffff16021790555034600460003373ffffffffffffffffffffffffffffffffffffffff1673ffffffffffffffffffffffffffffffffffffffff168152602001908152602001600020600601600082825401925050819055507f5f142c525761e989ef9a126c95a342ee74c720a7272ea67127ed34660df2d7dc33886001604051610a2693929190613dd8565b60405180910390a1505050505050505050565b6060600960008373ffffffffffffffffffffffffffffffffffffffff1673ffffffffffffffffffffffffffffffffffffffff168152602001908152602001600020805480602002602001604051908101604052809291908181526020018280548015610afa57602002820191906000526020600020905b8160009054906101000a900473ffffffffffffffffffffffffffffffffffffffff1673ffffffffffffffffffffffffffffffffffffffff1681526020019060010190808311610ab0575b50505050509050919050565b6000600460008473ffffffffffffffffffffffffffffffffffffffff1673ffffffffffffffffffffffffffffffffffffffff168152602001908152602001600020600201600083815260200190815260200160002054905092915050565b610b6c612d53565b6002600083815260200190815260200160002060405180610160016040529081600082015481526020016001820160009054906101000a900473ffffffffffffffffffffffffffffffffffffffff1673ffffffffffffffffffffffffffffffffffffffff1673ffffffffffffffffffffffffffffffffffffffff16815260200160028201548152602001600382015481526020016004820160009054906101000a900473ffffffffffffffffffffffffffffffffffffffff1673ffffffffffffffffffffffffffffffffffffffff1673ffffffffffffffffffffffffffffffffffffffff1681526020016005820154815260200160068201548152602001600782015481526020016008820154815260200160098201548152602001600a820154815250509050919050565b6000600260008481526020019081526020016000206005015414610cf1576040517f08c379a0000000000000000000000000000000000000000000000000000000008152600401610ce89061409e565b60405180910390fd5b60026000838152602001908152602001600020600901546002600084815260200190815260200160002060080154600260008581526020019081526020016000206002015401018111610d79576040517f08c379a0000000000000000000000000000000000000000000000000000000008152600401610d7090613f7e565b60405180910390fd5b60008060005b600160008681526020019081526020016000208054905081101561107d5760046000600160008881526020019081526020016000208381548110610dbf57fe5b9060005260206000200160009054906101000a900473ffffffffffffffffffffffffffffffffffffffff1673ffffffffffffffffffffffffffffffffffffffff1673ffffffffffffffffffffffffffffffffffffffff1681526020019081526020016000206000015460046000600160008981526020019081526020016000208481548110610e4a57fe5b9060005260206000200160009054906101000a900473ffffffffffffffffffffffffffffffffffffffff1673ffffffffffffffffffffffffffffffffffffffff1673ffffffffffffffffffffffffffffffffffffffff1681526020019081526020016000206001015460046000600160008a81526020019081526020016000208581548110610ed557fe5b9060005260206000200160009054906101000a900473ffffffffffffffffffffffffffffffffffffffff1673ffffffffffffffffffffffffffffffffffffffff1673ffffffffffffffffffffffffffffffffffffffff16815260200190815260200160002060030160008881526020019081526020016000205402028301925060046000600160008881526020019081526020016000208381548110610f7757fe5b9060005260206000200160009054906101000a900473ffffffffffffffffffffffffffffffffffffffff1673ffffffffffffffffffffffffffffffffffffffff1673ffffffffffffffffffffffffffffffffffffffff168152602001908152602001600020600001546004600060016000898152602001908152602001600020848154811061100257fe5b9060005260206000200160009054906101000a900473ffffffffffffffffffffffffffffffffffffffff1673ffffffffffffffffffffffffffffffffffffffff1673ffffffffffffffffffffffffffffffffffffffff1681526020019081526020016000206001015402820191508080600101915050610d7f565b506000816002028284018161108e57fe5b059050600082600202838501816110a157fe5b079050600060018314806110b55750838212155b156110db57600160026000898152602001908152602001600020600a0181905550611120565b8382121561111f577fffffffffffffffffffffffffffffffffffffffffffffffffffffffffffffffff60026000898152602001908152602001600020600a01819055505b5b60005b60016000898152602001908152602001600020805490508110156115d657600060046000600160008c8152602001908152602001600020848154811061116557fe5b9060005260206000200160009054906101000a900473ffffffffffffffffffffffffffffffffffffffff1673ffffffffffffffffffffffffffffffffffffffff1673ffffffffffffffffffffffffffffffffffffffff16815260200190815260200160002060030160008a8152602001908152602001600020541315611454578160046000600160008c8152602001908152602001600020848154811061120857fe5b9060005260206000200160009054906101000a900473ffffffffffffffffffffffffffffffffffffffff1673ffffffffffffffffffffffffffffffffffffffff1673ffffffffffffffffffffffffffffffffffffffff16815260200190815260200160002060030160008a8152602001908152602001600020540260046000600160008c815260200190815260200160002084815481106112a557fe5b9060005260206000200160009054906101000a900473ffffffffffffffffffffffffffffffffffffffff1673ffffffffffffffffffffffffffffffffffffffff1673ffffffffffffffffffffffffffffffffffffffff168152602001908152602001600020600001600082825401925050819055508160046000600160008c8152602001908152602001600020848154811061133d57fe5b9060005260206000200160009054906101000a900473ffffffffffffffffffffffffffffffffffffffff1673ffffffffffffffffffffffffffffffffffffffff1673ffffffffffffffffffffffffffffffffffffffff16815260200190815260200160002060030160008a8152602001908152602001600020540260046000600160008c815260200190815260200160002084815481106113da57fe5b9060005260206000200160009054906101000a900473ffffffffffffffffffffffffffffffffffffffff1673ffffffffffffffffffffffffffffffffffffffff1673ffffffffffffffffffffffffffffffffffffffff168152602001908152602001600020600101600082825401925050819055506115c9565b817fffffffffffffffffffffffffffffffffffffffffffffffffffffffffffffffff0260046000600160008c8152602001908152602001600020848154811061149957fe5b9060005260206000200160009054906101000a900473ffffffffffffffffffffffffffffffffffffffff1673ffffffffffffffffffffffffffffffffffffffff1673ffffffffffffffffffffffffffffffffffffffff16815260200190815260200160002060000160008282540192505081905550817fffffffffffffffffffffffffffffffffffffffffffffffffffffffffffffffff0260046000600160008c8152602001908152602001600020848154811061155357fe5b9060005260206000200160009054906101000a900473ffffffffffffffffffffffffffffffffffffffff1673ffffffffffffffffffffffffffffffffffffffff1673ffffffffffffffffffffffffffffffffffffffff168152602001908152602001600020600101600082825401925050819055505b8080600101915050611123565b5060005b60016000898152602001908152602001600020805490508110156118815760018260046000600160008d8152602001908152602001600020858154811061161d57fe5b9060005260206000200160009054906101000a900473ffffffffffffffffffffffffffffffffffffffff1673ffffffffffffffffffffffffffffffffffffffff1673ffffffffffffffffffffffffffffffffffffffff16815260200190815260200160002060030160008b81526020019081526020016000205402141561178b57600260008981526020019081526020016000206007015460046000600160008c815260200190815260200160002084815481106116d757fe5b9060005260206000200160009054906101000a900473ffffffffffffffffffffffffffffffffffffffff1673ffffffffffffffffffffffffffffffffffffffff1673ffffffffffffffffffffffffffffffffffffffff168152602001908152602001600020600601600082825401925050819055506002600089815260200190815260200160002060070154600260008a815260200190815260200160002060030160008282540392505081905550611874565b600260008981526020019081526020016000206006015460046000600160008c815260200190815260200160002084815481106117c457fe5b9060005260206000200160009054906101000a900473ffffffffffffffffffffffffffffffffffffffff1673ffffffffffffffffffffffffffffffffffffffff1673ffffffffffffffffffffffffffffffffffffffff168152602001908152602001600020600601600082825403925050819055506002600089815260200190815260200160002060060154600260008a8152602001908152602001600020600301600082825401925050819055505b80806001019150506115da565b50600160026000898152602001908152602001600020600501819055507fbd9785037e1262e9a00f3274afb543f70050db0c0a99864959f281c5348621e9816040516118cd9190613f0c565b60405180910390a150505050505050565b6000600680549050905090565b6118f3612ddc565b600760008373ffffffffffffffffffffffffffffffffffffffff1673ffffffffffffffffffffffffffffffffffffffff1681526020019081526020016000206040518061014001604052908160008201548152602001600182015481526020016002820154815260200160038201548152602001600482015481526020016005820154815260200160068201548152602001600782015481526020016008820160009054906101000a900460ff161515151581526020016008820160019054906101000a900460ff1615151515815250509050919050565b60008060006119d984612cfd565b9250925092506000856040516020016119f29190613d89565b6040516020818303038152906040528051906020012090503373ffffffffffffffffffffffffffffffffffffffff1660018286868660405160008152602001604052604051611a449493929190613ec7565b6020604051602081039080840390855afa158015611a66573d6000803e3d6000fd5b5050506020604051035173ffffffffffffffffffffffffffffffffffffffff1614611ac6576040517f08c379a0000000000000000000000000000000000000000000000000000000008152600401611abd9061401e565b60405180910390fd5b6000600560003373ffffffffffffffffffffffffffffffffffffffff1673ffffffffffffffffffffffffffffffffffffffff1681526020019081526020016000205414611b48576040517f08c379a0000000000000000000000000000000000000000000000000000000008152600401611b3f9061407e565b60405180910390fd5b6006339080600181540180825580915050600190039060005260206000200160009091909190916101000a81548173ffffffffffffffffffffffffffffffffffffffff021916908373ffffffffffffffffffffffffffffffffffffffff1602179055506001600560003373ffffffffffffffffffffffffffffffffffffffff1673ffffffffffffffffffffffffffffffffffffffff168152602001908152602001600020819055506001600460003373ffffffffffffffffffffffffffffffffffffffff1673ffffffffffffffffffffffffffffffffffffffff168152602001908152602001600020600001819055506001600460003373ffffffffffffffffffffffffffffffffffffffff1673ffffffffffffffffffffffffffffffffffffffff168152602001908152602001600020600101819055507f668925a7bc9acb2eb96b835fa199914e30573a7a74ab45e2bb2711f31536ce05336001604051611cb2929190613daf565b60405180910390a1505050505050565b60606006805480602002602001604051908101604052809291908181526020018280548015611d4657602002820191906000526020600020905b8160009054906101000a900473ffffffffffffffffffffffffffffffffffffffff1673ffffffffffffffffffffffffffffffffffffffff1681526020019060010190808311611cfc575b5050505050905090565b6000600354905090565b6000600460008473ffffffffffffffffffffffffffffffffffffffff1673ffffffffffffffffffffffffffffffffffffffff168152602001908152602001600020600401600083815260200190815260200160002060009054906101000a900460ff16905092915050565b6000600880549050905090565b600060016000838152602001908152602001600020805490509050919050565b6002600085815260200190815260200160002060090154600260008681526020019081526020016000206008015460026000878152602001908152602001600020600201540101811115611e7b576040517f08c379a0000000000000000000000000000000000000000000000000000000008152600401611e7290613fbe565b60405180910390fd5b8282604051602001611e8e929190613d5d565b60405160208183030381529060405280519060200120600460003373ffffffffffffffffffffffffffffffffffffffff1673ffffffffffffffffffffffffffffffffffffffff16815260200190815260200160002060020160008681526020019081526020016000205414611f38576040517f08c379a0000000000000000000000000000000000000000000000000000000008152600401611f2f906140fe565b60405180910390fd5b82600460003373ffffffffffffffffffffffffffffffffffffffff1673ffffffffffffffffffffffffffffffffffffffff1681526020019081526020016000206003016000868152602001908152602001600020819055507fdef66c77ffe1a02e4aa7028bba0b6e9919e3f7cbfc96c028d7f06e84db64a0138433604051611fc19291906141fa565b60405180910390a150505050565b60008611612012576040517f08c379a0000000000000000000000000000000000000000000000000000000008152600401612009906140be565b60405180910390fd5b853414612054576040517f08c379a000000000000000000000000000000000000000000000000000000000815260040161204b9061413e565b60405180910390fd5b60006003549050886002600083815260200190815260200160002060000181905550336002600083815260200190815260200160002060010160006101000a81548173ffffffffffffffffffffffffffffffffffffffff021916908373ffffffffffffffffffffffffffffffffffffffff160217905550876002600083815260200190815260200160002060020181905550866002600083815260200190815260200160002060030181905550856002600083815260200190815260200160002060040160006101000a81548173ffffffffffffffffffffffffffffffffffffffff021916908373ffffffffffffffffffffffffffffffffffffffff160217905550600060026000838152602001908152602001600020600a018190555060008514156121a357670de0b6b3a764000060026000838152602001908152602001600020600701819055506121bf565b8460026000838152602001908152602001600020600701819055505b60008414156121f057670de0b6b3a7640000600260008381526020019081526020016000206006018190555061220c565b8360026000838152602001908152602001600020600601819055505b6000831415612237576102586002600083815260200190815260200160002060080181905550612253565b8260026000838152602001908152602001600020600801819055505b600082141561227e57610258600260008381526020019081526020016000206009018190555061229a565b8160026000838152602001908152602001600020600901819055505b600060026000838152602001908152602001600020600501819055506001600354016003819055507f6de6dd265a66870495db47d80136a9abe827e8d8f6f7dc77dc787a810a99d2268982336040516122f593929190613e90565b60405180910390a1505050505050505050565b6000806000600460008573ffffffffffffffffffffffffffffffffffffffff1673ffffffffffffffffffffffffffffffffffffffff16815260200190815260200160002060000154600460008673ffffffffffffffffffffffffffffffffffffffff1673ffffffffffffffffffffffffffffffffffffffff16815260200190815260200160002060010154600460008773ffffffffffffffffffffffffffffffffffffffff1673ffffffffffffffffffffffffffffffffffffffff168152602001908152602001600020600601549250925092509193909250565b6002600083815260200190815260200160002060040160009054906101000a900473ffffffffffffffffffffffffffffffffffffffff1673ffffffffffffffffffffffffffffffffffffffff163373ffffffffffffffffffffffffffffffffffffffff1614612487576040517f08c379a000000000000000000000000000000000000000000000000000000000815260040161247e90613f5e565b60405180910390fd5b6001600460008373ffffffffffffffffffffffffffffffffffffffff1673ffffffffffffffffffffffffffffffffffffffff168152602001908152602001600020600401600084815260200190815260200160002060006101000a81548160ff021916908315150217905550600460008273ffffffffffffffffffffffffffffffffffffffff1673ffffffffffffffffffffffffffffffffffffffff1681526020019081526020016000206005018290806001815401808255809150506001900390600052602060002001600090919091909150557fad445976d756c325343e3cde33ca48c188cf3cd6aef968577b300bafb0a25020828260405161258d9291906141d1565b60405180910390a15050565b6001600560003373ffffffffffffffffffffffffffffffffffffffff1673ffffffffffffffffffffffffffffffffffffffff168152602001908152602001600020541461261b576040517f08c379a00000000000000000000000000000000000000000000000000000000081526004016126129061411e565b60405180910390fd5b89600760008d73ffffffffffffffffffffffffffffffffffffffff1673ffffffffffffffffffffffffffffffffffffffff1681526020019081526020016000206000018190555088600760008d73ffffffffffffffffffffffffffffffffffffffff1673ffffffffffffffffffffffffffffffffffffffff1681526020019081526020016000206001018190555087600760008d73ffffffffffffffffffffffffffffffffffffffff1673ffffffffffffffffffffffffffffffffffffffff1681526020019081526020016000206002018190555086600760008d73ffffffffffffffffffffffffffffffffffffffff1673ffffffffffffffffffffffffffffffffffffffff1681526020019081526020016000206003018190555085600760008d73ffffffffffffffffffffffffffffffffffffffff1673ffffffffffffffffffffffffffffffffffffffff1681526020019081526020016000206004018190555084600760008d73ffffffffffffffffffffffffffffffffffffffff1673ffffffffffffffffffffffffffffffffffffffff1681526020019081526020016000206005018190555083600760008d73ffffffffffffffffffffffffffffffffffffffff1673ffffffffffffffffffffffffffffffffffffffff1681526020019081526020016000206006018190555082600760008d73ffffffffffffffffffffffffffffffffffffffff1673ffffffffffffffffffffffffffffffffffffffff1681526020019081526020016000206007018190555081600760008d73ffffffffffffffffffffffffffffffffffffffff1673ffffffffffffffffffffffffffffffffffffffff16815260200190815260200160002060080160006101000a81548160ff02191690831515021790555080600760008d73ffffffffffffffffffffffffffffffffffffffff1673ffffffffffffffffffffffffffffffffffffffff16815260200190815260200160002060080160016101000a81548160ff02191690831515021790555060088b9080600181540180825580915050600190039060005260206000200160009091909190916101000a81548173ffffffffffffffffffffffffffffffffffffffff021916908373ffffffffffffffffffffffffffffffffffffffff160217905550600960003373ffffffffffffffffffffffffffffffffffffffff1673ffffffffffffffffffffffffffffffffffffffff1681526020019081526020016000208b9080600181540180825580915050600190039060005260206000200160009091909190916101000a81548173ffffffffffffffffffffffffffffffffffffffff021916908373ffffffffffffffffffffffffffffffffffffffff1602179055507fa1d535b53fb85fad25a9639961384d4622e3876d8bdd858e779e931dd8604d2e8b8a604051612a3b929190613e0f565b60405180910390a15050505050505050505050565b6000600460008473ffffffffffffffffffffffffffffffffffffffff1673ffffffffffffffffffffffffffffffffffffffff168152602001908152602001600020600301600083815260200190815260200160002054905092915050565b60011515600460003373ffffffffffffffffffffffffffffffffffffffff1673ffffffffffffffffffffffffffffffffffffffff168152602001908152602001600020600401600085815260200190815260200160002060009054906101000a900460ff16151514612b55576040517f08c379a0000000000000000000000000000000000000000000000000000000008152600401612b4c906140de565b60405180910390fd5b6002600084815260200190815260200160002060080154600260008581526020019081526020016000206002015401811115612bc6576040517f08c379a0000000000000000000000000000000000000000000000000000000008152600401612bbd9061403e565b60405180910390fd5b81600460003373ffffffffffffffffffffffffffffffffffffffff1673ffffffffffffffffffffffffffffffffffffffff1681526020019081526020016000206002016000858152602001908152602001600020819055507f2e7d6680302440a76b8a673f94bb4245e0106aba81bdb7ee3c92e6610a639fb18333604051612c4f9291906141fa565b60405180910390a1505050565b606060016000838152602001908152602001600020805480602002602001604051908101604052809291908181526020018280548015612cf157602002820191906000526020600020905b8160009054906101000a900473ffffffffffffffffffffffffffffffffffffffff1673ffffffffffffffffffffffffffffffffffffffff1681526020019060010190808311612ca7575b50505050509050919050565b60008060006041845114612d1057600080fd5b60008060006020870151925060408701519150606087015160001a9050601b8160ff161015612d4057601b810190505b8083839550955095505050509193909250565b60405180610160016040528060008019168152602001600073ffffffffffffffffffffffffffffffffffffffff1681526020016000815260200160008152602001600073ffffffffffffffffffffffffffffffffffffffff1681526020016000815260200160008152602001600081526020016000815260200160008152602001600081525090565b60405180610140016040528060008019168152602001600080191681526020016000815260200160008152602001600081526020016000815260200160008152602001600081526020016000151581526020016000151581525090565b600081359050612e48816143dc565b92915050565b600081359050612e5d816143f3565b92915050565b600081359050612e728161440a565b92915050565b600082601f830112612e8957600080fd5b8135612e9c612e9782614250565b614223565b91508082526020830160208301858383011115612eb857600080fd5b612ec3838284614386565b50505092915050565b600081359050612edb81614421565b92915050565b600081359050612ef081614438565b92915050565b600060208284031215612f0857600080fd5b6000612f1684828501612e39565b91505092915050565b60008060008060008060008060008060006101608c8e031215612f4157600080fd5b6000612f4f8e828f01612e39565b9b50506020612f608e828f01612e63565b9a50506040612f718e828f01612e63565b9950506060612f828e828f01612ee1565b9850506080612f938e828f01612ee1565b97505060a0612fa48e828f01612ee1565b96505060c0612fb58e828f01612ee1565b95505060e0612fc68e828f01612ecc565b945050610100612fd88e828f01612ecc565b935050610120612fea8e828f01612e4e565b925050610140612ffc8e828f01612e4e565b9150509295989b509295989b9093969950565b6000806040838503121561302257600080fd5b600061303085828601612e39565b925050602061304185828601612ee1565b9150509250929050565b6000806040838503121561305e57600080fd5b600061306c85828601612e63565b925050602083013567ffffffffffffffff81111561308957600080fd5b61309585828601612e78565b9150509250929050565b600080600080608085870312156130b557600080fd5b60006130c387828801612e63565b945050602085013567ffffffffffffffff8111156130e057600080fd5b6130ec87828801612e78565b93505060406130fd87828801612ee1565b925050606061310e87828801612ee1565b91505092959194509250565b600080600080600080600080610100898b03121561313757600080fd5b60006131458b828c01612e63565b98505060206131568b828c01612ee1565b97505060406131678b828c01612ee1565b96505060606131788b828c01612e39565b95505060806131898b828c01612ee1565b94505060a061319a8b828c01612ee1565b93505060c06131ab8b828c01612ee1565b92505060e06131bc8b828c01612ee1565b9150509295985092959890939650565b6000602082840312156131de57600080fd5b60006131ec84828501612ee1565b91505092915050565b6000806040838503121561320857600080fd5b600061321685828601612ee1565b925050602061322785828601612e39565b9150509250929050565b60008060006060848603121561324657600080fd5b600061325486828701612ee1565b935050602061326586828701612e63565b925050604061327686828701612ee1565b9150509250925092565b6000806000806080858703121561329657600080fd5b60006132a487828801612ee1565b94505060206132b587828801612ecc565b93505060406132c687828801612e63565b92505060606132d787828801612ee1565b91505092959194509250565b600080604083850312156132f657600080fd5b600061330485828601612ee1565b925050602061331585828601612ee1565b9150509250929050565b600061332b8383613346565b60208301905092915050565b61334081614350565b82525050565b61334f816142e7565b82525050565b61335e816142e7565b82525050565b600061336f8261428c565b61337981856142af565b93506133848361427c565b8060005b838110156133b557815161339c888261331f565b97506133a7836142a2565b925050600181019050613388565b5085935050505092915050565b6133cb816142f9565b82525050565b6133da816142f9565b82525050565b6133e981614305565b82525050565b6133f881614305565b82525050565b61340f61340a82614305565b6143c8565b82525050565b600061342082614297565b61342a81856142c0565b935061343a818560208601614395565b80840191505092915050565b61344f8161430f565b82525050565b61345e8161430f565b82525050565b6134756134708261430f565b6143d2565b82525050565b60006134886024836142cb565b91507f4f6e6c79206d616e616765722063616e2063616c6c20746869732066756e637460008301527f696f6e2e000000000000000000000000000000000000000000000000000000006020830152604082019050919050565b60006134ee601c836142dc565b91507f19457468657265756d205369676e6564204d6573736167653a0a3332000000006000830152601c82019050919050565b600061352e6030836142cb565b91507f54686520726573756c742063616e6e6f742062652072657665616c656420626560008301527f666f726520746865206578706972792e000000000000000000000000000000006020830152604082019050919050565b6000613594601a836142cb565b91507f506c6179657220616c726561647920726567697374657265642e0000000000006000830152602082019050919050565b60006135d4602d836142cb565b91507f54686520766f74652063616e6e6f742062652072657665616c6564206166746560008301527f7220746865206578706972792e000000000000000000000000000000000000006020830152604082019050919050565b600061363a602f836142cb565b91507f54686520726567697374726174696f6e206469646e277420726563656976652060008301527f74686520636f6d6d69746d656e742e00000000000000000000000000000000006020830152604082019050919050565b60006136a06032836142cb565b91507f54686520636f6d6d69746d656e742073686f756c64206265206772656174657260008301527f207468616e207468652070656e616c74792e00000000000000000000000000006020830152604082019050919050565b6000613706602e836142cb565b91507f54686520726567697374726174696f6e206964656e746974792076657269666960008301527f636174696f6e206661696c65642e0000000000000000000000000000000000006020830152604082019050919050565b600061376c6024836142cb565b91507f54686520706c617965722063616e6e6f7420766f74652061667465722065787060008301527f6972792e000000000000000000000000000000000000000000000000000000006020830152604082019050919050565b60006137d2601f836142cb565b91507f506c61796572206e6f7420616464656420746f207468652073797374656d2e006000830152602082019050919050565b60006138126023836142cb565b91507f506c6179657220616c726561647920616464656420746f20746865207379737460008301527f656d2e00000000000000000000000000000000000000000000000000000000006020830152604082019050919050565b60006138786038836142cb565b91507f54686520766f74696e6720697320616c72656164792066696e6973686564206160008301527f6e6420726573756c747320617265206465636c617265642e00000000000000006020830152604082019050919050565b60006138de6025836142cb565b91507f54686520636f6d6d69746d656e742073686f756c64206265206d6f726520746860008301527f616e20302e0000000000000000000000000000000000000000000000000000006020830152604082019050919050565b60006139446041836142cb565b91507f54686520706c617965722063616e20636f6d6d6974206f6e6c79207768656e2060008301527f6d616e6167657220636f6e6669726d732064657369676e2065786368616e676560208301527f2e000000000000000000000000000000000000000000000000000000000000006040830152606082019050919050565b60006139d06022836142cb565b91507f54686520706c6179657220646964206e6f7420636f6d6d697420746f2074686960008301527f732e0000000000000000000000000000000000000000000000000000000000006020830152604082019050919050565b6000613a366029836142cb565b91507f4f6e6c79207265676973746572656420706c617965722063616e20616464206160008301527f207072696e7465722e00000000000000000000000000000000000000000000006020830152604082019050919050565b6000613a9c602f836142cb565b91507f54686520616e6e6f756e63656d656e74206469646e277420726563656976652060008301527f74686520636f6d6d69746d656e742e00000000000000000000000000000000006020830152604082019050919050565b6000613b026023836142cb565b91507f4e6f206d6f726520726567697374726174696f6e73206172652061636365707460008301527f65642e00000000000000000000000000000000000000000000000000000000006020830152604082019050919050565b61016082016000820151613b7260008501826133e0565b506020820151613b856020850182613346565b506040820151613b986040850182613d08565b506060820151613bab6060850182613d08565b506080820151613bbe6080850182613346565b5060a0820151613bd160a0850182613d08565b5060c0820151613be460c0850182613d08565b5060e0820151613bf760e0850182613d08565b50610100820151613c0c610100850182613d08565b50610120820151613c21610120850182613d08565b50610140820151613c36610140850182613446565b50505050565b61014082016000820151613c5360008501826133e0565b506020820151613c6660208501826133e0565b506040820151613c796040850182613d08565b506060820151613c8c6060850182613d08565b506080820151613c9f6080850182613d08565b5060a0820151613cb260a0850182613d08565b5060c0820151613cc560c0850182613446565b5060e0820151613cd860e0850182613446565b50610100820151613ced6101008501826133c2565b50610120820151613d026101208501826133c2565b50505050565b613d1181614339565b82525050565b613d2081614339565b82525050565b613d2f81614343565b82525050565b6000613d418285613415565b9150613d4d82846133fe565b6020820191508190509392505050565b6000613d698285613464565b602082019150613d7982846133fe565b6020820191508190509392505050565b6000613d94826134e1565b9150613da082846133fe565b60208201915081905092915050565b6000604082019050613dc46000830185613337565b613dd160208301846133d1565b9392505050565b6000606082019050613ded6000830186613337565b613dfa6020830185613d17565b613e0760408301846133d1565b949350505050565b6000604082019050613e246000830185613355565b613e3160208301846133ef565b9392505050565b60006020820190508181036000830152613e528184613364565b905092915050565b6000602082019050613e6f60008301846133d1565b92915050565b6000602082019050613e8a60008301846133ef565b92915050565b6000606082019050613ea560008301866133ef565b613eb26020830185613d17565b613ebf6040830184613337565b949350505050565b6000608082019050613edc60008301876133ef565b613ee96020830186613d26565b613ef660408301856133ef565b613f0360608301846133ef565b95945050505050565b6000602082019050613f216000830184613455565b92915050565b6000606082019050613f3c6000830186613455565b613f496020830185613d17565b613f566040830184613d17565b949350505050565b60006020820190508181036000830152613f778161347b565b9050919050565b60006020820190508181036000830152613f9781613521565b9050919050565b60006020820190508181036000830152613fb781613587565b9050919050565b60006020820190508181036000830152613fd7816135c7565b9050919050565b60006020820190508181036000830152613ff78161362d565b9050919050565b6000602082019050818103600083015261401781613693565b9050919050565b60006020820190508181036000830152614037816136f9565b9050919050565b600060208201905081810360008301526140578161375f565b9050919050565b60006020820190508181036000830152614077816137c5565b9050919050565b6000602082019050818103600083015261409781613805565b9050919050565b600060208201905081810360008301526140b78161386b565b9050919050565b600060208201905081810360008301526140d7816138d1565b9050919050565b600060208201905081810360008301526140f781613937565b9050919050565b60006020820190508181036000830152614117816139c3565b9050919050565b6000602082019050818103600083015261413781613a29565b9050919050565b6000602082019050818103600083015261415781613a8f565b9050919050565b6000602082019050818103600083015261417781613af5565b9050919050565b6000610160820190506141946000830184613b5b565b92915050565b6000610140820190506141b06000830184613c3c565b92915050565b60006020820190506141cb6000830184613d17565b92915050565b60006040820190506141e66000830185613d17565b6141f36020830184613355565b9392505050565b600060408201905061420f6000830185613d17565b61421c6020830184613337565b9392505050565b6000604051905081810181811067ffffffffffffffff8211171561424657600080fd5b8060405250919050565b600067ffffffffffffffff82111561426757600080fd5b601f19601f8301169050602081019050919050565b6000819050602082019050919050565b600081519050919050565b600081519050919050565b6000602082019050919050565b600082825260208201905092915050565b600081905092915050565b600082825260208201905092915050565b600081905092915050565b60006142f282614319565b9050919050565b60008115159050919050565b6000819050919050565b6000819050919050565b600073ffffffffffffffffffffffffffffffffffffffff82169050919050565b6000819050919050565b600060ff82169050919050565b600061435b82614362565b9050919050565b600061436d82614374565b9050919050565b600061437f82614319565b9050919050565b82818337600083830152505050565b60005b838110156143b3578082015181840152602081019050614398565b838111156143c2576000848401525b50505050565b6000819050919050565b6000819050919050565b6143e5816142e7565b81146143f057600080fd5b50565b6143fc816142f9565b811461440757600080fd5b50565b61441381614305565b811461441e57600080fd5b50565b61442a8161430f565b811461443557600080fd5b50565b61444181614339565b811461444c57600080fd5b5056fea26469706673582212204fd5206fd390ac568aa9cfae8da55ae47b41ed68907b69a8ec5febe8ca9a6cb964736f6c63430007000033",
  "immutableReferences": {},
  "source": "/**\n * @file marketplace.sol\n * @author Nachiket Tapas <ntapas@unime.it>\n * @date created 01 Jun 2020\n * @date last modified 09 Jul 2020\n * @SPDX-License-Identifier: UNLICENSED\n */\n\npragma solidity ^0.7.0;\npragma experimental ABIEncoderV2;\n\ncontract designVoting {\n    // The status tells the state of the voting on the design\n    // 0: voting\n    // 1: finished\n    struct designState\n    {\n        bytes32 filehash;\n        address vendor;\n        uint256 timestamp;\n        uint256 balance;\n        address manager;\n        uint256 status;\n        uint256 taup;\n        uint256 taur;\n        uint256 deltaExp;\n        uint256 deltaReveal;\n        int result;\n    }\n\n    //The vote is considered as follows\n    // 0 : no vote. maybe due to time expired\n    // -1 : invalid design\n    // 1 : valid design\n    struct playerState\n    {\n        int256 reputation;\n        uint256 weight;\n        mapping ( uint256 => bytes32 ) commitments;\n        mapping ( uint256 => int ) votes;\n        mapping ( uint256 => bool ) received;\n        uint256[] designes;\n        uint256 balance;\n    }\n\n    //Printer details\n    struct printerDetails\n    {\n        bytes32 make;\n        bytes32 name;\n        uint strength;    // values: Very High = 3, High = 2, Medium =1 , Low = 0\n        uint flexibility; // values: Very High = 3, High = 2, Medium =1 , Low = 0\n        uint durability;  // values: Very High = 3, High = 2, Medium =1 , Low = 0\n        uint difficulty;  // values: Very High = 3, High = 2, Medium =1 , Low = 0\n        int printTemperature;\n        int bedTemperature;\n        bool soluble;\n        bool foodSafety;\n    }\n\n    //Mapping of design identified by design index and collection of players indexes registered to vote\n    mapping (uint256 => mapping (address => uint)) private checkPlayers;\n    mapping (uint256 => address[]) private regPlayers;\n\n    //Design details indexed by design index\n    mapping (uint256 => designState) private designes;\n    uint256 private numDesignes = 0;\n\n    //Player details indexed by player address\n    mapping (address => playerState) private players;\n    mapping (address => uint) private isPlayer;\n    address[] private playerAddresses;\n\n    //Printer details indexed by printer address\n    mapping (address => printerDetails) private printers;\n    address[] private printerAddresses;\n\n    //Printer player mapping\n    mapping (address => address[]) private userPrinters;\n\n    //Notifications for successful completion of events\n    event newDesignAvailable(bytes32 fileHash, uint256 designNo, address creator);\n    event resultCalculated(bytes32 fileHash, uint256 designNo, address creator);\n    event newPlayerAddition(address player, bool status);\n    event newPlayerRegistration(address player, uint256 design, bool status);\n    event playerDesignReceived(uint256 design, address player);\n    event playerCommitted(uint256 design, address player);\n    event playerRevealed(uint256 design, address player);\n    event votingResult(int result);\n\n    event newPrinterAddition(address printer, bytes32 name);\n\n    event tempOutput(address _output);//, uint256 timestamp, uint256 expiry, uint256 balance);\n\n    //The commitment is send via the value field in the remix. If the sent value matches the commitment parameter,\n    //the contract announces the availability of new design for verification.\n    function announce(bytes32 _fileHash, uint256 _timestamp, uint256 _commitment, address _manager, uint256 _taur, uint256 _taup, uint256 _deltaExp, uint256 _deltaReveal)\n    public payable\n    {\n        //Check for positive commitment\n        require(_commitment > 0, \"The commitment should be more than 0.\");\n\n        //Check if the commitment parameter matches the commiment sent to the contract.\n        require(msg.value == _commitment, \"The announcement didn't receive the commitment.\");\n\n        //Design index\n        uint256 j = numDesignes;\n\n        //Design file hash from IPFS\n        designes[j].filehash = _fileHash;\n\n        //Design creator\n        designes[j].vendor = msg.sender;\n\n        //Creation timestamp received from the js script\n        designes[j].timestamp = _timestamp;\n\n        //Commitment\n        designes[j].balance = _commitment;\n\n        //Set a manager\n        designes[j].manager = _manager;\n\n        //Set result to zero\n        designes[j].result = 0;\n\n        //Setting the value for reward\n        if (_taur == 0) {\n            designes[j].taur = 1000000000000000000;\n        } else {\n            designes[j].taur = _taur;\n        }\n\n        //Setting the value for penalty\n        if (_taup == 0) {\n            designes[j].taup = 1000000000000000000;\n        } else {\n            designes[j].taup = _taup;\n        }\n\n        //Setting the value for expiry\n        if (_deltaExp == 0) {\n            designes[j].deltaExp = 600;\n        } else {\n            designes[j].deltaExp = _deltaExp;\n        }\n\n        //Setting the value for reveal\n        if (_deltaReveal == 0) {\n            designes[j].deltaReveal = 600;\n        } else {\n            designes[j].deltaReveal = _deltaReveal;\n        }\n\n        //Set the status to be created\n        designes[j].status = 0;\n\n        //Incrementing the design index\n        numDesignes = numDesignes + 1;\n\n        //Emitting notification for new design creation.\n        //Verifiers receiving the notification can participate in the process\n        //Filehash to ensure file integrity\n        //Index to use for search\n        //Vendor address for source verification\n        emit newDesignAvailable(_fileHash, j, msg.sender);\n    }\n\n    //Reader function to get number of designes\n    function getNumDesignes() public view returns (uint256) {\n        return numDesignes;\n    }\n\n    //Reader function to get designe details at _index\n    function getDesigne(uint256 _index) public view returns (designState memory) {\n        return designes[_index];\n    }\n\n    //Function to add players to the system. This does not mean the player is registering to vote.\n    //function addPlayer(bytes32 _hashMsg, bytes memory _signature) public {\n    function addPlayer(bytes32 _hashMsg, bytes memory _signature) public {\n        //Check for identity of the user registering\n        (uint8 _v, bytes32 _r, bytes32 _s) = splitSignature(_signature);\n        bytes32 prefixedHash = keccak256(abi.encodePacked(\"\\x19Ethereum Signed Message:\\n32\", _hashMsg));\n        require(ecrecover(prefixedHash, _v, _r, _s) == msg.sender, \"The registration identity verification failed.\");\n\n        //Check for existing player\n        require( isPlayer [ msg.sender ] == 0, \"Player already added to the system.\");\n\n        //Push Player address\n        playerAddresses.push ( msg.sender );\n\n        //Set player to 1 to denote that player is added to the system\n        isPlayer [ msg.sender ] = 1;\n\n        //Initialize player requesting registration\n        players[msg.sender].reputation = 1;\n        players[msg.sender].weight = 1;\n\n        //Event for successful registration\n        emit newPlayerAddition(msg.sender, true);\n\n    }\n\n    //Reader function to get number of players\n    function getNumPlayers() public view returns (uint256) {\n        return playerAddresses.length;\n    }\n\n    //Reader function to get player's addresses\n    function getPlayerAddresses() public view returns (address[] memory) {\n        return playerAddresses;\n    }\n\n    //Reader function to get player details for _playerAddress.\n    //This does not include the vote, commitment, and design file received status\n    function getPlayerDetails(address _playerAddress) public view returns ( int256, uint256, uint256 ) {\n        return ( players[_playerAddress].reputation, players[_playerAddress].weight, players[_playerAddress].balance );\n    }\n\n    //Get commitment corresponding to design number and player\n    function getPlayerCommitment(address _playerAddress, uint256 _designNo) public view returns ( bytes32 ) {\n        return ( players[_playerAddress].commitments[_designNo] );\n    }\n\n    //Get vote corresponding to design number and player\n    function getPlayerVote(address _playerAddress, uint256 _designNo) public view returns ( int ) {\n        return ( players[_playerAddress].votes[_designNo] );\n    }\n\n    //Check file received status corresponding to design number and player\n    function isFileReceived(address _playerAddress, uint256 _designNo) public view returns ( bool ) {\n        return ( players[_playerAddress].received[_designNo] );\n    }\n\n    //This function can be considered as expression of interest to take part in the voting and not to be confused with\n    //player registration to the system.\n    function register(bytes32 _hashMsg, bytes memory _signature, uint256 _designNo, uint256 _commitment)\n    public payable\n    {\n        //Check of player is added to the system\n        require(isPlayer [ msg.sender ] == 1, \"Player not added to the system.\");\n\n        //Check for identity of the user registering\n        (uint8 _v, bytes32 _r, bytes32 _s) = splitSignature(_signature);\n        bytes memory prefix = \"\\x19Ethereum Signed Message:\\n32\";\n        bytes32 prefixedHash = keccak256(abi.encodePacked(prefix, _hashMsg));\n        require(ecrecover(prefixedHash, _v, _r, _s) == msg.sender, \"The registration identity verification failed.\");\n\n        //Check for positive commitment\n        require(_commitment > 0, \"The commitment should be more than 0.\");\n\n        //Check if the commitment parameter matches the commiment sent to the contract.\n        require(msg.value == _commitment, \"The registration didn't receive the commitment.\");\n\n        //Check if the commitment is less than penalty\n        require(_commitment >= designes[_designNo].taup, \"The commitment should be greater than the penalty.\");\n\n        //Check if the required number of verifiers are already meet\n        require(regPlayers[_designNo].length < designes[_designNo].balance / designes[_designNo].taur, \"No more registrations are accepted.\");\n\n        //Check if already registered\n        require(checkPlayers[_designNo][msg.sender] == 0, \"Player already registered.\");\n\n        //Incrementing the player index and registration\n        checkPlayers[_designNo][msg.sender] = 1;\n        regPlayers[_designNo].push(msg.sender);\n        players[msg.sender].balance += msg.value;\n\n        //Event for successful registration for a design\n        emit newPlayerRegistration(msg.sender, _designNo, true);\n    }\n\n    //Reader function to get number of registered players\n    function getNumRegPlayers(uint256 _designNo) public view returns (uint256) {\n        return regPlayers[_designNo].length;\n    }\n\n    //Reader function to get registered player's addresses\n    function getRegPlayerAddresses(uint256 _designNo) public view returns (address[] memory) {\n        return regPlayers[_designNo];\n    }\n\n    function setReceived(uint256 _designNo, address _playerAddress)\n    public payable\n    {\n        //Check if the sender is the manager responsible for secure exchange.\n        require(msg.sender == designes[_designNo].manager, \"Only manager can call this function.\");\n\n        //The manager sets the design received to be true\n        players[_playerAddress].received[_designNo] = true;\n        players[_playerAddress].designes.push(_designNo);\n\n        //An event is emitted after successful\n        emit playerDesignReceived(_designNo, _playerAddress);\n    }\n\n    function commit(uint256 _designNo, bytes32 _cryptoCommitment, uint256 _timestamp)\n    public\n    {\n        //Check if the player received the design and ready to vote.\n        require(players[msg.sender].received[_designNo] == true, \"The player can commit only when manager confirms design exchange.\");\n\n        //Check for expiry\n        require(_timestamp <= designes[_designNo].timestamp + designes[_designNo].deltaExp, \"The player cannot vote after expiry.\");\n\n        //Store the commitment by the player\n        players[msg.sender].commitments[_designNo] = _cryptoCommitment;\n\n        //An event emitted after successful commitment of vote\n        emit playerCommitted(_designNo, msg.sender);\n    }\n\n    function reveal(uint256 _designNo, int _vote, bytes32 _nonce, uint256 _timestamp)\n    public\n    {\n        //Check for expiry. Beyond the expiry, the player revealing will have\n        //a picture of the voting trend and thus, can change for profit.\n        require(_timestamp <= designes[_designNo].timestamp + designes[_designNo].deltaExp + designes[_designNo].deltaReveal, \"The vote cannot be revealed after the expiry.\");\n\n        //Check the commitment\n        require(players[msg.sender].commitments[_designNo] == keccak256(abi.encodePacked(_vote, _nonce)), \"The player did not commit to this.\");\n\n        //Store the vote by the player\n        players[msg.sender].votes[_designNo] = _vote;\n\n        //An event emitted after successful reveal of vote\n        emit playerRevealed(_designNo, msg.sender);\n    }\n\n    function calculateResult(uint256 _designNo, uint256 _timestamp)\n    public\n    {\n        //Check the status of the voting. If already completed, then this function is not run.\n        require(designes[_designNo].status == 0, \"The voting is already finished and results are declared.\");\n\n        //Check for expiry. The result cannot be calculated before the expiry.\n        require(_timestamp > designes[_designNo].timestamp + designes[_designNo].deltaExp + designes[_designNo].deltaReveal, \"The result cannot be revealed before the expiry.\");\n\n        //Since solidity do not support floating point arithematic, we will store the value as quotient and remainder.\n        //Here we are calculating the numerator and denominator.\n        int256 playerNum = 0;\n        int256 playerDen = 0;\n        for ( uint256 i = 0; i < regPlayers[_designNo].length; i++ ) {\n            playerNum  += ( players[regPlayers[_designNo][i]].votes[_designNo] * int( players[regPlayers[_designNo][i]].weight ) * players[regPlayers[_designNo][i]].reputation );\n            playerDen  += int ( players[regPlayers[_designNo][i]].weight ) * players[regPlayers[_designNo][i]].reputation;\n        }\n\n        //Here we are just calculating the remainder as the value varies from 0 to 1.\n        //The borderline case of same positive and negative votes is considered as correct (To be decided later)\n        int256 finalScoreQuo = ( playerNum + playerDen ) / ( 2 * playerDen );\n        int256 finalScoreRem = ( playerNum + playerDen ) % ( 2 * playerDen );\n        int result = 0;\n        if ( finalScoreQuo == 1 || finalScoreRem >= playerDen ) {\n            designes[_designNo].result = 1;\n        } else if ( finalScoreRem < playerDen ) {\n            designes[_designNo].result = -1;\n        }\n\n        for ( uint256 i = 0; i < regPlayers[_designNo].length; i++ ) {\n            if ( players[regPlayers[_designNo][i]].votes[_designNo] > 0 ) {\n                //Set new reputation\n                players[regPlayers[_designNo][i]].reputation += players[regPlayers[_designNo][i]].votes[_designNo] * result;\n\n                //Set new weight (we only use the player weight. The total weight, which is used as normalization factor is eliminated in the final calculation.)\n                players[regPlayers[_designNo][i]].weight += uint ( players[regPlayers[_designNo][i]].votes[_designNo] * result );\n            } else {\n                //Set new reputation\n                players[regPlayers[_designNo][i]].reputation += -1 * result;\n\n                //Set new weight (we only use the player weight. The total weight, which is used as normalization factor is eliminated in the final calculation.)\n                players[regPlayers[_designNo][i]].weight += uint ( -1 * result );\n            }\n        }\n\n        //Retuen the player commitments\n        for ( uint256 i = 0; i < regPlayers[_designNo].length; i++ ) {\n            if ( players[regPlayers[_designNo][i]].votes[_designNo] * result == 1) {\n                players[regPlayers[_designNo][i]].balance += designes[_designNo].taur;\n                designes[_designNo].balance -= designes[_designNo].taur;\n            } else {\n                players[regPlayers[_designNo][i]].balance -= designes[_designNo].taup;\n                designes[_designNo].balance += designes[_designNo].taup;\n            }\n        }\n\n        //Set the status to finished\n        designes[_designNo].status = 1;\n\n        //Emit the notification for the result\n        emit votingResult(result);\n    }\n\n    //This is a utility function to extract ECDSA parameters from the signature.\n    function splitSignature(bytes memory sig)\n    private\n    pure\n    returns (uint8, bytes32, bytes32)\n    {\n        require(sig.length == 65);\n\n        bytes32 r;\n        bytes32 s;\n        uint8 v;\n\n        assembly {\n        // first 32 bytes, after the length prefix\n            r := mload(add(sig, 32))\n        // second 32 bytes\n            s := mload(add(sig, 64))\n        // final byte (first byte of the next 32 bytes)\n            v := byte(0, mload(add(sig, 96)))\n        }\n\n        if (v < 27) {\n            v += 27;\n        }\n\n        return (v, r, s);\n    }\n\n    function addPrinter(address _printerAddr, bytes32 _make, bytes32 _name, uint _strength, uint _flexibility, uint _durability, uint _difficulty, int _printTemperature,\n        int _bedTemperature, bool _soluble, bool _foodSafety)\n    public\n    {\n        //Check for existing player\n        require( isPlayer [ msg.sender ] == 1, \"Only registered player can add a printer.\");\n\n        //Setting up required properties\n        printers [ _printerAddr ].make = _make;\n        printers [ _printerAddr ].name = _name;\n        printers [ _printerAddr ].strength = _strength;\n        printers [ _printerAddr ].flexibility = _flexibility;\n        printers [ _printerAddr ].durability = _durability;\n        printers [ _printerAddr ].difficulty = _difficulty;\n        printers [ _printerAddr ].printTemperature = _printTemperature;\n        printers [ _printerAddr ].bedTemperature = _bedTemperature;\n        printers [ _printerAddr ].soluble = _soluble;\n        printers [ _printerAddr ].foodSafety = _foodSafety;\n\n        //Add printer address to the array\n        printerAddresses.push( _printerAddr );\n\n        //Mapping the player and the printer/s\n        userPrinters [ msg.sender ].push( _printerAddr );\n\n        //Emit the successfull addition\n        emit newPrinterAddition(_printerAddr, _name);\n    }\n\n    //Reader function to get number of printers registered by a user\n    function getUserPrinters(address _userAddress) public view returns (address[] memory) {\n        return userPrinters[ _userAddress ];\n    }\n\n    //Reader function to get printer details of printer identified by address\n    function getPrinterDetails(address _printerAddr) public view returns (printerDetails memory) {\n        return printers[ _printerAddr ];\n    }\n\n    //Reader function for number of printers registered\n    function getNumPrinters() public view returns (uint256) {\n        return printerAddresses.length;\n    }\n\n    // //In-case the design verification expires, the commitment is returned to the vendor.\n    // //Currently only the vendor can initiate the withdrawl.\n    // function withdraw(uint256 _amount, uint256 _designNo) public {\n    //     //Check if the method initiator is the one who published the design\n    //     require(msg.sender == designes[_designNo].vendor, \"Only the publisher can initiate the withdrawl.\");\n\n    //     //Insert a check condition regarding the time before which the vendor cannot withdraw the commitment\n    //     require(designes[_designNo].expiry <= now, \"The balance can be withdrawn only after expiry.\");\n\n    //     //Check if the amount requested for withdrawl is less than balance\n    //     require(_amount <= designes[_designNo].balance, \"The withdrawl amount is more than the balance.\");\n\n    //     //Check for the withdrawl amount\n    //     require(_amount > 0, \"The withdrawl amount should be greater than 0.\");\n\n    //     //Reducing the balance and sending the withdrawl amount to the vendor\n    //     designes[_designNo].balance -= _amount;\n    //     msg.sender.transfer(_amount);\n    // }\n}",
  "sourcePath": "/home/ubuntu/Android/af-2/web/blockchain/contracts/designVoting.sol",
  "compiler": {
    "name": "solc",
    "version": "0.7.0+commit.9e61f92b.Emscripten.clang"
  },
  "schemaVersion": "3.4.3",
  "updatedAt": "2022-02-25T10:15:37.633Z",
  "devdoc": {
    "kind": "dev",
    "methods": {},
    "version": 1
  },
  "userdoc": {
    "kind": "user",
    "methods": {},
    "version": 1
  }
}