{
  "contractName": "Scheduling",
  "abi": [
    {
      "anonymous": false,
      "inputs": [
        {
          "indexed": false,
          "internalType": "address",
          "name": "player_address",
          "type": "address"
        }
      ],
      "name": "newPlayerAddition",
      "type": "event"
    },
    {
      "anonymous": false,
      "inputs": [
        {
          "indexed": false,
          "internalType": "address",
          "name": "player_address",
          "type": "address"
        },
        {
          "indexed": false,
          "internalType": "bool",
          "name": "status",
          "type": "bool"
        }
      ],
      "name": "newPrinterAddition",
      "type": "event"
    },
    {
      "inputs": [
        {
          "internalType": "bytes32",
          "name": "position",
          "type": "bytes32"
        },
        {
          "internalType": "bytes32",
          "name": "username",
          "type": "bytes32"
        }
      ],
      "name": "addCaller",
      "outputs": [],
      "stateMutability": "payable",
      "type": "function",
      "payable": true
    },
    {
      "inputs": [
        {
          "internalType": "bytes32",
          "name": "position",
          "type": "bytes32"
        },
        {
          "internalType": "bytes32",
          "name": "username",
          "type": "bytes32"
        },
        {
          "internalType": "uint256",
          "name": "from",
          "type": "uint256"
        },
        {
          "internalType": "uint256",
          "name": "to",
          "type": "uint256"
        }
      ],
      "name": "addMaker",
      "outputs": [],
      "stateMutability": "payable",
      "type": "function",
      "payable": true
    },
    {
      "inputs": [
        {
          "internalType": "bool",
          "name": "maker",
          "type": "bool"
        },
        {
          "internalType": "bytes32",
          "name": "position",
          "type": "bytes32"
        },
        {
          "internalType": "bytes32",
          "name": "username",
          "type": "bytes32"
        },
        {
          "internalType": "uint256",
          "name": "from",
          "type": "uint256"
        },
        {
          "internalType": "uint256",
          "name": "to",
          "type": "uint256"
        }
      ],
      "name": "addPlayer",
      "outputs": [],
      "stateMutability": "payable",
      "type": "function",
      "payable": true
    },
    {
      "inputs": [],
      "name": "getPlayerInfo",
      "outputs": [
        {
          "components": [
            {
              "internalType": "enum Scheduling.PlayerType",
              "name": "playerType",
              "type": "uint8"
            },
            {
              "internalType": "bytes32",
              "name": "username",
              "type": "bytes32"
            },
            {
              "internalType": "bytes32",
              "name": "position",
              "type": "bytes32"
            },
            {
              "internalType": "uint256",
              "name": "reputation",
              "type": "uint256"
            },
            {
              "internalType": "uint256",
              "name": "weight",
              "type": "uint256"
            }
          ],
          "internalType": "struct Scheduling.AirPlayer",
          "name": "airPlayer",
          "type": "tuple"
        },
        {
          "components": [
            {
              "internalType": "uint256",
              "name": "avaiabilityRangeFrom",
              "type": "uint256"
            },
            {
              "internalType": "uint256",
              "name": "avaiabilityRangeTo",
              "type": "uint256"
            },
            {
              "internalType": "bool",
              "name": "avaiableToPrint",
              "type": "bool"
            }
          ],
          "internalType": "struct Scheduling.AirMaker",
          "name": "airMaker",
          "type": "tuple"
        }
      ],
      "stateMutability": "view",
      "type": "function",
      "constant": true
    },
    {
      "inputs": [],
      "name": "getPlayers",
      "outputs": [
        {
          "components": [
            {
              "internalType": "enum Scheduling.PlayerType",
              "name": "playerType",
              "type": "uint8"
            },
            {
              "internalType": "bytes32",
              "name": "username",
              "type": "bytes32"
            },
            {
              "internalType": "bytes32",
              "name": "position",
              "type": "bytes32"
            },
            {
              "internalType": "uint256",
              "name": "reputation",
              "type": "uint256"
            },
            {
              "internalType": "uint256",
              "name": "weight",
              "type": "uint256"
            }
          ],
          "internalType": "struct Scheduling.AirPlayer[]",
          "name": "pl",
          "type": "tuple[]"
        }
      ],
      "stateMutability": "view",
      "type": "function",
      "constant": true
    },
    {
      "inputs": [],
      "name": "getNPlayers",
      "outputs": [
        {
          "internalType": "uint256",
          "name": "",
          "type": "uint256"
        }
      ],
      "stateMutability": "view",
      "type": "function",
      "constant": true
    },
    {
      "inputs": [],
      "name": "getNMakers",
      "outputs": [
        {
          "internalType": "uint256",
          "name": "",
          "type": "uint256"
        }
      ],
      "stateMutability": "view",
      "type": "function",
      "constant": true
    },
    {
      "inputs": [],
      "name": "getNCallers",
      "outputs": [
        {
          "internalType": "uint256",
          "name": "",
          "type": "uint256"
        }
      ],
      "stateMutability": "view",
      "type": "function",
      "constant": true
    },
    {
      "inputs": [
        {
          "internalType": "address",
          "name": "printerAddress",
          "type": "address"
        },
        {
          "internalType": "bytes32",
          "name": "name",
          "type": "bytes32"
        },
        {
          "internalType": "enum Scheduling.MaterialType[]",
          "name": "suppertedMaterial",
          "type": "uint8[]"
        },
        {
          "internalType": "uint256[]",
          "name": "nozzles",
          "type": "uint256[]"
        },
        {
          "internalType": "uint256",
          "name": "nozzlesMounted",
          "type": "uint256"
        },
        {
          "internalType": "uint256",
          "name": "printTemperature",
          "type": "uint256"
        },
        {
          "internalType": "uint256",
          "name": "bedTemperature",
          "type": "uint256"
        },
        {
          "internalType": "uint256",
          "name": "volume",
          "type": "uint256"
        },
        {
          "internalType": "bool",
          "name": "soluble",
          "type": "bool"
        },
        {
          "internalType": "bool",
          "name": "foodSafety",
          "type": "bool"
        }
      ],
      "name": "addPrinter",
      "outputs": [],
      "stateMutability": "payable",
      "type": "function",
      "payable": true
    },
    {
      "inputs": [],
      "name": "getMakerPrinters",
      "outputs": [
        {
          "components": [
            {
              "internalType": "bytes32",
              "name": "name",
              "type": "bytes32"
            },
            {
              "internalType": "enum Scheduling.MaterialType[]",
              "name": "supportedMaterial",
              "type": "uint8[]"
            },
            {
              "components": [
                {
                  "internalType": "bytes32",
                  "name": "name",
                  "type": "bytes32"
                },
                {
                  "internalType": "enum Scheduling.MaterialType",
                  "name": "mType",
                  "type": "uint8"
                },
                {
                  "internalType": "enum Scheduling.MaterialColor",
                  "name": "color",
                  "type": "uint8"
                },
                {
                  "internalType": "uint256",
                  "name": "quantityKG",
                  "type": "uint256"
                },
                {
                  "internalType": "uint256",
                  "name": "quantityM",
                  "type": "uint256"
                },
                {
                  "internalType": "uint256",
                  "name": "printTemperature",
                  "type": "uint256"
                },
                {
                  "internalType": "uint256",
                  "name": "bedTemperature",
                  "type": "uint256"
                }
              ],
              "internalType": "struct Scheduling.MaterialDetails",
              "name": "mountedMaterial",
              "type": "tuple"
            },
            {
              "internalType": "uint256[]",
              "name": "nozzles",
              "type": "uint256[]"
            },
            {
              "internalType": "uint256",
              "name": "mountedNozzles",
              "type": "uint256"
            },
            {
              "internalType": "uint256",
              "name": "maxPrintTemperature",
              "type": "uint256"
            },
            {
              "internalType": "uint256",
              "name": "maxBedTemperature",
              "type": "uint256"
            },
            {
              "internalType": "uint256",
              "name": "volume",
              "type": "uint256"
            },
            {
              "internalType": "bool",
              "name": "soluble",
              "type": "bool"
            },
            {
              "internalType": "bool",
              "name": "foodSafety",
              "type": "bool"
            },
            {
              "internalType": "bool",
              "name": "avaiable",
              "type": "bool"
            }
          ],
          "internalType": "struct Scheduling.Printer[]",
          "name": "mprinters",
          "type": "tuple[]"
        }
      ],
      "stateMutability": "view",
      "type": "function",
      "constant": true
    },
    {
      "inputs": [],
      "name": "getMakerNPrinters",
      "outputs": [
        {
          "internalType": "uint256",
          "name": "Nprinters",
          "type": "uint256"
        }
      ],
      "stateMutability": "view",
      "type": "function",
      "constant": true
    },
    {
      "inputs": [
        {
          "internalType": "bytes32",
          "name": "name",
          "type": "bytes32"
        },
        {
          "internalType": "enum Scheduling.MaterialType",
          "name": "mType",
          "type": "uint8"
        },
        {
          "internalType": "enum Scheduling.MaterialColor",
          "name": "mColor",
          "type": "uint8"
        },
        {
          "internalType": "uint256",
          "name": "quantityKG",
          "type": "uint256"
        },
        {
          "internalType": "uint256",
          "name": "quantityM",
          "type": "uint256"
        },
        {
          "internalType": "uint256",
          "name": "printTemp",
          "type": "uint256"
        },
        {
          "internalType": "uint256",
          "name": "bedTemp",
          "type": "uint256"
        }
      ],
      "name": "addMaterials",
      "outputs": [],
      "stateMutability": "payable",
      "type": "function",
      "payable": true
    },
    {
      "inputs": [],
      "name": "getMaterials",
      "outputs": [
        {
          "components": [
            {
              "internalType": "bytes32",
              "name": "name",
              "type": "bytes32"
            },
            {
              "internalType": "enum Scheduling.MaterialType",
              "name": "mType",
              "type": "uint8"
            },
            {
              "internalType": "enum Scheduling.MaterialColor",
              "name": "color",
              "type": "uint8"
            },
            {
              "internalType": "uint256",
              "name": "quantityKG",
              "type": "uint256"
            },
            {
              "internalType": "uint256",
              "name": "quantityM",
              "type": "uint256"
            },
            {
              "internalType": "uint256",
              "name": "printTemperature",
              "type": "uint256"
            },
            {
              "internalType": "uint256",
              "name": "bedTemperature",
              "type": "uint256"
            }
          ],
          "internalType": "struct Scheduling.MaterialDetails[]",
          "name": "av_materials",
          "type": "tuple[]"
        }
      ],
      "stateMutability": "view",
      "type": "function",
      "constant": true
    },
    {
      "inputs": [
        {
          "internalType": "bytes32",
          "name": "name",
          "type": "bytes32"
        },
        {
          "internalType": "enum Scheduling.MaterialType",
          "name": "mType",
          "type": "uint8"
        },
        {
          "internalType": "enum Scheduling.MaterialColor",
          "name": "mColor",
          "type": "uint8"
        },
        {
          "internalType": "uint256",
          "name": "quantityKG",
          "type": "uint256"
        },
        {
          "internalType": "uint256",
          "name": "quantityM",
          "type": "uint256"
        },
        {
          "internalType": "uint256",
          "name": "printTemp",
          "type": "uint256"
        },
        {
          "internalType": "uint256",
          "name": "bedTemp",
          "type": "uint256"
        }
      ],
      "name": "updateMaterial",
      "outputs": [],
      "stateMutability": "payable",
      "type": "function",
      "payable": true
    },
    {
      "inputs": [
        {
          "internalType": "bytes32",
          "name": "name",
          "type": "bytes32"
        },
        {
          "internalType": "enum Scheduling.MaterialType",
          "name": "mType",
          "type": "uint8"
        }
      ],
      "name": "removeMaterial",
      "outputs": [],
      "stateMutability": "payable",
      "type": "function",
      "payable": true
    },
    {
      "inputs": [
        {
          "internalType": "bytes32",
          "name": "name",
          "type": "bytes32"
        },
        {
          "internalType": "enum Scheduling.MaterialType",
          "name": "mType",
          "type": "uint8"
        },
        {
          "internalType": "address",
          "name": "printer",
          "type": "address"
        }
      ],
      "name": "mountMaterial",
      "outputs": [],
      "stateMutability": "payable",
      "type": "function",
      "payable": true
    }
  ],
  "bytecode": "0x60806040526040518060e0016040528060008019168152602001600060028111156200002757fe5b81526020016000600b8111156200003a57fe5b81526020016000815260200160008152602001600081526020016000815250600080820151816000015560208201518160010160006101000a81548160ff021916908360028111156200008957fe5b021790555060408201518160010160016101000a81548160ff0219169083600b811115620000b357fe5b0217905550606082015181600201556080820151816003015560a0820151816004015560c082015181600501555050348015620000ef57600080fd5b506140fc80620001006000396000f3fe6080604052600436106100f35760003560e01c8063b365bdf91161008a578063eb1ed9b311610059578063eb1ed9b3146102a3578063ecace5a2146102ce578063edb7b8c0146102ea578063f8a98d4c14610306576100f3565b8063b365bdf914610223578063cbac31241461023f578063d1df81df1461025b578063d335be5414610287576100f3565b806380dfedcd116100c657806380dfedcd146101865780638a05b329146101b15780638b5b9ccc146101dc578063a6bc773814610207576100f3565b806320b83e21146100f85780633bdda5e2146101235780636b04fb471461013f5780637c8372a51461016a575b600080fd5b34801561010457600080fd5b5061010d610331565b60405161011a9190613bda565b60405180910390f35b61013d60048036038101906101389190612f93565b610876565b005b34801561014b57600080fd5b50610154610dc3565b6040516101619190613d66565b60405180910390f35b610184600480360381019061017f919061323f565b610e2e565b005b34801561019257600080fd5b5061019b61118a565b6040516101a89190613bb8565b60405180910390f35b3480156101bd57600080fd5b506101c661150a565b6040516101d39190613d66565b60405180910390f35b3480156101e857600080fd5b506101f1611517565b6040516101fe9190613b96565b60405180910390f35b610221600480360381019061021c91906131b4565b611680565b005b61023d6004803603810190610238919061323f565b611c9a565b005b61025960048036038101906102549190613115565b611fc4565b005b34801561026757600080fd5b5061027061206a565b60405161027e929190613d3c565b60405180910390f35b6102a1600480360381019061029c919061309e565b612233565b005b3480156102af57600080fd5b506102b861266c565b6040516102c59190613d66565b60405180910390f35b6102e860048036038101906102e391906131f0565b612684565b005b61030460048036038101906102ff9190613151565b612a2c565b005b34801561031257600080fd5b5061031b612ad3565b6040516103289190613d66565b60405180910390f35b606060011515600a60003373ffffffffffffffffffffffffffffffffffffffff1673ffffffffffffffffffffffffffffffffffffffff16815260200190815260200160002060009054906101000a900460ff161515146103c6576040517f08c379a00000000000000000000000000000000000000000000000000000000081526004016103bd90613c3c565b60405180910390fd5b600060018111156103d357fe5b600660003373ffffffffffffffffffffffffffffffffffffffff1673ffffffffffffffffffffffffffffffffffffffff16815260200190815260200160002060000160009054906101000a900460ff16600181111561042e57fe5b1461046e576040517f08c379a000000000000000000000000000000000000000000000000000000000815260040161046590613c9c565b60405180910390fd5b600d60003373ffffffffffffffffffffffffffffffffffffffff1673ffffffffffffffffffffffffffffffffffffffff1681526020019081526020016000208054905067ffffffffffffffff811180156104c757600080fd5b5060405190808252806020026020018201604052801561050157816020015b6104ee612bac565b8152602001906001900390816104e65790505b50905060005b600d60003373ffffffffffffffffffffffffffffffffffffffff1673ffffffffffffffffffffffffffffffffffffffff1681526020019081526020016000208054905081101561087257600b60003373ffffffffffffffffffffffffffffffffffffffff1673ffffffffffffffffffffffffffffffffffffffff1681526020019081526020016000206000600d60003373ffffffffffffffffffffffffffffffffffffffff1673ffffffffffffffffffffffffffffffffffffffff16815260200190815260200160002083815481106105dc57fe5b9060005260206000200160009054906101000a900473ffffffffffffffffffffffffffffffffffffffff1673ffffffffffffffffffffffffffffffffffffffff1673ffffffffffffffffffffffffffffffffffffffff1681526020019081526020016000206040518061016001604052908160008201548152602001600182018054806020026020016040519081016040528092919081815260200182805480156106d457602002820191906000526020600020906000905b82829054906101000a900460ff1660028111156106ae57fe5b815260200190600101906020826000010492830192600103820291508084116106955790505b50505050508152602001600282016040518060e0016040529081600082015481526020016001820160009054906101000a900460ff16600281111561071557fe5b600281111561072057fe5b81526020016001820160019054906101000a900460ff16600b81111561074257fe5b600b81111561074d57fe5b81526020016002820154815260200160038201548152602001600482015481526020016005820154815250508152602001600882018054806020026020016040519081016040528092919081815260200182805480156107cc57602002820191906000526020600020905b8154815260200190600101908083116107b8575b5050505050815260200160098201548152602001600a8201548152602001600b8201548152602001600c8201548152602001600d820160009054906101000a900460ff16151515158152602001600d820160019054906101000a900460ff16151515158152602001600d820160029054906101000a900460ff16151515158152505082828151811061085a57fe5b60200260200101819052508080600101915050610507565b5090565b60011515600a60003373ffffffffffffffffffffffffffffffffffffffff1673ffffffffffffffffffffffffffffffffffffffff16815260200190815260200160002060009054906101000a900460ff16151514610909576040517f08c379a000000000000000000000000000000000000000000000000000000000815260040161090090613c3c565b60405180910390fd5b6000600181111561091657fe5b600660003373ffffffffffffffffffffffffffffffffffffffff1673ffffffffffffffffffffffffffffffffffffffff16815260200190815260200160002060000160009054906101000a900460ff16600181111561097157fe5b146109b1576040517f08c379a00000000000000000000000000000000000000000000000000000000081526004016109a890613cdc565b60405180910390fd5b6109b9612bac565b6040518061016001604052808b81526020018a815260200160006040518060e0016040529081600082015481526020016001820160009054906101000a900460ff166002811115610a0657fe5b6002811115610a1157fe5b81526020016001820160019054906101000a900460ff16600b811115610a3357fe5b600b811115610a3e57fe5b815260200160028201548152602001600382015481526020016004820154815260200160058201548152505081526020018981526020018881526020018781526020018681526020018581526020018415158152602001831515815260200160011515815250905080600b60003373ffffffffffffffffffffffffffffffffffffffff1673ffffffffffffffffffffffffffffffffffffffff16815260200190815260200160002060008d73ffffffffffffffffffffffffffffffffffffffff1673ffffffffffffffffffffffffffffffffffffffff168152602001908152602001600020600082015181600001556020820151816001019080519060200190610b49929190612c15565b506040820151816002016000820151816000015560208201518160010160006101000a81548160ff02191690836002811115610b8157fe5b021790555060408201518160010160016101000a81548160ff0219169083600b811115610baa57fe5b0217905550606082015181600201556080820151816003015560a0820151816004015560c0820151816005015550506060820151816008019080519060200190610bf5929190612cc4565b506080820151816009015560a082015181600a015560c082015181600b015560e082015181600c015561010082015181600d0160006101000a81548160ff02191690831515021790555061012082015181600d0160016101000a81548160ff02191690831515021790555061014082015181600d0160026101000a81548160ff0219169083151502179055509050506001600c60003373ffffffffffffffffffffffffffffffffffffffff1673ffffffffffffffffffffffffffffffffffffffff16815260200190815260200160002060006101000a81548160ff021916908315150217905550600d60003373ffffffffffffffffffffffffffffffffffffffff1673ffffffffffffffffffffffffffffffffffffffff1681526020019081526020016000208b9080600181540180825580915050600190039060005260206000200160009091909190916101000a81548173ffffffffffffffffffffffffffffffffffffffff021916908373ffffffffffffffffffffffffffffffffffffffff1602179055507f68f1f4a765c80cce6152bba70adcfe422531198b0d733f8555bd9b2f1c0feb44336001604051610dae929190613b6d565b60405180910390a15050505050505050505050565b600080600090505b600d60003373ffffffffffffffffffffffffffffffffffffffff1673ffffffffffffffffffffffffffffffffffffffff16815260200190815260200160002080549050811015610e2a5781806001019250508080600101915050610dcb565b5090565b60006001811115610e3b57fe5b600660003373ffffffffffffffffffffffffffffffffffffffff1673ffffffffffffffffffffffffffffffffffffffff16815260200190815260200160002060000160009054906101000a900460ff166001811115610e9657fe5b14610ed6576040517f08c379a0000000000000000000000000000000000000000000000000000000008152600401610ecd90613d1c565b60405180910390fd5b60011515610ee388612ae0565b151514610f25576040517f08c379a0000000000000000000000000000000000000000000000000000000008152600401610f1c90613c1c565b60405180910390fd5b60005b600e60003373ffffffffffffffffffffffffffffffffffffffff1673ffffffffffffffffffffffffffffffffffffffff1681526020019081526020016000206000886002811115610f7557fe5b6002811115610f8057fe5b8152602001908152602001600020805490508110156111805787600e60003373ffffffffffffffffffffffffffffffffffffffff1673ffffffffffffffffffffffffffffffffffffffff1681526020019081526020016000206000896002811115610fe757fe5b6002811115610ff257fe5b8152602001908152602001600020828154811061100b57fe5b9060005260206000209060060201600001541415611173576040518060e0016040528089815260200188600281111561104057fe5b815260200187600b81111561105157fe5b815260200186815260200185815260200184815260200183815250600e60003373ffffffffffffffffffffffffffffffffffffffff1673ffffffffffffffffffffffffffffffffffffffff16815260200190815260200160002060008960028111156110b957fe5b60028111156110c457fe5b815260200190815260200160002082815481106110dd57fe5b90600052602060002090600602016000820151816000015560208201518160010160006101000a81548160ff0219169083600281111561111957fe5b021790555060408201518160010160016101000a81548160ff0219169083600b81111561114257fe5b0217905550606082015181600201556080820151816003015560a0820151816004015560c082015181600501559050505b8080600101915050610f28565b5050505050505050565b60606000600e60003373ffffffffffffffffffffffffffffffffffffffff1673ffffffffffffffffffffffffffffffffffffffff1681526020019081526020016000206000600160028111156111dc57fe5b60028111156111e757fe5b815260200190815260200160002080549050600e60003373ffffffffffffffffffffffffffffffffffffffff1673ffffffffffffffffffffffffffffffffffffffff168152602001908152602001600020600060028081111561124657fe5b600281111561125157fe5b815260200190815260200160002080549050600e60003373ffffffffffffffffffffffffffffffffffffffff1673ffffffffffffffffffffffffffffffffffffffff16815260200190815260200160002060008060028111156112b057fe5b60028111156112bb57fe5b815260200190815260200160002080549050010190508067ffffffffffffffff811180156112e857600080fd5b5060405190808252806020026020018201604052801561132257816020015b61130f612d11565b8152602001906001900390816113075790505b50915060005b60038110156115055760005b600e60003373ffffffffffffffffffffffffffffffffffffffff1673ffffffffffffffffffffffffffffffffffffffff168152602001908152602001600020600083600281111561138157fe5b600281111561138c57fe5b600281111561139757fe5b8152602001908152602001600020805490508110156114f757600e60003373ffffffffffffffffffffffffffffffffffffffff1673ffffffffffffffffffffffffffffffffffffffff16815260200190815260200160002060008360028111156113fd57fe5b600281111561140857fe5b600281111561141357fe5b8152602001908152602001600020818154811061142c57fe5b90600052602060002090600602016040518060e0016040529081600082015481526020016001820160009054906101000a900460ff16600281111561146d57fe5b600281111561147857fe5b81526020016001820160019054906101000a900460ff16600b81111561149a57fe5b600b8111156114a557fe5b815260200160028201548152602001600382015481526020016004820154815260200160058201548152505084828401815181106114df57fe5b60200260200101819052508080600101915050611334565b508080600101915050611328565b505090565b6000600780549050905090565b606060078054905067ffffffffffffffff8111801561153557600080fd5b5060405190808252806020026020018201604052801561156f57816020015b61155c612d67565b8152602001906001900390816115545790505b50905060005b60078054905081101561167c57600660006007838154811061159357fe5b9060005260206000200160009054906101000a900473ffffffffffffffffffffffffffffffffffffffff1673ffffffffffffffffffffffffffffffffffffffff1673ffffffffffffffffffffffffffffffffffffffff1681526020019081526020016000206040518060a00160405290816000820160009054906101000a900460ff16600181111561162157fe5b600181111561162c57fe5b815260200160018201548152602001600282015481526020016003820154815260200160048201548152505082828151811061166457fe5b60200260200101819052508080600101915050611575565b5090565b6000600181111561168d57fe5b600660003373ffffffffffffffffffffffffffffffffffffffff1673ffffffffffffffffffffffffffffffffffffffff16815260200190815260200160002060000160009054906101000a900460ff1660018111156116e857fe5b14611728576040517f08c379a000000000000000000000000000000000000000000000000000000000815260040161171f90613c7c565b60405180910390fd5b6001151561173583612ae0565b151514611777576040517f08c379a000000000000000000000000000000000000000000000000000000000815260040161176e90613c1c565b60405180910390fd5b60005b600e60003373ffffffffffffffffffffffffffffffffffffffff1673ffffffffffffffffffffffffffffffffffffffff16815260200190815260200160002060008360028111156117c757fe5b60028111156117d257fe5b8152602001908152602001600020805490508110156119a55782600e60003373ffffffffffffffffffffffffffffffffffffffff1673ffffffffffffffffffffffffffffffffffffffff168152602001908152602001600020600084600281111561183957fe5b600281111561184457fe5b8152602001908152602001600020828154811061185d57fe5b9060005260206000209060060201600001541415611998576000600e60003373ffffffffffffffffffffffffffffffffffffffff1673ffffffffffffffffffffffffffffffffffffffff16815260200190815260200160002060008460028111156118c457fe5b60028111156118cf57fe5b815260200190815260200160002082815481106118e857fe5b9060005260206000209060060201600082015481600001556001820160009054906101000a900460ff168160010160006101000a81548160ff0219169083600281111561193157fe5b02179055506001820160019054906101000a900460ff168160010160016101000a81548160ff0219169083600b81111561196757fe5b0217905550600282015481600201556003820154816003015560048201548160040155600582015481600501559050505b808060010191505061177a565b5060005b600d60003373ffffffffffffffffffffffffffffffffffffffff1673ffffffffffffffffffffffffffffffffffffffff16815260200190815260200160002080549050811015611c955782600b60003373ffffffffffffffffffffffffffffffffffffffff1673ffffffffffffffffffffffffffffffffffffffff1681526020019081526020016000206000600d60003373ffffffffffffffffffffffffffffffffffffffff1673ffffffffffffffffffffffffffffffffffffffff1681526020019081526020016000208481548110611a7f57fe5b9060005260206000200160009054906101000a900473ffffffffffffffffffffffffffffffffffffffff1673ffffffffffffffffffffffffffffffffffffffff1673ffffffffffffffffffffffffffffffffffffffff168152602001908152602001600020600201600001541415611c88576000600b60003373ffffffffffffffffffffffffffffffffffffffff1673ffffffffffffffffffffffffffffffffffffffff1681526020019081526020016000206000600d60003373ffffffffffffffffffffffffffffffffffffffff1673ffffffffffffffffffffffffffffffffffffffff1681526020019081526020016000208481548110611b7e57fe5b9060005260206000200160009054906101000a900473ffffffffffffffffffffffffffffffffffffffff1673ffffffffffffffffffffffffffffffffffffffff1673ffffffffffffffffffffffffffffffffffffffff168152602001908152602001600020600201600082015481600001556001820160009054906101000a900460ff168160010160006101000a81548160ff02191690836002811115611c2157fe5b02179055506001820160019054906101000a900460ff168160010160016101000a81548160ff0219169083600b811115611c5757fe5b0217905550600282015481600201556003820154816003015560048201548160040155600582015481600501559050505b80806001019150506119a9565b505050565b60006001811115611ca757fe5b600660003373ffffffffffffffffffffffffffffffffffffffff1673ffffffffffffffffffffffffffffffffffffffff16815260200190815260200160002060000160009054906101000a900460ff166001811115611d0257fe5b14611d42576040517f08c379a0000000000000000000000000000000000000000000000000000000008152600401611d3990613cfc565b60405180910390fd5b6000600b811115611d4f57fe5b85600b811115611d5b57fe5b1415611d9c576040517f08c379a0000000000000000000000000000000000000000000000000000000008152600401611d9390613bfc565b60405180910390fd5b60001515611da988612ae0565b151514611deb576040517f08c379a0000000000000000000000000000000000000000000000000000000008152600401611de290613cbc565b60405180910390fd5b611df3612d11565b6040518060e00160405280898152602001886002811115611e1057fe5b815260200187600b811115611e2157fe5b8152602001868152602001858152602001848152602001838152509050600e60003373ffffffffffffffffffffffffffffffffffffffff1673ffffffffffffffffffffffffffffffffffffffff1681526020019081526020016000206000886002811115611e8b57fe5b6002811115611e9657fe5b81526020019081526020016000208190806001815401808255809150506001900390600052602060002090600602016000909190919091506000820151816000015560208201518160010160006101000a81548160ff02191690836002811115611efc57fe5b021790555060408201518160010160016101000a81548160ff0219169083600b811115611f2557fe5b0217905550606082015181600201556080820151816003015560a0820151816004015560c082015181600501555050600f60003373ffffffffffffffffffffffffffffffffffffffff1673ffffffffffffffffffffffffffffffffffffffff1681526020019081526020016000208890806001815401808255809150506001900390600052602060002001600090919091909150555050505050505050565b60001515600a60003373ffffffffffffffffffffffffffffffffffffffff1673ffffffffffffffffffffffffffffffffffffffff16815260200190815260200160002060009054906101000a900460ff16151514612057576040517f08c379a000000000000000000000000000000000000000000000000000000000815260040161204e90613c5c565b60405180910390fd5b61206660008383600080612233565b5050565b612072612d67565b61207a612da7565b60011515600a60003373ffffffffffffffffffffffffffffffffffffffff1673ffffffffffffffffffffffffffffffffffffffff16815260200190815260200160002060009054906101000a900460ff1615151461210d576040517f08c379a000000000000000000000000000000000000000000000000000000000815260040161210490613c3c565b60405180910390fd5b600660003373ffffffffffffffffffffffffffffffffffffffff1673ffffffffffffffffffffffffffffffffffffffff168152602001908152602001600020600860003373ffffffffffffffffffffffffffffffffffffffff1673ffffffffffffffffffffffffffffffffffffffff168152602001908152602001600020816040518060a00160405290816000820160009054906101000a900460ff1660018111156121b557fe5b60018111156121c057fe5b815260200160018201548152602001600282015481526020016003820154815260200160048201548152505091508060405180606001604052908160008201548152602001600182015481526020016002820160009054906101000a900460ff1615151515815250509050915091509091565b6007339080600181540180825580915050600190039060005260206000200160009091909190916101000a81548173ffffffffffffffffffffffffffffffffffffffff021916908373ffffffffffffffffffffffffffffffffffffffff1602179055506001600a60003373ffffffffffffffffffffffffffffffffffffffff1673ffffffffffffffffffffffffffffffffffffffff16815260200190815260200160002060006101000a81548160ff0219169083151502179055506001600660003373ffffffffffffffffffffffffffffffffffffffff1673ffffffffffffffffffffffffffffffffffffffff16815260200190815260200160002060000160006101000a81548160ff0219169083600181111561234d57fe5b0217905550600115158515151415612510576000600660003373ffffffffffffffffffffffffffffffffffffffff1673ffffffffffffffffffffffffffffffffffffffff16815260200190815260200160002060000160006101000a81548160ff021916908360018111156123be57fe5b02179055506000600860003373ffffffffffffffffffffffffffffffffffffffff1673ffffffffffffffffffffffffffffffffffffffff16815260200190815260200160002060020160006101000a81548160ff02191690831515021790555081600860003373ffffffffffffffffffffffffffffffffffffffff1673ffffffffffffffffffffffffffffffffffffffff1681526020019081526020016000206000018190555080600860003373ffffffffffffffffffffffffffffffffffffffff1673ffffffffffffffffffffffffffffffffffffffff168152602001908152602001600020600101819055506009339080600181540180825580915050600190039060005260206000200160009091909190916101000a81548173ffffffffffffffffffffffffffffffffffffffff021916908373ffffffffffffffffffffffffffffffffffffffff1602179055505b82600660003373ffffffffffffffffffffffffffffffffffffffff1673ffffffffffffffffffffffffffffffffffffffff1681526020019081526020016000206001018190555083600660003373ffffffffffffffffffffffffffffffffffffffff1673ffffffffffffffffffffffffffffffffffffffff168152602001908152602001600020600201819055506000600660003373ffffffffffffffffffffffffffffffffffffffff1673ffffffffffffffffffffffffffffffffffffffff168152602001908152602001600020600301819055506000600660003373ffffffffffffffffffffffffffffffffffffffff1673ffffffffffffffffffffffffffffffffffffffff168152602001908152602001600020600401819055507f1c5d06a0672792ca8a9a7e2ec6e3d76dbfee51e2a23c2340bf70f81a29c9dd6d3360405161265d9190613b52565b60405180910390a15050505050565b6000612676612ad3565b61267e61150a565b03905090565b6000600181111561269157fe5b600660003373ffffffffffffffffffffffffffffffffffffffff1673ffffffffffffffffffffffffffffffffffffffff16815260200190815260200160002060000160009054906101000a900460ff1660018111156126ec57fe5b1461272c576040517f08c379a000000000000000000000000000000000000000000000000000000000815260040161272390613c7c565b60405180910390fd5b6001151561273984612ae0565b15151461277b576040517f08c379a000000000000000000000000000000000000000000000000000000000815260040161277290613c1c565b60405180910390fd5b60005b600e60003373ffffffffffffffffffffffffffffffffffffffff1673ffffffffffffffffffffffffffffffffffffffff16815260200190815260200160002060008460028111156127cb57fe5b60028111156127d657fe5b815260200190815260200160002080549050811015612a265783600e60003373ffffffffffffffffffffffffffffffffffffffff1673ffffffffffffffffffffffffffffffffffffffff168152602001908152602001600020600085600281111561283d57fe5b600281111561284857fe5b8152602001908152602001600020828154811061286157fe5b9060005260206000209060060201600001541415612a1957600e60003373ffffffffffffffffffffffffffffffffffffffff1673ffffffffffffffffffffffffffffffffffffffff16815260200190815260200160002060008460028111156128c657fe5b60028111156128d157fe5b815260200190815260200160002081815481106128ea57fe5b9060005260206000209060060201600b60003373ffffffffffffffffffffffffffffffffffffffff1673ffffffffffffffffffffffffffffffffffffffff16815260200190815260200160002060008473ffffffffffffffffffffffffffffffffffffffff1673ffffffffffffffffffffffffffffffffffffffff168152602001908152602001600020600201600082015481600001556001820160009054906101000a900460ff168160010160006101000a81548160ff021916908360028111156129b257fe5b02179055506001820160019054906101000a900460ff168160010160016101000a81548160ff0219169083600b8111156129e857fe5b0217905550600282015481600201556003820154816003015560048201548160040155600582015481600501559050505b808060010191505061277e565b50505050565b60001515600a60003373ffffffffffffffffffffffffffffffffffffffff1673ffffffffffffffffffffffffffffffffffffffff16815260200190815260200160002060009054906101000a900460ff16151514612abf576040517f08c379a0000000000000000000000000000000000000000000000000000000008152600401612ab690613c5c565b60405180910390fd5b612acd600185858585612233565b50505050565b6000600980549050905090565b6000806000905060005b600f60003373ffffffffffffffffffffffffffffffffffffffff1673ffffffffffffffffffffffffffffffffffffffff16815260200190815260200160002080549050811015612ba25783600f60003373ffffffffffffffffffffffffffffffffffffffff1673ffffffffffffffffffffffffffffffffffffffff1681526020019081526020016000208281548110612b7f57fe5b90600052602060002001541415612b9557600191505b8080600101915050612aea565b5080915050919050565b6040518061016001604052806000801916815260200160608152602001612bd1612d11565b815260200160608152602001600081526020016000815260200160008152602001600081526020016000151581526020016000151581526020016000151581525090565b82805482825590600052602060002090601f01602090048101928215612cb35791602002820160005b83821115612c8457835183826101000a81548160ff02191690836002811115612c6357fe5b02179055509260200192600101602081600001049283019260010302612c3e565b8015612cb15782816101000a81549060ff0219169055600101602081600001049283019260010302612c84565b505b509050612cc09190612dca565b5090565b828054828255906000526020600020908101928215612d00579160200282015b82811115612cff578251825591602001919060010190612ce4565b5b509050612d0d9190612df2565b5090565b6040518060e001604052806000801916815260200160006002811115612d3357fe5b81526020016000600b811115612d4557fe5b8152602001600081526020016000815260200160008152602001600081525090565b6040518060a0016040528060006001811115612d7f57fe5b8152602001600080191681526020016000801916815260200160008152602001600081525090565b604051806060016040528060008152602001600081526020016000151581525090565b5b80821115612dee57600081816101000a81549060ff021916905550600101612dcb565b5090565b5b80821115612e0b576000816000905550600101612df3565b5090565b600081359050612e1e8161404a565b92915050565b600082601f830112612e3557600080fd5b8135612e48612e4382613dae565b613d81565b91508181835260208401935060208101905083856020840282011115612e6d57600080fd5b60005b83811015612e9d5781612e838882612f69565b845260208401935060208301925050600181019050612e70565b5050505092915050565b600082601f830112612eb857600080fd5b8135612ecb612ec682613dd6565b613d81565b91508181835260208401935060208101905083856020840282011115612ef057600080fd5b60005b83811015612f205781612f068882612f7e565b845260208401935060208301925050600181019050612ef3565b5050505092915050565b600081359050612f3981614061565b92915050565b600081359050612f4e81614078565b92915050565b600081359050612f638161408f565b92915050565b600081359050612f788161409f565b92915050565b600081359050612f8d816140af565b92915050565b6000806000806000806000806000806101408b8d031215612fb357600080fd5b6000612fc18d828e01612e0f565b9a50506020612fd28d828e01612f3f565b99505060408b013567ffffffffffffffff811115612fef57600080fd5b612ffb8d828e01612e24565b98505060608b013567ffffffffffffffff81111561301857600080fd5b6130248d828e01612ea7565b97505060806130358d828e01612f7e565b96505060a06130468d828e01612f7e565b95505060c06130578d828e01612f7e565b94505060e06130688d828e01612f7e565b93505061010061307a8d828e01612f2a565b92505061012061308c8d828e01612f2a565b9150509295989b9194979a5092959850565b600080600080600060a086880312156130b657600080fd5b60006130c488828901612f2a565b95505060206130d588828901612f3f565b94505060406130e688828901612f3f565b93505060606130f788828901612f7e565b925050608061310888828901612f7e565b9150509295509295909350565b6000806040838503121561312857600080fd5b600061313685828601612f3f565b925050602061314785828601612f3f565b9150509250929050565b6000806000806080858703121561316757600080fd5b600061317587828801612f3f565b945050602061318687828801612f3f565b935050604061319787828801612f7e565b92505060606131a887828801612f7e565b91505092959194509250565b600080604083850312156131c757600080fd5b60006131d585828601612f3f565b92505060206131e685828601612f69565b9150509250929050565b60008060006060848603121561320557600080fd5b600061321386828701612f3f565b935050602061322486828701612f69565b925050604061323586828701612e0f565b9150509250925092565b600080600080600080600060e0888a03121561325a57600080fd5b60006132688a828b01612f3f565b97505060206132798a828b01612f69565b965050604061328a8a828b01612f54565b955050606061329b8a828b01612f7e565b94505060806132ac8a828b01612f7e565b93505060a06132bd8a828b01612f7e565b92505060c06132ce8a828b01612f7e565b91505092959891949750929550565b60006132e98383613589565b60208301905092915050565b600061330183836138db565b60a08301905092915050565b600061331983836139ab565b60e08301905092915050565b60006133318383613a39565b905092915050565b60006133458383613b34565b60208301905092915050565b61335a81613fb7565b82525050565b600061336b82613e4e565b6133758185613f0a565b935061338083613dfe565b8060005b838110156133b157815161339888826132dd565b97506133a383613e85565b925050600181019050613384565b5085935050505092915050565b60006133c982613e59565b6133d38185613ec6565b93506133de83613e0e565b8060005b8381101561340f5781516133f688826132f5565b975061340183613e92565b9250506001810190506133e2565b5085935050505092915050565b600061342782613e64565b6134318185613ed7565b935061343c83613e1e565b8060005b8381101561346d578151613454888261330d565b975061345f83613e9f565b925050600181019050613440565b5085935050505092915050565b600061348582613e6f565b61348f8185613ee8565b9350836020820285016134a185613e2e565b8060005b858110156134dd57848403895281516134be8582613325565b94506134c983613eac565b925060208a019950506001810190506134a5565b50829750879550505050505092915050565b60006134fa82613e7a565b6135048185613ef9565b935061350f83613e3e565b8060005b838110156135405781516135278882613339565b975061353283613eb9565b925050600181019050613513565b5085935050505092915050565b61355681613f3e565b82525050565b61356581613f3e565b82525050565b61357481613f4a565b82525050565b61358381613fc9565b82525050565b61359281613fdb565b82525050565b6135a181613fed565b82525050565b60006135b4600f83613f1b565b91507f436f6c6f72206e6f742076616c696400000000000000000000000000000000006000830152602082019050919050565b60006135f4601a83613f1b565b91507f4e6f206d6174657269616c20776974682074686973206e616d650000000000006000830152602082019050919050565b6000613634601983613f1b565b91507f506c61796572206e6f7420696e207468652073797374656d2e000000000000006000830152602082019050919050565b6000613674602383613f1b565b91507f506c6179657220616c726561647920616464656420746f20746865207379737460008301527f656d2e00000000000000000000000000000000000000000000000000000000006020830152604082019050919050565b60006136da602083613f1b565b91507f4f6e6c79204d616b65722063616e2064656c657465204d6174657269616c732e6000830152602082019050919050565b600061371a602283613f1b565b91507f4f6e6c79204d616b65722063616e20676574207468656972205072696e74657260008301527f732e0000000000000000000000000000000000000000000000000000000000006020830152604082019050919050565b6000613780602a83613f1b565b91507f546865726520697320616c72656164792061206d6174657269616c207769746860008301527f2074686973206e616d65000000000000000000000000000000000000000000006020830152604082019050919050565b60006137e6601c83613f1b565b91507f4f6e6c79204d616b65722063616e20616464205072696e746572732e000000006000830152602082019050919050565b6000613826601c83613f1b565b91507f4f6e6c79204d616b65722063616e20616464204d6174657269616c2e000000006000830152602082019050919050565b6000613866602083613f1b565b91507f4f6e6c79204d616b65722063616e20757064617465204d6174657269616c732e6000830152602082019050919050565b6060820160008201516138af6000850182613b34565b5060208201516138c26020850182613b34565b5060408201516138d5604085018261354d565b50505050565b60a0820160008201516138f16000850182613598565b506020820151613904602085018261356b565b506040820151613917604085018261356b565b50606082015161392a6060850182613b34565b50608082015161393d6080850182613b34565b50505050565b60a0820160008201516139596000850182613598565b50602082015161396c602085018261356b565b50604082015161397f604085018261356b565b5060608201516139926060850182613b34565b5060808201516139a56080850182613b34565b50505050565b60e0820160008201516139c1600085018261356b565b5060208201516139d46020850182613589565b5060408201516139e7604085018261357a565b5060608201516139fa6060850182613b34565b506080820151613a0d6080850182613b34565b5060a0820151613a2060a0850182613b34565b5060c0820151613a3360c0850182613b34565b50505050565b600061022083016000830151613a52600086018261356b565b5060208301518482036020860152613a6a8282613360565b9150506040830151613a7f60408601826139ab565b506060830151848203610120860152613a9882826134ef565b9150506080830151613aae610140860182613b34565b5060a0830151613ac2610160860182613b34565b5060c0830151613ad6610180860182613b34565b5060e0830151613aea6101a0860182613b34565b50610100830151613aff6101c086018261354d565b50610120830151613b146101e086018261354d565b50610140830151613b2961020086018261354d565b508091505092915050565b613b3d81613fad565b82525050565b613b4c81613fad565b82525050565b6000602082019050613b676000830184613351565b92915050565b6000604082019050613b826000830185613351565b613b8f602083018461355c565b9392505050565b60006020820190508181036000830152613bb081846133be565b905092915050565b60006020820190508181036000830152613bd2818461341c565b905092915050565b60006020820190508181036000830152613bf4818461347a565b905092915050565b60006020820190508181036000830152613c15816135a7565b9050919050565b60006020820190508181036000830152613c35816135e7565b9050919050565b60006020820190508181036000830152613c5581613627565b9050919050565b60006020820190508181036000830152613c7581613667565b9050919050565b60006020820190508181036000830152613c95816136cd565b9050919050565b60006020820190508181036000830152613cb58161370d565b9050919050565b60006020820190508181036000830152613cd581613773565b9050919050565b60006020820190508181036000830152613cf5816137d9565b9050919050565b60006020820190508181036000830152613d1581613819565b9050919050565b60006020820190508181036000830152613d3581613859565b9050919050565b600061010082019050613d526000830185613943565b613d5f60a0830184613899565b9392505050565b6000602082019050613d7b6000830184613b43565b92915050565b6000604051905081810181811067ffffffffffffffff82111715613da457600080fd5b8060405250919050565b600067ffffffffffffffff821115613dc557600080fd5b602082029050602081019050919050565b600067ffffffffffffffff821115613ded57600080fd5b602082029050602081019050919050565b6000819050602082019050919050565b6000819050602082019050919050565b6000819050602082019050919050565b6000819050602082019050919050565b6000819050602082019050919050565b600081519050919050565b600081519050919050565b600081519050919050565b600081519050919050565b600081519050919050565b6000602082019050919050565b6000602082019050919050565b6000602082019050919050565b6000602082019050919050565b6000602082019050919050565b600082825260208201905092915050565b600082825260208201905092915050565b600082825260208201905092915050565b600082825260208201905092915050565b600082825260208201905092915050565b600082825260208201905092915050565b6000613f3782613f8d565b9050919050565b60008115159050919050565b6000819050919050565b6000819050613f6282614023565b919050565b6000819050613f7582614030565b919050565b6000819050613f888261403d565b919050565b600073ffffffffffffffffffffffffffffffffffffffff82169050919050565b6000819050919050565b6000613fc282613fff565b9050919050565b6000613fd482613f54565b9050919050565b6000613fe682613f67565b9050919050565b6000613ff882613f7a565b9050919050565b600061400a82614011565b9050919050565b600061401c82613f8d565b9050919050565b600c811061402d57fe5b50565b6003811061403a57fe5b50565b6002811061404757fe5b50565b61405381613f2c565b811461405e57600080fd5b50565b61406a81613f3e565b811461407557600080fd5b50565b61408181613f4a565b811461408c57600080fd5b50565b600c811061409c57600080fd5b50565b600381106140ac57600080fd5b50565b6140b881613fad565b81146140c357600080fd5b5056fea26469706673582212201fb63de180c8586ad28b4206b87fcced36c867bc12f8f70d557188d92af7549f64736f6c63430007000033",
  "immutableReferences": {},
  "source": "pragma solidity >=0.4.22 <0.9.0;\npragma experimental ABIEncoderV2;\n\n/*\n * @author Pipitone Antonio \n * @SPDX-License-Identifier: UNLICENSED\n */\n\ncontract Scheduling {\n    //Structs-------------------------\n    //! Air Player and Maker\n    struct Position{\n        uint256 x;\n        uint256 y;\n    }\n    struct AirPlayer{\n        PlayerType playerType;\n        bytes32 username;\n        bytes32 position;\n        uint256 reputation;\n        uint256 weight;\n    }\n    struct AirMaker{\n        uint avaiabilityRangeFrom;\n        uint avaiabilityRangeTo;\n        bool avaiableToPrint;\n    }\n\n    //Printer\n    struct Printer{\n        bytes32 name;\n\n        MaterialType[] supportedMaterial;\n        MaterialDetails mountedMaterial;\n\n        uint256[] nozzles;\n        uint256 mountedNozzles;\n\n        uint256 maxPrintTemperature;\n        uint256 maxBedTemperature;        \n        \n        uint256 volume;\n        bool soluble;\n        bool foodSafety;\n        bool avaiable;\n    }\n    \n    //Material\n    struct MaterialDetails{\n        bytes32 name;\n        MaterialType mType;\n        MaterialColor color;\n        uint256 quantityKG;\n        uint256 quantityM;\n        uint256 printTemperature;\n        uint256 bedTemperature;\n    }\n\n    struct Design{\n        bytes32 hashDesign;\n        uint256 printVolume;\n        uint256 kgMaterials;\n        uint256 mMaterials;\n    }\n\n    struct Order{\n        bytes32 design;\n        MaterialType typeMaterial;\n        MaterialColor color;\n        uint256 pieces;\n        bool higherQuality;\n        uint256 layerHeight;\n        mapping (address => uint256) partitions;\n        address[] makers;\n    }\n\n    struct OrderPartition{\n        Order order;\n        uint256 piecesToPrint;\n    }\n    //-----------------------------------\n\n    //Enums------------------------------\n    //! Material\n    enum MaterialType  { ABS, PLA, PETG }\n    enum MaterialColor { NONE, BLACK, WHITE, BROWN, GRAY, YELLOW, ORANGE, RED, PINK, PURPLE, BLU, GREEN }\n    MaterialDetails private NONE = MaterialDetails(\"\",MaterialType.ABS,MaterialColor.NONE,0,0,0,0);\n    //-----------------------------------\n\n    //Mapping and Variables--------------\n    //Player - Common Details Maker-Caller\n    enum PlayerType{ MAKER, CALLER }\n    mapping (address => AirPlayer) private airPlayers;  \n    address[] private playerAddresses;\n    //Details Maker\n    mapping (address =>AirMaker) private airMakers;\n    address[] private makerAddress;\n    //To check if a user is registered; \n    mapping (address => bool) private isPlayer;\n\n    //Printers\n    mapping (address => mapping(address => Printer)) private printers;\n    mapping (address => bool) private isPrinter;\n    mapping (address => address[]) private makerPrinters;\n\n    //Material\n    mapping (address => mapping (MaterialType => MaterialDetails[]) ) private materials;\n    mapping (address => bytes32[]) private materialsName;\n\n    \n    //Design\n    mapping(bytes32 => Design) designs;\n    Design[] designsA;\n    mapping(bytes32 => bool) isDesign;\n\n    //Orders\n    mapping(address => Order[]) orders;\n    mapping(address => Order[]) myOrders;\n    //-----------------------------------\n\n    //Events-----------------------------\n    event newPlayerAddition(address player_address);\n    event newPrinterAddition(address player_address, bool status);\n    //-----------------------------------\n\n    //Functions--------------------------\n    //Functions Players\n    function addCaller(bytes32 position, bytes32 username/*, bytes32 _hashMsg, bytes memory _signature*/)\n    public payable{\n        //Check for existing player\n        require( isPlayer [msg.sender] == false, \"Player already added to the system.\" );\n        //checkIdentity(_hashMsg, _signature);\n        addPlayer(false, position, username, 0, 0);\n\n    }\n\n    function addMaker(bytes32 position, bytes32 username, uint256 from, uint256 to/*, bytes32 _hashMsg, bytes memory _signature*/)\n    public payable{\n        //Check for existing player\n        require( isPlayer [msg.sender] == false, \"Player already added to the system.\" );\n        //checkIdentity(_hashMsg, _signature);\n        addPlayer(true, position, username, from, to);\n    }\n\n    function addPlayer(bool maker, bytes32 position, bytes32 username, uint256 from, uint256 to) \n    public payable{\n        //Push Player address\n        playerAddresses.push(msg.sender);\n\n        //Set player to 1 to denote that player is added to the system\n        isPlayer[msg.sender] = true;\n\n        airPlayers[msg.sender].playerType = PlayerType.CALLER;\n        \n        if (maker==true){\n            airPlayers[msg.sender].playerType = PlayerType.MAKER;\n            airMakers[msg.sender].avaiableToPrint = false;\n            airMakers[msg.sender].avaiabilityRangeFrom = from;\n            airMakers[msg.sender].avaiabilityRangeTo = to;\n            makerAddress.push(msg.sender);\n        }\n\n        airPlayers[msg.sender].username = username;\n        airPlayers[msg.sender].position = position;\n\n        //Default value\n        airPlayers[msg.sender].reputation = 0;  \n        airPlayers[msg.sender].weight = 0;\n        \n        //Event for successful registration\n        emit newPlayerAddition(msg.sender);\n    }\n\n    function getPlayerInfo()\n    public view \n    returns (AirPlayer memory airPlayer, AirMaker memory airMaker){\n        require( isPlayer [msg.sender] == true, \"Player not in the system.\" );\n\n        return (airPlayers[msg.sender], airMakers[msg.sender]);\n    }\n\n    //TEST Function\n    function getPlayers() \n    public view \n    returns (AirPlayer[] memory pl){\n        pl = new AirPlayer[](playerAddresses.length);\n        for (uint i = 0; i < playerAddresses.length; i++) {\n            pl[i] = airPlayers[playerAddresses[i]];\n        }\n        return pl;\n    }\n\n    //TEST Function \n    function getNPlayers()\n    public view returns(uint256){\n        return playerAddresses.length;\n    }\n\n    //TEST Function\n    function getNMakers()\n    public view returns(uint256){\n        return makerAddress.length;\n    }\n\n    //TEST Function\n    function getNCallers()\n    public view returns(uint256){\n        return getNPlayers() - getNMakers();\n    }\n\n\n\n\n    //Functions Printers\n    function addPrinter(\n        address printerAddress,\n        bytes32 name, \n        MaterialType[] memory suppertedMaterial,\n        uint256[] memory nozzles,\n        uint256 nozzlesMounted, \n        uint256 printTemperature, \n        uint256 bedTemperature, \n        uint256 volume, \n        bool soluble,\n        bool foodSafety\n    ) public payable{\n        require( isPlayer[ msg.sender ] == true, \"Player not in the system.\");\n        require( airPlayers[ msg.sender ].playerType == PlayerType.MAKER, \"Only Maker can add Printers.\");\n\n        Printer memory newPrinter = Printer(\n                                            name,\n                                            suppertedMaterial,\n                                            NONE, \n                                            nozzles, \n                                            nozzlesMounted, \n                                            printTemperature, \n                                            bedTemperature, \n                                            volume, \n                                            soluble, \n                                            foodSafety,\n                                            true\n                                            );\n        printers[msg.sender][printerAddress] = (newPrinter);  \n        isPrinter[msg.sender] = true;\n        makerPrinters[msg.sender].push(printerAddress);\n\n\n        emit newPrinterAddition(msg.sender, true);\n    }\n\n    function getMakerPrinters() \n    public view \n    returns (Printer[] memory mprinters){\n        require( isPlayer[ msg.sender ] == true, \"Player not in the system.\");\n        require( airPlayers[ msg.sender ].playerType == PlayerType.MAKER, \"Only Maker can get their Printers.\");\n        mprinters = new Printer[](makerPrinters[msg.sender].length);\n        for (uint i = 0; i < makerPrinters[msg.sender].length; i++) {\n            mprinters[i] = printers[msg.sender][makerPrinters[msg.sender][i]];\n        }\n        return mprinters;\n    }\n\n    function getMakerNPrinters()\n    public view\n    returns(uint256 Nprinters){\n        for (uint i = 0; i < makerPrinters[msg.sender].length; i++) {\n            Nprinters++;\n        }\n        return Nprinters;\n    }\n\n\n    //Functions Materials\n    function checkMaterial(bytes32 name) \n    internal view returns(bool){\n        bool response = false;\n        for(uint i = 0; i < materialsName[msg.sender].length; i++ ){\n            if (materialsName[msg.sender][i] == name){\n                response = true;\n            }\n        }\n        return response;\n    }\n\n    function addMaterials(bytes32 name, MaterialType mType, MaterialColor mColor, uint256 quantityKG, uint256 quantityM, uint256 printTemp, uint256 bedTemp)\n    public payable{\n        require( airPlayers[ msg.sender ].playerType == PlayerType.MAKER, \"Only Maker can add Material.\");\n        require(mColor != MaterialColor.NONE, \"Color not valid\");\n        require(checkMaterial(name) == false, \"There is already a material with this name\");\n        MaterialDetails memory newMaterial = MaterialDetails(name, mType,mColor, quantityKG, quantityM, printTemp, bedTemp);    \n        materials[msg.sender][mType].push(newMaterial);\n        materialsName[msg.sender].push(name);\n    }\n\n    function getMaterials()\n    public view\n    returns (MaterialDetails[] memory av_materials){\n        \n        uint256 n_materials = materials[msg.sender][MaterialType.ABS].length+materials[msg.sender][MaterialType.PETG].length+materials[msg.sender][MaterialType.PLA].length;\n        av_materials = new MaterialDetails[](n_materials);\n        for (uint i = 0; i < 3; i++){\n            for(uint j=0; j < materials[msg.sender][MaterialType(i)].length; j++){\n                av_materials[i+j] = materials[msg.sender][MaterialType(i)][j];\n            }\n        }\n        return av_materials;\n    }\n\n    function updateMaterial(bytes32 name, MaterialType mType, MaterialColor mColor, uint256 quantityKG, uint256 quantityM, uint256 printTemp, uint256 bedTemp)\n    public payable{\n        require( airPlayers[ msg.sender ].playerType == PlayerType.MAKER, \"Only Maker can update Materials.\");\n        require(checkMaterial(name) == true, \"No material with this name\");\n\n        for(uint j=0; j < materials[msg.sender][mType].length; j++){\n            if (materials[msg.sender][mType][j].name==name){\n                materials[msg.sender][mType][j] = MaterialDetails(name,mType, mColor, quantityKG, quantityM, printTemp, bedTemp); \n            }\n        }\n    }\n\n    function removeMaterial(bytes32 name, MaterialType mType) \n    public payable{\n        require( airPlayers[ msg.sender ].playerType == PlayerType.MAKER, \"Only Maker can delete Materials.\");\n        require(checkMaterial(name) == true, \"No material with this name\");\n\n        for(uint j=0; j < materials[msg.sender][mType].length; j++){\n            if (materials[msg.sender][mType][j].name==name){\n                materials[msg.sender][mType][j] = NONE;\n            }\n        }\n        for (uint i = 0; i < makerPrinters[msg.sender].length; i++) {\n            if(printers[msg.sender][makerPrinters[msg.sender][i]].mountedMaterial.name == name){\n                printers[msg.sender][makerPrinters[msg.sender][i]].mountedMaterial = NONE;\n            }\n        }\n    }\n\n    function mountMaterial(bytes32 name, MaterialType mType, address printer)\n    public payable{\n        require( airPlayers[ msg.sender ].playerType == PlayerType.MAKER, \"Only Maker can delete Materials.\");\n        require(checkMaterial(name) == true, \"No material with this name\");\n        \n        for(uint j=0; j < materials[msg.sender][mType].length; j++){\n            if (materials[msg.sender][mType][j].name==name){\n                printers[msg.sender][printer].mountedMaterial = materials[msg.sender][mType][j];\n            }\n        }\n    }\n\n    function checkIdentity(bytes32 _hashMsg, bytes memory _signature) \n    private view{\n        //Check for identity of the user registering\n        (uint8 _v, bytes32 _r, bytes32 _s) = splitSignature(_signature);\n        bytes32 prefixedHash = keccak256(abi.encodePacked(\"\\x19Ethereum Signed Message:\\n32\", _hashMsg));\n        require(ecrecover(prefixedHash, _v, _r, _s) == msg.sender, \"The registration identity verification failed.\"); \n    }\n\n    function splitSignature(bytes memory sig)\n    private pure\n    returns (uint8, bytes32, bytes32){\n        require(sig.length == 65);\n\n        bytes32 r;\n        bytes32 s;\n        uint8 v;\n\n        assembly {\n            // first 32 bytes, after the length prefix\n            r := mload(add(sig, 32))\n            // second 32 bytes\n            s := mload(add(sig, 64))\n            // final byte (first byte of the next 32 bytes)\n            v := byte(0, mload(add(sig, 96)))\n        }\n        \n        if (v < 27) {\n            v += 27;\n        }\n\n        return (v, r, s);\n    }\n\n}",
  "sourcePath": "/home/ubuntu/Android/af-2/web/blockchain/contracts/Scheduling.sol",
  "compiler": {
    "name": "solc",
    "version": "0.7.0+commit.9e61f92b.Emscripten.clang"
  },
  "schemaVersion": "3.4.3",
  "updatedAt": "2022-03-02T10:17:10.430Z",
  "networkType": "ethereum",
  "devdoc": {
    "kind": "dev",
    "methods": {},
    "version": 1
  },
  "userdoc": {
    "kind": "user",
    "methods": {},
    "version": 1
  }
}