{
  "contractName": "AntoTokenSale",
  "abi": [
    {
      "inputs": [
        {
          "internalType": "contract TestToken",
          "name": "_tokenContract",
          "type": "address"
        },
        {
          "internalType": "uint256",
          "name": "_tokenPrice",
          "type": "uint256"
        }
      ],
      "stateMutability": "nonpayable",
      "type": "constructor"
    },
    {
      "anonymous": false,
      "inputs": [
        {
          "indexed": false,
          "internalType": "address",
          "name": "_buyer",
          "type": "address"
        },
        {
          "indexed": false,
          "internalType": "uint256",
          "name": "_amount",
          "type": "uint256"
        }
      ],
      "name": "Sell",
      "type": "event"
    },
    {
      "inputs": [],
      "name": "tokenContract",
      "outputs": [
        {
          "internalType": "contract TestToken",
          "name": "",
          "type": "address"
        }
      ],
      "stateMutability": "view",
      "type": "function",
      "constant": true
    },
    {
      "inputs": [],
      "name": "tokenPrice",
      "outputs": [
        {
          "internalType": "uint256",
          "name": "",
          "type": "uint256"
        }
      ],
      "stateMutability": "view",
      "type": "function",
      "constant": true
    },
    {
      "inputs": [],
      "name": "tokensSold",
      "outputs": [
        {
          "internalType": "uint256",
          "name": "",
          "type": "uint256"
        }
      ],
      "stateMutability": "view",
      "type": "function",
      "constant": true
    },
    {
      "inputs": [
        {
          "internalType": "uint256",
          "name": "_numberOfTokens",
          "type": "uint256"
        }
      ],
      "name": "buyTokens",
      "outputs": [],
      "stateMutability": "payable",
      "type": "function",
      "payable": true
    },
    {
      "inputs": [],
      "name": "endSale",
      "outputs": [],
      "stateMutability": "nonpayable",
      "type": "function"
    }
  ],
  "bytecode": "0x6080604052600054600180546001600160a01b0319166001600160a01b0390921691909117905534801561003257600080fd5b5060405161065838038061065883398101604081905261005191610088565b60008054336001600160a01b031991821617909155600280549091166001600160a01b0393909316929092179091556003556100c2565b6000806040838503121561009b57600080fd5b82516001600160a01b03811681146100b257600080fd5b6020939093015192949293505050565b610587806100d16000396000f3fe60806040526004361061004a5760003560e01c80633610724e1461004f578063380d831b14610064578063518ab2a81461007957806355a373d6146100a25780637ff9b596146100da575b600080fd5b61006261005d3660046104b0565b6100f0565b005b34801561007057600080fd5b5061006261028b565b34801561008557600080fd5b5061008f60045481565b6040519081526020015b60405180910390f35b3480156100ae57600080fd5b506002546100c2906001600160a01b031681565b6040516001600160a01b039091168152602001610099565b3480156100e657600080fd5b5061008f60035481565b6100fc81600354610454565b341461010757600080fd5b6002546040516370a0823160e01b815230600482015282916001600160a01b0316906370a082319060240160206040518083038186803b15801561014a57600080fd5b505afa15801561015e573d6000803e3d6000fd5b505050506040513d601f19601f8201168201806040525081019061018291906104c9565b101561018d57600080fd5b6002546001600160a01b031663a9059cbb336101b184670de0b6b3a764000061051c565b6040516001600160e01b031960e085901b1681526001600160a01b0390921660048301526024820152604401602060405180830381600087803b1580156101f757600080fd5b505af115801561020b573d6000803e3d6000fd5b505050506040513d601f19601f8201168201806040525081019061022f9190610487565b61023857600080fd5b806004600082825461024a91906104e2565b909155505060408051338152602081018390527f5e5e995ce3133561afceaa51a9a154d5db228cd7525d34df5185582c18d3df09910160405180910390a150565b6000546001600160a01b031633146102ea5760405162461bcd60e51b815260206004820152601d60248201527f4a7573742061646d696e2063616e20656e6420746f6b656e2073616c6500000060448201526064015b60405180910390fd5b6002546000546040516370a0823160e01b81523060048201526001600160a01b039283169263a9059cbb92169083906370a082319060240160206040518083038186803b15801561033a57600080fd5b505afa15801561034e573d6000803e3d6000fd5b505050506040513d601f19601f8201168201806040525081019061037291906104c9565b6040516001600160e01b031960e085901b1681526001600160a01b0390921660048301526024820152604401602060405180830381600087803b1580156103b857600080fd5b505af11580156103cc573d6000803e3d6000fd5b505050506040513d601f19601f820116820180604052508101906103f09190610487565b6104465760405162461bcd60e51b815260206004820152602160248201527f52657475726e20616c6c20756e736f6c6420746f6b656e7320746f2061646d696044820152603760f91b60648201526084016102e1565b6001546001600160a01b0316ff5b60008115806104785750828261046a818361051c565b925061047690836104fa565b145b61048157600080fd5b92915050565b60006020828403121561049957600080fd5b815180151581146104a957600080fd5b9392505050565b6000602082840312156104c257600080fd5b5035919050565b6000602082840312156104db57600080fd5b5051919050565b600082198211156104f5576104f561053b565b500190565b60008261051757634e487b7160e01b600052601260045260246000fd5b500490565b60008160001904831182151516156105365761053661053b565b500290565b634e487b7160e01b600052601160045260246000fdfea2646970667358221220d2e86ea438b1344dba8d4c79890732634172badbdd178f3330c55468f73c3a3b64736f6c63430008070033",
  "immutableReferences": {},
  "source": "// SPDX-License-Identifier: MIT\n\npragma solidity ^0.8.7;\nimport \"./TestToken.sol\";\n\ncontract AntoTokenSale {\n    address admin; //state variable\n    address payable addr = payable(address(admin));\n    TestToken public tokenContract;\n    uint256 public tokenPrice;\n    uint256 public tokensSold;\n\n    event Sell(address _buyer, uint256 _amount);\n\n    constructor(TestToken _tokenContract, uint256 _tokenPrice) {\n        admin = msg.sender; //Assign the admin, msg.sender is global variable who dedploy cotnract\n        tokenContract = _tokenContract;  //Token Contract interact\n        tokenPrice = _tokenPrice; //Token price in wei/ether\n    }\n    function multiply(uint x, uint y) internal pure returns (uint z) {\n        require(y == 0 || (z = x * y) / y == x);\n    }\n    //Buy tokens\n\n    function buyTokens(uint256 _numberOfTokens) public payable {\n\n        require(msg.value == multiply(_numberOfTokens, tokenPrice)); //require that the value is equal to tokens\n        require(tokenContract.balanceOf(address(this)) >= _numberOfTokens); //require that are enough tokens in the contract\n        require(tokenContract.transfer(msg.sender, (_numberOfTokens * 10 ** 18) )); //require that a transfer is successful\n        tokensSold += _numberOfTokens; //keep track of TokensSold\n\n        emit Sell(msg.sender, _numberOfTokens); //trigger Sell Event\n    }\n\n\n    function endSale() public {\n    require(msg.sender == admin, 'Just admin can end token sale');\n\n    // Return all remaining unsold tokens to admin\n    require(tokenContract.transfer(admin, tokenContract.balanceOf(address(this))), 'Return all unsold tokens to admin');\n\n    // Destroy contract\n    selfdestruct(addr);\n  }\n}\n",
  "sourcePath": "/home/ubuntu/Android/contracts/af2-smart-contract/contracts/3_Token/AntoTokenSale.sol",
  "compiler": {
    "name": "solc",
    "version": "0.8.7+commit.e28d00a7.Emscripten.clang"
  },
  "schemaVersion": "3.4.3",
  "updatedAt": "2022-03-08T17:45:02.684Z",
  "networkType": "ethereum",
  "devdoc": {
    "kind": "dev",
    "methods": {},
    "version": 1
  },
  "userdoc": {
    "kind": "user",
    "methods": {},
    "version": 1
  }
}