{
  "contractName": "OnBoarding",
  "abi": [
    {
      "inputs": [
        {
          "internalType": "address",
          "name": "_user",
          "type": "address"
        }
      ],
      "stateMutability": "nonpayable",
      "type": "constructor"
    },
    {
      "anonymous": false,
      "inputs": [
        {
          "indexed": false,
          "internalType": "address",
          "name": "player_address",
          "type": "address"
        },
        {
          "indexed": false,
          "internalType": "bool",
          "name": "status",
          "type": "bool"
        }
      ],
      "name": "newPrinterAddition",
      "type": "event"
    },
    {
      "inputs": [
        {
          "internalType": "address",
          "name": "printerAddress",
          "type": "address"
        },
        {
          "internalType": "bytes32",
          "name": "name",
          "type": "bytes32"
        },
        {
          "internalType": "enum MaterialType[]",
          "name": "suppertedMaterial",
          "type": "uint8[]"
        },
        {
          "internalType": "uint256[]",
          "name": "nozzles",
          "type": "uint256[]"
        },
        {
          "internalType": "uint256",
          "name": "nozzlesMounted",
          "type": "uint256"
        },
        {
          "internalType": "uint256",
          "name": "printTemperature",
          "type": "uint256"
        },
        {
          "internalType": "uint256",
          "name": "bedTemperature",
          "type": "uint256"
        },
        {
          "internalType": "uint256",
          "name": "volume",
          "type": "uint256"
        },
        {
          "internalType": "bool",
          "name": "soluble",
          "type": "bool"
        },
        {
          "internalType": "bool",
          "name": "foodSafety",
          "type": "bool"
        }
      ],
      "name": "addPrinter",
      "outputs": [],
      "stateMutability": "payable",
      "type": "function",
      "payable": true
    },
    {
      "inputs": [],
      "name": "getMakerPrinters",
      "outputs": [
        {
          "components": [
            {
              "internalType": "bytes32",
              "name": "name",
              "type": "bytes32"
            },
            {
              "internalType": "enum MaterialType[]",
              "name": "supportedMaterial",
              "type": "uint8[]"
            },
            {
              "components": [
                {
                  "internalType": "bytes32",
                  "name": "name",
                  "type": "bytes32"
                },
                {
                  "internalType": "enum MaterialType",
                  "name": "mType",
                  "type": "uint8"
                },
                {
                  "internalType": "enum MaterialColor",
                  "name": "color",
                  "type": "uint8"
                },
                {
                  "internalType": "uint256",
                  "name": "quantityKG",
                  "type": "uint256"
                },
                {
                  "internalType": "uint256",
                  "name": "quantityM",
                  "type": "uint256"
                },
                {
                  "internalType": "uint256",
                  "name": "printTemperature",
                  "type": "uint256"
                },
                {
                  "internalType": "uint256",
                  "name": "bedTemperature",
                  "type": "uint256"
                }
              ],
              "internalType": "struct MaterialDetails",
              "name": "mountedMaterial",
              "type": "tuple"
            },
            {
              "internalType": "uint256[]",
              "name": "nozzles",
              "type": "uint256[]"
            },
            {
              "internalType": "uint256",
              "name": "mountedNozzles",
              "type": "uint256"
            },
            {
              "internalType": "uint256",
              "name": "maxPrintTemperature",
              "type": "uint256"
            },
            {
              "internalType": "uint256",
              "name": "maxBedTemperature",
              "type": "uint256"
            },
            {
              "internalType": "uint256",
              "name": "volume",
              "type": "uint256"
            },
            {
              "internalType": "bool",
              "name": "soluble",
              "type": "bool"
            },
            {
              "internalType": "bool",
              "name": "foodSafety",
              "type": "bool"
            },
            {
              "internalType": "bool",
              "name": "avaiable",
              "type": "bool"
            }
          ],
          "internalType": "struct Printer[]",
          "name": "mprinters",
          "type": "tuple[]"
        }
      ],
      "stateMutability": "view",
      "type": "function",
      "constant": true
    },
    {
      "inputs": [],
      "name": "getMakerNPrinters",
      "outputs": [
        {
          "internalType": "uint256",
          "name": "Nprinters",
          "type": "uint256"
        }
      ],
      "stateMutability": "view",
      "type": "function",
      "constant": true
    },
    {
      "inputs": [
        {
          "internalType": "bytes32",
          "name": "name",
          "type": "bytes32"
        },
        {
          "internalType": "enum MaterialType",
          "name": "mType",
          "type": "uint8"
        },
        {
          "internalType": "enum MaterialColor",
          "name": "mColor",
          "type": "uint8"
        },
        {
          "internalType": "uint256",
          "name": "quantityKG",
          "type": "uint256"
        },
        {
          "internalType": "uint256",
          "name": "quantityM",
          "type": "uint256"
        },
        {
          "internalType": "uint256",
          "name": "printTemp",
          "type": "uint256"
        },
        {
          "internalType": "uint256",
          "name": "bedTemp",
          "type": "uint256"
        }
      ],
      "name": "addMaterials",
      "outputs": [],
      "stateMutability": "payable",
      "type": "function",
      "payable": true
    },
    {
      "inputs": [],
      "name": "getMaterials",
      "outputs": [
        {
          "components": [
            {
              "internalType": "bytes32",
              "name": "name",
              "type": "bytes32"
            },
            {
              "internalType": "enum MaterialType",
              "name": "mType",
              "type": "uint8"
            },
            {
              "internalType": "enum MaterialColor",
              "name": "color",
              "type": "uint8"
            },
            {
              "internalType": "uint256",
              "name": "quantityKG",
              "type": "uint256"
            },
            {
              "internalType": "uint256",
              "name": "quantityM",
              "type": "uint256"
            },
            {
              "internalType": "uint256",
              "name": "printTemperature",
              "type": "uint256"
            },
            {
              "internalType": "uint256",
              "name": "bedTemperature",
              "type": "uint256"
            }
          ],
          "internalType": "struct MaterialDetails[]",
          "name": "av_materials",
          "type": "tuple[]"
        }
      ],
      "stateMutability": "view",
      "type": "function",
      "constant": true
    },
    {
      "inputs": [
        {
          "internalType": "bytes32",
          "name": "name",
          "type": "bytes32"
        },
        {
          "internalType": "enum MaterialType",
          "name": "mType",
          "type": "uint8"
        },
        {
          "internalType": "enum MaterialColor",
          "name": "mColor",
          "type": "uint8"
        },
        {
          "internalType": "uint256",
          "name": "quantityKG",
          "type": "uint256"
        },
        {
          "internalType": "uint256",
          "name": "quantityM",
          "type": "uint256"
        },
        {
          "internalType": "uint256",
          "name": "printTemp",
          "type": "uint256"
        },
        {
          "internalType": "uint256",
          "name": "bedTemp",
          "type": "uint256"
        }
      ],
      "name": "updateMaterial",
      "outputs": [],
      "stateMutability": "payable",
      "type": "function",
      "payable": true
    },
    {
      "inputs": [
        {
          "internalType": "bytes32",
          "name": "name",
          "type": "bytes32"
        },
        {
          "internalType": "enum MaterialType",
          "name": "mType",
          "type": "uint8"
        }
      ],
      "name": "removeMaterial",
      "outputs": [],
      "stateMutability": "payable",
      "type": "function",
      "payable": true
    },
    {
      "inputs": [
        {
          "internalType": "bytes32",
          "name": "name",
          "type": "bytes32"
        },
        {
          "internalType": "enum MaterialType",
          "name": "mType",
          "type": "uint8"
        },
        {
          "internalType": "address",
          "name": "printer",
          "type": "address"
        }
      ],
      "name": "mountMaterial",
      "outputs": [],
      "stateMutability": "payable",
      "type": "function",
      "payable": true
    }
  ],
  "bytecode": "0x6101606040526000608081905260a081905260c081905260e08190526101008190526101208190526101408190528080556001805461ffff1916905560028190556003819055600481905560055534801561005957600080fd5b50604051620024b2380380620024b283398101604081905261007a9161009f565b600b80546001600160a01b0319166001600160a01b03929092169190911790556100cf565b6000602082840312156100b157600080fd5b81516001600160a01b03811681146100c857600080fd5b9392505050565b6123d380620000df6000396000f3fe60806040526004361061007b5760003560e01c806380dfedcd1161004e57806380dfedcd146100f6578063a6bc773814610118578063b365bdf91461012b578063ecace5a21461013e57600080fd5b806320b83e21146100805780633bdda5e2146100ab5780636b04fb47146100c05780637c8372a5146100e3575b600080fd5b34801561008c57600080fd5b50610095610151565b6040516100a2919061216d565b60405180910390f35b6100be6100b9366004611e84565b6105fa565b005b3480156100cc57600080fd5b506100d5610b35565b6040519081526020016100a2565b6100be6100f1366004611fd8565b610b70565b34801561010257600080fd5b5061010b610e95565b6040516100a2919061211f565b6100be610126366004611f70565b611144565b6100be610139366004611fd8565b61157b565b6100be61014c366004611f9c565b61187e565b600b54604051629c95e160e41b81523360048201526060916001600160a01b0316906309c95e109060240160206040518083038186803b15801561019457600080fd5b505afa1580156101a8573d6000803e3d6000fd5b505050506040513d601f19601f820116820180604052508101906101cc9190611f4c565b151560011461021e5760405162461bcd60e51b8152602060048201526019602482015278283630bcb2b9103737ba1034b7103a34329039bcb9ba32b69760391b60448201526064015b60405180910390fd5b600b5460405163e75600c360e01b81523360048201526001600160a01b039091169063e75600c39060240160206040518083038186803b15801561026157600080fd5b505afa158015610275573d6000803e3d6000fd5b505050506040513d601f19601f820116820180604052508101906102999190611f4c565b15156001146102f55760405162461bcd60e51b815260206004820152602260248201527f4f6e6c79204d616b65722063616e20676574207468656972205072696e746572604482015261399760f11b6064820152608401610215565b3360009081526008602052604090205467ffffffffffffffff81111561031d5761031d612376565b60405190808252806020026020018201604052801561035657816020015b610343611bd7565b81526020019060019003908161033b5790505b50905060005b336000908152600860205260409020548110156105f657336000908152600660209081526040808320600890925282208054919291849081106103a1576103a1612360565b60009182526020808320909101546001600160a01b03168352828101939093526040918201902081516101608101835281548152600182018054845181870281018701909552808552919492938584019390929083018282801561045457602002820191906000526020600020906000905b82829054906101000a900460ff1660028111156104325761043261234a565b8152602060019283018181049485019490930390920291018084116104135790505b50505050508152602001600282016040518060e0016040529081600082015481526020016001820160009054906101000a900460ff16600281111561049b5761049b61234a565b60028111156104ac576104ac61234a565b81526020016001820160019054906101000a900460ff16600b8111156104d4576104d461234a565b600b8111156104e5576104e561234a565b815260200160028201548152602001600382015481526020016004820154815260200160058201548152505081526020016008820180548060200260200160405190810160405280929190818152602001828054801561056457602002820191906000526020600020905b815481526020019060010190808311610550575b505050918352505060098201546020820152600a8201546040820152600b8201546060820152600c8201546080820152600d9091015460ff808216151560a084015261010082048116151560c08401526201000090910416151560e09091015282518390839081106105d8576105d8612360565b602002602001018190525080806105ee90612319565b91505061035c565b5090565b600b54604051629c95e160e41b81523360048201526001600160a01b03909116906309c95e109060240160206040518083038186803b15801561063c57600080fd5b505afa158015610650573d6000803e3d6000fd5b505050506040513d601f19601f820116820180604052508101906106749190611f4c565b15156001146106c15760405162461bcd60e51b8152602060048201526019602482015278283630bcb2b9103737ba1034b7103a34329039bcb9ba32b69760391b6044820152606401610215565b600b5460405163e75600c360e01b81523360048201526001600160a01b039091169063e75600c39060240160206040518083038186803b15801561070457600080fd5b505afa158015610718573d6000803e3d6000fd5b505050506040513d601f19601f8201168201806040525081019061073c9190611f4c565b151560011461078d5760405162461bcd60e51b815260206004820152601c60248201527f4f6e6c79204d616b65722063616e20616464205072696e746572732e000000006044820152606401610215565b60408051610160810182528a815260208082018b9052825160e081018452600080548252600154909484019285919083019060ff1660028111156107d3576107d361234a565b60028111156107e4576107e461234a565b81526020016001820160019054906101000a900460ff16600b81111561080c5761080c61234a565b600b81111561081d5761081d61234a565b81526020016002820154815260200160038201548152602001600482015481526020016005820154815250508152602001898152602001888152602001878152602001868152602001858152602001841515815260200183151581526020016001151581525090508060066000336001600160a01b03166001600160a01b0316815260200190815260200160002060008d6001600160a01b03166001600160a01b031681526020019081526020016000206000820151816000015560208201518160010190805190602001906108f4929190611c75565b5060408201518051600280840191825560208301516003850180549192909160ff191690600190849081111561092c5761092c61234a565b0217905550604082015160018201805461ff00191661010083600b8111156109565761095661234a565b021790555060608281015160028301556080830151600383015560a0830151600483015560c090920151600590910155820151805161099f916008840191602090910190611d25565b506080820151816009015560a082015181600a015560c082015181600b015560e082015181600c015561010082015181600d0160006101000a81548160ff02191690831515021790555061012082015181600d0160016101000a81548160ff02191690831515021790555061014082015181600d0160026101000a81548160ff021916908315150217905550905050600160076000336001600160a01b03166001600160a01b0316815260200190815260200160002060006101000a81548160ff02191690831515021790555060086000336001600160a01b03166001600160a01b031681526020019081526020016000208b9080600181540180825580915050600190039060005260206000200160009091909190916101000a8154816001600160a01b0302191690836001600160a01b031602179055507f68f1f4a765c80cce6152bba70adcfe422531198b0d733f8555bd9b2f1c0feb44336001604051610b209291906001600160a01b039290921682521515602082015260400190565b60405180910390a15050505050505050505050565b6000805b336000908152600860205260409020548110156105f65781610b5a81612319565b9250508080610b6890612319565b915050610b39565b600b5460405163e75600c360e01b81523360048201526001600160a01b039091169063e75600c39060240160206040518083038186803b158015610bb357600080fd5b505afa158015610bc7573d6000803e3d6000fd5b505050506040513d601f19601f82011682018060405250810190610beb9190611f4c565b1515600114610c3c5760405162461bcd60e51b815260206004820181905260248201527f4f6e6c79204d616b65722063616e20757064617465204d6174657269616c732e6044820152606401610215565b610c4587611b68565b1515600114610c665760405162461bcd60e51b815260040161021590612275565b60005b33600090815260096020526040812090886002811115610c8b57610c8b61234a565b6002811115610c9c57610c9c61234a565b8152602081019190915260400160002054811015610e8b573360009081526009602052604081208991896002811115610cd757610cd761234a565b6002811115610ce857610ce861234a565b81526020019081526020016000208281548110610d0757610d07612360565b9060005260206000209060060201600001541415610e79576040518060e00160405280898152602001886002811115610d4257610d4261234a565b815260200187600b811115610d5957610d5961234a565b81526020018681526020018581526020018481526020018381525060096000336001600160a01b03166001600160a01b031681526020019081526020016000206000896002811115610dad57610dad61234a565b6002811115610dbe57610dbe61234a565b81526020019081526020016000208281548110610ddd57610ddd612360565b90600052602060002090600602016000820151816000015560208201518160010160006101000a81548160ff02191690836002811115610e1f57610e1f61234a565b0217905550604082015160018201805461ff00191661010083600b811115610e4957610e4961234a565b0217905550606082015160028201556080820151600382015560a0820151600482015560c0909101516005909101555b80610e8381612319565b915050610c69565b5050505050505050565b336000908152600960209081526040808320600184529091528082205460028352818320548380529183205460609392610ece91612301565b610ed89190612301565b90508067ffffffffffffffff811115610ef357610ef3612376565b604051908082528060200260200182016040528015610f6557816020015b610f526040805160e0810190915260008082526020820190815260200160008152602001600081526020016000815260200160008152602001600081525090565b815260200190600190039081610f115790505b50915060005b600381101561113f5760005b33600090815260096020526040812090836002811115610f9957610f9961234a565b6002811115610faa57610faa61234a565b6002811115610fbb57610fbb61234a565b815260208101919091526040016000205481101561112c5733600090815260096020526040812090836002811115610ff557610ff561234a565b60028111156110065761100661234a565b60028111156110175761101761234a565b8152602001908152602001600020818154811061103657611036612360565b90600052602060002090600602016040518060e0016040529081600082015481526020016001820160009054906101000a900460ff16600281111561107d5761107d61234a565b600281111561108e5761108e61234a565b81526020016001820160019054906101000a900460ff16600b8111156110b6576110b661234a565b600b8111156110c7576110c761234a565b8152600282015460208201526003820154604082015260048201546060820152600590910154608090910152846110fe8385612301565b8151811061110e5761110e612360565b6020026020010181905250808061112490612319565b915050610f77565b508061113781612319565b915050610f6b565b505090565b600b5460405163e75600c360e01b81523360048201526001600160a01b039091169063e75600c39060240160206040518083038186803b15801561118757600080fd5b505afa15801561119b573d6000803e3d6000fd5b505050506040513d601f19601f820116820180604052508101906111bf9190611f4c565b15156001146112105760405162461bcd60e51b815260206004820181905260248201527f4f6e6c79204d616b65722063616e2064656c657465204d6174657269616c732e6044820152606401610215565b61121982611b68565b151560011461123a5760405162461bcd60e51b815260040161021590612275565b60005b3360009081526009602052604081209083600281111561125f5761125f61234a565b60028111156112705761127061234a565b81526020810191909152604001600020548110156113fc5733600090815260096020526040812084918460028111156112ab576112ab61234a565b60028111156112bc576112bc61234a565b815260200190815260200160002082815481106112db576112db612360565b90600052602060002090600602016000015414156113ea57336000908152600960205260408120818460028111156113155761131561234a565b60028111156113265761132661234a565b8152602001908152602001600020828154811061134557611345612360565b600091825260209091208254600690920201908155600180830154818301805460ff90921692909160ff1916908360028111156113845761138461234a565b0217905550600182810154908201805460ff61010093849004169261ff00199091169083600b8111156113b9576113b961234a565b0217905550600282015481600201556003820154816003015560048201548160040155600582015481600501559050505b806113f481612319565b91505061123d565b5060005b3360009081526008602052604090205481101561157657336000908152600660209081526040808320600890925282208054869391908590811061144657611446612360565b60009182526020808320909101546001600160a01b03168352820192909252604001902060020154141561156457336000908152600660209081526040808320600890925282208054839190859081106114a2576114a2612360565b60009182526020808320909101546001600160a01b0316835282019290925260400190208154600280830191825560018481015460039094018054939460ff1693909260ff19909116919084908111156114fe576114fe61234a565b0217905550600182810154908201805460ff61010093849004169261ff00199091169083600b8111156115335761153361234a565b0217905550600282015481600201556003820154816003015560048201548160040155600582015481600501559050505b8061156e81612319565b915050611400565b505050565b600b5460405163e75600c360e01b81523360048201526001600160a01b039091169063e75600c39060240160206040518083038186803b1580156115be57600080fd5b505afa1580156115d2573d6000803e3d6000fd5b505050506040513d601f19601f820116820180604052508101906115f69190611f4c565b15156001146116475760405162461bcd60e51b815260206004820152601c60248201527f4f6e6c79204d616b65722063616e20616464204d6174657269616c2e000000006044820152606401610215565b600085600b81111561165b5761165b61234a565b141561169b5760405162461bcd60e51b815260206004820152600f60248201526e10dbdb1bdc881b9bdd081d985b1a59608a1b6044820152606401610215565b6116a487611b68565b156117045760405162461bcd60e51b815260206004820152602a60248201527f546865726520697320616c72656164792061206d6174657269616c20776974686044820152692074686973206e616d6560b01b6064820152608401610215565b60006040518060e001604052808981526020018860028111156117295761172961234a565b815260200187600b8111156117405761174061234a565b815260200186815260200185815260200184815260200183815250905060096000336001600160a01b03166001600160a01b0316815260200190815260200160002060008860028111156117965761179661234a565b60028111156117a7576117a761234a565b81526020808201929092526040016000908120805460018181018355918352918390208451600690930201918255918301518183018054859460ff19909116908360028111156117f9576117f961234a565b0217905550604082015160018201805461ff00191661010083600b8111156118235761182361234a565b0217905550606082015160028201556080820151600382015560a0820151600482015560c0909101516005909101555050336000908152600a6020908152604082208054600181018255908352912001959095555050505050565b600b5460405163e75600c360e01b81523360048201526001600160a01b039091169063e75600c39060240160206040518083038186803b1580156118c157600080fd5b505afa1580156118d5573d6000803e3d6000fd5b505050506040513d601f19601f820116820180604052508101906118f99190611f4c565b151560011461194a5760405162461bcd60e51b815260206004820181905260248201527f4f6e6c79204d616b65722063616e2064656c657465204d6174657269616c732e6044820152606401610215565b61195383611b68565b15156001146119745760405162461bcd60e51b815260040161021590612275565b60005b336000908152600960205260408120908460028111156119995761199961234a565b60028111156119aa576119aa61234a565b8152602081019190915260400160002054811015611b625733600090815260096020526040812085918560028111156119e5576119e561234a565b60028111156119f6576119f661234a565b81526020019081526020016000208281548110611a1557611a15612360565b9060005260206000209060060201600001541415611b505733600090815260096020526040812090846002811115611a4f57611a4f61234a565b6002811115611a6057611a6061234a565b81526020019081526020016000208181548110611a7f57611a7f612360565b60009182526020808320338452600680835260408086206001600160a01b038916875290935291909320910290910180546002808401918255600180840154600390950180549495939460ff90941693909260ff1990911691908490811115611aea57611aea61234a565b0217905550600182810154908201805460ff61010093849004169261ff00199091169083600b811115611b1f57611b1f61234a565b0217905550600282015481600201556003820154816003015560048201548160040155600582015481600501559050505b80611b5a81612319565b915050611977565b50505050565b600080805b336000908152600a6020526040902054811015611bd057336000908152600a60205260409020805485919083908110611ba857611ba8612360565b90600052602060002001541415611bbe57600191505b80611bc881612319565b915050611b6d565b5092915050565b60408051610160810182526000815260606020820152908101611c316040805160e0810190915260008082526020820190815260200160008152602001600081526020016000815260200160008152602001600081525090565b815260200160608152602001600081526020016000815260200160008152602001600081526020016000151581526020016000151581526020016000151581525090565b82805482825590600052602060002090601f01602090048101928215611d195791602002820160005b83821115611cea57835183826101000a81548160ff02191690836002811115611cc957611cc961234a565b02179055509260200192600101602081600001049283019260010302611c9e565b8015611d175782816101000a81549060ff0219169055600101602081600001049283019260010302611cea565b505b506105f6929150611d60565b828054828255906000526020600020908101928215611d19579160200282015b82811115611d19578251825591602001919060010190611d45565b5b808211156105f65760008155600101611d61565b80356001600160a01b0381168114611d8c57600080fd5b919050565b600082601f830112611da257600080fd5b81356020611db7611db2836122dd565b6122ac565b80838252828201915082860187848660051b8901011115611dd757600080fd5b60005b85811015611dfd57611deb82611e75565b84529284019290840190600101611dda565b5090979650505050505050565b600082601f830112611e1b57600080fd5b81356020611e2b611db2836122dd565b80838252828201915082860187848660051b8901011115611e4b57600080fd5b60005b85811015611dfd57813584529284019290840190600101611e4e565b8035611d8c8161238c565b803560038110611d8c57600080fd5b6000806000806000806000806000806101408b8d031215611ea457600080fd5b611ead8b611d75565b995060208b0135985060408b013567ffffffffffffffff80821115611ed157600080fd5b611edd8e838f01611d91565b995060608d0135915080821115611ef357600080fd5b50611f008d828e01611e0a565b97505060808b0135955060a08b0135945060c08b0135935060e08b01359250611f2c6101008c01611e6a565b9150611f3b6101208c01611e6a565b90509295989b9194979a5092959850565b600060208284031215611f5e57600080fd5b8151611f698161238c565b9392505050565b60008060408385031215611f8357600080fd5b82359150611f9360208401611e75565b90509250929050565b600080600060608486031215611fb157600080fd5b83359250611fc160208501611e75565b9150611fcf60408501611d75565b90509250925092565b600080600080600080600060e0888a031215611ff357600080fd5b8735965061200360208901611e75565b95506040880135600c811061201757600080fd5b969995985095966060810135965060808101359560a0820135955060c0909101359350915050565b600081518084526020808501945080840160005b83811015612076576120668783516120b1565b9582019590820190600101612053565b509495945050505050565b600081518084526020808501945080840160005b8381101561207657815187529582019590820190600101612095565b600381106120c1576120c161234a565b9052565b8051825260208101516120db60208401826120b1565b506040810151600c81106120f1576120f161234a565b6040830152606081810151908301526080808201519083015260a0808201519083015260c090810151910152565b6020808252825182820181905260009190848201906040850190845b818110156121615761214e8385516120c5565b9284019260e0929092019160010161213b565b50909695505050505050565b60006020808301818452808551808352604092508286019150828160051b87010184880160005b8381101561226757603f1989840301855281516102208151855288820151818a8701526121c38287018261203f565b915050878201516121d6898701826120c5565b506060820151610120868303818801526121f08383612081565b925060808401519150610140828189015260a085015161016089015260c085015161018089015260e08501516101a089015261010085015192506122396101c089018415159052565b9084015115156101e08801529092015180151561020087015291509588019593505090860190600101612194565b509098975050505050505050565b6020808252601a908201527f4e6f206d6174657269616c20776974682074686973206e616d65000000000000604082015260600190565b604051601f8201601f1916810167ffffffffffffffff811182821017156122d5576122d5612376565b604052919050565b600067ffffffffffffffff8211156122f7576122f7612376565b5060051b60200190565b6000821982111561231457612314612334565b500190565b600060001982141561232d5761232d612334565b5060010190565b634e487b7160e01b600052601160045260246000fd5b634e487b7160e01b600052602160045260246000fd5b634e487b7160e01b600052603260045260246000fd5b634e487b7160e01b600052604160045260246000fd5b801515811461239a57600080fd5b5056fea264697066735822122049bf84bdaf305ad99d6424327c409c19d66b0d594be5a43ecc03e234acb600dd64736f6c63430008070033",
  "immutableReferences": {},
  "source": "/*\n * @author Pipitone Antonio \n * @SPDX-License-Identifier: UNLICENSED\n */\npragma solidity >=0.4.22 <0.9.0;\npragma experimental ABIEncoderV2;\n\nimport \"./Structs/OnBoardingStructs.sol\";\n\nabstract contract IUser{\n    mapping (address => bool) public isPlayer;\n    function isMaker(address adr) virtual public view returns(bool);\n}\n\ncontract OnBoarding {\n    //Printer\n    MaterialDetails private NONE = MaterialDetails(\"\",MaterialType.ABS,MaterialColor.NONE,0,0,0,0);\n\n     //Printers\n    mapping (address => mapping(address => Printer)) private printers;\n    mapping (address => bool) private isPrinter;\n    mapping (address => address[]) private makerPrinters;\n\n    //Material\n    mapping (address => mapping (MaterialType => MaterialDetails[]) ) private materials;\n    mapping (address => bytes32[]) private materialsName;\n\n    event newPrinterAddition(address player_address, bool status);\n\n    IUser private Iuser;\n    constructor(address _user){\n        Iuser = IUser(_user);\n    }\n\n\n    //Functions Printers\n    function addPrinter(\n        address printerAddress,\n        bytes32 name, \n        MaterialType[] memory suppertedMaterial,\n        uint256[] memory nozzles,\n        uint256 nozzlesMounted, \n        uint256 printTemperature, \n        uint256 bedTemperature, \n        uint256 volume, \n        bool soluble,\n        bool foodSafety\n    ) public payable{\n        require( Iuser.isPlayer(msg.sender) == true, \"Player not in the system.\");\n        require( Iuser.isMaker(msg.sender) == true, \"Only Maker can add Printers.\");\n\n        Printer memory newPrinter = Printer(\n                                            name,\n                                            suppertedMaterial,\n                                            NONE, \n                                            nozzles, \n                                            nozzlesMounted, \n                                            printTemperature, \n                                            bedTemperature, \n                                            volume, \n                                            soluble, \n                                            foodSafety,\n                                            true\n                                            );\n        printers[msg.sender][printerAddress] = (newPrinter);  \n        isPrinter[msg.sender] = true;\n        makerPrinters[msg.sender].push(printerAddress);\n\n\n        emit newPrinterAddition(msg.sender, true);\n    }\n\n    function getMakerPrinters() \n    public view \n    returns (Printer[] memory mprinters){\n        require( Iuser.isPlayer(msg.sender) == true, \"Player not in the system.\");\n        require( Iuser.isMaker(msg.sender) == true, \"Only Maker can get their Printers.\");\n        mprinters = new Printer[](makerPrinters[msg.sender].length);\n        for (uint i = 0; i < makerPrinters[msg.sender].length; i++) {\n            mprinters[i] = printers[msg.sender][makerPrinters[msg.sender][i]];\n        }\n        return mprinters;\n    }\n\n    function getMakerNPrinters()\n    public view\n    returns(uint256 Nprinters){\n        for (uint i = 0; i < makerPrinters[msg.sender].length; i++) {\n            Nprinters++;\n        }\n        return Nprinters;\n    }\n\n    //Functions Materials\n    function checkMaterial(bytes32 name) \n    internal view returns(bool){\n        bool response = false;\n        for(uint i = 0; i < materialsName[msg.sender].length; i++ ){\n            if (materialsName[msg.sender][i] == name){\n                response = true;\n            }\n        }\n        return response;\n    }\n\n    function addMaterials(bytes32 name, MaterialType mType, MaterialColor mColor, uint256 quantityKG, uint256 quantityM, uint256 printTemp, uint256 bedTemp)\n    public payable{\n        require( Iuser.isMaker(msg.sender) == true, \"Only Maker can add Material.\");\n        require(mColor != MaterialColor.NONE, \"Color not valid\");\n        require(checkMaterial(name) == false, \"There is already a material with this name\");\n        MaterialDetails memory newMaterial = MaterialDetails(name, mType,mColor, quantityKG, quantityM, printTemp, bedTemp);    \n        materials[msg.sender][mType].push(newMaterial);\n        materialsName[msg.sender].push(name);\n    }\n\n    function getMaterials()\n    public view\n    returns (MaterialDetails[] memory av_materials){\n        \n        uint256 n_materials = materials[msg.sender][MaterialType.ABS].length+materials[msg.sender][MaterialType.PETG].length+materials[msg.sender][MaterialType.PLA].length;\n        av_materials = new MaterialDetails[](n_materials);\n        for (uint i = 0; i < 3; i++){\n            for(uint j=0; j < materials[msg.sender][MaterialType(i)].length; j++){\n                av_materials[i+j] = materials[msg.sender][MaterialType(i)][j];\n            }\n        }\n        return av_materials;\n    }\n\n    function updateMaterial(bytes32 name, MaterialType mType, MaterialColor mColor, uint256 quantityKG, uint256 quantityM, uint256 printTemp, uint256 bedTemp)\n    public payable{\n        require( Iuser.isMaker(msg.sender) == true, \"Only Maker can update Materials.\");\n        require(checkMaterial(name) == true, \"No material with this name\");\n\n        for(uint j=0; j < materials[msg.sender][mType].length; j++){\n            if (materials[msg.sender][mType][j].name==name){\n                materials[msg.sender][mType][j] = MaterialDetails(name,mType, mColor, quantityKG, quantityM, printTemp, bedTemp); \n            }\n        }\n    }\n\n    function removeMaterial(bytes32 name, MaterialType mType) \n    public payable{\n        require( Iuser.isMaker(msg.sender) == true, \"Only Maker can delete Materials.\");\n        require(checkMaterial(name) == true, \"No material with this name\");\n\n        for(uint j=0; j < materials[msg.sender][mType].length; j++){\n            if (materials[msg.sender][mType][j].name==name){\n                materials[msg.sender][mType][j] = NONE;\n            }\n        }\n        for (uint i = 0; i < makerPrinters[msg.sender].length; i++) {\n            if(printers[msg.sender][makerPrinters[msg.sender][i]].mountedMaterial.name == name){\n                printers[msg.sender][makerPrinters[msg.sender][i]].mountedMaterial = NONE;\n            }\n        }\n    }\n\n    function mountMaterial(bytes32 name, MaterialType mType, address printer)\n    public payable{\n        require(Iuser.isMaker(msg.sender) == true, \"Only Maker can delete Materials.\");\n        require(checkMaterial(name) == true, \"No material with this name\");\n        \n        for(uint j=0; j < materials[msg.sender][mType].length; j++){\n            if (materials[msg.sender][mType][j].name==name){\n                printers[msg.sender][printer].mountedMaterial = materials[msg.sender][mType][j];\n            }\n        }\n    }\n\n}",
  "sourcePath": "/home/ubuntu/Android/contracts/af2-smart-contract/contracts/1_OnBoarding/OnBoarding.sol",
  "compiler": {
    "name": "solc",
    "version": "0.8.7+commit.e28d00a7.Emscripten.clang"
  },
  "schemaVersion": "3.4.3",
  "updatedAt": "2022-03-08T17:44:58.812Z",
  "networkType": "ethereum",
  "devdoc": {
    "kind": "dev",
    "methods": {},
    "version": 1
  },
  "userdoc": {
    "kind": "user",
    "methods": {},
    "version": 1
  }
}