{
  "contractName": "PrintingProcess",
  "abi": [
    {
      "inputs": [
        {
          "internalType": "bytes32",
          "name": "orderID",
          "type": "bytes32"
        },
        {
          "internalType": "address",
          "name": "_printerAddress",
          "type": "address"
        }
      ],
      "name": "get_printing_process",
      "outputs": [
        {
          "components": [
            {
              "internalType": "bytes32",
              "name": "designHash",
              "type": "bytes32"
            },
            {
              "internalType": "uint256",
              "name": "piece",
              "type": "uint256"
            },
            {
              "internalType": "uint256",
              "name": "startTimestamp",
              "type": "uint256"
            },
            {
              "internalType": "uint256",
              "name": "endTimestamp",
              "type": "uint256"
            },
            {
              "internalType": "int256",
              "name": "status",
              "type": "int256"
            }
          ],
          "internalType": "struct PrintingProcess.printingProcess[]",
          "name": "",
          "type": "tuple[]"
        }
      ],
      "stateMutability": "view",
      "type": "function"
    },
    {
      "inputs": [
        {
          "internalType": "bytes32",
          "name": "orderID",
          "type": "bytes32"
        },
        {
          "internalType": "address",
          "name": "_printerAddress",
          "type": "address"
        },
        {
          "internalType": "bytes32",
          "name": "designHash",
          "type": "bytes32"
        },
        {
          "internalType": "uint256",
          "name": "piece",
          "type": "uint256"
        },
        {
          "internalType": "uint256",
          "name": "startTimestamp",
          "type": "uint256"
        }
      ],
      "name": "start_printing",
      "outputs": [],
      "stateMutability": "payable",
      "type": "function"
    },
    {
      "inputs": [
        {
          "internalType": "bytes32",
          "name": "orderID",
          "type": "bytes32"
        },
        {
          "internalType": "address",
          "name": "_printerAddress",
          "type": "address"
        },
        {
          "internalType": "uint256",
          "name": "piece",
          "type": "uint256"
        }
      ],
      "name": "search_printing_process",
      "outputs": [
        {
          "internalType": "int256",
          "name": "index",
          "type": "int256"
        }
      ],
      "stateMutability": "view",
      "type": "function"
    },
    {
      "inputs": [
        {
          "internalType": "bytes32",
          "name": "orderID",
          "type": "bytes32"
        },
        {
          "internalType": "address",
          "name": "_printerAddress",
          "type": "address"
        },
        {
          "internalType": "uint256",
          "name": "piece",
          "type": "uint256"
        },
        {
          "internalType": "uint256",
          "name": "endTimestamp",
          "type": "uint256"
        },
        {
          "internalType": "int256",
          "name": "status",
          "type": "int256"
        }
      ],
      "name": "end_printing",
      "outputs": [],
      "stateMutability": "payable",
      "type": "function"
    }
  ],
  "bytecode": "0x608060405234801561001057600080fd5b50610889806100206000396000f3fe60806040526004361061003f5760003560e01c8063082ac05c146100445780635cc5286614610077578063a73be82a1461008c578063c3ef71941461009f575b600080fd5b34801561005057600080fd5b5061006461005f366004610758565b6100cc565b6040519081526020015b60405180910390f35b61008a610085366004610712565b610169565b005b61008a61009a366004610712565b6102e3565b3480156100ab57600080fd5b506100bf6100ba3660046106e6565b61061d565b60405161006e91906107a6565b60001960005b6000858152602081815260408083206001600160a01b0388168452909152902054811015610160576000858152602081815260408083206001600160a01b0388168452909152902080548491908390811061012f5761012f61083d565b906000526020600020906005020160010154141561014e579050610162565b8061015881610814565b9150506100d2565b505b9392505050565b60405163020ab01760e21b8152600481018690526001600160a01b038516602482015260448101839052309063082ac05c9060640160206040518083038186803b1580156101b657600080fd5b505afa1580156101ca573d6000803e3d6000fd5b505050506040513d601f19601f820116820180604052508101906101ee919061078d565b6000191461025c5760405162461bcd60e51b815260206004820152603060248201527f546865726520697320616c726561647920612070726f6f66206f66207072696e60448201526f7420666f72207468697320706965636560801b60648201526084015b60405180910390fd5b6000948552602085815260408087206001600160a01b039096168752948152848620855160a08101875294855284820193845294840191825260608401868152600019608086019081528654600181810189559789529290972094516005909202909401908155915193820193909355915160028301555160038201559051600490910155565b80158015906102f3575060028113155b6103325760405162461bcd60e51b815260206004820152601060248201526f1cdd185d1d5cc81b9bdd081d985b1a5960821b6044820152606401610253565b60405163020ab01760e21b8152600481018690526001600160a01b038516602482015260448101849052600090309063082ac05c9060640160206040518083038186803b15801561038257600080fd5b505afa158015610396573d6000803e3d6000fd5b505050506040513d601f19601f820116820180604052508101906103ba919061078d565b90508060001914156104265760405162461bcd60e51b815260206004820152602f60248201527f596f752063616e277420656e6420612070726f6f66206f66207072696e74206260448201526e19599bdc99481cdd185c9d1cc81a5d608a1b6064820152608401610253565b6000868152602081815260408083206001600160a01b0389168452909152902080548291908290811061045b5761045b61083d565b90600052602060002090600502016002015484116104d25760405162461bcd60e51b815260206004820152602e60248201527f456e642074696d657374616d702063616e6e6f74206265206265666f7265207360448201526d0746172742074696d657374616d760941b6064820152608401610253565b6000878152602081815260408083206001600160a01b038a16845290915290208054829081106105045761050461083d565b906000526020600020906005020160040154600214156105805760405162461bcd60e51b815260206004820152603160248201527f546869732070726f6f66206f66207072696e7420616c72656164792066696e69604482015270736865642077697468207375636365737360781b6064820152608401610253565b6000878152602081815260408083206001600160a01b038a16845290915290208054859190839081106105b5576105b561083d565b600091825260208083206003600590930201919091019290925588815280825260408082206001600160a01b038a168352909252208054849190839081106105ff576105ff61083d565b90600052602060002090600502016004018190555050505050505050565b6000828152602081815260408083206001600160a01b03851684528252808320805482518185028101850190935280835260609492939192909184015b828210156106be57838290600052602060002090600502016040518060a0016040529081600082015481526020016001820154815260200160028201548152602001600382015481526020016004820154815250508152602001906001019061065a565b50505050905092915050565b80356001600160a01b03811681146106e157600080fd5b919050565b600080604083850312156106f957600080fd5b82359150610709602084016106ca565b90509250929050565b600080600080600060a0868803121561072a57600080fd5b8535945061073a602087016106ca565b94979496505050506040830135926060810135926080909101359150565b60008060006060848603121561076d57600080fd5b8335925061077d602085016106ca565b9150604084013590509250925092565b60006020828403121561079f57600080fd5b5051919050565b602080825282518282018190526000919060409081850190868401855b828110156108075781518051855286810151878601528581015186860152606080820151908601526080908101519085015260a090930192908501906001016107c3565b5091979650505050505050565b600060001982141561083657634e487b7160e01b600052601160045260246000fd5b5060010190565b634e487b7160e01b600052603260045260246000fdfea2646970667358221220be3a6b20e845b16a96d40b027a08ae9db8a168cd8801af4e9be43459000f034564736f6c63430008070033",
  "immutableReferences": {},
  "source": "pragma solidity >=0.4.22 <0.9.0;\npragma experimental ABIEncoderV2;\n\ncontract PrintingProcess{\n\n\n    //information about the print begin,the print end and design name\n    struct printingProcess{\n        bytes32 designHash;\n        uint256 piece;\n        uint256 startTimestamp;\n        uint256 endTimestamp;\n        int status;\n    }\n    \n    //Printer details indexed by printer address\n    //mapping (address => printerDetails) private printers;\n    //mapping (address => uint) private isPrinter;\n    //address[] private printerAddresses;\n\n    //Makers orders\n            //orderID   //printerAddress\n    mapping (bytes32 => mapping(address => printingProcess[])) orderProcess;\n\n    function get_printing_process(bytes32 orderID ,address _printerAddress)\n    public view \n    returns(printingProcess[] memory){\n        return orderProcess[orderID][_printerAddress];\n    }\n\n    function start_printing(bytes32 orderID ,address _printerAddress, bytes32 designHash, uint256 piece, uint256 startTimestamp) \n    public payable{\n        //require( isPlayer [ msg.sender ] == 1, \"Only registered player can add proof of printer.\");\n        //Check for an existing printer\n        //require( isPrinter [ _printerAddress ] == 1, \"Only proof from a registered printer can be added.\");\n        require(this.search_printing_process(orderID, _printerAddress, piece)==-1, \"There is already a proof of print for this piece\");\n        orderProcess[orderID][_printerAddress].push(printingProcess(designHash, piece, startTimestamp, 0, -1));\n    }\n\n    function search_printing_process(bytes32 orderID, address _printerAddress, uint256 piece) \n    public view  \n    returns(int index){\n        index = -1;\n        for(uint i = 0; i<orderProcess[orderID][_printerAddress].length; i++){\n            if (orderProcess[orderID][_printerAddress][i].piece==piece){\n                index = int256(i);\n                return index;\n            }\n        }\n    }\n\n    function end_printing(bytes32 orderID ,address _printerAddress, uint256 piece, uint256 endTimestamp, int status) \n    public payable{\n\n        //require( isPlayer [ msg.sender ] == 1, \"Only registered player can add proof of printer.\");\n        //Check for an existing printer\n        //require( isPrinter [ _printerAddress ] == 1, \"Only proof from a registered printer can be added.\");\n        require(status!=0 && status<=2, \"status not valid\");\n        \n        int index = this.search_printing_process(orderID, _printerAddress, piece);\n        require(index!=-1, \"You can't end a proof of print before starts it\");\n        \n        uint256 i = uint256(index);\n        require(endTimestamp>orderProcess[orderID][_printerAddress][i].startTimestamp,\"End timestamp cannot be before start timestamp\");\n        require(orderProcess[orderID][_printerAddress][i].status!=2, \"This proof of print already finished with success\");\n        \n        orderProcess[orderID][_printerAddress][i].endTimestamp=endTimestamp;\n        orderProcess[orderID][_printerAddress][i].status=status;\n    }\n\n\n\n} \n",
  "sourcePath": "/home/ubuntu/Android/contracts/af2-smart-contract/contracts/4_PrintingProcess/PrintingProcess.sol",
  "compiler": {
    "name": "solc",
    "version": "0.8.7+commit.e28d00a7.Emscripten.clang"
  },
  "schemaVersion": "3.4.3",
  "updatedAt": "2022-03-02T11:17:58.244Z",
  "devdoc": {
    "kind": "dev",
    "methods": {},
    "version": 1
  },
  "userdoc": {
    "kind": "user",
    "methods": {},
    "version": 1
  }
}