{
  "contractName": "TestToken",
  "abi": [
    {
      "inputs": [],
      "stateMutability": "nonpayable",
      "type": "constructor"
    },
    {
      "anonymous": false,
      "inputs": [
        {
          "indexed": true,
          "internalType": "address",
          "name": "owner",
          "type": "address"
        },
        {
          "indexed": true,
          "internalType": "address",
          "name": "spender",
          "type": "address"
        },
        {
          "indexed": false,
          "internalType": "uint256",
          "name": "value",
          "type": "uint256"
        }
      ],
      "name": "Approval",
      "type": "event"
    },
    {
      "anonymous": false,
      "inputs": [
        {
          "indexed": true,
          "internalType": "address",
          "name": "from",
          "type": "address"
        },
        {
          "indexed": true,
          "internalType": "address",
          "name": "to",
          "type": "address"
        },
        {
          "indexed": false,
          "internalType": "uint256",
          "name": "value",
          "type": "uint256"
        }
      ],
      "name": "Transfer",
      "type": "event"
    },
    {
      "inputs": [
        {
          "internalType": "address",
          "name": "",
          "type": "address"
        },
        {
          "internalType": "address",
          "name": "",
          "type": "address"
        }
      ],
      "name": "_allowance",
      "outputs": [
        {
          "internalType": "uint256",
          "name": "",
          "type": "uint256"
        }
      ],
      "stateMutability": "view",
      "type": "function",
      "constant": true
    },
    {
      "inputs": [
        {
          "internalType": "address",
          "name": "",
          "type": "address"
        }
      ],
      "name": "_balanceOf",
      "outputs": [
        {
          "internalType": "uint256",
          "name": "",
          "type": "uint256"
        }
      ],
      "stateMutability": "view",
      "type": "function",
      "constant": true
    },
    {
      "inputs": [
        {
          "internalType": "address",
          "name": "recipient",
          "type": "address"
        },
        {
          "internalType": "uint256",
          "name": "amount",
          "type": "uint256"
        }
      ],
      "name": "transfer",
      "outputs": [
        {
          "internalType": "bool",
          "name": "success",
          "type": "bool"
        }
      ],
      "stateMutability": "nonpayable",
      "type": "function"
    },
    {
      "inputs": [
        {
          "internalType": "address",
          "name": "owner",
          "type": "address"
        },
        {
          "internalType": "address",
          "name": "spender",
          "type": "address"
        },
        {
          "internalType": "uint256",
          "name": "amount",
          "type": "uint256"
        }
      ],
      "name": "approve",
      "outputs": [
        {
          "internalType": "bool",
          "name": "success",
          "type": "bool"
        }
      ],
      "stateMutability": "nonpayable",
      "type": "function"
    },
    {
      "inputs": [
        {
          "internalType": "address",
          "name": "sender",
          "type": "address"
        },
        {
          "internalType": "address",
          "name": "recipient",
          "type": "address"
        },
        {
          "internalType": "uint256",
          "name": "amount",
          "type": "uint256"
        }
      ],
      "name": "transferFrom",
      "outputs": [
        {
          "internalType": "bool",
          "name": "success",
          "type": "bool"
        }
      ],
      "stateMutability": "nonpayable",
      "type": "function"
    },
    {
      "inputs": [],
      "name": "decimals",
      "outputs": [
        {
          "internalType": "uint8",
          "name": "",
          "type": "uint8"
        }
      ],
      "stateMutability": "view",
      "type": "function",
      "constant": true
    },
    {
      "inputs": [],
      "name": "symbol",
      "outputs": [
        {
          "internalType": "string",
          "name": "",
          "type": "string"
        }
      ],
      "stateMutability": "view",
      "type": "function",
      "constant": true
    },
    {
      "inputs": [],
      "name": "name",
      "outputs": [
        {
          "internalType": "string",
          "name": "",
          "type": "string"
        }
      ],
      "stateMutability": "view",
      "type": "function",
      "constant": true
    },
    {
      "inputs": [],
      "name": "totalSupply",
      "outputs": [
        {
          "internalType": "uint256",
          "name": "",
          "type": "uint256"
        }
      ],
      "stateMutability": "view",
      "type": "function",
      "constant": true
    },
    {
      "inputs": [
        {
          "internalType": "address",
          "name": "account",
          "type": "address"
        }
      ],
      "name": "balanceOf",
      "outputs": [
        {
          "internalType": "uint256",
          "name": "",
          "type": "uint256"
        }
      ],
      "stateMutability": "view",
      "type": "function",
      "constant": true
    },
    {
      "inputs": [
        {
          "internalType": "address",
          "name": "owner",
          "type": "address"
        },
        {
          "internalType": "address",
          "name": "spender",
          "type": "address"
        }
      ],
      "name": "allowance",
      "outputs": [
        {
          "internalType": "uint256",
          "name": "",
          "type": "uint256"
        }
      ],
      "stateMutability": "view",
      "type": "function",
      "constant": true
    }
  ],
  "bytecode": "0x608060405234801561001057600080fd5b5060408051808201909152600c8082526b416972466163746f7269657360a01b6020909201918252610044916000916100e1565b506040805180820190915260038082526220a31960e91b602090920191825261006f916001916100e1565b506003805460ff1916601217905569d3c21bcecceda100000060028190553360008181526004602052604080822084905551919290917fddf252ad1be2c89b69c2b068fc378daa952ba7f163c4a11628f55a4df523b3ef916100d49190815260200190565b60405180910390a36101b5565b8280546100ed9061017a565b90600052602060002090601f01602090048101928261010f5760008555610155565b82601f1061012857805160ff1916838001178555610155565b82800160010185558215610155579182015b8281111561015557825182559160200191906001019061013a565b50610161929150610165565b5090565b5b808211156101615760008155600101610166565b600181811c9082168061018e57607f821691505b602082108114156101af57634e487b7160e01b600052602260045260246000fd5b50919050565b6106c5806101c46000396000f3fe608060405234801561001057600080fd5b50600436106100a95760003560e01c806395d89b411161007157806395d89b411461013f578063a9059cbb14610147578063cca3e8321461015a578063dd336c121461017a578063dd62ed3e146101a5578063e1f21c67146101de57600080fd5b806306fdde03146100ae57806318160ddd146100cc57806323b872dd146100de578063313ce5671461010157806370a0823114610116575b600080fd5b6100b66101f1565b6040516100c391906105ba565b60405180910390f35b6002545b6040519081526020016100c3565b6100f16100ec366004610554565b610283565b60405190151581526020016100c3565b60035460405160ff90911681526020016100c3565b6100d06101243660046104ff565b6001600160a01b031660009081526004602052604090205490565b6100b66103c3565b6100f1610155366004610590565b6103d2565b6100d06101683660046104ff565b60046020526000908152604090205481565b6100d0610188366004610521565b600560209081526000928352604080842090915290825290205481565b6100d06101b3366004610521565b6001600160a01b03918216600090815260056020908152604080832093909416825291909152205490565b6100f16101ec366004610554565b610488565b6060600080546102009061063e565b80601f016020809104026020016040519081016040528092919081815260200182805461022c9061063e565b80156102795780601f1061024e57610100808354040283529160200191610279565b820191906000526020600020905b81548152906001019060200180831161025c57829003601f168201915b5050505050905090565b6001600160a01b0383166000908152600460205260408120548211156102a857600080fd5b6001600160a01b03841660009081526005602090815260408083203384529091529020548211156102d857600080fd5b6001600160a01b03841660009081526004602052604081208054849290610300908490610627565b90915550506001600160a01b0383166000908152600460205260408120805484929061032d90849061060f565b90915550506001600160a01b038416600090815260056020908152604080832033845290915281208054849290610365908490610627565b92505081905550826001600160a01b0316846001600160a01b03167fddf252ad1be2c89b69c2b068fc378daa952ba7f163c4a11628f55a4df523b3ef846040516103b191815260200190565b60405180910390a35060019392505050565b6060600180546102009061063e565b336000908152600460205260408120548211156103ee57600080fd5b336000908152600460205260408120805484929061040d908490610627565b90915550506001600160a01b0383166000908152600460205260408120805484929061043a90849061060f565b90915550506040518281526001600160a01b0384169033907fddf252ad1be2c89b69c2b068fc378daa952ba7f163c4a11628f55a4df523b3ef9060200160405180910390a350600192915050565b6001600160a01b03838116600081815260056020908152604080832094871680845294825280832086905551858152919392917f8c5be1e5ebec7d5bd14f71427d1e84f3dd0314c0f7b2291e5b200ac8c7c3b92591016103b1565b80356001600160a01b03811681146104fa57600080fd5b919050565b60006020828403121561051157600080fd5b61051a826104e3565b9392505050565b6000806040838503121561053457600080fd5b61053d836104e3565b915061054b602084016104e3565b90509250929050565b60008060006060848603121561056957600080fd5b610572846104e3565b9250610580602085016104e3565b9150604084013590509250925092565b600080604083850312156105a357600080fd5b6105ac836104e3565b946020939093013593505050565b600060208083528351808285015260005b818110156105e7578581018301518582016040015282016105cb565b818111156105f9576000604083870101525b50601f01601f1916929092016040019392505050565b6000821982111561062257610622610679565b500190565b60008282101561063957610639610679565b500390565b600181811c9082168061065257607f821691505b6020821081141561067357634e487b7160e01b600052602260045260246000fd5b50919050565b634e487b7160e01b600052601160045260246000fdfea26469706673582212203987bddb4f85cf90a3bea44b8868011ad93c55346a4ff68a0a6843488fc1851664736f6c63430008070033",
  "immutableReferences": {},
  "source": "// SPDX-License-Identifier: MIT\npragma solidity ^0.8.7;\nimport { IERC20 } from \"./Utils/IERC20.sol\";\nimport { Context } from \"./Utils/Context.sol\";\n\ncontract TestToken is IERC20 {\n\n    string private _name;\n    string private _symbol;\n    uint256 private _totalSupply;\n    uint8 private _decimals;\n\n    mapping(address => uint256) public _balanceOf; //mapping prende una key ed un valore\n    mapping(address =>  mapping(address => uint256)) public _allowance; /*mapping innestato: */\n\n    constructor() { //constructor che viene eseguito ogni volta che viene deployato lo S.C\n        _name = \"AirFactories\";\n        _symbol = \"AF2\";\n        _decimals = 18;\n        _totalSupply = 1000000 * 10 ** 18;\n        _balanceOf[msg.sender] = _totalSupply; //msg sender  una variabile globale, sender sta per l'address che chiama la funzione.\n\n        emit Transfer(address(0), msg.sender, _totalSupply);\n    }\n\n    /*\n    nei valori che trasferiamo nella funzione transfer modificare amount mettendogli * 10 ** _decimals, per evitare problemi lato front-end.\n    In questo caso, facendo la conversione qui e non nel front-end, evitiamo problemi durante l'acquiusto, se uno vuole acqusitare dieci token e invece scrivo 100000\n    */\n    function transfer(address recipient, uint256 amount) public override returns (bool success) { //Creo la funzione per trasferire i token.\n\n        require(_balanceOf[msg.sender] >= amount); //controllo se il sender vuole mandare piu token di quanti ne possiede\n        _balanceOf[msg.sender] -= amount; //diminuisco il balance del msg.sender del valore che  stato trasferito\n        _balanceOf[recipient] += amount;   //aumento il balance dell'account che riceve\n        emit Transfer(msg.sender, recipient, amount); //verifico l'evento transfer\n        return true;\n    }\n\n    function approve(address owner,address spender, uint256 amount) public override returns(bool success) {\n        _allowance[owner][spender] = amount; //abilito l'account _spender (address) a mandare un certo numero di token\n        emit Approval(owner, spender, amount); //approvo l'evento\n        return true;\n    }\n\n    function transferFrom(address sender, address recipient, uint256 amount) public override returns (bool success) {\n         require(amount <= _balanceOf[sender]); //require sender has enough token\n         require(amount <= _allowance[sender][msg.sender]); //require allowance is big enough, non pu essere > di quello che msg.sender ha approvato\n\n         _balanceOf[sender] -= amount; //change the balance\n         _balanceOf[recipient] += amount;\n\n         _allowance[sender][msg.sender] -= amount; //update the allowance\n\n         emit Transfer(sender, recipient, amount); //transfer event\n\n         return true;\n\n    }\n\n    /**\n    * @dev Returns the token decimals.\n*/\n    function decimals() external view returns (uint8) {\n        return _decimals;\n    }\n\n    /**\n    * @dev Returns the token symbol.\n    */\n    function symbol() external view returns (string memory) {\n        return _symbol;\n    }\n\n    /**\n    * @dev Returns the token name.\n    */\n    function name() external view returns (string memory) {\n        return _name;\n    }\n\n\n    function totalSupply() external override view returns (uint256){\n        return _totalSupply;\n    }\n\n    function balanceOf(address account) external override view returns (uint256){\n        return _balanceOf[account];\n    }\n\n    function allowance(address owner, address spender) external override view returns (uint256){\n        return _allowance[owner][spender];\n    }\n\n}\n",
  "sourcePath": "/home/ubuntu/Android/contracts/af2-smart-contract/contracts/3_Token/TestToken.sol",
  "compiler": {
    "name": "solc",
    "version": "0.8.7+commit.e28d00a7.Emscripten.clang"
  },
  "schemaVersion": "3.4.3",
  "updatedAt": "2022-03-08T17:45:02.670Z",
  "networkType": "ethereum",
  "devdoc": {
    "kind": "dev",
    "methods": {
      "allowance(address,address)": {
        "details": "Returns the remaining number of tokens that `spender` will be allowed to spend on behalf of `owner` through {transferFrom}. This is zero by default. This value changes when {approve} or {transferFrom} are called."
      },
      "approve(address,address,uint256)": {
        "details": "Sets `amount` as the allowance of `spender` over the caller's tokens. Returns a boolean value indicating whether the operation succeeded. IMPORTANT: Beware that changing an allowance with this method brings the risk that someone may use both the old and the new allowance by unfortunate transaction ordering. One possible solution to mitigate this race condition is to first reduce the spender's allowance to 0 and set the desired value afterwards: https://github.com/ethereum/EIPs/issues/20#issuecomment-263524729 Emits an {Approval} event."
      },
      "balanceOf(address)": {
        "details": "Returns the amount of tokens owned by `account`."
      },
      "decimals()": {
        "details": "Returns the token decimals."
      },
      "name()": {
        "details": "Returns the token name."
      },
      "symbol()": {
        "details": "Returns the token symbol."
      },
      "totalSupply()": {
        "details": "Returns the amount of tokens in existence."
      },
      "transfer(address,uint256)": {
        "details": "Moves `amount` tokens from the caller's account to `recipient`. Returns a boolean value indicating whether the operation succeeded. Emits a {Transfer} event."
      },
      "transferFrom(address,address,uint256)": {
        "details": "Moves `amount` tokens from `sender` to `recipient` using the allowance mechanism. `amount` is then deducted from the caller's allowance. Returns a boolean value indicating whether the operation succeeded. Emits a {Transfer} event."
      }
    },
    "version": 1
  },
  "userdoc": {
    "kind": "user",
    "methods": {},
    "version": 1
  }
}