{
  "contractName": "VotingSystem",
  "abi": [
    {
      "inputs": [
        {
          "internalType": "address",
          "name": "_address",
          "type": "address"
        }
      ],
      "stateMutability": "nonpayable",
      "type": "constructor"
    },
    {
      "anonymous": false,
      "inputs": [
        {
          "indexed": false,
          "internalType": "bytes32",
          "name": "file_hash",
          "type": "bytes32"
        },
        {
          "indexed": false,
          "internalType": "uint256",
          "name": "design_number",
          "type": "uint256"
        },
        {
          "indexed": false,
          "internalType": "address",
          "name": "creator",
          "type": "address"
        }
      ],
      "name": "newDesignAvailable",
      "type": "event"
    },
    {
      "anonymous": false,
      "inputs": [
        {
          "indexed": false,
          "internalType": "address",
          "name": "player_address",
          "type": "address"
        },
        {
          "indexed": false,
          "internalType": "bool",
          "name": "status",
          "type": "bool"
        }
      ],
      "name": "newPlayerAddition",
      "type": "event"
    },
    {
      "anonymous": false,
      "inputs": [
        {
          "indexed": false,
          "internalType": "address",
          "name": "player_address",
          "type": "address"
        },
        {
          "indexed": false,
          "internalType": "uint256",
          "name": "design_number",
          "type": "uint256"
        },
        {
          "indexed": false,
          "internalType": "bool",
          "name": "status",
          "type": "bool"
        }
      ],
      "name": "newPlayerRegistration",
      "type": "event"
    },
    {
      "anonymous": false,
      "inputs": [
        {
          "indexed": false,
          "internalType": "address",
          "name": "player_address",
          "type": "address"
        },
        {
          "indexed": false,
          "internalType": "bool",
          "name": "status",
          "type": "bool"
        }
      ],
      "name": "newPrinterAddition",
      "type": "event"
    },
    {
      "anonymous": false,
      "inputs": [
        {
          "indexed": false,
          "internalType": "uint256",
          "name": "design_number",
          "type": "uint256"
        },
        {
          "indexed": false,
          "internalType": "address",
          "name": "vendor",
          "type": "address"
        },
        {
          "indexed": false,
          "internalType": "uint256",
          "name": "time",
          "type": "uint256"
        }
      ],
      "name": "phase2Begin",
      "type": "event"
    },
    {
      "anonymous": false,
      "inputs": [
        {
          "indexed": false,
          "internalType": "uint256",
          "name": "design_number",
          "type": "uint256"
        },
        {
          "indexed": false,
          "internalType": "address",
          "name": "player_address",
          "type": "address"
        }
      ],
      "name": "playerCommitted",
      "type": "event"
    },
    {
      "anonymous": false,
      "inputs": [
        {
          "indexed": false,
          "internalType": "uint256",
          "name": "design_number",
          "type": "uint256"
        },
        {
          "indexed": false,
          "internalType": "address",
          "name": "player_address",
          "type": "address"
        }
      ],
      "name": "playerDesignReceived",
      "type": "event"
    },
    {
      "anonymous": false,
      "inputs": [
        {
          "indexed": false,
          "internalType": "uint256",
          "name": "design_number",
          "type": "uint256"
        },
        {
          "indexed": false,
          "internalType": "address",
          "name": "player_address",
          "type": "address"
        }
      ],
      "name": "playerRevealed",
      "type": "event"
    },
    {
      "anonymous": false,
      "inputs": [
        {
          "indexed": false,
          "internalType": "uint256",
          "name": "design_number",
          "type": "uint256"
        },
        {
          "indexed": false,
          "internalType": "address",
          "name": "player_address",
          "type": "address"
        },
        {
          "indexed": false,
          "internalType": "address",
          "name": "printer_address",
          "type": "address"
        }
      ],
      "name": "proofAdded",
      "type": "event"
    },
    {
      "anonymous": false,
      "inputs": [
        {
          "indexed": false,
          "internalType": "bytes32",
          "name": "file_hash",
          "type": "bytes32"
        },
        {
          "indexed": false,
          "internalType": "uint256",
          "name": "design_number",
          "type": "uint256"
        },
        {
          "indexed": false,
          "internalType": "address",
          "name": "creator",
          "type": "address"
        }
      ],
      "name": "resultCalculated",
      "type": "event"
    },
    {
      "anonymous": false,
      "inputs": [
        {
          "indexed": false,
          "internalType": "address",
          "name": "_output",
          "type": "address"
        }
      ],
      "name": "tempOutput",
      "type": "event"
    },
    {
      "anonymous": false,
      "inputs": [
        {
          "indexed": false,
          "internalType": "int256",
          "name": "result",
          "type": "int256"
        }
      ],
      "name": "votingResult",
      "type": "event"
    },
    {
      "inputs": [
        {
          "internalType": "uint256",
          "name": "",
          "type": "uint256"
        },
        {
          "internalType": "address",
          "name": "",
          "type": "address"
        }
      ],
      "name": "TcheckPlayers",
      "outputs": [
        {
          "internalType": "bytes32",
          "name": "filehash",
          "type": "bytes32"
        },
        {
          "internalType": "address",
          "name": "vendor",
          "type": "address"
        },
        {
          "internalType": "uint256",
          "name": "timestamp",
          "type": "uint256"
        },
        {
          "internalType": "uint256",
          "name": "balance",
          "type": "uint256"
        },
        {
          "internalType": "address",
          "name": "manager",
          "type": "address"
        },
        {
          "components": [
            {
              "internalType": "uint256",
              "name": "statusPhase_1",
              "type": "uint256"
            },
            {
              "internalType": "uint256",
              "name": "statusPhase_2",
              "type": "uint256"
            }
          ],
          "internalType": "struct status",
          "name": "statusPhase",
          "type": "tuple"
        },
        {
          "internalType": "uint256",
          "name": "taup",
          "type": "uint256"
        },
        {
          "internalType": "uint256",
          "name": "taur",
          "type": "uint256"
        },
        {
          "internalType": "uint256",
          "name": "deltaExp",
          "type": "uint256"
        },
        {
          "internalType": "uint256",
          "name": "deltaReveal",
          "type": "uint256"
        },
        {
          "components": [
            {
              "internalType": "int256",
              "name": "resultPhase_1",
              "type": "int256"
            },
            {
              "internalType": "int256",
              "name": "resultPhase_2",
              "type": "int256"
            }
          ],
          "internalType": "struct voteVerdict",
          "name": "result1",
          "type": "tuple"
        },
        {
          "internalType": "enum votingState",
          "name": "phase",
          "type": "uint8"
        }
      ],
      "stateMutability": "view",
      "type": "function",
      "constant": true
    },
    {
      "inputs": [
        {
          "internalType": "uint256",
          "name": "",
          "type": "uint256"
        },
        {
          "internalType": "address",
          "name": "",
          "type": "address"
        }
      ],
      "name": "checkPlayer",
      "outputs": [
        {
          "internalType": "bool",
          "name": "",
          "type": "bool"
        }
      ],
      "stateMutability": "view",
      "type": "function",
      "constant": true
    },
    {
      "inputs": [
        {
          "internalType": "uint256",
          "name": "",
          "type": "uint256"
        }
      ],
      "name": "designes",
      "outputs": [
        {
          "internalType": "bytes32",
          "name": "filehash",
          "type": "bytes32"
        },
        {
          "internalType": "address",
          "name": "vendor",
          "type": "address"
        },
        {
          "internalType": "uint256",
          "name": "timestamp",
          "type": "uint256"
        },
        {
          "internalType": "uint256",
          "name": "balance",
          "type": "uint256"
        },
        {
          "internalType": "address",
          "name": "manager",
          "type": "address"
        },
        {
          "components": [
            {
              "internalType": "uint256",
              "name": "statusPhase_1",
              "type": "uint256"
            },
            {
              "internalType": "uint256",
              "name": "statusPhase_2",
              "type": "uint256"
            }
          ],
          "internalType": "struct status",
          "name": "statusPhase",
          "type": "tuple"
        },
        {
          "internalType": "uint256",
          "name": "taup",
          "type": "uint256"
        },
        {
          "internalType": "uint256",
          "name": "taur",
          "type": "uint256"
        },
        {
          "internalType": "uint256",
          "name": "deltaExp",
          "type": "uint256"
        },
        {
          "internalType": "uint256",
          "name": "deltaReveal",
          "type": "uint256"
        },
        {
          "components": [
            {
              "internalType": "int256",
              "name": "resultPhase_1",
              "type": "int256"
            },
            {
              "internalType": "int256",
              "name": "resultPhase_2",
              "type": "int256"
            }
          ],
          "internalType": "struct voteVerdict",
          "name": "result1",
          "type": "tuple"
        },
        {
          "internalType": "enum votingState",
          "name": "phase",
          "type": "uint8"
        }
      ],
      "stateMutability": "view",
      "type": "function",
      "constant": true
    },
    {
      "inputs": [],
      "name": "numDesignes",
      "outputs": [
        {
          "internalType": "uint256",
          "name": "",
          "type": "uint256"
        }
      ],
      "stateMutability": "view",
      "type": "function",
      "constant": true
    },
    {
      "inputs": [
        {
          "internalType": "address",
          "name": "",
          "type": "address"
        },
        {
          "internalType": "uint256",
          "name": "",
          "type": "uint256"
        }
      ],
      "name": "playerVote",
      "outputs": [
        {
          "internalType": "int256",
          "name": "votingStage1",
          "type": "int256"
        },
        {
          "internalType": "int256",
          "name": "votingStage2",
          "type": "int256"
        },
        {
          "internalType": "enum votingState",
          "name": "phase",
          "type": "uint8"
        },
        {
          "internalType": "enum revealVote",
          "name": "reveal_1",
          "type": "uint8"
        },
        {
          "internalType": "enum revealVote",
          "name": "reveal_2",
          "type": "uint8"
        }
      ],
      "stateMutability": "view",
      "type": "function",
      "constant": true
    },
    {
      "inputs": [
        {
          "internalType": "uint256",
          "name": "",
          "type": "uint256"
        },
        {
          "internalType": "uint256",
          "name": "",
          "type": "uint256"
        }
      ],
      "name": "regPlayers",
      "outputs": [
        {
          "internalType": "address",
          "name": "",
          "type": "address"
        }
      ],
      "stateMutability": "view",
      "type": "function",
      "constant": true
    },
    {
      "inputs": [
        {
          "internalType": "address",
          "name": "",
          "type": "address"
        },
        {
          "internalType": "uint256",
          "name": "",
          "type": "uint256"
        }
      ],
      "name": "userDesignCommitment",
      "outputs": [
        {
          "internalType": "bytes32",
          "name": "",
          "type": "bytes32"
        }
      ],
      "stateMutability": "view",
      "type": "function",
      "constant": true
    },
    {
      "inputs": [],
      "name": "getPlayer",
      "outputs": [
        {
          "internalType": "bool",
          "name": "",
          "type": "bool"
        }
      ],
      "stateMutability": "view",
      "type": "function",
      "constant": true
    },
    {
      "inputs": [
        {
          "internalType": "bytes32",
          "name": "_fileHash",
          "type": "bytes32"
        },
        {
          "internalType": "uint256",
          "name": "_timestamp",
          "type": "uint256"
        },
        {
          "internalType": "uint256",
          "name": "_commitment",
          "type": "uint256"
        },
        {
          "internalType": "uint256",
          "name": "_taur",
          "type": "uint256"
        },
        {
          "internalType": "uint256",
          "name": "_taup",
          "type": "uint256"
        }
      ],
      "name": "announce",
      "outputs": [],
      "stateMutability": "payable",
      "type": "function",
      "payable": true
    },
    {
      "inputs": [],
      "name": "getNumDesignes",
      "outputs": [
        {
          "internalType": "uint256",
          "name": "",
          "type": "uint256"
        }
      ],
      "stateMutability": "view",
      "type": "function",
      "constant": true
    },
    {
      "inputs": [
        {
          "internalType": "uint256",
          "name": "_index",
          "type": "uint256"
        }
      ],
      "name": "getDesigne",
      "outputs": [
        {
          "components": [
            {
              "internalType": "bytes32",
              "name": "filehash",
              "type": "bytes32"
            },
            {
              "internalType": "address",
              "name": "vendor",
              "type": "address"
            },
            {
              "internalType": "uint256",
              "name": "timestamp",
              "type": "uint256"
            },
            {
              "internalType": "uint256",
              "name": "balance",
              "type": "uint256"
            },
            {
              "internalType": "address",
              "name": "manager",
              "type": "address"
            },
            {
              "components": [
                {
                  "internalType": "uint256",
                  "name": "statusPhase_1",
                  "type": "uint256"
                },
                {
                  "internalType": "uint256",
                  "name": "statusPhase_2",
                  "type": "uint256"
                }
              ],
              "internalType": "struct status",
              "name": "statusPhase",
              "type": "tuple"
            },
            {
              "internalType": "uint256",
              "name": "taup",
              "type": "uint256"
            },
            {
              "internalType": "uint256",
              "name": "taur",
              "type": "uint256"
            },
            {
              "internalType": "uint256",
              "name": "deltaExp",
              "type": "uint256"
            },
            {
              "internalType": "uint256",
              "name": "deltaReveal",
              "type": "uint256"
            },
            {
              "components": [
                {
                  "internalType": "int256",
                  "name": "resultPhase_1",
                  "type": "int256"
                },
                {
                  "internalType": "int256",
                  "name": "resultPhase_2",
                  "type": "int256"
                }
              ],
              "internalType": "struct voteVerdict",
              "name": "result1",
              "type": "tuple"
            },
            {
              "internalType": "enum votingState",
              "name": "phase",
              "type": "uint8"
            }
          ],
          "internalType": "struct designState",
          "name": "",
          "type": "tuple"
        }
      ],
      "stateMutability": "view",
      "type": "function",
      "constant": true
    },
    {
      "inputs": [
        {
          "internalType": "address",
          "name": "_playerAddress",
          "type": "address"
        },
        {
          "internalType": "uint256",
          "name": "_designNo",
          "type": "uint256"
        }
      ],
      "name": "getPlayerVotePhase1",
      "outputs": [
        {
          "internalType": "int256",
          "name": "",
          "type": "int256"
        }
      ],
      "stateMutability": "view",
      "type": "function",
      "constant": true
    },
    {
      "inputs": [
        {
          "internalType": "address",
          "name": "_playerAddress",
          "type": "address"
        },
        {
          "internalType": "uint256",
          "name": "_designNo",
          "type": "uint256"
        }
      ],
      "name": "getPlayerVotePhase2",
      "outputs": [
        {
          "internalType": "int256",
          "name": "",
          "type": "int256"
        }
      ],
      "stateMutability": "view",
      "type": "function",
      "constant": true
    },
    {
      "inputs": [
        {
          "internalType": "uint256",
          "name": "_designNo",
          "type": "uint256"
        },
        {
          "internalType": "int256",
          "name": "_vote",
          "type": "int256"
        },
        {
          "internalType": "uint256",
          "name": "_timestamp",
          "type": "uint256"
        },
        {
          "internalType": "uint256",
          "name": "_commitment",
          "type": "uint256"
        }
      ],
      "name": "vote",
      "outputs": [],
      "stateMutability": "payable",
      "type": "function",
      "payable": true
    },
    {
      "inputs": [
        {
          "internalType": "uint256",
          "name": "_designNo",
          "type": "uint256"
        },
        {
          "internalType": "uint256",
          "name": "_timestamp",
          "type": "uint256"
        }
      ],
      "name": "reveal",
      "outputs": [],
      "stateMutability": "nonpayable",
      "type": "function"
    },
    {
      "inputs": [
        {
          "internalType": "uint256",
          "name": "_designNo",
          "type": "uint256"
        }
      ],
      "name": "checkPhase",
      "outputs": [
        {
          "internalType": "enum votingState",
          "name": "",
          "type": "uint8"
        }
      ],
      "stateMutability": "view",
      "type": "function",
      "constant": true
    },
    {
      "inputs": [
        {
          "internalType": "uint256",
          "name": "_designNo",
          "type": "uint256"
        },
        {
          "internalType": "uint256",
          "name": "_timestamp",
          "type": "uint256"
        }
      ],
      "name": "playerCheckResult1",
      "outputs": [
        {
          "internalType": "int256",
          "name": "",
          "type": "int256"
        }
      ],
      "stateMutability": "view",
      "type": "function",
      "constant": true
    },
    {
      "inputs": [
        {
          "internalType": "uint256",
          "name": "_designNo",
          "type": "uint256"
        },
        {
          "internalType": "uint256",
          "name": "_timestamp",
          "type": "uint256"
        }
      ],
      "name": "playerCheckResult2",
      "outputs": [
        {
          "internalType": "int256",
          "name": "",
          "type": "int256"
        }
      ],
      "stateMutability": "view",
      "type": "function",
      "constant": true
    },
    {
      "inputs": [
        {
          "internalType": "address",
          "name": "player",
          "type": "address"
        },
        {
          "internalType": "int256",
          "name": "reputation",
          "type": "int256"
        }
      ],
      "name": "setPlayerReputation",
      "outputs": [],
      "stateMutability": "view",
      "type": "function",
      "constant": true
    },
    {
      "inputs": [
        {
          "internalType": "address",
          "name": "player",
          "type": "address"
        },
        {
          "internalType": "uint256",
          "name": "weight",
          "type": "uint256"
        }
      ],
      "name": "setPlayerWeight",
      "outputs": [],
      "stateMutability": "view",
      "type": "function",
      "constant": true
    },
    {
      "inputs": [
        {
          "internalType": "address",
          "name": "_playerAddress",
          "type": "address"
        }
      ],
      "name": "getPlayerReputation",
      "outputs": [
        {
          "internalType": "int256",
          "name": "reputation",
          "type": "int256"
        }
      ],
      "stateMutability": "view",
      "type": "function",
      "constant": true
    },
    {
      "inputs": [
        {
          "internalType": "address",
          "name": "_playerAddress",
          "type": "address"
        }
      ],
      "name": "getPlayerWeight",
      "outputs": [
        {
          "internalType": "uint256",
          "name": "weight",
          "type": "uint256"
        }
      ],
      "stateMutability": "view",
      "type": "function",
      "constant": true
    },
    {
      "inputs": [
        {
          "internalType": "uint256",
          "name": "_designNo",
          "type": "uint256"
        },
        {
          "internalType": "uint256",
          "name": "_timestamp",
          "type": "uint256"
        }
      ],
      "name": "calculateResult",
      "outputs": [],
      "stateMutability": "nonpayable",
      "type": "function"
    },
    {
      "inputs": [
        {
          "internalType": "uint256",
          "name": "_designNo",
          "type": "uint256"
        },
        {
          "internalType": "int256",
          "name": "result",
          "type": "int256"
        }
      ],
      "name": "setPlayerRep_Weight",
      "outputs": [],
      "stateMutability": "view",
      "type": "function",
      "constant": true
    },
    {
      "inputs": [
        {
          "internalType": "uint256",
          "name": "_designNo",
          "type": "uint256"
        },
        {
          "internalType": "uint256",
          "name": "_timestamp",
          "type": "uint256"
        },
        {
          "internalType": "int256",
          "name": "result",
          "type": "int256"
        }
      ],
      "name": "updateDesignBalance",
      "outputs": [],
      "stateMutability": "nonpayable",
      "type": "function"
    }
  ],
  "bytecode": "0x608060405260006007553480156200001657600080fd5b5060405162002a2a38038062002a2a83398101604081905262000039916200005f565b600080546001600160a01b0319166001600160a01b039290921691909117905562000091565b6000602082840312156200007257600080fd5b81516001600160a01b03811681146200008a57600080fd5b9392505050565b61298980620000a16000396000f3fe6080604052600436106101665760003560e01c806353093048116100d1578063b646f5be1161008a578063ead1205411610064578063ead120541461059a578063ebc0ccf2146105ad578063eee4ffb9146105cd578063fb7380ac1461068a57600080fd5b8063b646f5be14610481578063bc4f101314610494578063c5ce42611461055f57600080fd5b806353093048146103a7578063532af7d2146103d4578063614d51b9146103f45780638bcad6721461042c5780639348cef71461044157806393cfdc181461046157600080fd5b80633308f42d116101235780633308f42d146102a65780633822a88c146102cb5780633aa25fbd1461030b5780634aae74e4146103215780634b990f87146103675780634de499111461038757600080fd5b806302ccf95b1461016b57806305fd65df1461019e5780631d454ce0146101be5780631e7425fc1461022c578063225f16d514610264578063278cf3d214610286575b600080fd5b34801561017757600080fd5b5061018b6101863660046122ca565b6106cd565b6040519081526020015b60405180910390f35b3480156101aa57600080fd5b5061018b6101b93660046123d1565b610752565b3480156101ca57600080fd5b5061021b6101d93660046122ec565b600460209081526000928352604080842090915290825290208054600182015460029092015490919060ff808216916101008104821691620100009091041685565b604051610195959493929190612519565b34801561023857600080fd5b5061024c6102473660046123d1565b6107f4565b6040516001600160a01b039091168152602001610195565b34801561027057600080fd5b5061028461027f3660046122ec565b61082c565b005b34801561029257600080fd5b506102846102a13660046122ec565b610895565b3480156102b257600080fd5b506102bb6108ce565b6040519015158152602001610195565b3480156102d757600080fd5b506102fe6102e636600461238c565b6000908152600660205260409020600d015460ff1690565b604051610195919061250b565b34801561031757600080fd5b5061018b60075481565b34801561032d57600080fd5b5061018b61033c3660046122ec565b6001600160a01b03919091166000908152600460209081526040808320938352929052206001015490565b34801561037357600080fd5b5061018b6103823660046123d1565b61094e565b34801561039357600080fd5b506102846103a23660046123d1565b610a05565b3480156103b357600080fd5b506103c76103c236600461238c565b610e5b565b60405161019591906126b9565b3480156103e057600080fd5b506102846103ef3660046123d1565b610f5e565b34801561040057600080fd5b5061018b61040f3660046122ec565b600360209081526000928352604080842090915290825290205481565b34801561043857600080fd5b5060075461018b565b34801561044d57600080fd5b5061028461045c3660046123d1565b611520565b34801561046d57600080fd5b5061028461047c366004612425565b611651565b61028461048f366004612338565b61193f565b3480156104a057600080fd5b506105476104af36600461238c565b600660208181526000928352604092839020805460018201546002830154600384015460048501548851808a018a52600587015481529786015488880152600786015460088701546009880154600a8901548c51808e01909d52600b8a01548d52600c8a01549a8d019a909a52600d90980154969a6001600160a01b039687169a959994989390961696949591949093919060ff168c565b6040516101959c9b9a99989796959493929190612475565b34801561056b57600080fd5b506102bb61057a3660046123a5565b600160209081526000928352604080842090915290825290205460ff1681565b6102846105a83660046123f3565b611c1d565b3480156105b957600080fd5b5061018b6105c83660046122ca565b6121f1565b3480156105d957600080fd5b506105476105e83660046123a5565b600260208181526000938452604080852082529284529282902080546001820154928201546003830154600484015486518088018852600586015481526006860154818a0152600786015460088701546009880154600a8901548b51808d01909c52600b8a01548c52600c8a01549c8c019c909c52600d90980154969a6001600160a01b03998a169a9699959894909516969295919490939290919060ff168c565b34801561069657600080fd5b5061018b6106a53660046122ec565b6001600160a01b03919091166000908152600460209081526040808320938352929052205490565b600080546040516302ccf95b60e01b81526001600160a01b038481166004830152909116906302ccf95b906024015b60206040518083038186803b15801561071457600080fd5b505afa158015610728573d6000803e3d6000fd5b505050506040513d601f19601f8201168201806040525081019061074c9190612373565b92915050565b6000828152600660205260408120600a8101546009820154600290920154909161077b916127d6565b61078591906127d6565b82116107ac5760405162461bcd60e51b81526004016107a3906125ed565b60405180910390fd5b6000838152600660205260409020600501546001146107dd5760405162461bcd60e51b81526004016107a390612632565b50506000908152600660205260409020600b015490565b6005602052816000526040600020818154811061081057600080fd5b6000918252602090912001546001600160a01b03169150829050565b6000546040516308678d1760e31b81526001600160a01b038481166004830152602482018490529091169063433c68b8906044015b60006040518083038186803b15801561087957600080fd5b505afa15801561088d573d6000803e3d6000fd5b505050505050565b6000546040516313c679e960e11b81526001600160a01b038481166004830152602482018490529091169063278cf3d290604401610861565b60008054604051629c95e160e41b81523360048201526001600160a01b03909116906309c95e109060240160206040518083038186803b15801561091157600080fd5b505afa158015610925573d6000803e3d6000fd5b505050506040513d601f19601f820116820180604052508101906109499190612316565b905090565b6000828152600660205260408120600a81015460098201546002909201549091610977916127d6565b61098191906127d6565b821161099f5760405162461bcd60e51b81526004016107a3906125ed565b6000838152600660208190526040909120015460011480156109d257506000838152600660205260409020600501546001145b6109ee5760405162461bcd60e51b81526004016107a390612632565b50506000908152600660205260409020600c015490565b60005b600083815260056020526040902054811015610e565760008381526005602052604081208054600491839185908110610a4357610a4361293d565b60009182526020808320909101546001600160a01b031683528281019390935260409182018120878252909252902054138015610aa5575060016000848152600660205260409020600d015460ff166002811115610aa357610aa3612927565b145b15610be95760008381526005602052604090208054610b47919083908110610acf57610acf61293d565b600091825260208083209091015486835260059091526040822080546001600160a01b039092169286926004929087908110610b0d57610b0d61293d565b60009182526020808320909101546001600160a01b0316835282810193909352604091820181208982529092529020546102a19190612830565b60008381526005602052604090208054610be4919083908110610b6c57610b6c61293d565b600091825260208083209091015486835260059091526040822080546001600160a01b039092169286926004929087908110610baa57610baa61293d565b60009182526020808320909101546001600160a01b03168352828101939093526040918201812089825290925290205461027f9190612830565b610e44565b60008381526005602052604081208054600491839185908110610c0e57610c0e61293d565b60009182526020808320909101546001600160a01b031683528281019390935260409182018120878252909252902060010154138015610c73575060026000848152600660205260409020600d015460ff166002811115610c7157610c71612927565b145b15610db85760008381526005602052604090208054610d18919083908110610c9d57610c9d61293d565b600091825260208083209091015486835260059091526040822080546001600160a01b039092169286926004929087908110610cdb57610cdb61293d565b60009182526020808320909101546001600160a01b0316835282810193909352604091820181208982529092529020600101546102a19190612830565b60008381526005602052604090208054610be4919083908110610d3d57610d3d61293d565b600091825260208083209091015486835260059091526040822080546001600160a01b039092169286926004929087908110610d7b57610d7b61293d565b60009182526020808320909101546001600160a01b03168352828101939093526040918201812089825290925290206001015461027f9190612830565b60008381526005602052604090208054610dfe919083908110610ddd57610ddd61293d565b6000918252602090912001546001600160a01b03166102a184600019612830565b60008381526005602052604090208054610e44919083908110610e2357610e2361293d565b6000918252602090912001546001600160a01b031661027f84600019612830565b80610e4e816128cc565b915050610a08565b505050565b610e63612224565b6000828152600660208181526040928390208351610180810185528154815260018201546001600160a01b03908116828501526002808401548388015260038401546060840152600484015490911660808301528551808701875260058401548152948301548585015260a0820194909452600782015460c0820152600882015460e08201526009820154610100820152600a8201546101208201528451808601909552600b8201548552600c82015492850192909252610140820193909352600d83015490929161016084019160ff1690811115610f4457610f44612927565b6002811115610f5557610f55612927565b90525092915050565b60016000838152600660205260409020600d015460ff166002811115610f8657610f86612927565b1480610fb7575060026000838152600660205260409020600d015460ff166002811115610fb557610fb5612927565b145b610ff65760405162461bcd60e51b815260206004820152601060248201526f13dc195c985d1a5bdb8819985a5b195960821b60448201526064016107a3565b6000828152600660205260409020600101546001600160a01b031633146110735760405162461bcd60e51b815260206004820152602b60248201527f4f6e6c792074686520616e6e6f756e6365722063616e2063616c63756c61746560448201526a081d1a19481c995cdd5b1d60aa1b60648201526084016107a3565b60008281526006602052604090206005015415806110a1575060008281526006602081905260409091200154155b6111135760405162461bcd60e51b815260206004820152603860248201527f54686520766f74696e6720697320616c72656164792066696e6973686564206160448201527f6e6420726573756c747320617265206465636c617265642e000000000000000060648201526084016107a3565b6000828152600660205260409020600981015460029091015461113691906127d6565b81116111545760405162461bcd60e51b81526004016107a390612558565b60008060008060005b60008781526005602052604090205481101561136c57600087815260056020526040902080546111b29190839081106111985761119861293d565b6000918252602090912001546001600160a01b03166106cd565b600088815260056020526040902080549194506111f391839081106111d9576111d961293d565b6000918252602090912001546001600160a01b03166121f1565b915060016000888152600660205260409020600d015460ff16600281111561121d5761121d612927565b141561129b5760008781526005602052604081208054859285926004928690811061124a5761124a61293d565b60009182526020808320909101546001600160a01b0316835282810193909352604091820181208c82529092529020546112849190612830565b61128e9190612830565b6112989086612795565b94505b60026000888152600660205260409020600d015460ff1660028111156112c3576112c3612927565b1415611344576000878152600560205260408120805484928692600492869081106112f0576112f061293d565b60009182526020808320909101546001600160a01b0316835282810193909352604091820181208c825290925290206001015461132d9190612830565b6113379190612830565b6113419086612795565b94505b61134e8284612830565b6113589085612795565b935080611364816128cc565b91505061115d565b50600061137a846002612830565b6113848587612795565b61138e91906127ee565b9050600061139d856002612830565b6113a78688612795565b6113b191906128e7565b9050600082600114806113c45750858212155b1561146257600160008a8152600660205260409020600d015460ff1660028111156113f1576113f1612927565b1415611415575060008881526006602052604090206001600b909101819055611500565b600260008a8152600660205260409020600d015460ff16600281111561143d5761143d612927565b141561145d575060008881526006602052604090206001600c9091018190555b611500565b8582121561150057600160008a8152600660205260409020600d015460ff16600281111561149257611492612927565b14156114b757506000888152600660205260409020600019600b909101819055611500565b600260008a8152600660205260409020600d015460ff1660028111156114df576114df612927565b141561150057506000888152600660205260409020600019600c9091018190555b61150a8982610a05565b611515898983611651565b505050505050505050565b6000828152600660205260409020600981015460029091015461154391906127d6565b81116115615760405162461bcd60e51b81526004016107a390612558565b60016000838152600660205260409020600d015460ff16600281111561158957611589612927565b14156115ba573360009081526004602090815260408083208584529091529020600201805461ff0019166101001790555b60026000838152600660205260409020600d015460ff1660028111156115e2576115e2612927565b1415611615573360009081526004602090815260408083208584529091529020600201805462ff00001916620100001790555b604080518381523360208201527fdef66c77ffe1a02e4aa7028bba0b6e9919e3f7cbfc96c028d7f06e84db64a013910160405180910390a15050565b60005b60008481526005602052604090205481101561180c5760016000858152600660205260409020600d015460ff16600281111561169257611692612927565b14156117375781600460006005600088815260200190815260200160002084815481106116c1576116c161293d565b60009182526020808320909101546001600160a01b0316835282810193909352604091820181208882529092529020546116fb9190612830565b600114156117325760008481526006602052604081206008810154600390910180549192909161172c9084906128b5565b90915550505b6117fa565b60026000858152600660205260409020600d015460ff16600281111561175f5761175f612927565b14156117cb57816004600060056000888152602001908152602001600020848154811061178e5761178e61293d565b60009182526020808320909101546001600160a01b0316835282810193909352604091820181208882529092529020600101546116fb9190612830565b6000848152600660205260408120600781015460039091018054919290916117f49084906127d6565b90915550505b80611804816128cc565b915050611654565b5060016000848152600660205260409020600d015460ff16600281111561183557611835612927565b141561185257600083815260066020526040902060016005909101555b60026000848152600660205260409020600d015460ff16600281111561187a5761187a612927565b141561189757600083815260066020819052604090912060019101555b6000838152600660205260409020600b015460011480156118dd575060016000848152600660205260409020600d015460ff1660028111156118db576118db612927565b145b15611907576000838152600660205260409020600d8101805460ff19166002908117909155018290555b6040518181527fbd9785037e1262e9a00f3274afb543f70050db0c0a99864959f281c5348621e99060200160405180910390a1505050565b600054604051629c95e160e41b81523360048201526001600160a01b03909116906309c95e109060240160206040518083038186803b15801561198157600080fd5b505afa158015611995573d6000803e3d6000fd5b505050506040513d601f19601f820116820180604052508101906119b99190612316565b15156001146119fd5760405162461bcd60e51b815260206004820152601060248201526f13dc195c985d1a5bdb8819195b9a595960821b60448201526064016107a3565b60008311611a1d5760405162461bcd60e51b81526004016107a3906125a8565b6003611a29838561281c565b11611a885760405162461bcd60e51b815260206004820152602960248201527f4e6f7420656e6f75676820636f6d6d69746d656e74206d61646520666f7220746044820152683432903232b9b4b3b760b91b60648201526084016107a3565b823414611aef5760405162461bcd60e51b815260206004820152602f60248201527f54686520616e6e6f756e63656d656e74206469646e277420726563656976652060448201526e3a34329031b7b6b6b4ba36b2b73a1760891b60648201526084016107a3565b6007546000818152600660205260408120600180820180546001600160a01b031916331790556002820188905560038201879055600d8201805460ff19169091179055600b015582611b5d576000818152600660205260409020670de0b6b3a7640000600890910155611b72565b60008181526006602052604090206008018390555b81611b99576000818152600660205260409020670de0b6b3a7640000600790910155611bae565b60008181526006602052604090206007018290555b6000818152600660205260409020614e20600990910155600754611bd39060016127d6565b6007556040805187815260208101839052338183015290517f6de6dd265a66870495db47d80136a9abe827e8d8f6f7dc77dc787a810a99d2269181900360600190a1505050505050565b60016000858152600660205260409020600d015460ff166002811115611c4557611c45612927565b1480611c76575060026000858152600660205260409020600d015460ff166002811115611c7457611c74612927565b145b611cc25760405162461bcd60e51b815260206004820152601e60248201527f4e6f20766f74696e672061766961626c6520666f722064657369676e2e20000060448201526064016107a3565b6000848152600660205260409020600501541580611cf0575060008481526006602081905260409091200154155b611d305760405162461bcd60e51b815260206004820152601160248201527027b832b930ba34b7b7103330b4b632b21760791b60448201526064016107a3565b6000848152600660205260409020600a81015460098201546002909201549091611d59916127d6565b611d6391906127d6565b821115611daa5760405162461bcd60e51b81526020600482015260156024820152742a3432903a34b6b2903430b99032bc3834b932b21760591b60448201526064016107a3565b600054604051629c95e160e41b81523360048201526001600160a01b03909116906309c95e109060240160206040518083038186803b158015611dec57600080fd5b505afa158015611e00573d6000803e3d6000fd5b505050506040513d601f19601f82011682018060405250810190611e249190612316565b1515600114611e685760405162461bcd60e51b815260206004820152601060248201526f13dc195c985d1a5bdb8819195b9a595960821b60448201526064016107a3565b60008111611e885760405162461bcd60e51b81526004016107a3906125a8565b803414611eef5760405162461bcd60e51b815260206004820152602f60248201527f54686520726567697374726174696f6e206469646e277420726563656976652060448201526e3a34329031b7b6b6b4ba36b2b73a1760891b60648201526084016107a3565b600084815260066020526040902060070154811015611f6b5760405162461bcd60e51b815260206004820152603260248201527f54686520636f6d6d69746d656e742073686f756c642062652067726561746572604482015271103a3430b7103a3432903832b730b63a3c9760711b60648201526084016107a3565b60008481526006602052604090206008810154600390910154611f8e919061281c565b60008581526005602052604090205410611fba5760405162461bcd60e51b81526004016107a390612676565b600084815260016020908152604080832033845290915290205460ff16156120245760405162461bcd60e51b815260206004820152601a60248201527f506c6179657220616c726561647920726567697374657265642e00000000000060448201526064016107a3565b60008481526006602052604090206008810154600390910154612047919061281c565b600085815260056020526040902054106120735760405162461bcd60e51b81526004016107a390612676565b600084815260016020818152604080842033808652908352818520805460ff19168517905588855260058352818520805480860182559086529483902090940180546001600160a01b0319168517905580519384529083018790528201527f5f142c525761e989ef9a126c95a342ee74c720a7272ea67127ed34660df2d7dc9060600160405180910390a160016000858152600660205260409020600d015460ff16600281111561212657612126612927565b1415612156573360009081526004602090815260408083208784529091529020838155600201805461ff00191690555b60016000858152600660205260409020600d015460ff16600281111561217e5761217e612927565b14156121b357336000908152600460209081526040808320878452909152902060018101849055600201805462ff0000191690555b604080518581523360208201527fdef66c77ffe1a02e4aa7028bba0b6e9919e3f7cbfc96c028d7f06e84db64a013910160405180910390a150505050565b600080546040516375e0667960e11b81526001600160a01b0384811660048301529091169063ebc0ccf2906024016106fc565b604080516101808101825260008082526020808301829052828401829052606083018290526080830182905283518085019094528184528301529060a08201908152602001600081526020016000815260200160008152602001600081526020016122a2604051806040016040528060008152602001600081525090565b81526020016000905290565b80356001600160a01b03811681146122c557600080fd5b919050565b6000602082840312156122dc57600080fd5b6122e5826122ae565b9392505050565b600080604083850312156122ff57600080fd5b612308836122ae565b946020939093013593505050565b60006020828403121561232857600080fd5b815180151581146122e557600080fd5b600080600080600060a0868803121561235057600080fd5b505083359560208501359550604085013594606081013594506080013592509050565b60006020828403121561238557600080fd5b5051919050565b60006020828403121561239e57600080fd5b5035919050565b600080604083850312156123b857600080fd5b823591506123c8602084016122ae565b90509250929050565b600080604083850312156123e457600080fd5b50508035926020909101359150565b6000806000806080858703121561240957600080fd5b5050823594602084013594506040840135936060013592509050565b60008060006060848603121561243a57600080fd5b505081359360208301359350604090920135919050565b6002811061246157612461612927565b9052565b6003811061246157612461612927565b8c81526001600160a01b038c81166020830152604082018c9052606082018b9052891660808201526101c081016124b960a083018a80518252602090810151910152565b8760e08301528661010083015285610120830152846101408301526124ec61016083018580518252602090810151910152565b6124fa6101a0830184612465565b9d9c50505050505050505050505050565b6020810161074c8284612465565b8581526020810185905260a081016125346040830186612465565b6125416060830185612451565b61254e6080830184612451565b9695505050505050565b60208082526030908201527f54686520726573756c742063616e6e6f742062652072657665616c656420626560408201526f3337b932903a34329032bc3834b93c9760811b606082015260800190565b60208082526025908201527f54686520636f6d6d69746d656e742073686f756c64206265206d6f726520746860408201526430b710181760d91b606082015260800190565b60208082526025908201527f5468652074696d6520706572696f6420686173206e6f7420657870697265642060408201526403cb2ba17160dd1b606082015260800190565b60208082526024908201527f54686520726573756c7420686173206e6f7420796574206265656e2072657665604082015263185b195960e21b606082015260800190565b60208082526023908201527f4e6f206d6f726520726567697374726174696f6e73206172652061636365707460408201526232b21760e91b606082015260800190565b815181526020808301516101c08301916126dd908401826001600160a01b03169052565b506040830151604083015260608301516060830152608083015161270c60808401826001600160a01b03169052565b5060a083015161272960a084018280518252602090810151910152565b5060c083015160e08381019190915283015161010080840191909152830151610120808401919091528301516101408084019190915283015161016061277b8185018380518252602090810151910152565b840151905061278e6101a0840182612465565b5092915050565b600080821280156001600160ff1b03849003851316156127b7576127b76128fb565b600160ff1b83900384128116156127d0576127d06128fb565b50500190565b600082198211156127e9576127e96128fb565b500190565b6000826127fd576127fd612911565b600160ff1b821460001984141615612817576128176128fb565b500590565b60008261282b5761282b612911565b500490565b60006001600160ff1b0381841382841380821686840486111615612856576128566128fb565b600160ff1b6000871282811687830589121615612875576128756128fb565b60008712925087820587128484161615612891576128916128fb565b878505871281841616156128a7576128a76128fb565b505050929093029392505050565b6000828210156128c7576128c76128fb565b500390565b60006000198214156128e0576128e06128fb565b5060010190565b6000826128f6576128f6612911565b500790565b634e487b7160e01b600052601160045260246000fd5b634e487b7160e01b600052601260045260246000fd5b634e487b7160e01b600052602160045260246000fd5b634e487b7160e01b600052603260045260246000fdfea2646970667358221220d22c9744c7f49c78373432ca92450b2d891edef0072292bb1174a716ad8712a964736f6c63430008070033",
  "immutableReferences": {},
  "source": "\n/**\n * @file marketplace.sol\n * @author Nachiket Tapas <ntapas@unime.it>\n * @date created 01 Jun 2020\n * @date last modified 09 Jul 2020\n * @SPDX-License-Identifier: UNLICENSED*/\n\n//TODO FARE LA CLAIM PER LE PERSONE CHE HANNO UN BALANCE POSITIVO\n//import { AntoTokenSale } from \"./AntoTokenSale.sol\";\n//import { TestToken } from \"./TestToken.sol\";\n\npragma solidity >=0.4.22 <0.9.0;\npragma experimental ABIEncoderV2;\n\nimport \"./Interfaces/IUser.sol\";\nimport \"./Structs/VotingSystemStructs.sol\";\n\ncontract VotingSystem{\n    \n    IUser private user;\n    constructor(address _address){\n        user = IUser(_address);\n    }\n\n//              TEST FUNCTION \n//#################################################\n    function getPlayer()public view returns(bool){\n\n        return user.isPlayer(msg.sender);\n    }\n//            END TEST FUNCTION    \n//#################################################\n\n\n\n//                  DATA SECTION  \n//#############################################################\n//#############################################################\n    //Mapping if the proof exists\n    //Mapping of design identified by design index and collection of players indexes registered to vote\n    mapping (uint256 => mapping(address=>bool)) public checkPlayer;\n    mapping (uint256 => mapping (address => designState)) public TcheckPlayers;\n    // This is the commitment for every design the user has committed to\n    mapping (address=>mapping(uint=>bytes32))public userDesignCommitment;\n    // At every player address we associate the corresponding vote he made for \n    // the specific design\n    mapping (address=>mapping(uint256=>votingStage)) public playerVote;\n    mapping (uint256 => address[]) public regPlayers;\n    //Design details indexed by design index\n    mapping (uint256 => designState) public designes;\n    uint256 public numDesignes = 0;\n\n    //IMPORTANT : USAGE REQUIRED FOR OTHER OPERATIONS \n    //mapping(uint256 => DataLib.DesignToken) trackDesignToken;\n//                  END DATA SECTION   \n//##############################################################\n//##############################################################\n\n\n//                   EVENT SECTION\n// #############################################################\n//##############################################################\n    event newPrinterAddition(address player_address, bool status);\n\n    //event newPlayerAddition(address player_address);\n    //Notifications for successful completion of events\n    event newDesignAvailable(\n        bytes32 file_hash,\n        uint256 design_number,\n        address creator\n    );\n    event resultCalculated(\n        bytes32 file_hash,\n        uint256 design_number,\n        address creator\n    );\n    event newPlayerAddition(address player_address, bool status);\n    event newPlayerRegistration(\n        address player_address,\n        uint256 design_number,\n        bool status\n    );\n    event playerDesignReceived(uint256 design_number, address player_address);\n    event playerCommitted(uint256 design_number, address player_address);\n    event playerRevealed(uint256 design_number, address player_address);\n    event votingResult(int256 result);\n    event phase2Begin(uint256 design_number, address vendor, uint256 time);\n\n    event proofAdded(\n        uint256 design_number,\n        address player_address,\n        address printer_address\n    );\n\n    event tempOutput(address _output); //, uint256 timestamp, uint256 expiry, uint256 balance);\n//                              END EVENT SECTION    \n// ##########################################################################################\n//###########################################################################################\n\n\n    //The commitment is send via the value field in the remix. If the sent value matches the commitment parameter,\n    //the contract announces the availability of new design for verification.\n    function announce(\n        bytes32 _fileHash,\n        uint256 _timestamp,\n        uint256 _commitment,\n        uint256 _taur,\n        uint256 _taup /*uint256 _deltaExp, uint256 _deltaReveal*/\n    ) public payable {\n        require(user.isPlayer(msg.sender) == true, \"Operation denied\");\n        //Check for positive commitment\n        require(_commitment > 0, \"The commitment should be more than 0.\");\n\n        require( _commitment / _taur>3,\"Not enough commitment made for the design\");\n        //Check if the commitment parameter matches the commiment sent to the contract.\n        require(\n            msg.value == _commitment,\n            \"The announcement didn't receive the commitment.\"\n        ); //chiedere a nachiket\n        //require(_commitment <= ContractToken.balanceOf(msg.sender), \"doesn't have enough tokens\");\n\n        //Design index\n        uint256 j = numDesignes;\n\n        //Design file hash from IPFS\n        //designes[j].filehash = _fileHash;\n\n        //Design creator\n        designes[j].vendor = msg.sender;\n\n        //Creation timestamp received from the js script\n        designes[j].timestamp = _timestamp;\n\n        //Commitment\n        designes[j].balance = _commitment;\n\n        //Set a manager\n        //designes[j].manager = _manager;\n\n        //Set the begining of the voting phase\n        designes[j].phase = votingState.first;\n\n        //Set result to zero\n        designes[j].result1.resultPhase_1 =0 ;\n\n        //Setting the value for reward\n        if (_taur == 0) {\n            designes[j].taur = 1000000000000000000; //ContractToken.totalSupply();\n        } else {\n            designes[j].taur = _taur;\n        }\n\n        //Setting the value for penalty\n        if (_taup == 0) {\n            designes[j].taup = 1000000000000000000; ////ContractToken.totalSupply();\n        } else {\n            designes[j].taup = _taup;\n        }\n\n        //Setting the value for expiry\n        /* if (_deltaExp == 0) {\n            designes[j].deltaExp = 600;\n        } else {\n            designes[j].deltaExp = _deltaExp;\n        }\n\n        //Setting the value for reveal\n        if (_deltaReveal == 0) {\n            designes[j].deltaReveal = 600;\n        } else {\n            designes[j].deltaReveal = _deltaReveal;\n        }*/\n        designes[j].deltaExp = 20000;\n        //designes[j].deltaReveal = 600;\n\n        //Set the status to be created\n\n        //Incrementing the design index\n        numDesignes = numDesignes + 1;\n\n        //DataLib.DesignToken storage _design = trackDesignToken[j];\n        //_design.committment = _commitment;\n\n        //ContractToken.transferFrom(msg.sender, address(SaleContract), _commitment);\n        //Emitting notification for new design creation.\n        //Verifiers receiving the notification can participate in the process\n        //Filehash to ensure file integrity\n        //Index to use for search\n        //Vendor address for source verification\n        emit newDesignAvailable(_fileHash, j, msg.sender);\n    }\n\n    function getNumDesignes() public view returns (uint256) {\n        return numDesignes;\n    }\n\n    //Reader function to get designe details at _index\n    function getDesigne(uint256 _index) public view returns (designState memory) {\n        return designes[_index];\n    }\n\n    //IMPORTANT NOT USEFULL AT THE MOMENT\n    /*\n    function getPlayerCommitment(address _playerAddress, uint256 _designNo) public view returns ( bytes32 ) {\n        return ( userDesignCommitment[_playerAddress][_designNo] );\n    }\n    */\n    // Get the player vote of first phase\n    function getPlayerVotePhase1(address _playerAddress, uint256 _designNo) public view returns ( int ) {\n        return ( playerVote[_playerAddress][_designNo].votingStage1 );\n        }\n    // Get the player vote of the second phase\n    function getPlayerVotePhase2(address _playerAddress, uint256 _designNo) public view returns ( int ) {\n        return ( playerVote[_playerAddress][_designNo].votingStage2 );\n        }\n    // The function used to make a player vote for adesign\n    function vote(uint256 _designNo, int _vote, /*bytes32 _nonce,*/ uint256 _timestamp,uint256 _commitment)\n        payable public{\n        ///////////////////////////////////////////////////////////////////\n        require(designes[_designNo].phase==votingState.first||designes[_designNo].phase==votingState.second,\"No voting aviable for design. \");\n        require(designes[_designNo].statusPhase.statusPhase_1==0||designes[_designNo].statusPhase.statusPhase_2==0, \"Operation failed.\");\n        require(_timestamp <= designes[_designNo].timestamp + designes[_designNo].deltaExp + designes[_designNo].deltaReveal, \"The time has expired.\");\n        require(user.isPlayer(msg.sender) == true, \"Operation denied\");\n        require(_commitment > 0, \"The commitment should be more than 0.\");\n        require(msg.value == _commitment, \"The registration didn't receive the commitment.\");\n        require(_commitment >= designes[_designNo].taup, \"The commitment should be greater than the penalty.\");\n        require(regPlayers[_designNo].length < designes[_designNo].balance / designes[_designNo].taur, \"No more registrations are accepted.\");\n        require(checkPlayer[_designNo][msg.sender] == false, \"Player already registered.\");\n        require(regPlayers[_designNo].length < designes[_designNo].balance / designes[_designNo].taur, \"No more registrations are accepted.\");\n        \n        checkPlayer[_designNo][msg.sender] = true;\n        regPlayers[_designNo].push(msg.sender);\n        //trackDesignToken[_designNo].totalPlayers.push(msg.sender);\n        //trackDesignToken[_designNo].stakes[msg.sender] = _commitment;\n        emit newPlayerRegistration(msg.sender, _designNo, true);\n        //Store the vote by the player\n        //players[msg.sender].votes[_designNo] = _vote;\n        if(designes[_designNo].phase==votingState.first){\n            playerVote[msg.sender][_designNo].votingStage1 = _vote;\n            playerVote[msg.sender][_designNo].reveal_1=revealVote.noReveal;\n        }\n        if(designes[_designNo].phase==votingState.first){\n            playerVote[msg.sender][_designNo].votingStage2 = _vote;\n            playerVote[msg.sender][_designNo].reveal_2=revealVote.noReveal;\n        }\n        //An event emitted after successful reveal of vote\n        emit playerRevealed(_designNo, msg.sender);\n        \n        }\n\n    // The user can choose to reveal is vote (meaning making it public)\n    function reveal(uint256 _designNo,uint256 _timestamp)\n        public{\n        require(_timestamp > designes[_designNo].timestamp + designes[_designNo].deltaExp , \"The result cannot be revealed before the expiry.\");\n        if(designes[_designNo].phase==votingState.first){\n            playerVote[msg.sender][_designNo].reveal_1=revealVote.reveal;\n        }\n        if(designes[_designNo].phase==votingState.second){\n            playerVote[msg.sender][_designNo].reveal_2=revealVote.reveal;\n        }\n        emit playerRevealed(_designNo, msg.sender);\n        \n        }\n    // To check wich is the current voting phase\n    function checkPhase(uint256 _designNo)public view returns(votingState){\n        return designes[_designNo].phase;\n    }\n    // Player can check the voting result of the first phase\n    function playerCheckResult1(uint256 _designNo,uint256 _timestamp)public view returns(int){ \n        require(_timestamp>designes[_designNo].timestamp+designes[_designNo].deltaExp + designes[_designNo].deltaReveal,\"The time period has not expired yet. \");\n        require(designes[_designNo].statusPhase.statusPhase_1==1,\"The result has not yet been revealed\");\n        return designes[_designNo].result1.resultPhase_1;\n    }\n    // Player can check the voting result of the second phase\n    function playerCheckResult2(uint256 _designNo,uint256 _timestamp)public view returns(int){ \n        require(_timestamp>designes[_designNo].timestamp+designes[_designNo].deltaExp + designes[_designNo].deltaReveal,\"The time period has not expired yet. \");\n        require(designes[_designNo].statusPhase.statusPhase_2==1 && designes[_designNo].statusPhase.statusPhase_1==1,\"The result has not yet been revealed\");\n        return designes[_designNo].result1.resultPhase_2;\n    }\n\n    /* function getAirPlayerInfo(address _playerAddress)view public returns(.AirPlayer memory){\n        return isPlayer.airPlayers(_playerAddress);\n    }*/\n\n    function setPlayerReputation(address player,int256 reputation)view public{\n        user.setPlayerReputation(player, reputation);\n    }   \n\n    function setPlayerWeight(address player, uint256 weight)view public{\n        user.setPlayerWeigth(player, weight);\n    }\n    function getPlayerReputation(address _playerAddress)public view returns(int256 reputation){\n        return user.getPlayerReputation(_playerAddress);\n    }\n    function getPlayerWeight(address _playerAddress)public view returns(uint256 weight){\n        return user.getPlayerWeight(_playerAddress);\n    }\n\n    function calculateResult(uint256 _designNo,uint256 _timestamp)public{\n        \n        require(designes[_designNo].phase==votingState.first||designes[_designNo].phase==votingState.second,\"Operation failed\");\n        require(msg.sender==designes[_designNo].vendor,\"Only the announcer can calculate the result\");\n        //Check the status of the voting. If already completed, then this function is not run.\n        //require(designes[_designNo].status == 0, \"The voting is already finished and results are declared.\");\n        require(designes[_designNo].statusPhase.statusPhase_1 == 0 || designes[_designNo].statusPhase.statusPhase_2==0, \"The voting is already finished and results are declared.\");\n\n        //Check for expiry. The result cannot be calculated before the expiry.\n        require(_timestamp > designes[_designNo].timestamp + designes[_designNo].deltaExp , \"The result cannot be revealed before the expiry.\");\n\n        //Since solidity do not support floating point arithematic, we will store the value as quotient and remainder.\n        //Here we are calculating the numerator and denominator.\n        int256 playerNum = 0;\n        int256 playerDen = 0;\n        uint256 playerWeight=0;\n        int256 playerReput=0;\n        for ( uint256 i = 0; i < regPlayers[_designNo].length; i++ ) {\n            \n            playerWeight=getPlayerWeight(regPlayers[_designNo][i]);\n            playerReput=getPlayerReputation(regPlayers[_designNo][i]);\n            //playerNum  += ( players[regPlayers[_designNo][i]].votes[_designNo] * int( players[regPlayers[_designNo][i]].weight ) * players[regPlayers[_designNo][i]].reputation );\n            //playerDen  += int ( players[regPlayers[_designNo][i]].weight ) * players[regPlayers[_designNo][i]].reputation;\n            if(designes[_designNo].phase==votingState.first)\n                playerNum  += ( playerVote[regPlayers[_designNo][i]][_designNo].votingStage1 * ( playerReput )*int(playerWeight));\n            \n            if(designes[_designNo].phase==votingState.second)\n                playerNum  += ( playerVote[regPlayers[_designNo][i]][_designNo].votingStage2 * int( playerWeight) * playerReput );\n\n            playerDen  += int ( playerWeight) * playerReput;\n        }\n\n        int256 finalScoreQuo = ( playerNum + playerDen ) / ( 2 * playerDen );\n        int256 finalScoreRem = ( playerNum + playerDen ) % ( 2 * playerDen );\n        int result = 0;\n        if ( finalScoreQuo == 1 || finalScoreRem >= playerDen ) {\n                //designes[_designNo].result = 1;\n            if(designes[_designNo].phase==votingState.first){\n                designes[_designNo].result1.resultPhase_1=1;\n                result = designes[_designNo].result1.resultPhase_1;\n            }\n            else if(designes[_designNo].phase==votingState.second){\n                designes[_designNo].result1.resultPhase_2=1;\n                result = designes[_designNo].result1.resultPhase_2;\n            }\n        } else if ( finalScoreRem < playerDen ) {\n            //designes[_designNo].result = -1;\n            if(designes[_designNo].phase==votingState.first){\n                designes[_designNo].result1.resultPhase_1=-1;\n                result = designes[_designNo].result1.resultPhase_1; \n            }\n            else if(designes[_designNo].phase==votingState.second){\n                designes[_designNo].result1.resultPhase_2=-1;\n                result = designes[_designNo].result1.resultPhase_2;\n            }\n        }\n        setPlayerRep_Weight(_designNo,result);\n        updateDesignBalance(_designNo,_timestamp,result);\n    }\n\n    function setPlayerRep_Weight(uint256 _designNo,int256 result)public view{\n\n        for ( uint256 i = 0; i < regPlayers[_designNo].length; i++ ) {\n            //if(designes[_designNo].phase==votingState.first){PROBABLY SHOULD BE CHANGED BY CONSIDERING ALSO SECOND VOTING STAGE\n            if ( playerVote[regPlayers[_designNo][i]][_designNo].votingStage1 > 0 && designes[_designNo].phase==votingState.first ) {\n                    //Set new reputation\n\n                    //user.airPlayers(regPlayers[_designNo][i]).reputation += playerVote[regPlayers[_designNo][i]][_designNo].votingStage1 * result;\n                    setPlayerReputation(regPlayers[_designNo][i], playerVote[regPlayers[_designNo][i]][_designNo].votingStage1 * result);\n                    //Set new weight (we only use the player weight. The total weight, which is used as normalization factor is eliminated in the final calculation.)\n                    setPlayerWeight(regPlayers[_designNo][i], uint ( playerVote[regPlayers[_designNo][i]][_designNo].votingStage1 * result ));\n                    //user.airPlayers(regPlayers[_designNo][i]).weight += uint ( playerVote[regPlayers[_designNo][i]][_designNo].votingStage1 * result );\n                } \n            else if( playerVote[regPlayers[_designNo][i]][_designNo].votingStage2 > 0 && designes[_designNo].phase==votingState.second){\n                                        //Set new reputation\n                    \n                    setPlayerReputation(regPlayers[_designNo][i], playerVote[regPlayers[_designNo][i]][_designNo].votingStage2 * result);\n                    //playerVote[regPlayers[_designNo][i]].reputation += playerVote[regPlayers[_designNo][i]][_designNo].votingStage2 * result;\n                    setPlayerWeight(regPlayers[_designNo][i], uint ( playerVote[regPlayers[_designNo][i]][_designNo].votingStage2 * result ));\n                    //Set new weight (we only use the player weight. The total weight, which is used as normalization factor is eliminated in the final calculation.)\n                   // user.airPlayers(regPlayers[_designNo][i]).weight += uint ( playerVote[regPlayers[_designNo][i]][_designNo].votingStage2 * result );\n                }\n                \n                \n            else {\n                    //Set new reputation\n                    setPlayerReputation(regPlayers[_designNo][i], (-1*result));//POSSIBLE SOLUTION\n                    //user.airPlayers(regPlayers[_designNo][i]).reputation += -1 * result;//TO CHECK HOW TO CHANGE THEM\n\n                    //Set new weight (we only use the player weight. The total weight, which is used as normalization factor is eliminated in the final calculation.)\n                    setPlayerWeight(regPlayers[_designNo][i], uint(-1*result));//POSSIBLE SOLUTION\n                    //user.airPlayers(regPlayers[_designNo][i]).weight += uint ( -1 * result );\n            }\n            \n        }\n\n\n\n    }\n\n\n    function updateDesignBalance(uint256 _designNo,uint256 _timestamp,int256 result)public{\n\n           for ( uint256 i = 0; i < regPlayers[_designNo].length; i++ ) {\n            if(designes[_designNo].phase==votingState.first){\n                if ( playerVote[regPlayers[_designNo][i]][_designNo].votingStage1 * result == 1) { // rimuovere * result\n                    //players[regPlayers[_designNo][i]].balance += designes[_designNo].taur;\n                    //ContractToken.transferFrom(address(SaleContract), regPlayers[_designNo][i], designes[_designNo].taur);\n                    designes[_designNo].balance -= designes[_designNo].taur;\n                } \n            }\n\n            else if(designes[_designNo].phase==votingState.second){\n                if ( playerVote[regPlayers[_designNo][i]][_designNo].votingStage2 * result == 1) { // rimuovere * result\n                    //players[regPlayers[_designNo][i]].balance += designes[_designNo].taur;\n                    //ContractToken.transferFrom(address(SaleContract), regPlayers[_designNo][i], designes[_designNo].taur);\n                    designes[_designNo].balance -= designes[_designNo].taur;\n\n                }\n            }\n\n            else {\n                //players[regPlayers[_designNo][i]].balance -= designes[_designNo].taup;\n                //ContractToken.transferFrom(regPlayers[_designNo][i], address(SaleContract), designes[_designNo].taup);\n                designes[_designNo].balance += designes[_designNo].taup;\n\n                }\n            }\n\n        //Set the status to finished\n        //designes[_designNo].status = 1;\n        if(designes[_designNo].phase==votingState.first)\n            designes[_designNo].statusPhase.statusPhase_1 = 1;\n        if(designes[_designNo].phase==votingState.second)\n            designes[_designNo].statusPhase.statusPhase_2=1;\n        //Setting the new phase start\n        if(designes[_designNo].result1.resultPhase_1==1 && designes[_designNo].phase==votingState.first){\n            designes[_designNo].phase=votingState.second;\n            designes[_designNo].timestamp=_timestamp;\n\n        }\n\n\n        //Emit the notification for the result\n        emit votingResult(result);\n        }\n\n    }\n\n\n\n\n\n\n//####################################################################################################################################################################\n//####################################################################################################################################################################    \n    // function used for calculating the result of the votation\n    /*function calculateResult(uint256 _designNo, uint256 _timestamp)\n        public{\n        //Only if we are in phase 1 or 2 the result can be calculated\n        require(designes[_designNo].phase==votingState.first||designes[_designNo].phase==votingState.second,\"Operation failed\");\n        require(msg.sender==designes[_designNo].vendor,\"Only the announcer can calculate the result\");\n        //Check the status of the voting. If already completed, then this function is not run.\n        //require(designes[_designNo].status == 0, \"The voting is already finished and results are declared.\");\n        require(designes[_designNo].statusPhase.statusPhase_1 == 0 || designes[_designNo].statusPhase.statusPhase_2==0, \"The voting is already finished and results are declared.\");\n\n        //Check for expiry. The result cannot be calculated before the expiry.\n        require(_timestamp > designes[_designNo].timestamp + designes[_designNo].deltaExp , \"The result cannot be revealed before the expiry.\");\n\n        //Since solidity do not support floating point arithematic, we will store the value as quotient and remainder.\n        //Here we are calculating the numerator and denominator.\n        int256 playerNum = 0;\n        int256 playerDen = 0;\n        uint256 playerWeight=0;\n        int256 playerReput=0;\n        for ( uint256 i = 0; i < regPlayers[_designNo].length; i++ ) {\n            \n            playerWeight=getPlayerWeight(regPlayers[_designNo][i]);\n            playerReput=getPlayerReputation(regPlayers[_designNo][i]);\n            //playerNum  += ( players[regPlayers[_designNo][i]].votes[_designNo] * int( players[regPlayers[_designNo][i]].weight ) * players[regPlayers[_designNo][i]].reputation );\n            //playerDen  += int ( players[regPlayers[_designNo][i]].weight ) * players[regPlayers[_designNo][i]].reputation;\n            if(designes[_designNo].phase==votingState.first)\n                playerNum  += ( playerVote[regPlayers[_designNo][i]][_designNo].votingStage1 * ( playerReput )*int(playerWeight));\n            \n            if(designes[_designNo].phase==votingState.second)\n                playerNum  += ( playerVote[regPlayers[_designNo][i]][_designNo].votingStage2 * int( playerWeight) * playerReput );\n\n            playerDen  += int ( playerWeight) * playerReput;\n        }\n\n        //Here we are just calculating the remainder as the value varies from 0 to 1.\n        //The borderline case of same positive and negative votes is considered as correct (To be decided later)\n        int256 finalScoreQuo = ( playerNum + playerDen ) / ( 2 * playerDen );\n        int256 finalScoreRem = ( playerNum + playerDen ) % ( 2 * playerDen );\n        int result = 0;\n        if ( finalScoreQuo == 1 || finalScoreRem >= playerDen ) {\n                //designes[_designNo].result = 1;\n            if(designes[_designNo].phase==votingState.first){\n                designes[_designNo].result1.resultPhase_1=1;\n                result = designes[_designNo].result1.resultPhase_1;\n            }\n            else if(designes[_designNo].phase==votingState.second){\n                designes[_designNo].result1.resultPhase_2=1;\n                result = designes[_designNo].result1.resultPhase_2;\n            }\n        } else if ( finalScoreRem < playerDen ) {\n            //designes[_designNo].result = -1;\n            if(designes[_designNo].phase==votingState.first){\n                designes[_designNo].result1.resultPhase_1=-1;\n                result = designes[_designNo].result1.resultPhase_1; \n            }\n            else if(designes[_designNo].phase==votingState.second){\n                designes[_designNo].result1.resultPhase_2=-1;\n                result = designes[_designNo].result1.resultPhase_2;\n            }\n        }\n        //result = designes[_designNo].result; //PROBABILE SOLUZIONE\n\n        for ( uint256 i = 0; i < regPlayers[_designNo].length; i++ ) {\n            if(designes[_designNo].phase==votingState.first){//PROBABLY SHOULD BE CHANGED BY CONSIDERING ALSO SECOND VOTING STAGE\n                if ( playerVote[regPlayers[_designNo][i]][_designNo].votingStage1 > 0 ) {\n                    //Set new reputation\n\n                    //user.airPlayers(regPlayers[_designNo][i]).reputation += playerVote[regPlayers[_designNo][i]][_designNo].votingStage1 * result;\n                    setPlayerReputation(regPlayers[_designNo][i], playerVote[regPlayers[_designNo][i]][_designNo].votingStage1 * result);\n                    //Set new weight (we only use the player weight. The total weight, which is used as normalization factor is eliminated in the final calculation.)\n                    setPlayerWeight(regPlayers[_designNo][i], uint ( playerVote[regPlayers[_designNo][i]][_designNo].votingStage1 * result ));\n                    //user.airPlayers(regPlayers[_designNo][i]).weight += uint ( playerVote[regPlayers[_designNo][i]][_designNo].votingStage1 * result );\n                } \n                else if( playerVote[regPlayers[_designNo][i]][_designNo].votingStage2 > 0 ){\n                                        //Set new reputation\n                    \n                    setPlayerReputation(regPlayers[_designNo][i], playerVote[regPlayers[_designNo][i]][_designNo].votingStage2 * result);\n                    //playerVote[regPlayers[_designNo][i]].reputation += playerVote[regPlayers[_designNo][i]][_designNo].votingStage2 * result;\n                    setPlayerWeight(regPlayers[_designNo][i], uint ( playerVote[regPlayers[_designNo][i]][_designNo].votingStage2 * result ));\n                    //Set new weight (we only use the player weight. The total weight, which is used as normalization factor is eliminated in the final calculation.)\n                   // user.airPlayers(regPlayers[_designNo][i]).weight += uint ( playerVote[regPlayers[_designNo][i]][_designNo].votingStage2 * result );\n                }\n                \n                \n                else {\n                    //Set new reputation\n                    setPlayerReputation(regPlayers[_designNo][i], (-1*result));//POSSIBLE SOLUTION\n                    //user.airPlayers(regPlayers[_designNo][i]).reputation += -1 * result;//TO CHECK HOW TO CHANGE THEM\n\n                    //Set new weight (we only use the player weight. The total weight, which is used as normalization factor is eliminated in the final calculation.)\n                    setPlayerWeight(regPlayers[_designNo][i], uint(-1*result));//POSSIBLE SOLUTION\n                    //user.airPlayers(regPlayers[_designNo][i]).weight += uint ( -1 * result );\n                }\n            }\n        }\n\n        for ( uint256 i = 0; i < regPlayers[_designNo].length; i++ ) {\n            if(designes[_designNo].phase==votingState.first){\n                if ( playerVote[regPlayers[_designNo][i]][_designNo].votingStage1 * result == 1) { // rimuovere * result\n                    //players[regPlayers[_designNo][i]].balance += designes[_designNo].taur;\n                    //ContractToken.transferFrom(address(SaleContract), regPlayers[_designNo][i], designes[_designNo].taur);\n                    designes[_designNo].balance -= designes[_designNo].taur;\n                } \n            }\n\n            else if(designes[_designNo].phase==votingState.second){\n                if ( playerVote[regPlayers[_designNo][i]][_designNo].votingStage2 * result == 1) { // rimuovere * result\n                    //players[regPlayers[_designNo][i]].balance += designes[_designNo].taur;\n                    //ContractToken.transferFrom(address(SaleContract), regPlayers[_designNo][i], designes[_designNo].taur);\n                    designes[_designNo].balance -= designes[_designNo].taur;\n\n                }\n            }\n\n            else {\n                //players[regPlayers[_designNo][i]].balance -= designes[_designNo].taup;\n                //ContractToken.transferFrom(regPlayers[_designNo][i], address(SaleContract), designes[_designNo].taup);\n                designes[_designNo].balance += designes[_designNo].taup;\n\n            }\n        }\n\n        //Set the status to finished\n        //designes[_designNo].status = 1;\n        if(designes[_designNo].phase==votingState.first)\n            designes[_designNo].statusPhase.statusPhase_1 = 1;\n        if(designes[_designNo].phase==votingState.second)\n            designes[_designNo].statusPhase.statusPhase_2=1;\n        //Setting the new phase start\n        if(designes[_designNo].result1.resultPhase_1==1 && designes[_designNo].phase==votingState.first){\n            designes[_designNo].phase=votingState.second;\n            designes[_designNo].timestamp=_timestamp;\n\n        }\n\n\n        //Emit the notification for the result\n        emit votingResult(result);\n    }*/\n\n\n\n\n\n\n\n\n\n\n\n\n\n\n\n\n\n\n\n\n\n\n\n\n\n\n\n\n\n\n\n\n\n\n\n\n\n\n\n\n\n\n\n",
  "sourcePath": "/home/ubuntu/Android/contracts/af2-smart-contract/contracts/2_VotingSystem/VotingSystem.sol",
  "compiler": {
    "name": "solc",
    "version": "0.8.7+commit.e28d00a7.Emscripten.clang"
  },
  "schemaVersion": "3.4.3",
  "updatedAt": "2022-03-08T17:45:02.696Z",
  "networkType": "ethereum",
  "devdoc": {
    "kind": "dev",
    "methods": {},
    "version": 1
  },
  "userdoc": {
    "kind": "user",
    "methods": {},
    "version": 1
  }
}