{
  "contractName": "designVoting1",
  "abi": [
    {
      "anonymous": false,
      "inputs": [
        {
          "indexed": true,
          "internalType": "address",
          "name": "player",
          "type": "address"
        },
        {
          "indexed": false,
          "internalType": "uint256",
          "name": "amount",
          "type": "uint256"
        }
      ],
      "name": "TokensClaimed",
      "type": "event"
    },
    {
      "anonymous": false,
      "inputs": [
        {
          "indexed": false,
          "internalType": "bytes32",
          "name": "file_hash",
          "type": "bytes32"
        },
        {
          "indexed": false,
          "internalType": "uint256",
          "name": "design_number",
          "type": "uint256"
        },
        {
          "indexed": false,
          "internalType": "address",
          "name": "creator",
          "type": "address"
        }
      ],
      "name": "newDesignAvailable",
      "type": "event"
    },
    {
      "anonymous": false,
      "inputs": [
        {
          "indexed": false,
          "internalType": "address",
          "name": "player_address",
          "type": "address"
        },
        {
          "indexed": false,
          "internalType": "bool",
          "name": "status",
          "type": "bool"
        }
      ],
      "name": "newPlayerAddition",
      "type": "event"
    },
    {
      "anonymous": false,
      "inputs": [
        {
          "indexed": false,
          "internalType": "address",
          "name": "player_address",
          "type": "address"
        },
        {
          "indexed": false,
          "internalType": "uint256",
          "name": "design_number",
          "type": "uint256"
        },
        {
          "indexed": false,
          "internalType": "bool",
          "name": "status",
          "type": "bool"
        }
      ],
      "name": "newPlayerRegistration",
      "type": "event"
    },
    {
      "anonymous": false,
      "inputs": [
        {
          "indexed": false,
          "internalType": "address",
          "name": "printer",
          "type": "address"
        },
        {
          "indexed": false,
          "internalType": "bytes32",
          "name": "name",
          "type": "bytes32"
        }
      ],
      "name": "newPrinterAddition",
      "type": "event"
    },
    {
      "anonymous": false,
      "inputs": [
        {
          "indexed": false,
          "internalType": "uint256",
          "name": "design_number",
          "type": "uint256"
        },
        {
          "indexed": false,
          "internalType": "address",
          "name": "vendor",
          "type": "address"
        },
        {
          "indexed": false,
          "internalType": "uint256",
          "name": "time",
          "type": "uint256"
        }
      ],
      "name": "phase2Begin",
      "type": "event"
    },
    {
      "anonymous": false,
      "inputs": [
        {
          "indexed": false,
          "internalType": "uint256",
          "name": "design_number",
          "type": "uint256"
        },
        {
          "indexed": false,
          "internalType": "address",
          "name": "player_address",
          "type": "address"
        }
      ],
      "name": "playerCommitted",
      "type": "event"
    },
    {
      "anonymous": false,
      "inputs": [
        {
          "indexed": false,
          "internalType": "uint256",
          "name": "design_number",
          "type": "uint256"
        },
        {
          "indexed": false,
          "internalType": "address",
          "name": "player_address",
          "type": "address"
        }
      ],
      "name": "playerDesignReceived",
      "type": "event"
    },
    {
      "anonymous": false,
      "inputs": [
        {
          "indexed": false,
          "internalType": "uint256",
          "name": "design_number",
          "type": "uint256"
        },
        {
          "indexed": false,
          "internalType": "address",
          "name": "player_address",
          "type": "address"
        }
      ],
      "name": "playerRevealed",
      "type": "event"
    },
    {
      "anonymous": false,
      "inputs": [
        {
          "indexed": false,
          "internalType": "uint256",
          "name": "design_number",
          "type": "uint256"
        },
        {
          "indexed": false,
          "internalType": "address",
          "name": "player_address",
          "type": "address"
        },
        {
          "indexed": false,
          "internalType": "address",
          "name": "printer_address",
          "type": "address"
        }
      ],
      "name": "proofAdded",
      "type": "event"
    },
    {
      "anonymous": false,
      "inputs": [
        {
          "indexed": false,
          "internalType": "bytes32",
          "name": "file_hash",
          "type": "bytes32"
        },
        {
          "indexed": false,
          "internalType": "uint256",
          "name": "design_number",
          "type": "uint256"
        },
        {
          "indexed": false,
          "internalType": "address",
          "name": "creator",
          "type": "address"
        }
      ],
      "name": "resultCalculated",
      "type": "event"
    },
    {
      "anonymous": false,
      "inputs": [
        {
          "indexed": false,
          "internalType": "address",
          "name": "_output",
          "type": "address"
        }
      ],
      "name": "tempOutput",
      "type": "event"
    },
    {
      "anonymous": false,
      "inputs": [
        {
          "indexed": false,
          "internalType": "int256",
          "name": "result",
          "type": "int256"
        }
      ],
      "name": "votingResult",
      "type": "event"
    },
    {
      "inputs": [
        {
          "internalType": "bytes32",
          "name": "prova1",
          "type": "bytes32"
        }
      ],
      "name": "prova",
      "outputs": [
        {
          "internalType": "bytes32",
          "name": "",
          "type": "bytes32"
        }
      ],
      "stateMutability": "pure",
      "type": "function"
    },
    {
      "inputs": [
        {
          "internalType": "bytes32",
          "name": "_fileHash",
          "type": "bytes32"
        },
        {
          "internalType": "uint256",
          "name": "_timestamp",
          "type": "uint256"
        },
        {
          "internalType": "uint256",
          "name": "_commitment",
          "type": "uint256"
        },
        {
          "internalType": "uint256",
          "name": "_taur",
          "type": "uint256"
        },
        {
          "internalType": "uint256",
          "name": "_taup",
          "type": "uint256"
        }
      ],
      "name": "announce",
      "outputs": [],
      "stateMutability": "payable",
      "type": "function"
    },
    {
      "inputs": [],
      "name": "getNumDesignes",
      "outputs": [
        {
          "internalType": "uint256",
          "name": "",
          "type": "uint256"
        }
      ],
      "stateMutability": "view",
      "type": "function"
    },
    {
      "inputs": [
        {
          "internalType": "uint256",
          "name": "_index",
          "type": "uint256"
        }
      ],
      "name": "getDesigne",
      "outputs": [
        {
          "components": [
            {
              "internalType": "bytes32",
              "name": "filehash",
              "type": "bytes32"
            },
            {
              "internalType": "address",
              "name": "vendor",
              "type": "address"
            },
            {
              "internalType": "uint256",
              "name": "timestamp",
              "type": "uint256"
            },
            {
              "internalType": "uint256",
              "name": "balance",
              "type": "uint256"
            },
            {
              "internalType": "address",
              "name": "manager",
              "type": "address"
            },
            {
              "internalType": "uint256",
              "name": "status",
              "type": "uint256"
            },
            {
              "internalType": "uint256",
              "name": "status1",
              "type": "uint256"
            },
            {
              "internalType": "uint256",
              "name": "status2",
              "type": "uint256"
            },
            {
              "internalType": "uint256",
              "name": "taup",
              "type": "uint256"
            },
            {
              "internalType": "uint256",
              "name": "taur",
              "type": "uint256"
            },
            {
              "internalType": "uint256",
              "name": "deltaExp",
              "type": "uint256"
            },
            {
              "internalType": "uint256",
              "name": "deltaReveal",
              "type": "uint256"
            },
            {
              "internalType": "int256",
              "name": "result",
              "type": "int256"
            },
            {
              "internalType": "enum designVoting1.votingState",
              "name": "phase",
              "type": "uint8"
            }
          ],
          "internalType": "struct designVoting1.designState",
          "name": "",
          "type": "tuple"
        }
      ],
      "stateMutability": "view",
      "type": "function"
    },
    {
      "inputs": [],
      "name": "addPlayer",
      "outputs": [],
      "stateMutability": "nonpayable",
      "type": "function"
    },
    {
      "inputs": [],
      "name": "getNumPlayers",
      "outputs": [
        {
          "internalType": "uint256",
          "name": "",
          "type": "uint256"
        }
      ],
      "stateMutability": "view",
      "type": "function"
    },
    {
      "inputs": [],
      "name": "getPlayerAddresses",
      "outputs": [
        {
          "internalType": "address[]",
          "name": "",
          "type": "address[]"
        }
      ],
      "stateMutability": "view",
      "type": "function"
    },
    {
      "inputs": [
        {
          "internalType": "address",
          "name": "_playerAddress",
          "type": "address"
        }
      ],
      "name": "getPlayerDetails",
      "outputs": [
        {
          "internalType": "int256",
          "name": "",
          "type": "int256"
        },
        {
          "internalType": "uint256",
          "name": "",
          "type": "uint256"
        },
        {
          "internalType": "uint256",
          "name": "",
          "type": "uint256"
        }
      ],
      "stateMutability": "view",
      "type": "function"
    },
    {
      "inputs": [
        {
          "internalType": "address",
          "name": "_playerAddress",
          "type": "address"
        },
        {
          "internalType": "uint256",
          "name": "_designNo",
          "type": "uint256"
        }
      ],
      "name": "getPlayerCommitment",
      "outputs": [
        {
          "internalType": "bytes32",
          "name": "",
          "type": "bytes32"
        }
      ],
      "stateMutability": "view",
      "type": "function"
    },
    {
      "inputs": [
        {
          "internalType": "address",
          "name": "_playerAddress",
          "type": "address"
        },
        {
          "internalType": "uint256",
          "name": "_designNo",
          "type": "uint256"
        }
      ],
      "name": "getPlayerVotePhase1",
      "outputs": [
        {
          "internalType": "int256",
          "name": "",
          "type": "int256"
        }
      ],
      "stateMutability": "view",
      "type": "function"
    },
    {
      "inputs": [
        {
          "internalType": "address",
          "name": "_playerAddress",
          "type": "address"
        },
        {
          "internalType": "uint256",
          "name": "_designNo",
          "type": "uint256"
        }
      ],
      "name": "getPlayerVotePhase2",
      "outputs": [
        {
          "internalType": "int256",
          "name": "",
          "type": "int256"
        }
      ],
      "stateMutability": "view",
      "type": "function"
    },
    {
      "inputs": [
        {
          "internalType": "address",
          "name": "_playerAddress",
          "type": "address"
        },
        {
          "internalType": "uint256",
          "name": "_designNo",
          "type": "uint256"
        }
      ],
      "name": "isFileReceived",
      "outputs": [
        {
          "internalType": "bool",
          "name": "",
          "type": "bool"
        }
      ],
      "stateMutability": "view",
      "type": "function"
    },
    {
      "inputs": [
        {
          "internalType": "uint256",
          "name": "_designNo",
          "type": "uint256"
        },
        {
          "internalType": "uint256",
          "name": "_commitment",
          "type": "uint256"
        }
      ],
      "name": "register",
      "outputs": [],
      "stateMutability": "payable",
      "type": "function"
    },
    {
      "inputs": [
        {
          "internalType": "uint256",
          "name": "_designNo",
          "type": "uint256"
        }
      ],
      "name": "getNumRegPlayers",
      "outputs": [
        {
          "internalType": "uint256",
          "name": "",
          "type": "uint256"
        }
      ],
      "stateMutability": "view",
      "type": "function"
    },
    {
      "inputs": [
        {
          "internalType": "uint256",
          "name": "_designNo",
          "type": "uint256"
        }
      ],
      "name": "getRegPlayerAddresses",
      "outputs": [
        {
          "internalType": "address[]",
          "name": "",
          "type": "address[]"
        }
      ],
      "stateMutability": "view",
      "type": "function"
    },
    {
      "inputs": [
        {
          "internalType": "uint256",
          "name": "_designNo",
          "type": "uint256"
        },
        {
          "internalType": "int256",
          "name": "_vote",
          "type": "int256"
        },
        {
          "internalType": "uint256",
          "name": "_timestamp",
          "type": "uint256"
        }
      ],
      "name": "vote",
      "outputs": [],
      "stateMutability": "nonpayable",
      "type": "function"
    },
    {
      "inputs": [
        {
          "internalType": "uint256",
          "name": "_designNo",
          "type": "uint256"
        },
        {
          "internalType": "uint256",
          "name": "_timestamp",
          "type": "uint256"
        }
      ],
      "name": "reveal",
      "outputs": [],
      "stateMutability": "nonpayable",
      "type": "function"
    },
    {
      "inputs": [],
      "name": "getRevealedVotes",
      "outputs": [],
      "stateMutability": "nonpayable",
      "type": "function"
    },
    {
      "inputs": [
        {
          "internalType": "uint256",
          "name": "_designNo",
          "type": "uint256"
        }
      ],
      "name": "checkPhase",
      "outputs": [
        {
          "internalType": "enum designVoting1.votingState",
          "name": "",
          "type": "uint8"
        }
      ],
      "stateMutability": "view",
      "type": "function"
    },
    {
      "inputs": [
        {
          "internalType": "uint256",
          "name": "_designNo",
          "type": "uint256"
        },
        {
          "internalType": "uint256",
          "name": "_timestamp",
          "type": "uint256"
        }
      ],
      "name": "playerCheckResult1",
      "outputs": [
        {
          "internalType": "int256",
          "name": "",
          "type": "int256"
        }
      ],
      "stateMutability": "view",
      "type": "function"
    },
    {
      "inputs": [
        {
          "internalType": "uint256",
          "name": "_designNo",
          "type": "uint256"
        },
        {
          "internalType": "uint256",
          "name": "_timestamp",
          "type": "uint256"
        }
      ],
      "name": "playerCheckResult2",
      "outputs": [
        {
          "internalType": "int256",
          "name": "",
          "type": "int256"
        }
      ],
      "stateMutability": "view",
      "type": "function"
    },
    {
      "inputs": [
        {
          "internalType": "uint256",
          "name": "_designNo",
          "type": "uint256"
        },
        {
          "internalType": "uint256",
          "name": "_timestamp",
          "type": "uint256"
        }
      ],
      "name": "calculateResult",
      "outputs": [],
      "stateMutability": "nonpayable",
      "type": "function"
    },
    {
      "inputs": [
        {
          "internalType": "address",
          "name": "_printerAddr",
          "type": "address"
        },
        {
          "internalType": "bytes32",
          "name": "_make",
          "type": "bytes32"
        },
        {
          "internalType": "bytes32",
          "name": "_name",
          "type": "bytes32"
        },
        {
          "internalType": "uint256",
          "name": "_strength",
          "type": "uint256"
        },
        {
          "internalType": "uint256",
          "name": "_flexibility",
          "type": "uint256"
        },
        {
          "internalType": "uint256",
          "name": "_durability",
          "type": "uint256"
        },
        {
          "internalType": "uint256",
          "name": "_difficulty",
          "type": "uint256"
        },
        {
          "internalType": "int256",
          "name": "_printTemperature",
          "type": "int256"
        },
        {
          "internalType": "int256",
          "name": "_bedTemperature",
          "type": "int256"
        },
        {
          "internalType": "bool",
          "name": "_soluble",
          "type": "bool"
        },
        {
          "internalType": "bool",
          "name": "_foodSafety",
          "type": "bool"
        }
      ],
      "name": "addPrinter",
      "outputs": [],
      "stateMutability": "nonpayable",
      "type": "function"
    },
    {
      "inputs": [
        {
          "internalType": "address",
          "name": "_userAddress",
          "type": "address"
        }
      ],
      "name": "getUserPrinters",
      "outputs": [
        {
          "internalType": "address[]",
          "name": "",
          "type": "address[]"
        }
      ],
      "stateMutability": "view",
      "type": "function"
    },
    {
      "inputs": [
        {
          "internalType": "address",
          "name": "_printerAddr",
          "type": "address"
        }
      ],
      "name": "getPrinterDetails",
      "outputs": [
        {
          "components": [
            {
              "internalType": "bytes32",
              "name": "make",
              "type": "bytes32"
            },
            {
              "internalType": "bytes32",
              "name": "name",
              "type": "bytes32"
            },
            {
              "internalType": "uint256",
              "name": "strength",
              "type": "uint256"
            },
            {
              "internalType": "uint256",
              "name": "flexibility",
              "type": "uint256"
            },
            {
              "internalType": "uint256",
              "name": "durability",
              "type": "uint256"
            },
            {
              "internalType": "uint256",
              "name": "difficulty",
              "type": "uint256"
            },
            {
              "internalType": "int256",
              "name": "printTemperature",
              "type": "int256"
            },
            {
              "internalType": "int256",
              "name": "bedTemperature",
              "type": "int256"
            },
            {
              "internalType": "bool",
              "name": "soluble",
              "type": "bool"
            },
            {
              "internalType": "bool",
              "name": "foodSafety",
              "type": "bool"
            }
          ],
          "internalType": "struct designVoting1.printerDetails",
          "name": "",
          "type": "tuple"
        }
      ],
      "stateMutability": "view",
      "type": "function"
    },
    {
      "inputs": [],
      "name": "getNumPrinters",
      "outputs": [
        {
          "internalType": "uint256",
          "name": "",
          "type": "uint256"
        }
      ],
      "stateMutability": "view",
      "type": "function"
    },
    {
      "inputs": [
        {
          "internalType": "address",
          "name": "player",
          "type": "address"
        }
      ],
      "name": "getBalance",
      "outputs": [
        {
          "internalType": "uint256",
          "name": "amount",
          "type": "uint256"
        }
      ],
      "stateMutability": "view",
      "type": "function"
    },
    {
      "inputs": [],
      "name": "claimTokens",
      "outputs": [],
      "stateMutability": "nonpayable",
      "type": "function"
    },
    {
      "inputs": [
        {
          "internalType": "address",
          "name": "_printerAddress",
          "type": "address"
        }
      ],
      "name": "get_printingProcess",
      "outputs": [
        {
          "components": [
            {
              "internalType": "uint256",
              "name": "startTimestamp",
              "type": "uint256"
            },
            {
              "internalType": "uint256",
              "name": "endTimestamp",
              "type": "uint256"
            },
            {
              "internalType": "bytes32",
              "name": "printingdataHash",
              "type": "bytes32"
            },
            {
              "internalType": "bytes32",
              "name": "designHash",
              "type": "bytes32"
            }
          ],
          "internalType": "struct designVoting1.printingProcess",
          "name": "",
          "type": "tuple"
        }
      ],
      "stateMutability": "view",
      "type": "function"
    },
    {
      "inputs": [
        {
          "internalType": "address",
          "name": "_printerAddress",
          "type": "address"
        },
        {
          "internalType": "uint256",
          "name": "startTimestamp",
          "type": "uint256"
        },
        {
          "internalType": "bytes32",
          "name": "designHash",
          "type": "bytes32"
        }
      ],
      "name": "printingBegin",
      "outputs": [],
      "stateMutability": "nonpayable",
      "type": "function"
    },
    {
      "inputs": [
        {
          "internalType": "address",
          "name": "_printerAddress",
          "type": "address"
        },
        {
          "internalType": "uint256",
          "name": "endTimestamp",
          "type": "uint256"
        },
        {
          "internalType": "bytes32",
          "name": "printingdataHash",
          "type": "bytes32"
        }
      ],
      "name": "end_of_printing",
      "outputs": [],
      "stateMutability": "nonpayable",
      "type": "function"
    },
    {
      "inputs": [
        {
          "internalType": "uint256",
          "name": "_designNo",
          "type": "uint256"
        },
        {
          "internalType": "address",
          "name": "_userAddress",
          "type": "address"
        },
        {
          "internalType": "address",
          "name": "_printerAddress",
          "type": "address"
        }
      ],
      "name": "isProofPresent",
      "outputs": [
        {
          "internalType": "bool",
          "name": "",
          "type": "bool"
        }
      ],
      "stateMutability": "view",
      "type": "function"
    }
  ],
  "bytecode": "0x6080604052600060055534801561001557600080fd5b506161d380620000266000396000f3fe6080604052600436106101e35760003560e01c80638bcad67211610102578063b646f5be11610095578063f6c9ea8a11610064578063f6c9ea8a14610736578063f8b2cb4f1461075f578063fb7380ac1461079c578063fbc32c60146107d9576101e3565b8063b646f5be14610696578063c8dd6ce7146106b2578063d66d6c10146106f1578063edcb27431461070d576101e3565b8063a121ba30116100d1578063a121ba30146105c8578063a5c6ea71146105f3578063a65a9eca14610630578063a67f4bf71461066d576101e3565b80638bcad672146104fa5780639348cef7146105255780639cb2f9721461054e5780639fc70e351461058b576101e3565b80634b990f871161017a57806355c9e9261161014957806355c9e9261461042a5780636b167290146104555780637125f2da14610492578063724d4924146104cf576101e3565b80634b990f871461034a578063511d53e81461038757806353093048146103c4578063532af7d214610401576101e3565b80633822a88c116101b65780633822a88c1461029057806348c54b9d146102cd5780634aae74e4146102e45780634ade585414610321576101e3565b806305fd65df146101e85780630d8320291461022557806310a51d9b1461023c57806327b5db8a14610279575b600080fd5b3480156101f457600080fd5b5061020f600480360381019061020a9190614b1d565b610816565b60405161021c91906152fd565b60405180910390f35b34801561023157600080fd5b5061023a61092a565b005b34801561024857600080fd5b50610263600480360381019061025e91906147ee565b61092c565b6040516102709190615253565b60405180910390f35b34801561028557600080fd5b5061028e6109f9565b005b34801561029c57600080fd5b506102b760048036038101906102b29190614a4a565b610bef565b6040516102c491906152e2565b60405180910390f35b3480156102d957600080fd5b506102e2610c1c565b005b3480156102f057600080fd5b5061030b6004803603810190610306919061490f565b610cbd565b60405161031891906152fd565b60405180910390f35b34801561032d57600080fd5b506103486004803603810190610343919061494f565b610d1e565b005b34801561035657600080fd5b50610371600480360381019061036c9190614b1d565b610eb5565b60405161037e91906152fd565b60405180910390f35b34801561039357600080fd5b506103ae60048036038101906103a9919061490f565b610feb565b6040516103bb9190615290565b60405180910390f35b3480156103d057600080fd5b506103eb60048036038101906103e69190614a4a565b611049565b6040516103f8919061560f565b60405180910390f35b34801561040d57600080fd5b5061042860048036038101906104239190614b1d565b6111cc565b005b34801561043657600080fd5b5061043f612b3c565b60405161044c9190615662565b60405180910390f35b34801561046157600080fd5b5061047c600480360381019061047791906147ee565b612b49565b604051610489919061562b565b60405180910390f35b34801561049e57600080fd5b506104b960048036038101906104b491906149a2565b612c29565b6040516104c69190615290565b60405180910390f35b3480156104db57600080fd5b506104e4612c38565b6040516104f19190615253565b60405180910390f35b34801561050657600080fd5b5061050f612cc6565b60405161051c9190615662565b60405180910390f35b34801561053157600080fd5b5061054c60048036038101906105479190614b1d565b612cd0565b005b34801561055a57600080fd5b50610575600480360381019061057091906147ee565b612f25565b6040516105829190615647565b60405180910390f35b34801561059757600080fd5b506105b260048036038101906105ad919061490f565b612fa6565b6040516105bf9190615275565b60405180910390f35b3480156105d457600080fd5b506105dd613011565b6040516105ea9190615662565b60405180910390f35b3480156105ff57600080fd5b5061061a60048036038101906106159190614a77565b61301e565b6040516106279190615275565b60405180910390f35b34801561063c57600080fd5b5061065760048036038101906106529190614a4a565b6130c4565b6040516106649190615662565b60405180910390f35b34801561067957600080fd5b50610694600480360381019061068f919061494f565b6130e4565b005b6106b060048036038101906106ab91906149cf565b61327b565b005b3480156106be57600080fd5b506106d960048036038101906106d491906147ee565b61360e565b6040516106e893929190615318565b60405180910390f35b61070b60048036038101906107069190614b1d565b6136e9565b005b34801561071957600080fd5b50610734600480360381019061072f919061481b565b613b9d565b005b34801561074257600080fd5b5061075d60048036038101906107589190614aca565b614099565b005b34801561076b57600080fd5b50610786600480360381019061078191906147ee565b6144fc565b6040516107939190615662565b60405180910390f35b3480156107a857600080fd5b506107c360048036038101906107be919061490f565b614548565b6040516107d091906152fd565b60405180910390f35b3480156107e557600080fd5b5061080060048036038101906107fb9190614a4a565b6145a9565b60405161080d9190615253565b60405180910390f35b600060046000848152602001908152602001600020600b015460046000858152602001908152602001600020600a015460046000868152602001908152602001600020600201546108679190615784565b6108719190615784565b82116108b2576040517f08c379a00000000000000000000000000000000000000000000000000000000081526004016108a99061552f565b60405180910390fd5b600160046000858152602001908152602001600020600601541461090b576040517f08c379a00000000000000000000000000000000000000000000000000000000081526004016109029061556f565b60405180910390fd5b60046000848152602001908152602001600020600c0154905092915050565b565b6060600d60008373ffffffffffffffffffffffffffffffffffffffff1673ffffffffffffffffffffffffffffffffffffffff1681526020019081526020016000208054806020026020016040519081016040528092919081815260200182805480156109ed57602002820191906000526020600020905b8160009054906101000a900473ffffffffffffffffffffffffffffffffffffffff1673ffffffffffffffffffffffffffffffffffffffff16815260200190600101908083116109a3575b50505050509050919050565b6000600760003373ffffffffffffffffffffffffffffffffffffffff1673ffffffffffffffffffffffffffffffffffffffff1681526020019081526020016000205414610a7b576040517f08c379a0000000000000000000000000000000000000000000000000000000008152600401610a72906154af565b60405180910390fd5b6008339080600181540180825580915050600190039060005260206000200160009091909190916101000a81548173ffffffffffffffffffffffffffffffffffffffff021916908373ffffffffffffffffffffffffffffffffffffffff1602179055506001600760003373ffffffffffffffffffffffffffffffffffffffff1673ffffffffffffffffffffffffffffffffffffffff168152602001908152602001600020819055506001600660003373ffffffffffffffffffffffffffffffffffffffff1673ffffffffffffffffffffffffffffffffffffffff168152602001908152602001600020600001819055506001600660003373ffffffffffffffffffffffffffffffffffffffff1673ffffffffffffffffffffffffffffffffffffffff168152602001908152602001600020600101819055507f668925a7bc9acb2eb96b835fa199914e30573a7a74ab45e2bb2711f31536ce05336001604051610be59291906151ca565b60405180910390a1565b600060046000838152602001908152602001600020600d0160009054906101000a900460ff169050919050565b6000610c27336144fc565b905060008111610c6c576040517f08c379a0000000000000000000000000000000000000000000000000000000008152600401610c639061540f565b60405180910390fd5b3373ffffffffffffffffffffffffffffffffffffffff167f896e034966eaaf1adc54acc0f257056febbd300c9e47182cf761982cf1f5e43082604051610cb29190615662565b60405180910390a250565b6000600660008473ffffffffffffffffffffffffffffffffffffffff1673ffffffffffffffffffffffffffffffffffffffff168152602001908152602001600020600301600083815260200190815260200160002060010154905092915050565b6001600760003373ffffffffffffffffffffffffffffffffffffffff1673ffffffffffffffffffffffffffffffffffffffff1681526020019081526020016000205414610da0576040517f08c379a0000000000000000000000000000000000000000000000000000000008152600401610d979061550f565b60405180910390fd5b6001600a60008573ffffffffffffffffffffffffffffffffffffffff1673ffffffffffffffffffffffffffffffffffffffff1681526020019081526020016000205414610e22576040517f08c379a0000000000000000000000000000000000000000000000000000000008152600401610e199061546f565b60405180910390fd5b81600c60008573ffffffffffffffffffffffffffffffffffffffff1673ffffffffffffffffffffffffffffffffffffffff1681526020019081526020016000206001018190555080600c60008573ffffffffffffffffffffffffffffffffffffffff1673ffffffffffffffffffffffffffffffffffffffff16815260200190815260200160002060020181905550505050565b600060046000848152602001908152602001600020600b015460046000858152602001908152602001600020600a01546004600086815260200190815260200160002060020154610f069190615784565b610f109190615784565b8211610f51576040517f08c379a0000000000000000000000000000000000000000000000000000000008152600401610f489061552f565b60405180910390fd5b60016004600085815260200190815260200160002060070154148015610f8d575060016004600085815260200190815260200160002060060154145b610fcc576040517f08c379a0000000000000000000000000000000000000000000000000000000008152600401610fc39061556f565b60405180910390fd5b60046000848152602001908152602001600020600c0154905092915050565b6000600660008473ffffffffffffffffffffffffffffffffffffffff1673ffffffffffffffffffffffffffffffffffffffff168152602001908152602001600020600201600083815260200190815260200160002054905092915050565b61105161464a565b60046000838152602001908152602001600020604051806101c0016040529081600082015481526020016001820160009054906101000a900473ffffffffffffffffffffffffffffffffffffffff1673ffffffffffffffffffffffffffffffffffffffff1673ffffffffffffffffffffffffffffffffffffffff16815260200160028201548152602001600382015481526020016004820160009054906101000a900473ffffffffffffffffffffffffffffffffffffffff1673ffffffffffffffffffffffffffffffffffffffff1673ffffffffffffffffffffffffffffffffffffffff1681526020016005820154815260200160068201548152602001600782015481526020016008820154815260200160098201548152602001600a8201548152602001600b8201548152602001600c8201548152602001600d820160009054906101000a900460ff1660028111156111af576111ae615b19565b5b60028111156111c1576111c0615b19565b5b815250509050919050565b600160028111156111e0576111df615b19565b5b60046000848152602001908152602001600020600d0160009054906101000a900460ff16600281111561121657611215615b19565b5b148061126857506002808111156112305761122f615b19565b5b60046000848152602001908152602001600020600d0160009054906101000a900460ff16600281111561126657611265615b19565b5b145b6112a7576040517f08c379a000000000000000000000000000000000000000000000000000000000815260040161129e906155af565b60405180910390fd5b6004600083815260200190815260200160002060010160009054906101000a900473ffffffffffffffffffffffffffffffffffffffff1673ffffffffffffffffffffffffffffffffffffffff163373ffffffffffffffffffffffffffffffffffffffff161461134b576040517f08c379a00000000000000000000000000000000000000000000000000000000081526004016113429061544f565b60405180910390fd5b600060046000848152602001908152602001600020600601541480611386575060006004600084815260200190815260200160002060070154145b6113c5576040517f08c379a00000000000000000000000000000000000000000000000000000000081526004016113bc906154cf565b60405180910390fd5b60046000838152602001908152602001600020600a015460046000848152602001908152602001600020600201546113fd9190615784565b811161143e576040517f08c379a00000000000000000000000000000000000000000000000000000000081526004016114359061534f565b60405180910390fd5b60008060005b6003600086815260200190815260200160002080549050811015611a27576001600281111561147657611475615b19565b5b60046000878152602001908152602001600020600d0160009054906101000a900460ff1660028111156114ac576114ab615b19565b5b141561169e57600660006003600088815260200190815260200160002083815481106114db576114da615b48565b5b9060005260206000200160009054906101000a900473ffffffffffffffffffffffffffffffffffffffff1673ffffffffffffffffffffffffffffffffffffffff1673ffffffffffffffffffffffffffffffffffffffff168152602001908152602001600020600001546006600060036000898152602001908152602001600020848154811061156d5761156c615b48565b5b9060005260206000200160009054906101000a900473ffffffffffffffffffffffffffffffffffffffff1673ffffffffffffffffffffffffffffffffffffffff1673ffffffffffffffffffffffffffffffffffffffff1681526020019081526020016000206001015460066000600360008a815260200190815260200160002085815481106115ff576115fe615b48565b5b9060005260206000200160009054906101000a900473ffffffffffffffffffffffffffffffffffffffff1673ffffffffffffffffffffffffffffffffffffffff1673ffffffffffffffffffffffffffffffffffffffff1681526020019081526020016000206003016000888152602001908152602001600020600001546116869190615875565b6116909190615875565b8361169b91906156f0565b92505b6002808111156116b1576116b0615b19565b5b60046000878152602001908152602001600020600d0160009054906101000a900460ff1660028111156116e7576116e6615b19565b5b14156118d9576006600060036000888152602001908152602001600020838154811061171657611715615b48565b5b9060005260206000200160009054906101000a900473ffffffffffffffffffffffffffffffffffffffff1673ffffffffffffffffffffffffffffffffffffffff1673ffffffffffffffffffffffffffffffffffffffff16815260200190815260200160002060000154600660006003600089815260200190815260200160002084815481106117a8576117a7615b48565b5b9060005260206000200160009054906101000a900473ffffffffffffffffffffffffffffffffffffffff1673ffffffffffffffffffffffffffffffffffffffff1673ffffffffffffffffffffffffffffffffffffffff1681526020019081526020016000206001015460066000600360008a8152602001908152602001600020858154811061183a57611839615b48565b5b9060005260206000200160009054906101000a900473ffffffffffffffffffffffffffffffffffffffff1673ffffffffffffffffffffffffffffffffffffffff1673ffffffffffffffffffffffffffffffffffffffff1681526020019081526020016000206003016000888152602001908152602001600020600101546118c19190615875565b6118cb9190615875565b836118d691906156f0565b92505b6006600060036000888152602001908152602001600020838154811061190257611901615b48565b5b9060005260206000200160009054906101000a900473ffffffffffffffffffffffffffffffffffffffff1673ffffffffffffffffffffffffffffffffffffffff1673ffffffffffffffffffffffffffffffffffffffff168152602001908152602001600020600001546006600060036000898152602001908152602001600020848154811061199457611993615b48565b5b9060005260206000200160009054906101000a900473ffffffffffffffffffffffffffffffffffffffff1673ffffffffffffffffffffffffffffffffffffffff1673ffffffffffffffffffffffffffffffffffffffff16815260200190815260200160002060010154611a079190615875565b82611a1291906156f0565b91508080611a1f90615a41565b915050611444565b506000816002611a379190615875565b8284611a4391906156f0565b611a4d91906157da565b90506000826002611a5e9190615875565b8385611a6a91906156f0565b611a749190615a8a565b905060006001831480611a875750838212155b15611aad57600160046000898152602001908152602001600020600c0181905550611af2565b83821215611af1577fffffffffffffffffffffffffffffffffffffffffffffffffffffffffffffffff60046000898152602001908152602001600020600c01819055505b5b60046000888152602001908152602001600020600c0154905060005b60036000898152602001908152602001600020805490508110156123fe5760016002811115611b4057611b3f615b19565b5b600460008a8152602001908152602001600020600d0160009054906101000a900460ff166002811115611b7657611b75615b19565b5b14156123eb57600060066000600360008c81526020019081526020016000208481548110611ba757611ba6615b48565b5b9060005260206000200160009054906101000a900473ffffffffffffffffffffffffffffffffffffffff1673ffffffffffffffffffffffffffffffffffffffff1673ffffffffffffffffffffffffffffffffffffffff16815260200190815260200160002060030160008a8152602001908152602001600020600001541315611edf578160066000600360008c81526020019081526020016000208481548110611c5457611c53615b48565b5b9060005260206000200160009054906101000a900473ffffffffffffffffffffffffffffffffffffffff1673ffffffffffffffffffffffffffffffffffffffff1673ffffffffffffffffffffffffffffffffffffffff16815260200190815260200160002060030160008a815260200190815260200160002060000154611cdb9190615875565b60066000600360008c81526020019081526020016000208481548110611d0457611d03615b48565b5b9060005260206000200160009054906101000a900473ffffffffffffffffffffffffffffffffffffffff1673ffffffffffffffffffffffffffffffffffffffff1673ffffffffffffffffffffffffffffffffffffffff1681526020019081526020016000206000016000828254611d7b91906156f0565b925050819055508160066000600360008c81526020019081526020016000208481548110611dac57611dab615b48565b5b9060005260206000200160009054906101000a900473ffffffffffffffffffffffffffffffffffffffff1673ffffffffffffffffffffffffffffffffffffffff1673ffffffffffffffffffffffffffffffffffffffff16815260200190815260200160002060030160008a815260200190815260200160002060000154611e339190615875565b60066000600360008c81526020019081526020016000208481548110611e5c57611e5b615b48565b5b9060005260206000200160009054906101000a900473ffffffffffffffffffffffffffffffffffffffff1673ffffffffffffffffffffffffffffffffffffffff1673ffffffffffffffffffffffffffffffffffffffff1681526020019081526020016000206001016000828254611ed39190615784565b925050819055506123ea565b600060066000600360008c81526020019081526020016000208481548110611f0a57611f09615b48565b5b9060005260206000200160009054906101000a900473ffffffffffffffffffffffffffffffffffffffff1673ffffffffffffffffffffffffffffffffffffffff1673ffffffffffffffffffffffffffffffffffffffff16815260200190815260200160002060030160008a8152602001908152602001600020600101541315612242578160066000600360008c81526020019081526020016000208481548110611fb757611fb6615b48565b5b9060005260206000200160009054906101000a900473ffffffffffffffffffffffffffffffffffffffff1673ffffffffffffffffffffffffffffffffffffffff1673ffffffffffffffffffffffffffffffffffffffff16815260200190815260200160002060030160008a81526020019081526020016000206001015461203e9190615875565b60066000600360008c8152602001908152602001600020848154811061206757612066615b48565b5b9060005260206000200160009054906101000a900473ffffffffffffffffffffffffffffffffffffffff1673ffffffffffffffffffffffffffffffffffffffff1673ffffffffffffffffffffffffffffffffffffffff16815260200190815260200160002060000160008282546120de91906156f0565b925050819055508160066000600360008c8152602001908152602001600020848154811061210f5761210e615b48565b5b9060005260206000200160009054906101000a900473ffffffffffffffffffffffffffffffffffffffff1673ffffffffffffffffffffffffffffffffffffffff1673ffffffffffffffffffffffffffffffffffffffff16815260200190815260200160002060030160008a8152602001908152602001600020600101546121969190615875565b60066000600360008c815260200190815260200160002084815481106121bf576121be615b48565b5b9060005260206000200160009054906101000a900473ffffffffffffffffffffffffffffffffffffffff1673ffffffffffffffffffffffffffffffffffffffff1673ffffffffffffffffffffffffffffffffffffffff16815260200190815260200160002060010160008282546122369190615784565b925050819055506123e9565b817fffffffffffffffffffffffffffffffffffffffffffffffffffffffffffffffff61226e9190615875565b60066000600360008c8152602001908152602001600020848154811061229757612296615b48565b5b9060005260206000200160009054906101000a900473ffffffffffffffffffffffffffffffffffffffff1673ffffffffffffffffffffffffffffffffffffffff1673ffffffffffffffffffffffffffffffffffffffff168152602001908152602001600020600001600082825461230e91906156f0565b92505081905550817fffffffffffffffffffffffffffffffffffffffffffffffffffffffffffffffff6123419190615875565b60066000600360008c8152602001908152602001600020848154811061236a57612369615b48565b5b9060005260206000200160009054906101000a900473ffffffffffffffffffffffffffffffffffffffff1673ffffffffffffffffffffffffffffffffffffffff1673ffffffffffffffffffffffffffffffffffffffff16815260200190815260200160002060010160008282546123e19190615784565b925050819055505b5b5b80806123f690615a41565b915050611b0e565b5060005b6003600089815260200190815260200160002080549050811015612955576001600281111561243457612433615b19565b5b600460008a8152602001908152602001600020600d0160009054906101000a900460ff16600281111561246a57612469615b19565b5b14156126305760018260066000600360008d8152602001908152602001600020858154811061249c5761249b615b48565b5b9060005260206000200160009054906101000a900473ffffffffffffffffffffffffffffffffffffffff1673ffffffffffffffffffffffffffffffffffffffff1673ffffffffffffffffffffffffffffffffffffffff16815260200190815260200160002060030160008b8152602001908152602001600020600001546125239190615875565b141561262b57600460008981526020019081526020016000206009015460066000600360008c8152602001908152602001600020848154811061256957612568615b48565b5b9060005260206000200160009054906101000a900473ffffffffffffffffffffffffffffffffffffffff1673ffffffffffffffffffffffffffffffffffffffff1673ffffffffffffffffffffffffffffffffffffffff16815260200190815260200160002060060160008282546125e09190615784565b925050819055506004600089815260200190815260200160002060090154600460008a81526020019081526020016000206003016000828254612623919061598c565b925050819055505b612942565b60028081111561264357612642615b19565b5b600460008a8152602001908152602001600020600d0160009054906101000a900460ff16600281111561267957612678615b19565b5b141561283f5760018260066000600360008d815260200190815260200160002085815481106126ab576126aa615b48565b5b9060005260206000200160009054906101000a900473ffffffffffffffffffffffffffffffffffffffff1673ffffffffffffffffffffffffffffffffffffffff1673ffffffffffffffffffffffffffffffffffffffff16815260200190815260200160002060030160008b8152602001908152602001600020600101546127329190615875565b141561283a57600460008981526020019081526020016000206009015460066000600360008c8152602001908152602001600020848154811061277857612777615b48565b5b9060005260206000200160009054906101000a900473ffffffffffffffffffffffffffffffffffffffff1673ffffffffffffffffffffffffffffffffffffffff1673ffffffffffffffffffffffffffffffffffffffff16815260200190815260200160002060060160008282546127ef9190615784565b925050819055506004600089815260200190815260200160002060090154600460008a81526020019081526020016000206003016000828254612832919061598c565b925050819055505b612941565b600460008981526020019081526020016000206008015460066000600360008c8152602001908152602001600020848154811061287f5761287e615b48565b5b9060005260206000200160009054906101000a900473ffffffffffffffffffffffffffffffffffffffff1673ffffffffffffffffffffffffffffffffffffffff1673ffffffffffffffffffffffffffffffffffffffff16815260200190815260200160002060060160008282546128f6919061598c565b925050819055506004600089815260200190815260200160002060080154600460008a815260200190815260200160002060030160008282546129399190615784565b925050819055505b5b808061294d90615a41565b915050612402565b506001600281111561296a57612969615b19565b5b60046000898152602001908152602001600020600d0160009054906101000a900460ff1660028111156129a05761299f615b19565b5b14156129c357600160046000898152602001908152602001600020600601819055505b6002808111156129d6576129d5615b19565b5b60046000898152602001908152602001600020600d0160009054906101000a900460ff166002811115612a0c57612a0b615b19565b5b1415612a2f57600160046000898152602001908152602001600020600701819055505b600160046000898152602001908152602001600020600c0154148015612a9c575060016002811115612a6457612a63615b19565b5b60046000898152602001908152602001600020600d0160009054906101000a900460ff166002811115612a9a57612a99615b19565b5b145b15612afc57600260046000898152602001908152602001600020600d0160006101000a81548160ff02191690836002811115612adb57612ada615b19565b5b02179055508560046000898152602001908152602001600020600201819055505b7fbd9785037e1262e9a00f3274afb543f70050db0c0a99864959f281c5348621e981604051612b2b91906152fd565b60405180910390a150505050505050565b6000600880549050905090565b612b516146fa565b600960008373ffffffffffffffffffffffffffffffffffffffff1673ffffffffffffffffffffffffffffffffffffffff1681526020019081526020016000206040518061014001604052908160008201548152602001600182015481526020016002820154815260200160038201548152602001600482015481526020016005820154815260200160068201548152602001600782015481526020016008820160009054906101000a900460ff161515151581526020016008820160019054906101000a900460ff1615151515815250509050919050565b60008082905080915050919050565b60606008805480602002602001604051908101604052809291908181526020018280548015612cbc57602002820191906000526020600020905b8160009054906101000a900473ffffffffffffffffffffffffffffffffffffffff1673ffffffffffffffffffffffffffffffffffffffff1681526020019060010190808311612c72575b5050505050905090565b6000600554905090565b60046000838152602001908152602001600020600a01546004600084815260200190815260200160002060020154612d089190615784565b8111612d49576040517f08c379a0000000000000000000000000000000000000000000000000000000008152600401612d409061534f565b60405180910390fd5b60016002811115612d5d57612d5c615b19565b5b60046000848152602001908152602001600020600d0160009054906101000a900460ff166002811115612d9357612d92615b19565b5b1415612e19576001600660003373ffffffffffffffffffffffffffffffffffffffff1673ffffffffffffffffffffffffffffffffffffffff168152602001908152602001600020600301600084815260200190815260200160002060020160016101000a81548160ff02191690836001811115612e1357612e12615b19565b5b02179055505b600280811115612e2c57612e2b615b19565b5b60046000848152602001908152602001600020600d0160009054906101000a900460ff166002811115612e6257612e61615b19565b5b1415612ee8576001600660003373ffffffffffffffffffffffffffffffffffffffff1673ffffffffffffffffffffffffffffffffffffffff168152602001908152602001600020600301600084815260200190815260200160002060020160026101000a81548160ff02191690836001811115612ee257612ee1615b19565b5b02179055505b7fdef66c77ffe1a02e4aa7028bba0b6e9919e3f7cbfc96c028d7f06e84db64a0138233604051612f1992919061567d565b60405180910390a15050565b612f2d614757565b600c60008373ffffffffffffffffffffffffffffffffffffffff1673ffffffffffffffffffffffffffffffffffffffff1681526020019081526020016000206040518060800160405290816000820154815260200160018201548152602001600282015481526020016003820154815250509050919050565b6000600660008473ffffffffffffffffffffffffffffffffffffffff1673ffffffffffffffffffffffffffffffffffffffff168152602001908152602001600020600401600083815260200190815260200160002060009054906101000a900460ff16905092915050565b6000600b80549050905090565b60006001600085815260200190815260200160002060008473ffffffffffffffffffffffffffffffffffffffff1673ffffffffffffffffffffffffffffffffffffffff16815260200190815260200160002060008373ffffffffffffffffffffffffffffffffffffffff1673ffffffffffffffffffffffffffffffffffffffff16815260200190815260200160002060009054906101000a900460ff1690509392505050565b600060036000838152602001908152602001600020805490509050919050565b6001600760003373ffffffffffffffffffffffffffffffffffffffff1673ffffffffffffffffffffffffffffffffffffffff1681526020019081526020016000205414613166576040517f08c379a000000000000000000000000000000000000000000000000000000000815260040161315d9061550f565b60405180910390fd5b6001600a60008573ffffffffffffffffffffffffffffffffffffffff1673ffffffffffffffffffffffffffffffffffffffff16815260200190815260200160002054146131e8576040517f08c379a00000000000000000000000000000000000000000000000000000000081526004016131df9061546f565b60405180910390fd5b81600c60008573ffffffffffffffffffffffffffffffffffffffff1673ffffffffffffffffffffffffffffffffffffffff1681526020019081526020016000206000018190555080600c60008573ffffffffffffffffffffffffffffffffffffffff1673ffffffffffffffffffffffffffffffffffffffff16815260200190815260200160002060030181905550505050565b6001600760003373ffffffffffffffffffffffffffffffffffffffff1673ffffffffffffffffffffffffffffffffffffffff16815260200190815260200160002054146132fd576040517f08c379a00000000000000000000000000000000000000000000000000000000081526004016132f49061536f565b60405180910390fd5b60008311613340576040517f08c379a0000000000000000000000000000000000000000000000000000000008152600401613337906154ef565b60405180910390fd5b823414613382576040517f08c379a0000000000000000000000000000000000000000000000000000000008152600401613379906155cf565b60405180910390fd5b60006005549050856004600083815260200190815260200160002060000181905550336004600083815260200190815260200160002060010160006101000a81548173ffffffffffffffffffffffffffffffffffffffff021916908373ffffffffffffffffffffffffffffffffffffffff160217905550846004600083815260200190815260200160002060020181905550836004600083815260200190815260200160002060030181905550600160046000838152602001908152602001600020600d0160006101000a81548160ff0219169083600281111561346957613468615b19565b5b0217905550600060046000838152602001908152602001600020600c018190555060008314156134bb57670de0b6b3a764000060046000838152602001908152602001600020600901819055506134d7565b8260046000838152602001908152602001600020600901819055505b600082141561350857670de0b6b3a76400006004600083815260200190815260200160002060080181905550613524565b8160046000838152602001908152602001600020600801819055505b614e2060046000838152602001908152602001600020600a018190555060006004600083815260200190815260200160002060050181905550600060046000838152602001908152602001600020600601819055506000600460008381526020019081526020016000206007018190555060016005546135a49190615784565b6005819055506000600e600083815260200190815260200160002090508481600001819055507f6de6dd265a66870495db47d80136a9abe827e8d8f6f7dc77dc787a810a99d2268783336040516135fd939291906152ab565b60405180910390a150505050505050565b6000806000600660008573ffffffffffffffffffffffffffffffffffffffff1673ffffffffffffffffffffffffffffffffffffffff16815260200190815260200160002060000154600660008673ffffffffffffffffffffffffffffffffffffffff1673ffffffffffffffffffffffffffffffffffffffff16815260200190815260200160002060010154600660008773ffffffffffffffffffffffffffffffffffffffff1673ffffffffffffffffffffffffffffffffffffffff168152602001908152602001600020600601549250925092509193909250565b6001600760003373ffffffffffffffffffffffffffffffffffffffff1673ffffffffffffffffffffffffffffffffffffffff168152602001908152602001600020541461376b576040517f08c379a00000000000000000000000000000000000000000000000000000000081526004016137629061542f565b60405180910390fd5b600081116137ae576040517f08c379a00000000000000000000000000000000000000000000000000000000081526004016137a5906154ef565b60405180910390fd5b8034146137f0576040517f08c379a00000000000000000000000000000000000000000000000000000000081526004016137e7906153af565b60405180910390fd5b6004600083815260200190815260200160002060080154811015613849576040517f08c379a0000000000000000000000000000000000000000000000000000000008152600401613840906153ef565b60405180910390fd5b60006002600084815260200190815260200160002060003373ffffffffffffffffffffffffffffffffffffffff1673ffffffffffffffffffffffffffffffffffffffff16815260200190815260200160002054146138dc576040517f08c379a00000000000000000000000000000000000000000000000000000000081526004016138d39061538f565b60405180910390fd5b600460008381526020019081526020016000206009015460046000848152602001908152602001600020600301546139149190615844565b60036000848152602001908152602001600020805490501061396b576040517f08c379a0000000000000000000000000000000000000000000000000000000008152600401613962906155ef565b60405180910390fd5b60016002600084815260200190815260200160002060003373ffffffffffffffffffffffffffffffffffffffff1673ffffffffffffffffffffffffffffffffffffffff1681526020019081526020016000208190555060036000838152602001908152602001600020339080600181540180825580915050600190039060005260206000200160009091909190916101000a81548173ffffffffffffffffffffffffffffffffffffffff021916908373ffffffffffffffffffffffffffffffffffffffff16021790555034600660003373ffffffffffffffffffffffffffffffffffffffff1673ffffffffffffffffffffffffffffffffffffffff1681526020019081526020016000206006016000828254613a879190615784565b92505081905550600e6000838152602001908152602001600020600201339080600181540180825580915050600190039060005260206000200160009091909190916101000a81548173ffffffffffffffffffffffffffffffffffffffff021916908373ffffffffffffffffffffffffffffffffffffffff16021790555080600e600084815260200190815260200160002060010160003373ffffffffffffffffffffffffffffffffffffffff1673ffffffffffffffffffffffffffffffffffffffff168152602001908152602001600020819055507f5f142c525761e989ef9a126c95a342ee74c720a7272ea67127ed34660df2d7dc33836001604051613b919392919061521c565b60405180910390a15050565b6001600760003373ffffffffffffffffffffffffffffffffffffffff1673ffffffffffffffffffffffffffffffffffffffff1681526020019081526020016000205414613c1f576040517f08c379a0000000000000000000000000000000000000000000000000000000008152600401613c169061558f565b60405180910390fd5b89600960008d73ffffffffffffffffffffffffffffffffffffffff1673ffffffffffffffffffffffffffffffffffffffff1681526020019081526020016000206000018190555088600960008d73ffffffffffffffffffffffffffffffffffffffff1673ffffffffffffffffffffffffffffffffffffffff1681526020019081526020016000206001018190555087600960008d73ffffffffffffffffffffffffffffffffffffffff1673ffffffffffffffffffffffffffffffffffffffff1681526020019081526020016000206002018190555086600960008d73ffffffffffffffffffffffffffffffffffffffff1673ffffffffffffffffffffffffffffffffffffffff1681526020019081526020016000206003018190555085600960008d73ffffffffffffffffffffffffffffffffffffffff1673ffffffffffffffffffffffffffffffffffffffff1681526020019081526020016000206004018190555084600960008d73ffffffffffffffffffffffffffffffffffffffff1673ffffffffffffffffffffffffffffffffffffffff1681526020019081526020016000206005018190555083600960008d73ffffffffffffffffffffffffffffffffffffffff1673ffffffffffffffffffffffffffffffffffffffff1681526020019081526020016000206006018190555082600960008d73ffffffffffffffffffffffffffffffffffffffff1673ffffffffffffffffffffffffffffffffffffffff1681526020019081526020016000206007018190555081600960008d73ffffffffffffffffffffffffffffffffffffffff1673ffffffffffffffffffffffffffffffffffffffff16815260200190815260200160002060080160006101000a81548160ff02191690831515021790555080600960008d73ffffffffffffffffffffffffffffffffffffffff1673ffffffffffffffffffffffffffffffffffffffff16815260200190815260200160002060080160016101000a81548160ff021916908315150217905550600b8b9080600181540180825580915050600190039060005260206000200160009091909190916101000a81548173ffffffffffffffffffffffffffffffffffffffff021916908373ffffffffffffffffffffffffffffffffffffffff1602179055506001600a60008d73ffffffffffffffffffffffffffffffffffffffff1673ffffffffffffffffffffffffffffffffffffffff16815260200190815260200160002081905550600d60003373ffffffffffffffffffffffffffffffffffffffff1673ffffffffffffffffffffffffffffffffffffffff1681526020019081526020016000208b9080600181540180825580915050600190039060005260206000200160009091909190916101000a81548173ffffffffffffffffffffffffffffffffffffffff021916908373ffffffffffffffffffffffffffffffffffffffff1602179055507fa1d535b53fb85fad25a9639961384d4622e3876d8bdd858e779e931dd8604d2e8b8a6040516140849291906151f3565b60405180910390a15050505050505050505050565b600160028111156140ad576140ac615b19565b5b60046000858152602001908152602001600020600d0160009054906101000a900460ff1660028111156140e3576140e2615b19565b5b148061413557506002808111156140fd576140fc615b19565b5b60046000858152602001908152602001600020600d0160009054906101000a900460ff16600281111561413357614132615b19565b5b145b614174576040517f08c379a000000000000000000000000000000000000000000000000000000000815260040161416b906153cf565b60405180910390fd5b60006004600085815260200190815260200160002060050154146141cd576040517f08c379a00000000000000000000000000000000000000000000000000000000081526004016141c49061548f565b60405180910390fd5b60046000848152602001908152602001600020600b015460046000858152602001908152602001600020600a0154600460008681526020019081526020016000206002015461421c9190615784565b6142269190615784565b811115614268576040517f08c379a000000000000000000000000000000000000000000000000000000000815260040161425f9061554f565b60405180910390fd5b6001600281111561427c5761427b615b19565b5b60046000858152602001908152602001600020600d0160009054906101000a900460ff1660028111156142b2576142b1615b19565b5b14156143935781600660003373ffffffffffffffffffffffffffffffffffffffff1673ffffffffffffffffffffffffffffffffffffffff1681526020019081526020016000206003016000858152602001908152602001600020600001819055506000600660003373ffffffffffffffffffffffffffffffffffffffff1673ffffffffffffffffffffffffffffffffffffffff168152602001908152602001600020600301600085815260200190815260200160002060020160016101000a81548160ff0219169083600181111561438d5761438c615b19565b5b02179055505b600160028111156143a7576143a6615b19565b5b60046000858152602001908152602001600020600d0160009054906101000a900460ff1660028111156143dd576143dc615b19565b5b14156144be5781600660003373ffffffffffffffffffffffffffffffffffffffff1673ffffffffffffffffffffffffffffffffffffffff1681526020019081526020016000206003016000858152602001908152602001600020600101819055506000600660003373ffffffffffffffffffffffffffffffffffffffff1673ffffffffffffffffffffffffffffffffffffffff168152602001908152602001600020600301600085815260200190815260200160002060020160026101000a81548160ff021916908360018111156144b8576144b7615b19565b5b02179055505b7fdef66c77ffe1a02e4aa7028bba0b6e9919e3f7cbfc96c028d7f06e84db64a01383336040516144ef92919061567d565b60405180910390a1505050565b6000600660008373ffffffffffffffffffffffffffffffffffffffff1673ffffffffffffffffffffffffffffffffffffffff168152602001908152602001600020600601549050919050565b6000600660008473ffffffffffffffffffffffffffffffffffffffff1673ffffffffffffffffffffffffffffffffffffffff168152602001908152602001600020600301600083815260200190815260200160002060000154905092915050565b60606003600083815260200190815260200160002080548060200260200160405190810160405280929190818152602001828054801561463e57602002820191906000526020600020905b8160009054906101000a900473ffffffffffffffffffffffffffffffffffffffff1673ffffffffffffffffffffffffffffffffffffffff16815260200190600101908083116145f4575b50505050509050919050565b604051806101c0016040528060008019168152602001600073ffffffffffffffffffffffffffffffffffffffff1681526020016000815260200160008152602001600073ffffffffffffffffffffffffffffffffffffffff1681526020016000815260200160008152602001600081526020016000815260200160008152602001600081526020016000815260200160008152602001600060028111156146f4576146f3615b19565b5b81525090565b60405180610140016040528060008019168152602001600080191681526020016000815260200160008152602001600081526020016000815260200160008152602001600081526020016000151581526020016000151581525090565b6040518060800160405280600081526020016000815260200160008019168152602001600080191681525090565b6000813590506147948161612a565b92915050565b6000813590506147a981616141565b92915050565b6000813590506147be81616158565b92915050565b6000813590506147d38161616f565b92915050565b6000813590506147e881616186565b92915050565b60006020828403121561480457614803615b77565b5b600061481284828501614785565b91505092915050565b60008060008060008060008060008060006101608c8e03121561484157614840615b77565b5b600061484f8e828f01614785565b9b505060206148608e828f016147af565b9a505060406148718e828f016147af565b99505060606148828e828f016147d9565b98505060806148938e828f016147d9565b97505060a06148a48e828f016147d9565b96505060c06148b58e828f016147d9565b95505060e06148c68e828f016147c4565b9450506101006148d88e828f016147c4565b9350506101206148ea8e828f0161479a565b9250506101406148fc8e828f0161479a565b9150509295989b509295989b9093969950565b6000806040838503121561492657614925615b77565b5b600061493485828601614785565b9250506020614945858286016147d9565b9150509250929050565b60008060006060848603121561496857614967615b77565b5b600061497686828701614785565b9350506020614987868287016147d9565b9250506040614998868287016147af565b9150509250925092565b6000602082840312156149b8576149b7615b77565b5b60006149c6848285016147af565b91505092915050565b600080600080600060a086880312156149eb576149ea615b77565b5b60006149f9888289016147af565b9550506020614a0a888289016147d9565b9450506040614a1b888289016147d9565b9350506060614a2c888289016147d9565b9250506080614a3d888289016147d9565b9150509295509295909350565b600060208284031215614a6057614a5f615b77565b5b6000614a6e848285016147d9565b91505092915050565b600080600060608486031215614a9057614a8f615b77565b5b6000614a9e868287016147d9565b9350506020614aaf86828701614785565b9250506040614ac086828701614785565b9150509250925092565b600080600060608486031215614ae357614ae2615b77565b5b6000614af1868287016147d9565b9350506020614b02868287016147c4565b9250506040614b13868287016147d9565b9150509250925092565b60008060408385031215614b3457614b33615b77565b5b6000614b42858286016147d9565b9250506020614b53858286016147d9565b9150509250929050565b6000614b698383614b75565b60208301905092915050565b614b7e816159c0565b82525050565b614b8d816159c0565b82525050565b6000614b9e826156b6565b614ba881856156ce565b9350614bb3836156a6565b8060005b83811015614be4578151614bcb8882614b5d565b9750614bd6836156c1565b925050600181019050614bb7565b5085935050505092915050565b614bfa816159d2565b82525050565b614c09816159d2565b82525050565b614c18816159de565b82525050565b614c27816159de565b82525050565b614c3681615a2f565b82525050565b614c4581615a2f565b82525050565b614c54816159fb565b82525050565b614c63816159fb565b82525050565b6000614c766030836156df565b9150614c8182615b7c565b604082019050919050565b6000614c996010836156df565b9150614ca482615bcb565b602082019050919050565b6000614cbc601a836156df565b9150614cc782615bf4565b602082019050919050565b6000614cdf602f836156df565b9150614cea82615c1d565b604082019050919050565b6000614d02601e836156df565b9150614d0d82615c6c565b602082019050919050565b6000614d256032836156df565b9150614d3082615c95565b604082019050919050565b6000614d486013836156df565b9150614d5382615ce4565b602082019050919050565b6000614d6b601f836156df565b9150614d7682615d0d565b602082019050919050565b6000614d8e602b836156df565b9150614d9982615d36565b604082019050919050565b6000614db16032836156df565b9150614dbc82615d85565b604082019050919050565b6000614dd46011836156df565b9150614ddf82615dd4565b602082019050919050565b6000614df76023836156df565b9150614e0282615dfd565b604082019050919050565b6000614e1a6038836156df565b9150614e2582615e4c565b604082019050919050565b6000614e3d6025836156df565b9150614e4882615e9b565b604082019050919050565b6000614e606030836156df565b9150614e6b82615eea565b604082019050919050565b6000614e836025836156df565b9150614e8e82615f39565b604082019050919050565b6000614ea66015836156df565b9150614eb182615f88565b602082019050919050565b6000614ec96024836156df565b9150614ed482615fb1565b604082019050919050565b6000614eec6029836156df565b9150614ef782616000565b604082019050919050565b6000614f0f6010836156df565b9150614f1a8261604f565b602082019050919050565b6000614f32602f836156df565b9150614f3d82616078565b604082019050919050565b6000614f556023836156df565b9150614f60826160c7565b604082019050919050565b6101c082016000820151614f826000850182614c0f565b506020820151614f956020850182614b75565b506040820151614fa860408501826151ac565b506060820151614fbb60608501826151ac565b506080820151614fce6080850182614b75565b5060a0820151614fe160a08501826151ac565b5060c0820151614ff460c08501826151ac565b5060e082015161500760e08501826151ac565b5061010082015161501c6101008501826151ac565b506101208201516150316101208501826151ac565b506101408201516150466101408501826151ac565b5061016082015161505b6101608501826151ac565b50610180820151615070610180850182614c4b565b506101a08201516150856101a0850182614c2d565b50505050565b610140820160008201516150a26000850182614c0f565b5060208201516150b56020850182614c0f565b5060408201516150c860408501826151ac565b5060608201516150db60608501826151ac565b5060808201516150ee60808501826151ac565b5060a082015161510160a08501826151ac565b5060c082015161511460c0850182614c4b565b5060e082015161512760e0850182614c4b565b5061010082015161513c610100850182614bf1565b50610120820151615151610120850182614bf1565b50505050565b60808201600082015161516d60008501826151ac565b50602082015161518060208501826151ac565b5060408201516151936040850182614c0f565b5060608201516151a66060850182614c0f565b50505050565b6151b581615a25565b82525050565b6151c481615a25565b82525050565b60006040820190506151df6000830185614b84565b6151ec6020830184614c00565b9392505050565b60006040820190506152086000830185614b84565b6152156020830184614c1e565b9392505050565b60006060820190506152316000830186614b84565b61523e60208301856151bb565b61524b6040830184614c00565b949350505050565b6000602082019050818103600083015261526d8184614b93565b905092915050565b600060208201905061528a6000830184614c00565b92915050565b60006020820190506152a56000830184614c1e565b92915050565b60006060820190506152c06000830186614c1e565b6152cd60208301856151bb565b6152da6040830184614b84565b949350505050565b60006020820190506152f76000830184614c3c565b92915050565b60006020820190506153126000830184614c5a565b92915050565b600060608201905061532d6000830186614c5a565b61533a60208301856151bb565b61534760408301846151bb565b949350505050565b6000602082019050818103600083015261536881614c69565b9050919050565b6000602082019050818103600083015261538881614c8c565b9050919050565b600060208201905081810360008301526153a881614caf565b9050919050565b600060208201905081810360008301526153c881614cd2565b9050919050565b600060208201905081810360008301526153e881614cf5565b9050919050565b6000602082019050818103600083015261540881614d18565b9050919050565b6000602082019050818103600083015261542881614d3b565b9050919050565b6000602082019050818103600083015261544881614d5e565b9050919050565b6000602082019050818103600083015261546881614d81565b9050919050565b6000602082019050818103600083015261548881614da4565b9050919050565b600060208201905081810360008301526154a881614dc7565b9050919050565b600060208201905081810360008301526154c881614dea565b9050919050565b600060208201905081810360008301526154e881614e0d565b9050919050565b6000602082019050818103600083015261550881614e30565b9050919050565b6000602082019050818103600083015261552881614e53565b9050919050565b6000602082019050818103600083015261554881614e76565b9050919050565b6000602082019050818103600083015261556881614e99565b9050919050565b6000602082019050818103600083015261558881614ebc565b9050919050565b600060208201905081810360008301526155a881614edf565b9050919050565b600060208201905081810360008301526155c881614f02565b9050919050565b600060208201905081810360008301526155e881614f25565b9050919050565b6000602082019050818103600083015261560881614f48565b9050919050565b60006101c0820190506156256000830184614f6b565b92915050565b600061014082019050615641600083018461508b565b92915050565b600060808201905061565c6000830184615157565b92915050565b600060208201905061567760008301846151bb565b92915050565b600060408201905061569260008301856151bb565b61569f6020830184614b84565b9392505050565b6000819050602082019050919050565b600081519050919050565b6000602082019050919050565b600082825260208201905092915050565b600082825260208201905092915050565b60006156fb826159fb565b9150615706836159fb565b9250817f7fffffffffffffffffffffffffffffffffffffffffffffffffffffffffffffff0383136000831215161561574157615740615abb565b5b817f800000000000000000000000000000000000000000000000000000000000000003831260008312161561577957615778615abb565b5b828201905092915050565b600061578f82615a25565b915061579a83615a25565b9250827fffffffffffffffffffffffffffffffffffffffffffffffffffffffffffffffff038211156157cf576157ce615abb565b5b828201905092915050565b60006157e5826159fb565b91506157f0836159fb565b925082615800576157ff615aea565b5b600160000383147f80000000000000000000000000000000000000000000000000000000000000008314161561583957615838615abb565b5b828205905092915050565b600061584f82615a25565b915061585a83615a25565b92508261586a57615869615aea565b5b828204905092915050565b6000615880826159fb565b915061588b836159fb565b9250827f7fffffffffffffffffffffffffffffffffffffffffffffffffffffffffffffff04821160008413600084131616156158ca576158c9615abb565b5b817f8000000000000000000000000000000000000000000000000000000000000000058312600084126000841316161561590757615906615abb565b5b827f8000000000000000000000000000000000000000000000000000000000000000058212600084136000841216161561594457615943615abb565b5b827f7fffffffffffffffffffffffffffffffffffffffffffffffffffffffffffffff058212600084126000841216161561598157615980615abb565b5b828202905092915050565b600061599782615a25565b91506159a283615a25565b9250828210156159b5576159b4615abb565b5b828203905092915050565b60006159cb82615a05565b9050919050565b60008115159050919050565b6000819050919050565b60008190506159f682616116565b919050565b6000819050919050565b600073ffffffffffffffffffffffffffffffffffffffff82169050919050565b6000819050919050565b6000615a3a826159e8565b9050919050565b6000615a4c82615a25565b91507fffffffffffffffffffffffffffffffffffffffffffffffffffffffffffffffff821415615a7f57615a7e615abb565b5b600182019050919050565b6000615a95826159fb565b9150615aa0836159fb565b925082615ab057615aaf615aea565b5b828207905092915050565b7f4e487b7100000000000000000000000000000000000000000000000000000000600052601160045260246000fd5b7f4e487b7100000000000000000000000000000000000000000000000000000000600052601260045260246000fd5b7f4e487b7100000000000000000000000000000000000000000000000000000000600052602160045260246000fd5b7f4e487b7100000000000000000000000000000000000000000000000000000000600052603260045260246000fd5b600080fd5b7f54686520726573756c742063616e6e6f742062652072657665616c656420626560008201527f666f726520746865206578706972792e00000000000000000000000000000000602082015250565b7f4f7065726174696f6e2064656e69656400000000000000000000000000000000600082015250565b7f506c6179657220616c726561647920726567697374657265642e000000000000600082015250565b7f54686520726567697374726174696f6e206469646e277420726563656976652060008201527f74686520636f6d6d69746d656e742e0000000000000000000000000000000000602082015250565b7f4e6f20766f74696e672061766961626c6520666f722064657369676e2e200000600082015250565b7f54686520636f6d6d69746d656e742073686f756c64206265206772656174657260008201527f207468616e207468652070656e616c74792e0000000000000000000000000000602082015250565b7f4e6f20636c61696d61626c6520746f6b656e7300000000000000000000000000600082015250565b7f506c61796572206e6f7420616464656420746f207468652073797374656d2e00600082015250565b7f4f6e6c792074686520616e6e6f756e6365722063616e2063616c63756c61746560008201527f2074686520726573756c74000000000000000000000000000000000000000000602082015250565b7f4f6e6c792070726f6f662066726f6d206120726567697374657265642070726960008201527f6e7465722063616e2062652061646465642e0000000000000000000000000000602082015250565b7f4f7065726174696f6e206661696c65642e000000000000000000000000000000600082015250565b7f506c6179657220616c726561647920616464656420746f20746865207379737460008201527f656d2e0000000000000000000000000000000000000000000000000000000000602082015250565b7f54686520766f74696e6720697320616c72656164792066696e6973686564206160008201527f6e6420726573756c747320617265206465636c617265642e0000000000000000602082015250565b7f54686520636f6d6d69746d656e742073686f756c64206265206d6f726520746860008201527f616e20302e000000000000000000000000000000000000000000000000000000602082015250565b7f4f6e6c79207265676973746572656420706c617965722063616e20616464207060008201527f726f6f66206f66207072696e7465722e00000000000000000000000000000000602082015250565b7f5468652074696d6520706572696f6420686173206e6f7420657870697265642060008201527f7965742e20000000000000000000000000000000000000000000000000000000602082015250565b7f5468652074696d652068617320657870697265642e0000000000000000000000600082015250565b7f54686520726573756c7420686173206e6f7420796574206265656e207265766560008201527f616c656400000000000000000000000000000000000000000000000000000000602082015250565b7f4f6e6c79207265676973746572656420706c617965722063616e20616464206160008201527f207072696e7465722e0000000000000000000000000000000000000000000000602082015250565b7f4f7065726174696f6e206661696c656400000000000000000000000000000000600082015250565b7f54686520616e6e6f756e63656d656e74206469646e277420726563656976652060008201527f74686520636f6d6d69746d656e742e0000000000000000000000000000000000602082015250565b7f4e6f206d6f726520726567697374726174696f6e73206172652061636365707460008201527f65642e0000000000000000000000000000000000000000000000000000000000602082015250565b6003811061612757616126615b19565b5b50565b616133816159c0565b811461613e57600080fd5b50565b61614a816159d2565b811461615557600080fd5b50565b616161816159de565b811461616c57600080fd5b50565b616178816159fb565b811461618357600080fd5b50565b61618f81615a25565b811461619a57600080fd5b5056fea2646970667358221220560c9b9aa5a1c2c8d9bde1318377d4c7f4cc921286a685d64ad25d47f514815164736f6c63430008070033",
  "immutableReferences": {},
  "source": "/*# coding=utf-8\n############################################################################################\n##\n# Copyright (C) 2021-2022 Nachiket Tapas,Michele Arena\n##\n# Licensed under the Apache License, Version 2.0 (the \"License\");\n# you may not use this file except in compliance with the License.\n# You may obtain a copy of the License at\n##\n# http://www.apache.org/licenses/LICENSE-2.0\n##\n# Unless required by applicable law or agreed to in writing, software\n# distributed under the License is distributed on an \"AS IS\" BASIS,\n# WITHOUT WARRANTIES OR CONDITIONS OF ANY KIND, either express or implied.\n# See the License for the specific language governing permissions and\n# limitations under the License.\n##\n############################################################################################\n*/\n\n\n/**\n * @file marketplace.sol\n * @author Nachiket Tapas <ntapas@unime.it>\n * @date created 01 Jun 2020\n * @date last modified 09 Jul 2020\n * @SPDX-License-Identifier: UNLICENSED\n */\n//TODO FARE LA CLAIM PER LE PERSONE CHE HANNO UN BALANCE POSITIVO\n//import { AntoTokenSale } from \"./AntoTokenSale.sol\";\n//import { TestToken } from \"./TestToken.sol\";\npragma solidity >=0.4.22 <0.9.0;\npragma experimental ABIEncoderV2;\n\ncontract designVoting1{\n\n    //TestToken public ContractToken;\n    //AntoTokenSale public SaleContract;\n    // The status tells the state of the voting on the design\n    // 0: voting\n    // 1: finished\n\n//  New variable for identify the voting stage and\n//  if the user has revealed or not the vote\n    enum votingState{none,first,second}\n    enum revealVote{noReveal,reveal}\n   \n\n    struct designState\n    {\n        bytes32 filehash;\n        address vendor;\n        uint256 timestamp;\n        uint256 balance;\n        address manager;\n        uint256 status;//to be removed\n        uint256 status1;\n        uint256 status2;\n        uint256 taup;\n        uint256 taur;\n        uint256 deltaExp;\n        uint256 deltaReveal;\n        int result;\n        votingState phase;\n    }\n\n\n    \n\n    //The vote is considered as follows\n    // 0 : no vote. maybe due to time expired\n    // -1 : invalid design\n    // 1 : valid design\n\n\n\n    //the struct used for the vote that every user will make\n    //for a specific design\n    struct votingStage{\n        //private\n        int votingStage1;\n        int  votingStage2;\n        //private\n        votingState phase;\n        revealVote reveal_1;\n        revealVote reveal_2;\n\n\n    }\n\n    struct playerState\n    {\n        int256 reputation;\n        uint256 weight;\n        mapping ( uint256 => bytes32 ) commitments;\n        //mapping ( uint256 =>int ) votes;\n        //the associative array designNo voting struct\n        mapping ( uint256 =>votingStage) votes1;\n\n\n\n\n        mapping ( uint256 => bool ) received;\n        uint256[] designes;\n        uint256 balance;\n    }\n\n    //information about the print begin,the print end and design name\n    struct printingProcess\n    {\n\n        uint256 startTimestamp;\n        uint256 endTimestamp;\n        bytes32 printingdataHash;\n        bytes32 designHash;\n\n    }\n\n    //Printer details\n    struct printerDetails\n    {\n        bytes32 make;\n        bytes32 name;\n        uint strength;    // values: Very High = 3, High = 2, Medium =1 , Low = 0\n        uint flexibility; // values: Very High = 3, High = 2, Medium =1 , Low = 0\n        uint durability;  // values: Very High = 3, High = 2, Medium =1 , Low = 0\n        uint difficulty;  // values: Very High = 3, High = 2, Medium =1 , Low = 0\n        int printTemperature;\n        int bedTemperature;\n        bool soluble;\n        bool foodSafety;\n    }\n\n    //Proof of printing\n    //This structure contains the player address who prints the design\n    //using the printer addressed by printer address. The proof of file\n    //is represented by IPFS file hash.\n    mapping ( uint => mapping ( address => mapping ( address => bytes32 ))) private printingProof;\n\n    //Mapping if the proof exists\n    mapping ( uint => mapping ( address => mapping ( address => bool ))) private isProof;\n\n    //Mapping of design identified by design index and collection of players indexes registered to vote\n    mapping (uint256 => mapping (address => uint)) private checkPlayers;\n    mapping (uint256 => address[]) private regPlayers;\n\n    //Design details indexed by design index\n    mapping (uint256 => designState) private designes;\n    uint256 private numDesignes = 0;\n\n    //Player details indexed by player address\n    mapping (address => playerState) private players;\n    mapping (address => uint) private isPlayer;\n    address[] private playerAddresses;\n\n    //Printer details indexed by printer address\n    mapping (address => printerDetails) private printers;\n    mapping (address => uint) private isPrinter;\n    address[] private printerAddresses;\n\n\n    //Printing procesthe printer addresss indexed by\n    mapping (address => printingProcess) private printersWork;\n\n    //Printer player mapping\n    mapping (address => address[]) private userPrinters;\n\n    //Mapping to track number of token for design\n    mapping(uint256 => designToken) trackDesignToken;\n    //address[] private playerDesign;\n\n    struct designToken {\n\n    uint256 committment;\n    mapping(address => uint256) stakes;\n    address[] totalPlayers;\n}\n\n    //Notifications for successful completion of events\n    event newDesignAvailable(bytes32 file_hash, uint256 design_number, address creator);\n    event resultCalculated(bytes32 file_hash, uint256 design_number, address creator);\n    event newPlayerAddition(address player_address, bool status);\n    event newPlayerRegistration(address player_address, uint256 design_number, bool status);\n    event playerDesignReceived(uint256 design_number, address player_address);\n    event playerCommitted(uint256 design_number, address player_address);\n    event playerRevealed(uint256 design_number, address player_address);\n    event votingResult(int result);\n    event phase2Begin(uint256 design_number,address vendor,uint256 time);\n\n    event newPrinterAddition(address printer, bytes32 name);\n    event proofAdded( uint256 design_number, address player_address, address printer_address);\n\n    event tempOutput(address _output);//, uint256 timestamp, uint256 expiry, uint256 balance);\n\n\n    function prova(bytes32 prova1)pure public returns(bytes32) {\n        bytes32 gianni;\n        gianni = prova1;\n        return gianni;\n    }\n\n\n\n\n\n\n    //The commitment is send via the value field in the remix. If the sent value matches the commitment parameter,\n    //the contract announces the availability of new design for verification.\n    function announce(bytes32 _fileHash, uint256 _timestamp, uint256 _commitment, uint256 _taur, uint256 _taup /*uint256 _deltaExp, uint256 _deltaReveal*/)\n        public payable\n    {\n\n\n        require(isPlayer[msg.sender]==1,\"Operation denied\");\n        //Check for positive commitment\n        require(_commitment > 0, \"The commitment should be more than 0.\");\n\n        //Check if the commitment parameter matches the commiment sent to the contract.\n        require(msg.value == _commitment, \"The announcement didn't receive the commitment.\"); //chiedere a nachiket\n        //require(_commitment <= ContractToken.balanceOf(msg.sender), \"doesn't have enough tokens\");\n\n        //Design index\n        uint256 j = numDesignes;\n\n        //Design file hash from IPFS\n        designes[j].filehash = _fileHash;\n\n        //Design creator\n        designes[j].vendor = msg.sender;\n\n        //Creation timestamp received from the js script\n        designes[j].timestamp = _timestamp;\n\n        //Commitment\n        designes[j].balance = _commitment;\n\n        //Set a manager\n        //designes[j].manager = _manager;\n\n        //Set the begining of the voting phase\n        designes[j].phase=votingState.first;\n\n        //Set result to zero\n        designes[j].result = 0;\n\n        //Setting the value for reward\n        if (_taur == 0) {\n            designes[j].taur = 1000000000000000000; //ContractToken.totalSupply();\n        } else {\n            designes[j].taur = _taur;\n        }\n\n        //Setting the value for penalty\n        if (_taup == 0) {\n            designes[j].taup = 1000000000000000000; ////ContractToken.totalSupply();\n        } else {\n            designes[j].taup = _taup;\n        }\n\n        //Setting the value for expiry\n       /* if (_deltaExp == 0) {\n            designes[j].deltaExp = 600;\n        } else {\n            designes[j].deltaExp = _deltaExp;\n        }\n\n        //Setting the value for reveal\n        if (_deltaReveal == 0) {\n            designes[j].deltaReveal = 600;\n        } else {\n            designes[j].deltaReveal = _deltaReveal;\n        }*/\n        designes[j].deltaExp = 20000;\n        //designes[j].deltaReveal = 600;\n\n        //Set the status to be created\n        designes[j].status = 0;\n        designes[j].status1 = 0;\n        designes[j].status2 = 0;\n        //Incrementing the design index\n        numDesignes = numDesignes + 1;\n\n        designToken storage _design = trackDesignToken[j];\n        _design.committment = _commitment;\n\n\n        //ContractToken.transferFrom(msg.sender, address(SaleContract), _commitment);\n        //Emitting notification for new design creation.\n        //Verifiers receiving the notification can participate in the process\n        //Filehash to ensure file integrity\n        //Index to use for search\n        //Vendor address for source verification\n        emit newDesignAvailable(_fileHash, j, msg.sender);\n    }\n\n    //Reader function to get number of designes\n    function getNumDesignes() public view returns (uint256) {\n        return numDesignes;\n    }\n\n    //Reader function to get designe details at _index\n    function getDesigne(uint256 _index) public view returns (designState memory) {\n        return designes[_index];\n    }\n\n    //Function to add players to the system. This does not mean the player is registering to vote.\n    //function addPlayer(bytes32 _hashMsg, bytes memory _signature) public {\n    function addPlayer() public {\n        //Check for identity of the user registering\n        //(uint8 _v, bytes32 _r, bytes32 _s) = splitSignature(_signature);\n        //bytes32 prefixedHash = keccak256(abi.encodePacked(\"\\x19Ethereum Signed Message:\\n32\", _hashMsg));\n        //require(ecrecover(prefixedHash, _v, _r, _s) == msg.sender, \"The registration identity verification failed.\");\n\n        //Check for existing player\n        require( isPlayer [ msg.sender ] == 0, \"Player already added to the system.\");\n\n        //Push Player address\n        playerAddresses.push ( msg.sender );\n\n        //Set player to 1 to denote that player is added to the system\n        isPlayer [ msg.sender ] = 1;\n\n        //Initialize player requesting registration\n        players[msg.sender].reputation = 1;\n        players[msg.sender].weight = 1;\n\n        //Event for successful registration\n        emit newPlayerAddition(msg.sender, true);\n\n    }\n\n    //Reader function to get number of players\n    function getNumPlayers() public view returns (uint256) {\n        return playerAddresses.length;\n    }\n\n    //Reader function to get player's addresses\n    function getPlayerAddresses() public view returns (address[] memory) {\n        return playerAddresses;\n    }\n\n    //Reader function to get player details for _playerAddress.\n    //This does not include the vote, commitment, and design file received status\n    function getPlayerDetails(address _playerAddress) public view returns ( int256, uint256, uint256 ) {\n        return ( players[_playerAddress].reputation, players[_playerAddress].weight, players[_playerAddress].balance );\n    }\n\n    //Get commitment corresponding to design number and player\n    function getPlayerCommitment(address _playerAddress, uint256 _designNo) public view returns ( bytes32 ) {\n        return ( players[_playerAddress].commitments[_designNo] );\n    }\n\n    //Get vote corresponding to design number and player\n    function getPlayerVotePhase1(address _playerAddress, uint256 _designNo) public view returns ( int ) {\n        return ( players[_playerAddress].votes1[_designNo].votingStage1 );\n    }\n    function getPlayerVotePhase2(address _playerAddress, uint256 _designNo) public view returns ( int ) {\n        return ( players[_playerAddress].votes1[_designNo].votingStage2 );\n    }\n\n    //Check file received status corresponding to design number and player\n    function isFileReceived(address _playerAddress, uint256 _designNo) public view returns ( bool ) {\n        return ( players[_playerAddress].received[_designNo] );\n    }\n\n    //This function can be considered as expression of interest to take part in the voting and not to be confused with player registration to the system.\n    function register(/*bytes32 _hashMsg, bytes memory _signature,*/ uint256 _designNo, uint256 _commitment)\n        public payable\n    {\n        //Check of player is added to the system\n        require(isPlayer [ msg.sender ] == 1, \"Player not added to the system.\");\n\n        //Check for identity of the user registering\n        //(uint8 _v, bytes32 _r, bytes32 _s) = splitSignature(_signature);\n        //bytes memory prefix = \"\\x19Ethereum Signed Message:\\n32\";\n        //bytes32 prefixedHash = keccak256(abi.encodePacked(prefix, _hashMsg));\n       // require(ecrecover(prefixedHash, _v, _r, _s) == msg.sender, \"The registration identity verification failed.\");\n\n        //Check for positive commitment\n        require(_commitment > 0, \"The commitment should be more than 0.\");\n\n        //Check if the commitment parameter matches the commiment sent to the contract.\n        require(msg.value == _commitment, \"The registration didn't receive the commitment.\");\n\n        //Check if the commitment is less than penalty\n        require(_commitment >= designes[_designNo].taup, \"The commitment should be greater than the penalty.\");\n        //require(_commitment <= ContractToken.balanceOf(msg.sender), \"doesn't have enough tokens\");\n        //Check if the required number of verifiers are already meet\n        //require(regPlayers[_designNo].length < designes[_designNo].balance / designes[_designNo].taur, \"No more registrations are accepted.\");\n\n        //Check if already registered\n        require(checkPlayers[_designNo][msg.sender] == 0, \"Player already registered.\");\n        require(regPlayers[_designNo].length < designes[_designNo].balance / designes[_designNo].taur, \"No more registrations are accepted.\");\n\n        //Deposit the commitment into the wallet of the contract owner (token)\n        ///ContractToken.transfer(address(SaleContract), _commitment);\n\n        //Incrementing the player index and registration\n        checkPlayers[_designNo][msg.sender] = 1;\n        regPlayers[_designNo].push(msg.sender);\n        players[msg.sender].balance += msg.value;\n\n        trackDesignToken[_designNo].totalPlayers.push(msg.sender);\n        trackDesignToken[_designNo].stakes[msg.sender] = _commitment;\n\n        //Event for successful registration for a design\n        emit newPlayerRegistration(msg.sender, _designNo, true);\n    }\n\n    //Reader function to get number of registered players\n    function getNumRegPlayers(uint256 _designNo) public view returns (uint256) {\n        return regPlayers[_designNo].length;\n    }\n\n    //Reader function to get registered player's addresses\n    function getRegPlayerAddresses(uint256 _designNo) public view returns (address[] memory) {\n        return regPlayers[_designNo];\n    }\n\n   /* function setReceived(uint256 _designNo, address _playerAddress)\n        public payable\n    {\n        //Check if the sender is the manager responsible for secure exchange.\n        require(msg.sender == designes[_designNo].manager, \"Only manager can call this function.\");\n\n        //The manager sets the design received to be true\n        players[_playerAddress].received[_designNo] = true;\n        players[_playerAddress].designes.push(_designNo);\n\n        //An event is emitted after successful\n        emit playerDesignReceived(_designNo, _playerAddress);\n    }*/\n\n    /*function commit(uint256 _designNo, bytes32 _cryptoCommitment, uint256 _timestamp)\n        public\n    {\n        //Check if the player received the design and ready to vote.\n        //require(players[msg.sender].received[_designNo] == true, \"The player can commit only when manager confirms design exchange.\");\n\n        //Check for expiry\n        require(_timestamp <= designes[_designNo].timestamp + designes[_designNo].deltaExp, \"The player cannot vote after expiry.\");\n\n        //Store the commitment by the player\n        players[msg.sender].commitments[_designNo] = _cryptoCommitment;\n\n        //An event emitted after successful commitment of vote\n        emit playerCommitted(_designNo, msg.sender);\n    }*/\n    //In theory even if it is called reveal it should be refered to the voting action\n    function vote(uint256 _designNo, int _vote, /*bytes32 _nonce,*/ uint256 _timestamp)\n        public\n    {\n        ///////////////////////////////////////////////////////////////////\n        require(designes[_designNo].phase==votingState.first||designes[_designNo].phase==votingState.second,\"No voting aviable for design. \");\n        require(designes[_designNo].status == 0, \"Operation failed.\");\n        require(_timestamp <= designes[_designNo].timestamp + designes[_designNo].deltaExp + designes[_designNo].deltaReveal, \"The time has expired.\");\n        //Check the commitment\n\n        //Store the vote by the player\n        //players[msg.sender].votes[_designNo] = _vote;\n        if(designes[_designNo].phase==votingState.first){\n            players[msg.sender].votes1[_designNo].votingStage1 = _vote;\n            players[msg.sender].votes1[_designNo].reveal_1=revealVote.noReveal;\n        }\n        if(designes[_designNo].phase==votingState.first){\n            players[msg.sender].votes1[_designNo].votingStage2 = _vote;\n            players[msg.sender].votes1[_designNo].reveal_2=revealVote.noReveal;\n        }\n        //An event emitted after successful reveal of vote\n        emit playerRevealed(_designNo, msg.sender);\n    }\n\n    function reveal(uint256 _designNo,uint256 _timestamp)public{\n        \n\n        require(_timestamp > designes[_designNo].timestamp + designes[_designNo].deltaExp , \"The result cannot be revealed before the expiry.\");\n        if(designes[_designNo].phase==votingState.first){\n            players[msg.sender].votes1[_designNo].reveal_1=revealVote.reveal;\n        }\n\n        if(designes[_designNo].phase==votingState.second){\n            players[msg.sender].votes1[_designNo].reveal_2=revealVote.reveal;\n        }\n        emit playerRevealed(_designNo, msg.sender);\n        \n    }\n\n    /*function startNextPhase(uint256 _designNo,uint256 timestamp)public payable{\n\n        require(msg.sender==designes[_designNo].vendor,\"Operation not permitted. \");\n        require(timestamp>designes[_designNo].deltaExp+designes[_designNo].timestamp,\"Votation phase still going. \");\n        designes[_designNo].phase=votingState.second;\n        emit phase2Begin(_designNo, msg.sender, timestamp);\n\n\n\n    }*/\n\n    function getRevealedVotes()public{\n\n    }\n\n    function checkPhase(uint256 _designNo)public view returns(votingState){\n\n        return designes[_designNo].phase;\n\n\n    }\n\n\n\n\n    //Need to add a check to be sure that the player that make call \n    //has commited to that design\n\n\n\n\n    /////////////////////////////////////////////////////////////////////////////////////////\n    //Need to change result into a struct containing two result  \n    function playerCheckResult1(uint256 _designNo,uint256 _timestamp)public view returns(int){ \n        require(_timestamp>designes[_designNo].timestamp+designes[_designNo].deltaExp + designes[_designNo].deltaReveal,\"The time period has not expired yet. \");\n        require(designes[_designNo].status1==1,\"The result has not yet been revealed\");\n        return designes[_designNo].result;\n    }\n    function playerCheckResult2(uint256 _designNo,uint256 _timestamp)public view returns(int){ \n        require(_timestamp>designes[_designNo].timestamp+designes[_designNo].deltaExp + designes[_designNo].deltaReveal,\"The time period has not expired yet. \");\n        require(designes[_designNo].status2==1 && designes[_designNo].status1==1,\"The result has not yet been revealed\");\n        return designes[_designNo].result;\n\n\n    }\n    ///////////////////////////////////////////////////////////////////////////////////////////\n\n    //TODO Chiedere come viene utilizzata la variabile result\n    function calculateResult(uint256 _designNo, uint256 _timestamp)\n        public\n    {\n        //Only if we are in phase 1 or 2 the result can be calculated\n        require(designes[_designNo].phase==votingState.first||designes[_designNo].phase==votingState.second,\"Operation failed\");\n        require(msg.sender==designes[_designNo].vendor,\"Only the announcer can calculate the result\");\n        //Check the status of the voting. If already completed, then this function is not run.\n        //require(designes[_designNo].status == 0, \"The voting is already finished and results are declared.\");\n        require(designes[_designNo].status1 == 0 || designes[_designNo].status2==0, \"The voting is already finished and results are declared.\");\n\n        //Check for expiry. The result cannot be calculated before the expiry.\n        require(_timestamp > designes[_designNo].timestamp + designes[_designNo].deltaExp , \"The result cannot be revealed before the expiry.\");\n\n        //Since solidity do not support floating point arithematic, we will store the value as quotient and remainder.\n        //Here we are calculating the numerator and denominator.\n        int256 playerNum = 0;\n        int256 playerDen = 0;\n        for ( uint256 i = 0; i < regPlayers[_designNo].length; i++ ) {\n            //playerNum  += ( players[regPlayers[_designNo][i]].votes[_designNo] * int( players[regPlayers[_designNo][i]].weight ) * players[regPlayers[_designNo][i]].reputation );\n            //playerDen  += int ( players[regPlayers[_designNo][i]].weight ) * players[regPlayers[_designNo][i]].reputation;\n            if(designes[_designNo].phase==votingState.first)\n                playerNum  += ( players[regPlayers[_designNo][i]].votes1[_designNo].votingStage1 * int( players[regPlayers[_designNo][i]].weight ) * players[regPlayers[_designNo][i]].reputation );\n            \n            if(designes[_designNo].phase==votingState.second)\n                playerNum  += ( players[regPlayers[_designNo][i]].votes1[_designNo].votingStage2 * int( players[regPlayers[_designNo][i]].weight ) * players[regPlayers[_designNo][i]].reputation );\n\n            playerDen  += int ( players[regPlayers[_designNo][i]].weight ) * players[regPlayers[_designNo][i]].reputation;\n\n        \n        \n        }\n\n        //Here we are just calculating the remainder as the value varies from 0 to 1.\n        //The borderline case of same positive and negative votes is considered as correct (To be decided later)\n        int256 finalScoreQuo = ( playerNum + playerDen ) / ( 2 * playerDen );\n        int256 finalScoreRem = ( playerNum + playerDen ) % ( 2 * playerDen );\n        int result = 0;\n        if ( finalScoreQuo == 1 || finalScoreRem >= playerDen ) {\n            designes[_designNo].result = 1;\n            \n            \n        } else if ( finalScoreRem < playerDen ) {\n            designes[_designNo].result = -1;\n        }\n        result = designes[_designNo].result; //PROBABILE SOLUZIONE\n\n        for ( uint256 i = 0; i < regPlayers[_designNo].length; i++ ) {\n            if(designes[_designNo].phase==votingState.first){\n                if ( players[regPlayers[_designNo][i]].votes1[_designNo].votingStage1 > 0 ) {\n                    //Set new reputation\n                    players[regPlayers[_designNo][i]].reputation += players[regPlayers[_designNo][i]].votes1[_designNo].votingStage1 * result;\n\n                    //Set new weight (we only use the player weight. The total weight, which is used as normalization factor is eliminated in the final calculation.)\n                    players[regPlayers[_designNo][i]].weight += uint ( players[regPlayers[_designNo][i]].votes1[_designNo].votingStage1 * result );\n                } \n                else if( players[regPlayers[_designNo][i]].votes1[_designNo].votingStage2 > 0 ){\n                                        //Set new reputation\n                    players[regPlayers[_designNo][i]].reputation += players[regPlayers[_designNo][i]].votes1[_designNo].votingStage2 * result;\n\n                    //Set new weight (we only use the player weight. The total weight, which is used as normalization factor is eliminated in the final calculation.)\n                    players[regPlayers[_designNo][i]].weight += uint ( players[regPlayers[_designNo][i]].votes1[_designNo].votingStage2 * result );\n                }\n                \n                \n                else {\n                    //Set new reputation\n                    players[regPlayers[_designNo][i]].reputation += -1 * result;\n\n                    //Set new weight (we only use the player weight. The total weight, which is used as normalization factor is eliminated in the final calculation.)\n                    players[regPlayers[_designNo][i]].weight += uint ( -1 * result );\n                }\n            }\n        }\n\n        for ( uint256 i = 0; i < regPlayers[_designNo].length; i++ ) {\n            if(designes[_designNo].phase==votingState.first){\n                if ( players[regPlayers[_designNo][i]].votes1[_designNo].votingStage1 * result == 1) { // rimuovere * result\n                    players[regPlayers[_designNo][i]].balance += designes[_designNo].taur;\n                    //ContractToken.transferFrom(address(SaleContract), regPlayers[_designNo][i], designes[_designNo].taur);\n                    designes[_designNo].balance -= designes[_designNo].taur;\n                } \n            }\n\n            else if(designes[_designNo].phase==votingState.second){\n                if ( players[regPlayers[_designNo][i]].votes1[_designNo].votingStage2 * result == 1) { // rimuovere * result\n                    players[regPlayers[_designNo][i]].balance += designes[_designNo].taur;\n                    //ContractToken.transferFrom(address(SaleContract), regPlayers[_designNo][i], designes[_designNo].taur);\n                    designes[_designNo].balance -= designes[_designNo].taur;\n\n                }\n            }\n\n            else {\n                players[regPlayers[_designNo][i]].balance -= designes[_designNo].taup;\n                //ContractToken.transferFrom(regPlayers[_designNo][i], address(SaleContract), designes[_designNo].taup);\n                designes[_designNo].balance += designes[_designNo].taup;\n\n            }\n        }\n\n        //Set the status to finished\n        //designes[_designNo].status = 1;\n        if(designes[_designNo].phase==votingState.first)\n            designes[_designNo].status1 = 1;\n        if(designes[_designNo].phase==votingState.second)\n            designes[_designNo].status2=1;\n        //Setting the new phase start\n        if(designes[_designNo].result==1 && designes[_designNo].phase==votingState.first){\n            designes[_designNo].phase=votingState.second;\n            designes[_designNo].timestamp=_timestamp;\n\n        }\n\n\n        //Emit the notification for the result\n        emit votingResult(result);\n    }\n\n    //This is a utility function to extract ECDSA parameters from the signature.\n    function splitSignature(bytes memory sig)\n    private\n    pure\n    returns (uint8, bytes32, bytes32)\n    {\n        require(sig.length == 65);\n\n        bytes32 r;\n        bytes32 s;\n        uint8 v;\n\n        assembly {\n            // first 32 bytes, after the length prefix\n            r := mload(add(sig, 32))\n            // second 32 bytes\n            s := mload(add(sig, 64))\n            // final byte (first byte of the next 32 bytes)\n            v := byte(0, mload(add(sig, 96)))\n        }\n\n        if (v < 27) {\n            v += 27;\n        }\n\n        return (v, r, s);\n    }\n\n    function addPrinter(address _printerAddr, bytes32 _make, bytes32 _name, uint _strength, uint _flexibility, uint _durability, uint _difficulty, int _printTemperature,\n    int _bedTemperature, bool _soluble, bool _foodSafety)\n    public\n    {\n        //Check for existing player\n\n        require( isPlayer [ msg.sender ] == 1, \"Only registered player can add a printer.\");\n\n        //Setting up required properties\n        printers [ _printerAddr ].make = _make;\n        printers [ _printerAddr ].name = _name;\n        printers [ _printerAddr ].strength = _strength;\n        printers [ _printerAddr ].flexibility = _flexibility;\n        printers [ _printerAddr ].durability = _durability;\n        printers [ _printerAddr ].difficulty = _difficulty;\n        printers [ _printerAddr ].printTemperature = _printTemperature;\n        printers [ _printerAddr ].bedTemperature = _bedTemperature;\n        printers [ _printerAddr ].soluble = _soluble;\n        printers [ _printerAddr ].foodSafety = _foodSafety;\n\n        //Add printer address to the array\n        printerAddresses.push( _printerAddr );\n        isPrinter [ _printerAddr ] = 1;\n\n        //Mapping the player and the printer/s\n        userPrinters [ msg.sender ].push( _printerAddr );\n\n        //Emit the successfull addition\n        emit newPrinterAddition(_printerAddr, _name);\n    }\n\n    //Reader function to get number of printers registered by a user\n    function getUserPrinters(address _userAddress) public view returns (address[] memory) {\n        return userPrinters[ _userAddress ];\n    }\n\n    //Reader function to get printer details of printer identified by address\n    function getPrinterDetails(address _printerAddr) public view returns (printerDetails memory) {\n        return printers[ _printerAddr ];\n    }\n\n    //Reader function for number of printers registered\n    function getNumPrinters() public view returns (uint256) {\n        return printerAddresses.length;\n    }\n    //Reader function to get balance of players\n    function getBalance(address player) public view returns (uint256 amount) {\n        amount =  players[player].balance;\n        return amount;\n    }\n\n    event TokensClaimed(address indexed player, uint256 amount);\n\n\n    function claimTokens() public {\n\n            uint256 claimableTokens = getBalance(msg.sender);\n            require(claimableTokens > 0, \"No claimable tokens\");\n\n            //_claimedTokens[players[i]] += claimableTokens; Should be implemented a function that returns the claimed tokens\n            //ContractToken.transferFrom(address(SaleContract),msg.sender, claimableTokens);\n\n            //An event emitted after successful claim of tokens\n            emit TokensClaimed(msg.sender, claimableTokens);\n\n    }\n\n\n    /*\n    function addProof( uint256 _designNo, address _printerAddress, bytes32 _fileHash ) public {\n        //Check for existing player\n        require( isPlayer [ msg.sender ] == 1, \"Only registered player can add proof of printer.\");\n        //Check for existing printer\n        require( isPrinter [ _printerAddress ] == 1, \"Only proof from a registered printer can be added.\");\n        //Add the proof\n        printingProof [ _designNo ][ msg.sender ][ _printerAddress ] = _fileHash;\n        isProof [ _designNo ][ msg.sender ][ _printerAddress ] = true;\n        //Emit event\n        emit proofAdded( _designNo, msg.sender, _printerAddress);\n    }\n    */\n    function get_printingProcess(address _printerAddress)public view returns(printingProcess memory){\n        return printersWork[_printerAddress] ;\n    }\n\n    function printingBegin(address _printerAddress,uint256 startTimestamp,bytes32 designHash) public {\n\n        require( isPlayer [ msg.sender ] == 1, \"Only registered player can add proof of printer.\");\n\n        //Check for an existing printer\n        require( isPrinter [ _printerAddress ] == 1, \"Only proof from a registered printer can be added.\");\n\n        printersWork[_printerAddress].startTimestamp=startTimestamp;\n        printersWork[_printerAddress].designHash=designHash;\n    }\n\n\n    function end_of_printing(address _printerAddress,uint256 endTimestamp,bytes32 printingdataHash) public {\n\n        require( isPlayer [ msg.sender ] == 1, \"Only registered player can add proof of printer.\");\n\n        //Check for an existing printer\n        require( isPrinter [ _printerAddress ] == 1, \"Only proof from a registered printer can be added.\");\n\n        printersWork[_printerAddress].endTimestamp=endTimestamp;\n        printersWork[_printerAddress].printingdataHash=printingdataHash;\n\n    }\n\n\n    //Function to check if the researcher added the proof from the printer\n    function isProofPresent( uint256 _designNo, address _userAddress, address _printerAddress ) public view returns (bool) {\n        return isProof [ _designNo ][ _userAddress ][ _printerAddress ];\n    }\n} \n",
  "sourcePath": "/Users/antoniopipitone/Desktop/Air Factories 2.0/af2-smart-contract/contracts/VotingSystem1.sol",
  "compiler": {
    "name": "solc",
    "version": "0.8.7+commit.e28d00a7.Emscripten.clang"
  },
  "schemaVersion": "3.4.4",
  "updatedAt": "2022-02-26T19:07:45.651Z",
  "devdoc": {
    "kind": "dev",
    "methods": {},
    "version": 1
  },
  "userdoc": {
    "kind": "user",
    "methods": {},
    "version": 1
  }
}